{
  "address": "0x7779ec685Aa0bf5483B3e0c15dAf246d2d978888",
  "abi": [
    {
      "inputs": [
        {
          "internalType": "address",
          "name": "precogMaster",
          "type": "address"
        }
      ],
      "stateMutability": "nonpayable",
      "type": "constructor"
    },
    {
      "anonymous": false,
      "inputs": [
        {
          "indexed": true,
          "internalType": "address",
          "name": "owner",
          "type": "address"
        },
        {
          "indexed": true,
          "internalType": "address",
          "name": "spender",
          "type": "address"
        },
        {
          "indexed": false,
          "internalType": "uint256",
          "name": "value",
          "type": "uint256"
        }
      ],
      "name": "Approval",
      "type": "event"
    },
    {
      "anonymous": false,
      "inputs": [
        {
          "indexed": true,
          "internalType": "address",
          "name": "previousOwner",
          "type": "address"
        },
        {
          "indexed": true,
          "internalType": "address",
          "name": "newOwner",
          "type": "address"
        }
      ],
      "name": "OwnershipTransferred",
      "type": "event"
    },
    {
      "anonymous": false,
      "inputs": [
        {
          "indexed": true,
          "internalType": "address",
          "name": "from",
          "type": "address"
        },
        {
          "indexed": true,
          "internalType": "address",
          "name": "to",
          "type": "address"
        },
        {
          "indexed": false,
          "internalType": "uint256",
          "name": "value",
          "type": "uint256"
        }
      ],
      "name": "Transfer",
      "type": "event"
    },
    {
      "inputs": [
        {
          "internalType": "address",
          "name": "owner",
          "type": "address"
        },
        {
          "internalType": "address",
          "name": "spender",
          "type": "address"
        }
      ],
      "name": "allowance",
      "outputs": [
        {
          "internalType": "uint256",
          "name": "",
          "type": "uint256"
        }
      ],
      "stateMutability": "view",
      "type": "function"
    },
    {
      "inputs": [
        {
          "internalType": "address",
          "name": "spender",
          "type": "address"
        },
        {
          "internalType": "uint256",
          "name": "amount",
          "type": "uint256"
        }
      ],
      "name": "approve",
      "outputs": [
        {
          "internalType": "bool",
          "name": "",
          "type": "bool"
        }
      ],
      "stateMutability": "nonpayable",
      "type": "function"
    },
    {
      "inputs": [
        {
          "internalType": "address",
          "name": "account",
          "type": "address"
        }
      ],
      "name": "balanceOf",
      "outputs": [
        {
          "internalType": "uint256",
          "name": "",
          "type": "uint256"
        }
      ],
      "stateMutability": "view",
      "type": "function"
    },
    {
      "inputs": [
        {
          "internalType": "uint256",
          "name": "amount",
          "type": "uint256"
        }
      ],
      "name": "burn",
      "outputs": [],
      "stateMutability": "nonpayable",
      "type": "function"
    },
    {
      "inputs": [
        {
          "internalType": "address",
          "name": "from",
          "type": "address"
        },
        {
          "internalType": "uint256",
          "name": "amount",
          "type": "uint256"
        }
      ],
      "name": "burn",
      "outputs": [],
      "stateMutability": "nonpayable",
      "type": "function"
    },
    {
      "inputs": [
        {
          "internalType": "address",
          "name": "account",
          "type": "address"
        },
        {
          "internalType": "uint256",
          "name": "amount",
          "type": "uint256"
        }
      ],
      "name": "burnFrom",
      "outputs": [],
      "stateMutability": "nonpayable",
      "type": "function"
    },
    {
      "inputs": [],
      "name": "decimals",
      "outputs": [
        {
          "internalType": "uint8",
          "name": "",
          "type": "uint8"
        }
      ],
      "stateMutability": "view",
      "type": "function"
    },
    {
      "inputs": [
        {
          "internalType": "address",
          "name": "spender",
          "type": "address"
        },
        {
          "internalType": "uint256",
          "name": "subtractedValue",
          "type": "uint256"
        }
      ],
      "name": "decreaseAllowance",
      "outputs": [
        {
          "internalType": "bool",
          "name": "",
          "type": "bool"
        }
      ],
      "stateMutability": "nonpayable",
      "type": "function"
    },
    {
      "inputs": [
        {
          "internalType": "address",
          "name": "spender",
          "type": "address"
        },
        {
          "internalType": "uint256",
          "name": "addedValue",
          "type": "uint256"
        }
      ],
      "name": "increaseAllowance",
      "outputs": [
        {
          "internalType": "bool",
          "name": "",
          "type": "bool"
        }
      ],
      "stateMutability": "nonpayable",
      "type": "function"
    },
    {
      "inputs": [
        {
          "internalType": "address",
          "name": "to",
          "type": "address"
        },
        {
          "internalType": "uint256",
          "name": "amount",
          "type": "uint256"
        }
      ],
      "name": "mint",
      "outputs": [],
      "stateMutability": "nonpayable",
      "type": "function"
    },
    {
      "inputs": [
        {
          "internalType": "address",
          "name": "from",
          "type": "address"
        },
        {
          "internalType": "address",
          "name": "to",
          "type": "address"
        },
        {
          "internalType": "uint256",
          "name": "amount",
          "type": "uint256"
        }
      ],
      "name": "move",
      "outputs": [],
      "stateMutability": "nonpayable",
      "type": "function"
    },
    {
      "inputs": [],
      "name": "name",
      "outputs": [
        {
          "internalType": "string",
          "name": "",
          "type": "string"
        }
      ],
      "stateMutability": "view",
      "type": "function"
    },
    {
      "inputs": [],
      "name": "owner",
      "outputs": [
        {
          "internalType": "address",
          "name": "",
          "type": "address"
        }
      ],
      "stateMutability": "view",
      "type": "function"
    },
    {
      "inputs": [],
      "name": "renounceOwnership",
      "outputs": [],
      "stateMutability": "nonpayable",
      "type": "function"
    },
    {
      "inputs": [],
      "name": "symbol",
      "outputs": [
        {
          "internalType": "string",
          "name": "",
          "type": "string"
        }
      ],
      "stateMutability": "view",
      "type": "function"
    },
    {
      "inputs": [],
      "name": "totalSupply",
      "outputs": [
        {
          "internalType": "uint256",
          "name": "",
          "type": "uint256"
        }
      ],
      "stateMutability": "view",
      "type": "function"
    },
    {
      "inputs": [
        {
          "internalType": "address",
          "name": "recipient",
          "type": "address"
        },
        {
          "internalType": "uint256",
          "name": "amount",
          "type": "uint256"
        }
      ],
      "name": "transfer",
      "outputs": [
        {
          "internalType": "bool",
          "name": "",
          "type": "bool"
        }
      ],
      "stateMutability": "nonpayable",
      "type": "function"
    },
    {
      "inputs": [
        {
          "internalType": "address",
          "name": "sender",
          "type": "address"
        },
        {
          "internalType": "address",
          "name": "recipient",
          "type": "address"
        },
        {
          "internalType": "uint256",
          "name": "amount",
          "type": "uint256"
        }
      ],
      "name": "transferFrom",
      "outputs": [
        {
          "internalType": "bool",
          "name": "",
          "type": "bool"
        }
      ],
      "stateMutability": "nonpayable",
      "type": "function"
    },
    {
      "inputs": [
        {
          "internalType": "address",
          "name": "newOwner",
          "type": "address"
        }
      ],
      "name": "transferOwnership",
      "outputs": [],
      "stateMutability": "nonpayable",
      "type": "function"
    }
  ],
  "transactionHash": "0xf8436460c6bded60c497564be79705e8edb9c68eed1266d3822d74e415ed939b",
  "args": [
    "0x9475A4C1BF5Fc80aE079303f14B523da19619c16"
  ],
  "numDeployments": 1,
  "solcInputHash": "43aa3b72848934934ed14adfb8ec85cb",
  "bytecode": "0x60806040523480156200001157600080fd5b50604051620015d7380380620015d7833981810160405260208110156200003757600080fd5b5051604080518082018252600b81526a283932b1b7b3aa37b5b2b760a91b6020828101918252835180850190945260038085526250524560e81b91850191909152825192939262000089929062000240565b5080516200009f90600490602084019062000240565b50506005805460ff19166012179055506000620000bb62000112565b60058054610100600160a81b0319166101006001600160a01b0384169081029190911790915560405191925090600090600080516020620015b7833981519152908290a3506200010b8162000116565b50620002ec565b3390565b6200012062000112565b6001600160a01b0316620001336200022c565b6001600160a01b0316146200018f576040805162461bcd60e51b815260206004820181905260248201527f4f776e61626c653a2063616c6c6572206973206e6f7420746865206f776e6572604482015290519081900360640190fd5b6001600160a01b038116620001d65760405162461bcd60e51b8152600401808060200182810382526026815260200180620015916026913960400191505060405180910390fd5b6005546040516001600160a01b038084169261010090041690600080516020620015b783398151915290600090a3600580546001600160a01b0390921661010002610100600160a81b0319909216919091179055565b60055461010090046001600160a01b031690565b828054600181600116156101000203166002900490600052602060002090601f016020900481019282620002785760008555620002c3565b82601f106200029357805160ff1916838001178555620002c3565b82800160010185558215620002c3579182015b82811115620002c3578251825591602001919060010190620002a6565b50620002d1929150620002d5565b5090565b5b80821115620002d15760008155600101620002d6565b61129580620002fc6000396000f3fe608060405234801561001057600080fd5b50600436106101515760003560e01c8063715018a6116100cd578063a457c2d711610081578063bb35783b11610066578063bb35783b14610402578063dd62ed3e14610438578063f2fde38b1461046657610151565b8063a457c2d7146103aa578063a9059cbb146103d657610151565b80638da5cb5b116100b25780638da5cb5b1461035257806395d89b41146103765780639dc29fac1461037e57610151565b8063715018a61461031e57806379cc67901461032657610151565b8063313ce5671161012457806340c10f191161010957806340c10f19146102ad57806342966c68146102db57806370a08231146102f857610151565b8063313ce56714610263578063395093511461028157610151565b806306fdde0314610156578063095ea7b3146101d357806318160ddd1461021357806323b872dd1461022d575b600080fd5b61015e61048c565b6040805160208082528351818301528351919283929083019185019080838360005b83811015610198578181015183820152602001610180565b50505050905090810190601f1680156101c55780820380516001836020036101000a031916815260200191505b509250505060405180910390f35b6101ff600480360360408110156101e957600080fd5b506001600160a01b038135169060200135610522565b604080519115158252519081900360200190f35b61021b61053f565b60408051918252519081900360200190f35b6101ff6004803603606081101561024357600080fd5b506001600160a01b03813581169160208101359091169060400135610545565b61026b6105cc565b6040805160ff9092168252519081900360200190f35b6101ff6004803603604081101561029757600080fd5b506001600160a01b0381351690602001356105d5565b6102d9600480360360408110156102c357600080fd5b506001600160a01b038135169060200135610623565b005b6102d9600480360360208110156102f157600080fd5b50356106a5565b61021b6004803603602081101561030e57600080fd5b50356001600160a01b03166106b9565b6102d96106d4565b6102d96004803603604081101561033c57600080fd5b506001600160a01b0381351690602001356107a5565b61035a6107ff565b604080516001600160a01b039092168252519081900360200190f35b61015e610813565b6102d96004803603604081101561039457600080fd5b506001600160a01b038135169060200135610874565b6101ff600480360360408110156103c057600080fd5b506001600160a01b0381351690602001356108f2565b6101ff600480360360408110156103ec57600080fd5b506001600160a01b03813516906020013561095a565b6102d96004803603606081101561041857600080fd5b506001600160a01b0381358116916020810135909116906040013561096e565b61021b6004803603604081101561044e57600080fd5b506001600160a01b03813581169160200135166109ed565b6102d96004803603602081101561047c57600080fd5b50356001600160a01b0316610a18565b60038054604080516020601f60026000196101006001881615020190951694909404938401819004810282018101909252828152606093909290918301828280156105185780601f106104ed57610100808354040283529160200191610518565b820191906000526020600020905b8154815290600101906020018083116104fb57829003601f168201915b5050505050905090565b600061053661052f610b45565b8484610b49565b50600192915050565b60025490565b6000610552848484610c35565b6105c28461055e610b45565b6105bd85604051806060016040528060288152602001611185602891396001600160a01b038a1660009081526001602052604081209061059c610b45565b6001600160a01b031681526020810191909152604001600020549190610d90565b610b49565b5060019392505050565b60055460ff1690565b60006105366105e2610b45565b846105bd85600160006105f3610b45565b6001600160a01b03908116825260208083019390935260409182016000908120918c168152925290205490610e27565b61062b610b45565b6001600160a01b031661063c6107ff565b6001600160a01b031614610697576040805162461bcd60e51b815260206004820181905260248201527f4f776e61626c653a2063616c6c6572206973206e6f7420746865206f776e6572604482015290519081900360640190fd5b6106a18282610e88565b5050565b6106b66106b0610b45565b82610f78565b50565b6001600160a01b031660009081526020819052604090205490565b6106dc610b45565b6001600160a01b03166106ed6107ff565b6001600160a01b031614610748576040805162461bcd60e51b815260206004820181905260248201527f4f776e61626c653a2063616c6c6572206973206e6f7420746865206f776e6572604482015290519081900360640190fd5b60055460405160009161010090046001600160a01b0316907f8be0079c531659141344cd1fd0a4f28419497f9722a3daafe3b4186f6b6457e0908390a36005805474ffffffffffffffffffffffffffffffffffffffff0019169055565b60006107dc826040518060600160405280602481526020016111ad602491396107d5866107d0610b45565b6109ed565b9190610d90565b90506107f0836107ea610b45565b83610b49565b6107fa8383610f78565b505050565b60055461010090046001600160a01b031690565b60048054604080516020601f60026000196101006001881615020190951694909404938401819004810282018101909252828152606093909290918301828280156105185780601f106104ed57610100808354040283529160200191610518565b61087c610b45565b6001600160a01b031661088d6107ff565b6001600160a01b0316146108e8576040805162461bcd60e51b815260206004820181905260248201527f4f776e61626c653a2063616c6c6572206973206e6f7420746865206f776e6572604482015290519081900360640190fd5b6106a18282610f78565b60006105366108ff610b45565b846105bd8560405180606001604052806025815260200161123b6025913960016000610929610b45565b6001600160a01b03908116825260208083019390935260409182016000908120918d16815292529020549190610d90565b6000610536610967610b45565b8484610c35565b610976610b45565b6001600160a01b03166109876107ff565b6001600160a01b0316146109e2576040805162461bcd60e51b815260206004820181905260248201527f4f776e61626c653a2063616c6c6572206973206e6f7420746865206f776e6572604482015290519081900360640190fd5b6107fa838383610c35565b6001600160a01b03918216600090815260016020908152604080832093909416825291909152205490565b610a20610b45565b6001600160a01b0316610a316107ff565b6001600160a01b031614610a8c576040805162461bcd60e51b815260206004820181905260248201527f4f776e61626c653a2063616c6c6572206973206e6f7420746865206f776e6572604482015290519081900360640190fd5b6001600160a01b038116610ad15760405162461bcd60e51b81526004018080602001828103825260268152602001806111176026913960400191505060405180910390fd5b6005546040516001600160a01b0380841692610100900416907f8be0079c531659141344cd1fd0a4f28419497f9722a3daafe3b4186f6b6457e090600090a3600580546001600160a01b039092166101000274ffffffffffffffffffffffffffffffffffffffff0019909216919091179055565b3390565b6001600160a01b038316610b8e5760405162461bcd60e51b81526004018080602001828103825260248152602001806112176024913960400191505060405180910390fd5b6001600160a01b038216610bd35760405162461bcd60e51b815260040180806020018281038252602281526020018061113d6022913960400191505060405180910390fd5b6001600160a01b03808416600081815260016020908152604080832094871680845294825291829020859055815185815291517f8c5be1e5ebec7d5bd14f71427d1e84f3dd0314c0f7b2291e5b200ac8c7c3b9259281900390910190a3505050565b6001600160a01b038316610c7a5760405162461bcd60e51b81526004018080602001828103825260258152602001806111f26025913960400191505060405180910390fd5b6001600160a01b038216610cbf5760405162461bcd60e51b81526004018080602001828103825260238152602001806110d26023913960400191505060405180910390fd5b610cca8383836107fa565b610d078160405180606001604052806026815260200161115f602691396001600160a01b0386166000908152602081905260409020549190610d90565b6001600160a01b038085166000908152602081905260408082209390935590841681522054610d369082610e27565b6001600160a01b038084166000818152602081815260409182902094909455805185815290519193928716927fddf252ad1be2c89b69c2b068fc378daa952ba7f163c4a11628f55a4df523b3ef92918290030190a3505050565b60008184841115610e1f5760405162461bcd60e51b81526004018080602001828103825283818151815260200191508051906020019080838360005b83811015610de4578181015183820152602001610dcc565b50505050905090810190601f168015610e115780820380516001836020036101000a031916815260200191505b509250505060405180910390fd5b505050900390565b600082820183811015610e81576040805162461bcd60e51b815260206004820152601b60248201527f536166654d6174683a206164646974696f6e206f766572666c6f770000000000604482015290519081900360640190fd5b9392505050565b6001600160a01b038216610ee3576040805162461bcd60e51b815260206004820152601f60248201527f45524332303a206d696e7420746f20746865207a65726f206164647265737300604482015290519081900360640190fd5b610eef600083836107fa565b600254610efc9082610e27565b6002556001600160a01b038216600090815260208190526040902054610f229082610e27565b6001600160a01b0383166000818152602081815260408083209490945583518581529351929391927fddf252ad1be2c89b69c2b068fc378daa952ba7f163c4a11628f55a4df523b3ef9281900390910190a35050565b6001600160a01b038216610fbd5760405162461bcd60e51b81526004018080602001828103825260218152602001806111d16021913960400191505060405180910390fd5b610fc9826000836107fa565b611006816040518060600160405280602281526020016110f5602291396001600160a01b0385166000908152602081905260409020549190610d90565b6001600160a01b03831660009081526020819052604090205560025461102c9082611074565b6002556040805182815290516000916001600160a01b038516917fddf252ad1be2c89b69c2b068fc378daa952ba7f163c4a11628f55a4df523b3ef9181900360200190a35050565b6000828211156110cb576040805162461bcd60e51b815260206004820152601e60248201527f536166654d6174683a207375627472616374696f6e206f766572666c6f770000604482015290519081900360640190fd5b5090039056fe45524332303a207472616e7366657220746f20746865207a65726f206164647265737345524332303a206275726e20616d6f756e7420657863656564732062616c616e63654f776e61626c653a206e6577206f776e657220697320746865207a65726f206164647265737345524332303a20617070726f766520746f20746865207a65726f206164647265737345524332303a207472616e7366657220616d6f756e7420657863656564732062616c616e636545524332303a207472616e7366657220616d6f756e74206578636565647320616c6c6f77616e636545524332303a206275726e20616d6f756e74206578636565647320616c6c6f77616e636545524332303a206275726e2066726f6d20746865207a65726f206164647265737345524332303a207472616e736665722066726f6d20746865207a65726f206164647265737345524332303a20617070726f76652066726f6d20746865207a65726f206164647265737345524332303a2064656372656173656420616c6c6f77616e63652062656c6f77207a65726fa2646970667358221220c42f093fc201f4cc7307e97ce8893a03614062bc2591486339a9312fbdac580364736f6c634300070600334f776e61626c653a206e6577206f776e657220697320746865207a65726f20616464726573738be0079c531659141344cd1fd0a4f28419497f9722a3daafe3b4186f6b6457e0",
  "devdoc": {
    "kind": "dev",
    "methods": {
      "allowance(address,address)": {
        "details": "See {IERC20-allowance}."
      },
      "approve(address,uint256)": {
        "details": "See {IERC20-approve}. Requirements: - `spender` cannot be the zero address."
      },
      "balanceOf(address)": {
        "details": "See {IERC20-balanceOf}."
      },
      "burn(uint256)": {
        "details": "Destroys `amount` tokens from the caller. See {ERC20-_burn}."
      },
      "burnFrom(address,uint256)": {
        "details": "Destroys `amount` tokens from `account`, deducting from the caller's allowance. See {ERC20-_burn} and {ERC20-allowance}. Requirements: - the caller must have allowance for ``accounts``'s tokens of at least `amount`."
      },
      "decimals()": {
        "details": "Returns the number of decimals used to get its user representation. For example, if `decimals` equals `2`, a balance of `505` tokens should be displayed to a user as `5,05` (`505 / 10 ** 2`). Tokens usually opt for a value of 18, imitating the relationship between Ether and Wei. This is the value {ERC20} uses, unless {_setupDecimals} is called. NOTE: This information is only used for _display_ purposes: it in no way affects any of the arithmetic of the contract, including {IERC20-balanceOf} and {IERC20-transfer}."
      },
      "decreaseAllowance(address,uint256)": {
        "details": "Atomically decreases the allowance granted to `spender` by the caller. This is an alternative to {approve} that can be used as a mitigation for problems described in {IERC20-approve}. Emits an {Approval} event indicating the updated allowance. Requirements: - `spender` cannot be the zero address. - `spender` must have allowance for the caller of at least `subtractedValue`."
      },
      "increaseAllowance(address,uint256)": {
        "details": "Atomically increases the allowance granted to `spender` by the caller. This is an alternative to {approve} that can be used as a mitigation for problems described in {IERC20-approve}. Emits an {Approval} event indicating the updated allowance. Requirements: - `spender` cannot be the zero address."
      },
      "name()": {
        "details": "Returns the name of the token."
      },
      "owner()": {
        "details": "Returns the address of the current owner."
      },
      "renounceOwnership()": {
        "details": "Leaves the contract without owner. It will not be possible to call `onlyOwner` functions anymore. Can only be called by the current owner. NOTE: Renouncing ownership will leave the contract without an owner, thereby removing any functionality that is only available to the owner."
      },
      "symbol()": {
        "details": "Returns the symbol of the token, usually a shorter version of the name."
      },
      "totalSupply()": {
        "details": "See {IERC20-totalSupply}."
      },
      "transfer(address,uint256)": {
        "details": "See {IERC20-transfer}. Requirements: - `recipient` cannot be the zero address. - the caller must have a balance of at least `amount`."
      },
      "transferFrom(address,address,uint256)": {
        "details": "See {IERC20-transferFrom}. Emits an {Approval} event indicating the updated allowance. This is not required by the EIP. See the note at the beginning of {ERC20}. Requirements: - `sender` and `recipient` cannot be the zero address. - `sender` must have a balance of at least `amount`. - the caller must have allowance for ``sender``'s tokens of at least `amount`."
      },
      "transferOwnership(address)": {
        "details": "Transfers ownership of the contract to a new account (`newOwner`). Can only be called by the current owner."
      }
    },
    "version": 1
  },
  "userdoc": {
    "kind": "user",
    "methods": {},
    "version": 1
  },
  "storageLayout": {
    "storage": [
      {
        "astId": 844,
        "contract": "contracts/PrecogToken.sol:PrecogToken",
        "label": "_balances",
        "offset": 0,
        "slot": "0",
        "type": "t_mapping(t_address,t_uint256)"
      },
      {
        "astId": 850,
        "contract": "contracts/PrecogToken.sol:PrecogToken",
        "label": "_allowances",
        "offset": 0,
        "slot": "1",
        "type": "t_mapping(t_address,t_mapping(t_address,t_uint256))"
      },
      {
        "astId": 852,
        "contract": "contracts/PrecogToken.sol:PrecogToken",
        "label": "_totalSupply",
        "offset": 0,
        "slot": "2",
        "type": "t_uint256"
      },
      {
        "astId": 854,
        "contract": "contracts/PrecogToken.sol:PrecogToken",
        "label": "_name",
        "offset": 0,
        "slot": "3",
        "type": "t_string_storage"
      },
      {
        "astId": 856,
        "contract": "contracts/PrecogToken.sol:PrecogToken",
        "label": "_symbol",
        "offset": 0,
        "slot": "4",
        "type": "t_string_storage"
      },
      {
        "astId": 858,
        "contract": "contracts/PrecogToken.sol:PrecogToken",
        "label": "_decimals",
        "offset": 0,
        "slot": "5",
        "type": "t_uint8"
      },
      {
        "astId": 290,
        "contract": "contracts/PrecogToken.sol:PrecogToken",
        "label": "_owner",
        "offset": 1,
        "slot": "5",
        "type": "t_address"
      }
    ],
    "types": {
      "t_address": {
        "encoding": "inplace",
        "label": "address",
        "numberOfBytes": "20"
      },
      "t_mapping(t_address,t_mapping(t_address,t_uint256))": {
        "encoding": "mapping",
        "key": "t_address",
        "label": "mapping(address => mapping(address => uint256))",
        "numberOfBytes": "32",
        "value": "t_mapping(t_address,t_uint256)"
      },
      "t_mapping(t_address,t_uint256)": {
        "encoding": "mapping",
        "key": "t_address",
        "label": "mapping(address => uint256)",
        "numberOfBytes": "32",
        "value": "t_uint256"
      },
      "t_string_storage": {
        "encoding": "bytes",
        "label": "string",
        "numberOfBytes": "32"
      },
      "t_uint256": {
        "encoding": "inplace",
        "label": "uint256",
        "numberOfBytes": "32"
      },
      "t_uint8": {
        "encoding": "inplace",
        "label": "uint8",
        "numberOfBytes": "1"
      }
    }
  }
}