{
  "address": "0xd7bE03206daFa4552ab58CD3CFC191426404C77D",
  "abi": [
    {
      "inputs": [
        {
          "internalType": "address",
          "name": "initialAdmin",
          "type": "address"
        }
      ],
      "stateMutability": "nonpayable",
      "type": "constructor"
    },
    {
      "anonymous": false,
      "inputs": [
        {
          "indexed": true,
          "internalType": "bytes32",
          "name": "role",
          "type": "bytes32"
        },
        {
          "indexed": true,
          "internalType": "bytes32",
          "name": "previousAdminRole",
          "type": "bytes32"
        },
        {
          "indexed": true,
          "internalType": "bytes32",
          "name": "newAdminRole",
          "type": "bytes32"
        }
      ],
      "name": "RoleAdminChanged",
      "type": "event"
    },
    {
      "anonymous": false,
      "inputs": [
        {
          "indexed": true,
          "internalType": "bytes32",
          "name": "role",
          "type": "bytes32"
        },
        {
          "indexed": true,
          "internalType": "address",
          "name": "account",
          "type": "address"
        },
        {
          "indexed": true,
          "internalType": "address",
          "name": "sender",
          "type": "address"
        }
      ],
      "name": "RoleGranted",
      "type": "event"
    },
    {
      "anonymous": false,
      "inputs": [
        {
          "indexed": true,
          "internalType": "bytes32",
          "name": "role",
          "type": "bytes32"
        },
        {
          "indexed": true,
          "internalType": "address",
          "name": "account",
          "type": "address"
        },
        {
          "indexed": true,
          "internalType": "address",
          "name": "sender",
          "type": "address"
        }
      ],
      "name": "RoleRevoked",
      "type": "event"
    },
    {
      "inputs": [],
      "name": "ADMIN_ROLE",
      "outputs": [
        {
          "internalType": "bytes32",
          "name": "",
          "type": "bytes32"
        }
      ],
      "stateMutability": "view",
      "type": "function"
    },
    {
      "inputs": [],
      "name": "DEFAULT_ADMIN_ROLE",
      "outputs": [
        {
          "internalType": "bytes32",
          "name": "",
          "type": "bytes32"
        }
      ],
      "stateMutability": "view",
      "type": "function"
    },
    {
      "inputs": [],
      "name": "REPORTER_ROLE",
      "outputs": [
        {
          "internalType": "bytes32",
          "name": "",
          "type": "bytes32"
        }
      ],
      "stateMutability": "view",
      "type": "function"
    },
    {
      "inputs": [
        {
          "internalType": "address",
          "name": "account",
          "type": "address"
        }
      ],
      "name": "addAdmin",
      "outputs": [],
      "stateMutability": "nonpayable",
      "type": "function"
    },
    {
      "inputs": [
        {
          "internalType": "uint256",
          "name": "marketId",
          "type": "uint256"
        },
        {
          "internalType": "address",
          "name": "account",
          "type": "address"
        }
      ],
      "name": "addMarketReporter",
      "outputs": [],
      "stateMutability": "nonpayable",
      "type": "function"
    },
    {
      "inputs": [
        {
          "internalType": "address",
          "name": "account",
          "type": "address"
        }
      ],
      "name": "addReporter",
      "outputs": [],
      "stateMutability": "nonpayable",
      "type": "function"
    },
    {
      "inputs": [
        {
          "internalType": "uint256",
          "name": "marketId",
          "type": "uint256"
        },
        {
          "internalType": "bytes32",
          "name": "answer",
          "type": "bytes32"
        },
        {
          "internalType": "uint256",
          "name": "maxPrevious",
          "type": "uint256"
        },
        {
          "internalType": "uint256",
          "name": "bond",
          "type": "uint256"
        }
      ],
      "name": "answerOpenQuestion",
      "outputs": [],
      "stateMutability": "payable",
      "type": "function"
    },
    {
      "inputs": [],
      "name": "arbitrator",
      "outputs": [
        {
          "internalType": "address",
          "name": "",
          "type": "address"
        }
      ],
      "stateMutability": "view",
      "type": "function"
    },
    {
      "inputs": [
        {
          "internalType": "address",
          "name": "account",
          "type": "address"
        }
      ],
      "name": "getAccountPermissions",
      "outputs": [
        {
          "internalType": "bool",
          "name": "isAdmin",
          "type": "bool"
        },
        {
          "internalType": "bool",
          "name": "isGlobalReporter",
          "type": "bool"
        }
      ],
      "stateMutability": "view",
      "type": "function"
    },
    {
      "inputs": [
        {
          "internalType": "uint256",
          "name": "marketId",
          "type": "uint256"
        }
      ],
      "name": "getMarketState",
      "outputs": [
        {
          "internalType": "bool",
          "name": "isRegistered",
          "type": "bool"
        },
        {
          "internalType": "bool",
          "name": "isAnswered",
          "type": "bool"
        },
        {
          "internalType": "bool",
          "name": "isFinalized",
          "type": "bool"
        },
        {
          "internalType": "bool",
          "name": "isReported",
          "type": "bool"
        }
      ],
      "stateMutability": "view",
      "type": "function"
    },
    {
      "inputs": [],
      "name": "getRealityBalance",
      "outputs": [
        {
          "internalType": "uint256",
          "name": "",
          "type": "uint256"
        }
      ],
      "stateMutability": "view",
      "type": "function"
    },
    {
      "inputs": [
        {
          "internalType": "uint256",
          "name": "marketId",
          "type": "uint256"
        }
      ],
      "name": "getRealityQuestionInfo",
      "outputs": [
        {
          "internalType": "bytes32",
          "name": "questionId",
          "type": "bytes32"
        },
        {
          "internalType": "uint32",
          "name": "openingTS",
          "type": "uint32"
        },
        {
          "internalType": "uint32",
          "name": "timeout",
          "type": "uint32"
        },
        {
          "internalType": "uint256",
          "name": "bounty",
          "type": "uint256"
        },
        {
          "internalType": "uint256",
          "name": "bond",
          "type": "uint256"
        }
      ],
      "stateMutability": "view",
      "type": "function"
    },
    {
      "inputs": [
        {
          "internalType": "uint256",
          "name": "marketId",
          "type": "uint256"
        }
      ],
      "name": "getRealityResultInfo",
      "outputs": [
        {
          "internalType": "bytes32",
          "name": "questionId",
          "type": "bytes32"
        },
        {
          "internalType": "bytes32",
          "name": "answer",
          "type": "bytes32"
        },
        {
          "internalType": "uint32",
          "name": "finalizeTS",
          "type": "uint32"
        },
        {
          "internalType": "bytes32",
          "name": "lastHash",
          "type": "bytes32"
        },
        {
          "internalType": "bool",
          "name": "isFinalized",
          "type": "bool"
        },
        {
          "internalType": "bool",
          "name": "isPendingArbitration",
          "type": "bool"
        }
      ],
      "stateMutability": "view",
      "type": "function"
    },
    {
      "inputs": [
        {
          "internalType": "bytes32",
          "name": "role",
          "type": "bytes32"
        }
      ],
      "name": "getRoleAdmin",
      "outputs": [
        {
          "internalType": "bytes32",
          "name": "",
          "type": "bytes32"
        }
      ],
      "stateMutability": "view",
      "type": "function"
    },
    {
      "inputs": [
        {
          "internalType": "bytes32",
          "name": "role",
          "type": "bytes32"
        },
        {
          "internalType": "uint256",
          "name": "index",
          "type": "uint256"
        }
      ],
      "name": "getRoleMember",
      "outputs": [
        {
          "internalType": "address",
          "name": "",
          "type": "address"
        }
      ],
      "stateMutability": "view",
      "type": "function"
    },
    {
      "inputs": [
        {
          "internalType": "bytes32",
          "name": "role",
          "type": "bytes32"
        }
      ],
      "name": "getRoleMemberCount",
      "outputs": [
        {
          "internalType": "uint256",
          "name": "",
          "type": "uint256"
        }
      ],
      "stateMutability": "view",
      "type": "function"
    },
    {
      "inputs": [
        {
          "internalType": "bytes32",
          "name": "role",
          "type": "bytes32"
        },
        {
          "internalType": "address",
          "name": "account",
          "type": "address"
        }
      ],
      "name": "grantRole",
      "outputs": [],
      "stateMutability": "nonpayable",
      "type": "function"
    },
    {
      "inputs": [
        {
          "internalType": "bytes32",
          "name": "role",
          "type": "bytes32"
        },
        {
          "internalType": "address",
          "name": "account",
          "type": "address"
        }
      ],
      "name": "hasRole",
      "outputs": [
        {
          "internalType": "bool",
          "name": "",
          "type": "bool"
        }
      ],
      "stateMutability": "view",
      "type": "function"
    },
    {
      "inputs": [
        {
          "internalType": "uint256",
          "name": "marketId",
          "type": "uint256"
        }
      ],
      "name": "isMarketRegistered",
      "outputs": [
        {
          "internalType": "bool",
          "name": "",
          "type": "bool"
        }
      ],
      "stateMutability": "view",
      "type": "function"
    },
    {
      "inputs": [
        {
          "internalType": "uint256",
          "name": "marketId",
          "type": "uint256"
        },
        {
          "internalType": "address",
          "name": "account",
          "type": "address"
        }
      ],
      "name": "isMarketReporter",
      "outputs": [
        {
          "internalType": "bool",
          "name": "",
          "type": "bool"
        }
      ],
      "stateMutability": "view",
      "type": "function"
    },
    {
      "inputs": [
        {
          "internalType": "uint256",
          "name": "marketId",
          "type": "uint256"
        },
        {
          "internalType": "address[]",
          "name": "accounts",
          "type": "address[]"
        }
      ],
      "name": "marketRedeemBatch",
      "outputs": [
        {
          "internalType": "uint256",
          "name": "",
          "type": "uint256"
        }
      ],
      "stateMutability": "nonpayable",
      "type": "function"
    },
    {
      "inputs": [
        {
          "internalType": "uint256",
          "name": "",
          "type": "uint256"
        },
        {
          "internalType": "address",
          "name": "",
          "type": "address"
        }
      ],
      "name": "marketReporters",
      "outputs": [
        {
          "internalType": "bool",
          "name": "",
          "type": "bool"
        }
      ],
      "stateMutability": "view",
      "type": "function"
    },
    {
      "inputs": [
        {
          "internalType": "uint256",
          "name": "",
          "type": "uint256"
        }
      ],
      "name": "markets",
      "outputs": [
        {
          "internalType": "address",
          "name": "market",
          "type": "address"
        },
        {
          "internalType": "bytes32",
          "name": "questionId",
          "type": "bytes32"
        },
        {
          "internalType": "string",
          "name": "outcomes",
          "type": "string"
        },
        {
          "internalType": "bool",
          "name": "answered",
          "type": "bool"
        },
        {
          "internalType": "uint256",
          "name": "resultIndex",
          "type": "uint256"
        },
        {
          "internalType": "string",
          "name": "resultLabel",
          "type": "string"
        }
      ],
      "stateMutability": "view",
      "type": "function"
    },
    {
      "inputs": [],
      "name": "maxAnswerBond",
      "outputs": [
        {
          "internalType": "uint256",
          "name": "",
          "type": "uint256"
        }
      ],
      "stateMutability": "view",
      "type": "function"
    },
    {
      "inputs": [
        {
          "internalType": "uint256",
          "name": "marketId",
          "type": "uint256"
        },
        {
          "internalType": "uint256",
          "name": "bounty",
          "type": "uint256"
        },
        {
          "internalType": "uint32",
          "name": "templateId",
          "type": "uint32"
        },
        {
          "internalType": "string",
          "name": "question",
          "type": "string"
        },
        {
          "internalType": "string[]",
          "name": "outcomes",
          "type": "string[]"
        },
        {
          "internalType": "string",
          "name": "category",
          "type": "string"
        },
        {
          "internalType": "uint32",
          "name": "timeout",
          "type": "uint32"
        },
        {
          "internalType": "uint32",
          "name": "startTime",
          "type": "uint32"
        }
      ],
      "name": "openQuestion",
      "outputs": [
        {
          "internalType": "bytes32",
          "name": "questionId",
          "type": "bytes32"
        }
      ],
      "stateMutability": "payable",
      "type": "function"
    },
    {
      "inputs": [],
      "name": "precogMaster",
      "outputs": [
        {
          "internalType": "address",
          "name": "",
          "type": "address"
        }
      ],
      "stateMutability": "view",
      "type": "function"
    },
    {
      "inputs": [],
      "name": "reality",
      "outputs": [
        {
          "internalType": "address",
          "name": "",
          "type": "address"
        }
      ],
      "stateMutability": "view",
      "type": "function"
    },
    {
      "inputs": [
        {
          "internalType": "bytes32",
          "name": "questionId",
          "type": "bytes32"
        },
        {
          "internalType": "bytes32[]",
          "name": "historyHashes",
          "type": "bytes32[]"
        },
        {
          "internalType": "address[]",
          "name": "answerers",
          "type": "address[]"
        },
        {
          "internalType": "uint256[]",
          "name": "bonds",
          "type": "uint256[]"
        },
        {
          "internalType": "bytes32[]",
          "name": "answers",
          "type": "bytes32[]"
        }
      ],
      "name": "realityClaimWinnings",
      "outputs": [],
      "stateMutability": "nonpayable",
      "type": "function"
    },
    {
      "inputs": [
        {
          "internalType": "uint256",
          "name": "bounty",
          "type": "uint256"
        },
        {
          "internalType": "uint32",
          "name": "templateId",
          "type": "uint32"
        },
        {
          "internalType": "string",
          "name": "question",
          "type": "string"
        },
        {
          "internalType": "string[]",
          "name": "outcomes",
          "type": "string[]"
        },
        {
          "internalType": "string",
          "name": "category",
          "type": "string"
        },
        {
          "internalType": "uint32",
          "name": "timeout",
          "type": "uint32"
        },
        {
          "internalType": "uint32",
          "name": "startTime",
          "type": "uint32"
        },
        {
          "internalType": "uint32",
          "name": "nonce",
          "type": "uint32"
        }
      ],
      "name": "realityOpenQuestion",
      "outputs": [
        {
          "internalType": "bytes32",
          "name": "questionId",
          "type": "bytes32"
        }
      ],
      "stateMutability": "payable",
      "type": "function"
    },
    {
      "inputs": [
        {
          "internalType": "uint256",
          "name": "bond",
          "type": "uint256"
        },
        {
          "internalType": "bytes32",
          "name": "questionId",
          "type": "bytes32"
        },
        {
          "internalType": "bytes32",
          "name": "answer",
          "type": "bytes32"
        },
        {
          "internalType": "uint256",
          "name": "maxPrevious",
          "type": "uint256"
        },
        {
          "internalType": "address",
          "name": "answerer",
          "type": "address"
        }
      ],
      "name": "realitySubmitAnswerFor",
      "outputs": [],
      "stateMutability": "payable",
      "type": "function"
    },
    {
      "inputs": [],
      "name": "realityWithdraw",
      "outputs": [],
      "stateMutability": "nonpayable",
      "type": "function"
    },
    {
      "inputs": [
        {
          "internalType": "uint256",
          "name": "id",
          "type": "uint256"
        },
        {
          "internalType": "address",
          "name": "market",
          "type": "address"
        },
        {
          "internalType": "address[]",
          "name": "initialReporters",
          "type": "address[]"
        }
      ],
      "name": "registerMarket",
      "outputs": [],
      "stateMutability": "nonpayable",
      "type": "function"
    },
    {
      "inputs": [
        {
          "internalType": "address",
          "name": "account",
          "type": "address"
        }
      ],
      "name": "removeAdmin",
      "outputs": [],
      "stateMutability": "nonpayable",
      "type": "function"
    },
    {
      "inputs": [
        {
          "internalType": "uint256",
          "name": "marketId",
          "type": "uint256"
        },
        {
          "internalType": "address",
          "name": "account",
          "type": "address"
        }
      ],
      "name": "removeMarketReporter",
      "outputs": [],
      "stateMutability": "nonpayable",
      "type": "function"
    },
    {
      "inputs": [
        {
          "internalType": "address",
          "name": "account",
          "type": "address"
        }
      ],
      "name": "removeReporter",
      "outputs": [],
      "stateMutability": "nonpayable",
      "type": "function"
    },
    {
      "inputs": [
        {
          "internalType": "bytes32",
          "name": "role",
          "type": "bytes32"
        },
        {
          "internalType": "address",
          "name": "account",
          "type": "address"
        }
      ],
      "name": "renounceRole",
      "outputs": [],
      "stateMutability": "nonpayable",
      "type": "function"
    },
    {
      "inputs": [
        {
          "internalType": "uint256",
          "name": "marketId",
          "type": "uint256"
        }
      ],
      "name": "reportResult",
      "outputs": [],
      "stateMutability": "nonpayable",
      "type": "function"
    },
    {
      "inputs": [
        {
          "internalType": "bytes32",
          "name": "role",
          "type": "bytes32"
        },
        {
          "internalType": "address",
          "name": "account",
          "type": "address"
        }
      ],
      "name": "revokeRole",
      "outputs": [],
      "stateMutability": "nonpayable",
      "type": "function"
    },
    {
      "inputs": [
        {
          "internalType": "address",
          "name": "arbitratorProxy",
          "type": "address"
        }
      ],
      "name": "setArbitrator",
      "outputs": [],
      "stateMutability": "nonpayable",
      "type": "function"
    },
    {
      "inputs": [
        {
          "internalType": "uint256",
          "name": "maxBond",
          "type": "uint256"
        }
      ],
      "name": "setMaxAnswerBond",
      "outputs": [],
      "stateMutability": "nonpayable",
      "type": "function"
    },
    {
      "inputs": [
        {
          "internalType": "address",
          "name": "master",
          "type": "address"
        }
      ],
      "name": "setPrecogMaster",
      "outputs": [],
      "stateMutability": "nonpayable",
      "type": "function"
    },
    {
      "inputs": [
        {
          "internalType": "address",
          "name": "realityProxy",
          "type": "address"
        }
      ],
      "name": "setReality",
      "outputs": [],
      "stateMutability": "nonpayable",
      "type": "function"
    },
    {
      "inputs": [
        {
          "internalType": "uint256",
          "name": "marketId",
          "type": "uint256"
        },
        {
          "internalType": "uint32",
          "name": "templateId",
          "type": "uint32"
        },
        {
          "internalType": "string",
          "name": "question",
          "type": "string"
        },
        {
          "internalType": "string[]",
          "name": "outcomes",
          "type": "string[]"
        },
        {
          "internalType": "string",
          "name": "category",
          "type": "string"
        },
        {
          "internalType": "uint32",
          "name": "timeout",
          "type": "uint32"
        },
        {
          "internalType": "uint32",
          "name": "startTime",
          "type": "uint32"
        },
        {
          "internalType": "bytes32",
          "name": "answer",
          "type": "bytes32"
        },
        {
          "internalType": "uint256",
          "name": "bond",
          "type": "uint256"
        }
      ],
      "name": "submitResult",
      "outputs": [
        {
          "internalType": "bytes32",
          "name": "questionId",
          "type": "bytes32"
        }
      ],
      "stateMutability": "payable",
      "type": "function"
    },
    {
      "inputs": [
        {
          "internalType": "address",
          "name": "_token",
          "type": "address"
        }
      ],
      "name": "withdraw",
      "outputs": [],
      "stateMutability": "nonpayable",
      "type": "function"
    },
    {
      "stateMutability": "payable",
      "type": "receive"
    }
  ],
  "transactionHash": "0x27d3c3c20e1d453100093de48f4bc80c078fd4e6d425694004b1c2234e089014",
  "args": [
    "0x9475A4C1BF5Fc80aE079303f14B523da19619c16"
  ],
  "numDeployments": 1,
  "solcInputHash": "2989d3f0f40496857665b3b50cf95c84",
  "bytecode": "0x60806040523480156200001157600080fd5b506040516200434d3803806200434d833981016040819052620000349162000204565b620000416000826200009e565b6200007c7f3204c940063673962b481a0395619b3dbbd137589c419e993978c1c71bcf68ec6000805160206200432d833981519152620000ae565b620000976000805160206200432d833981519152826200009e565b5062000234565b620000aa828262000100565b5050565b600082815260208190526040808220600201549051839285917fbd79b86ffe0ab8e8776151514217cd7cacd52c909f66475c3af44e129f0b00ff9190a460009182526020829052604090912060020155565b600082815260208181526040909120620001259183906200264d62000179821b17901c565b15620000aa576200013562000199565b6001600160a01b0316816001600160a01b0316837f2f8788117e7eff1d82e926ec794901d17c78024a50270940304540a733656f0d60405160405180910390a45050565b600062000190836001600160a01b0384166200019d565b90505b92915050565b3390565b6000620001ab8383620001ec565b620001e35750815460018181018455600084815260208082209093018490558454848252828601909352604090209190915562000193565b50600062000193565b60009081526001919091016020526040902054151590565b60006020828403121562000216578081fd5b81516001600160a01b03811681146200022d578182fd5b9392505050565b6140e980620002446000396000f3fe6080604052600436106102eb5760003560e01c806375b238fc11610184578063b1283e77116100d6578063c7c53c1a1161008a578063d8c1ce0611610064578063d8c1ce0614610805578063dd8755f214610825578063de51fef314610845576102f2565b8063c7c53c1a146107a5578063ca15c873146107c5578063d547741f146107e5576102f2565b8063be3ab83c116100bb578063be3ab83c14610742578063c0d51cf014610757578063c62e72d314610777576102f2565b8063b1283e77146106f0578063bc22bb5814610722576102f2565b806391d1485411610138578063ac1ea42811610112578063ac1ea428146106a8578063afed134c146106bd578063b0eefabe146106d0576102f2565b806391d148541461065e578063a217fddf1461067e578063a2dd516a14610693576102f2565b80637c14ba8a116101695780637c14ba8a146105dd57806388b1f1c31461060e5780639010d07c1461063e576102f2565b806375b238fc146105a85780637bd18446146105bd576102f2565b80633a4355691161023d57806353b95916116101f15780636cc6cde1116101cb5780636cc6cde114610553578063704802751461056857806373e8f2f714610588576102f2565b806353b959161461050057806353fe4380146105135780635de5c21214610533576102f2565b80633f60d799116102225780633f60d799146104ab57806346d881a7146104c057806351cff8d9146104e0576102f2565b80633a435569146104765780633ca15ff91461048b576102f2565b80631df369221161029f5780632a806b07116102795780632a806b07146104235780632f2ff15d1461043657806336568abe14610456576102f2565b80631df36922146103b15780632033fc8e146103e3578063248a9ca314610403576102f2565b80630e706e3f116102d05780630e706e3f146103445780631785f53c146103715780631acf43f214610391576102f2565b80630305ce0c146102f75780630bc4fd7814610319576102f2565b366102f257005b600080fd5b34801561030357600080fd5b5061031761031236600461316e565b610858565b005b34801561032557600080fd5b5061032e610bb8565b60405161033b919061388b565b60405180910390f35b34801561035057600080fd5b5061036461035f3660046132b9565b610bc7565b60405161033b9190613908565b34801561037d57600080fd5b5061031761038c366004613116565b610c14565b34801561039d57600080fd5b506103176103ac3660046132b9565b610c63565b3480156103bd57600080fd5b506103d16103cc36600461316e565b610d06565b60405161033b969594939291906139f0565b6103f66103f13660046133ec565b61100f565b60405161033b9190613946565b34801561040f57600080fd5b506103f661041e36600461316e565b6111af565b6103f66104313660046134cb565b6111c7565b34801561044257600080fd5b5061031761045136600461319e565b611224565b34801561046257600080fd5b5061031761047136600461319e565b61128b565b34801561048257600080fd5b506103f66112ec565b34801561049757600080fd5b506103176104a6366004613116565b61138b565b3480156104b757600080fd5b506103f66113ee565b3480156104cc57600080fd5b506103646104db36600461316e565b611400565b3480156104ec57600080fd5b506103176104fb366004613116565b61141d565b61031761050e36600461336f565b611522565b34801561051f57600080fd5b5061031761052e3660046132cb565b6115e0565b34801561053f57600080fd5b5061031761054e366004613116565b611900565b34801561055f57600080fd5b5061032e61194c565b34801561057457600080fd5b50610317610583366004613116565b61195b565b34801561059457600080fd5b506103176105a3366004613116565b6119a7565b3480156105b457600080fd5b506103f6611a0a565b3480156105c957600080fd5b506103176105d83660046131cd565b611a1c565b3480156105e957600080fd5b506105fd6105f836600461316e565b611ae6565b60405161033b959493929190613a22565b34801561061a57600080fd5b5061062e61062936600461316e565b611d88565b60405161033b9493929190613925565b34801561064a57600080fd5b5061032e610659366004613298565b611e50565b34801561066a57600080fd5b5061036461067936600461319e565b611e68565b34801561068a57600080fd5b506103f6611e80565b34801561069f57600080fd5b50610317611e85565b3480156106b457600080fd5b506103f6611f1d565b6103f66106cb3660046135c1565b611f23565b3480156106dc57600080fd5b506103176106eb366004613116565b61202f565b3480156106fc57600080fd5b5061071061070b36600461316e565b612092565b60405161033b9695949392919061389f565b34801561072e57600080fd5b5061036461073d3660046132b9565b6121e8565b34801561074e57600080fd5b5061032e612208565b34801561076357600080fd5b5061031761077236600461316e565b612217565b34801561078357600080fd5b50610797610792366004613116565b612250565b60405161033b929190613913565b3480156107b157600080fd5b506103176107c03660046132b9565b61228c565b3480156107d157600080fd5b506103f66107e036600461316e565b612333565b3480156107f157600080fd5b5061031761080036600461319e565b61234a565b34801561081157600080fd5b506103f6610820366004613325565b6123a3565b34801561083157600080fd5b50610317610840366004613116565b61248d565b6103176108533660046133bb565b6124d9565b610870600080516020613feb83398151915233611e68565b6108955760405162461bcd60e51b815260040161088c90613d19565b60405180910390fd5b600081815260056020526040902060010154806108c45760405162461bcd60e51b815260040161088c90613c3d565b600254604051633fc6a14f60e11b81526001600160a01b0390911690637f8d429e906108f4908490600401613946565b60206040518083038186803b15801561090c57600080fd5b505afa158015610920573d6000803e3d6000fd5b505050506040513d601f19601f82011682018060405250810190610944919061314e565b6109605760405162461bcd60e51b815260040161088c90613a85565b6000828152600560205260409020600401541561098f5760405162461bcd60e51b815260040161088c90613abc565b6002546040516346aa96a360e11b81526000916001600160a01b031690638d552d46906109c0908590600401613946565b60206040518083038186803b1580156109d857600080fd5b505afa1580156109ec573d6000803e3d6000fd5b505050506040513d601f19601f82011682018060405250810190610a109190613186565b60008481526005602090815260408083206002908101805483516001821615610100026000190190911692909204601f81018590048502830185019093528282529495508594610ab99391929091830182828015610aaf5780601f10610a8457610100808354040283529160200191610aaf565b820191906000526020600020905b815481529060010190602001808311610a9257829003601f168201915b5050505050612662565b905080518210610adb5760405162461bcd60e51b815260040161088c90613bcf565b6000818381518110610ae957fe5b602090810291909101810151600088815260059092526040918290205491517fad094f3d00000000000000000000000000000000000000000000000000000000815290925060018501916001600160a01b03169063ad094f3d90610b53908a908590600401613d87565b600060405180830381600087803b158015610b6d57600080fd5b505af1158015610b81573d6000803e3d6000fd5b5050506000888152600560208181526040909220600481018590558551610bae9450910191850190612fe1565b5050505050505050565b6001546001600160a01b031681565b60008281526006602090815260408083206001600160a01b038516845290915281205460ff1680610c0b5750610c0b600080516020613feb83398151915283611e68565b90505b92915050565b610c2c60008051602061403b83398151915233611e68565b610c485760405162461bcd60e51b815260040161088c90613c74565b610c6060008051602061403b8339815191528261234a565b50565b610c7b60008051602061403b83398151915233611e68565b610c975760405162461bcd60e51b815260040161088c90613c74565b60008281526006602090815260408083206001600160a01b038516845290915290205460ff16610cd95760405162461bcd60e51b815260040161088c90613ce2565b60009182526006602090815260408084206001600160a01b0390931684529190529020805460ff19169055565b600081815260056020526040812060010154908080808085610d3a5760405162461bcd60e51b815260040161088c90613c3d565b6002546040516346aa96a360e11b81526001600160a01b03909116908190638d552d4690610d6c908a90600401613946565b60206040518083038186803b158015610d8457600080fd5b505afa158015610d98573d6000803e3d6000fd5b505050506040513d601f19601f82011682018060405250810190610dbc9190613186565b6040517facae8f4e0000000000000000000000000000000000000000000000000000000081529096506001600160a01b0382169063acae8f4e90610e04908a90600401613946565b60206040518083038186803b158015610e1c57600080fd5b505afa158015610e30573d6000803e3d6000fd5b505050506040513d601f19601f82011682018060405250810190610e549190613687565b6040517f82ffa9f70000000000000000000000000000000000000000000000000000000081529095506001600160a01b038216906382ffa9f790610e9c908a90600401613946565b60206040518083038186803b158015610eb457600080fd5b505afa158015610ec8573d6000803e3d6000fd5b505050506040513d601f19601f82011682018060405250810190610eec9190613186565b604051633fc6a14f60e11b81529094506001600160a01b03821690637f8d429e90610f1b908a90600401613946565b60206040518083038186803b158015610f3357600080fd5b505afa158015610f47573d6000803e3d6000fd5b505050506040513d601f19601f82011682018060405250810190610f6b919061314e565b6040517f924532fb0000000000000000000000000000000000000000000000000000000081529093506001600160a01b0382169063924532fb90610fb3908a90600401613946565b60206040518083038186803b158015610fcb57600080fd5b505afa158015610fdf573d6000803e3d6000fd5b505050506040513d601f19601f82011682018060405250810190611003919061314e565b91505091939550919395565b60008b61101c8133610bc7565b6110385760405162461bcd60e51b815260040161088c90613c06565b6110418d611400565b61105d5760405162461bcd60e51b815260040161088c90613cab565b60008d8152600560205260409020600101541561108c5760405162461bcd60e51b815260040161088c90613b2a565b6002546001600160a01b031663762c38fd8d8d6110ad8e8e8e8e8e8e612800565b6003546040517fffffffff0000000000000000000000000000000000000000000000000000000060e087901b1681526110fb9392916001600160a01b0316908b908b90600090600401613d95565b6020604051808303818588803b15801561111457600080fd5b505af1158015611128573d6000803e3d6000fd5b50505050506040513d601f19601f8201168201806040525081019061114d9190613186565b60008e81526005602052604090206001018190559150611175611170888a613e9c565b6128e7565b600560008f8152602001908152602001600020600201908051906020019061119e929190612fe1565b50509b9a5050505050505050505050565b6000818152602081905260409020600201545b919050565b60008c6111d48133610bc7565b6111f05760405162461bcd60e51b815260040161088c90613c06565b6112048e60008f8f8f8f8f8f8f8f8f61100f565b91506112138e856000866124d9565b509c9b505050505050505050505050565b60008281526020819052604090206002015461124290610679612978565b61127d5760405162461bcd60e51b815260040180806020018281038252602f815260200180613fbc602f913960400191505060405180910390fd5b611287828261297c565b5050565b611293612978565b6001600160a01b0316816001600160a01b0316146112e25760405162461bcd60e51b815260040180806020018281038252602f815260200180614085602f913960400191505060405180910390fd5b61128782826129e5565b6002546040517f70a082310000000000000000000000000000000000000000000000000000000081526000916001600160a01b0316906370a082319061133690309060040161388b565b60206040518083038186803b15801561134e57600080fd5b505afa158015611362573d6000803e3d6000fd5b505050506040513d601f19601f820116820180604052508101906113869190613186565b905090565b6113a360008051602061403b83398151915233611e68565b6113bf5760405162461bcd60e51b815260040161088c90613c74565b6001805473ffffffffffffffffffffffffffffffffffffffff19166001600160a01b0392909216919091179055565b600080516020613feb83398151915281565b6000908152600560205260409020546001600160a01b0316151590565b61143560008051602061403b83398151915233611e68565b6114515760405162461bcd60e51b815260040161088c90613c74565b6001600160a01b0381166114915760405133904780156108fc02916000818181858888f1935050505015801561148b573d6000803e3d6000fd5b50610c60565b610c6033826001600160a01b03166370a08231306040518263ffffffff1660e01b81526004016114c1919061388b565b60206040518083038186803b1580156114d957600080fd5b505afa1580156114ed573d6000803e3d6000fd5b505050506040513d601f19601f820116820180604052508101906115119190613186565b6001600160a01b0384169190612a4e565b61153a600080516020613feb83398151915233611e68565b6115565760405162461bcd60e51b815260040161088c90613d19565b6002546040517f111ec1380000000000000000000000000000000000000000000000000000000081526001600160a01b039091169063111ec1389087906115a79088908890889088906004016139cc565b6000604051808303818588803b1580156115c057600080fd5b505af11580156115d4573d6000803e3d6000fd5b50505050505050505050565b6115f8600080516020613feb83398151915233611e68565b6116145760405162461bcd60e51b815260040161088c90613d19565b600154604080517f8da5cb5b00000000000000000000000000000000000000000000000000000000815290516001600160a01b0392831692861691638da5cb5b916004808301926020929190829003018186803b15801561167457600080fd5b505afa158015611688573d6000803e3d6000fd5b505050506040513d601f19601f820116820180604052508101906116ac9190613132565b6001600160a01b0316146116d25760405162461bcd60e51b815260040161088c90613b98565b306001600160a01b0316836001600160a01b0316637dc0d1d06040518163ffffffff1660e01b815260040160206040518083038186803b15801561171557600080fd5b505afa158015611729573d6000803e3d6000fd5b505050506040513d601f19601f8201168201806040525081019061174d9190613132565b6001600160a01b0316146117735760405162461bcd60e51b815260040161088c90613b61565b6000848152600560205260409020546001600160a01b0316156117a85760405162461bcd60e51b815260040161088c90613d50565b6040805160c0810182526001600160a01b038581168252600060208084018281528551808301875283815285870190815260608601849052608086018490528651808401885284815260a08701528a845260058352959092208451815473ffffffffffffffffffffffffffffffffffffffff191694169390931783559051600183015592518051929391926118439260028501920190612fe1565b50606082015160038201805460ff19169115159190911790556080820151600482015560a08201518051611881916005840191602090910190612fe1565b5050811590506118fa5760005b818110156118f85760008581526006602052604081206001918585858181106118b357fe5b90506020020160208101906118c89190613116565b6001600160a01b031681526020810191909152604001600020805460ff191691151591909117905560010161188e565b505b50505050565b61191860008051602061403b83398151915233611e68565b6119345760405162461bcd60e51b815260040161088c90613c74565b610c60600080516020613feb8339815191528261234a565b6003546001600160a01b031681565b61197360008051602061403b83398151915233611e68565b61198f5760405162461bcd60e51b815260040161088c90613c74565b610c6060008051602061403b83398151915282611224565b6119bf60008051602061403b83398151915233611e68565b6119db5760405162461bcd60e51b815260040161088c90613c74565b6002805473ffffffffffffffffffffffffffffffffffffffff19166001600160a01b0392909216919091179055565b60008051602061403b83398151915281565b611a34600080516020613feb83398151915233611e68565b611a505760405162461bcd60e51b815260040161088c90613d19565b6002546040517f1101a0fd0000000000000000000000000000000000000000000000000000000081526001600160a01b0390911690631101a0fd90611aa9908c908c908c908c908c908c908c908c908c9060040161394f565b600060405180830381600087803b158015611ac357600080fd5b505af1158015611ad7573d6000803e3d6000fd5b50505050505050505050505050565b6000818152600560205260408120600101549080808084611b195760405162461bcd60e51b815260040161088c90613c3d565b6002546040517f9e63fa6a0000000000000000000000000000000000000000000000000000000081526001600160a01b03909116908190639e63fa6a90611b64908990600401613946565b60206040518083038186803b158015611b7c57600080fd5b505afa158015611b90573d6000803e3d6000fd5b505050506040513d601f19601f82011682018060405250810190611bb49190613687565b6040517f9f1025c60000000000000000000000000000000000000000000000000000000081529095506001600160a01b03821690639f1025c690611bfc908990600401613946565b60206040518083038186803b158015611c1457600080fd5b505afa158015611c28573d6000803e3d6000fd5b505050506040513d601f19601f82011682018060405250810190611c4c9190613687565b6040517f2417395c0000000000000000000000000000000000000000000000000000000081529094506001600160a01b03821690632417395c90611c94908990600401613946565b60206040518083038186803b158015611cac57600080fd5b505afa158015611cc0573d6000803e3d6000fd5b505050506040513d601f19601f82011682018060405250810190611ce49190613186565b6040517f26d6c97b0000000000000000000000000000000000000000000000000000000081529093506001600160a01b038216906326d6c97b90611d2c908990600401613946565b60206040518083038186803b158015611d4457600080fd5b505afa158015611d58573d6000803e3d6000fd5b505050506040513d601f19601f82011682018060405250810190611d7c9190613186565b91505091939590929450565b600081815260056020526040808220805460038201546002546001909301549351633fc6a14f60e11b81526001600160a01b0392831615159560ff90921694919384931691637f8d429e91611de09190600401613946565b60206040518083038186803b158015611df857600080fd5b505afa158015611e0c573d6000803e3d6000fd5b505050506040513d601f19601f82011682018060405250810190611e30919061314e565b600086815260056020526040902060040154909250151590509193509193565b6000828152602081905260408120610c0b9083612ad3565b6000828152602081905260408120610c0b9083612adf565b600081565b611e9d600080516020613feb83398151915233611e68565b611eb95760405162461bcd60e51b815260040161088c90613d19565b600260009054906101000a90046001600160a01b03166001600160a01b0316633ccfd60b6040518163ffffffff1660e01b8152600401600060405180830381600087803b158015611f0957600080fd5b505af11580156118fa573d6000803e3d6000fd5b60045481565b6000611f3d600080516020613feb83398151915233611e68565b611f595760405162461bcd60e51b815260040161088c90613d19565b6000611f698b8b8b8b8b8b612800565b9050600260009054906101000a90046001600160a01b03166001600160a01b031663762c38fd8e8e84600360009054906101000a90046001600160a01b03168a8a8a6040518863ffffffff1660e01b8152600401611fcc96959493929190613de2565b6020604051808303818588803b158015611fe557600080fd5b505af1158015611ff9573d6000803e3d6000fd5b50505050506040513d601f19601f8201168201806040525081019061201e9190613186565b9d9c50505050505050505050505050565b61204760008051602061403b83398151915233611e68565b6120635760405162461bcd60e51b815260040161088c90613c74565b6003805473ffffffffffffffffffffffffffffffffffffffff19166001600160a01b0392909216919091179055565b60056020908152600091825260409182902080546001808301546002808501805488516101009582161595909502600019011691909104601f81018790048702840187019097528683526001600160a01b0390931695909491929183018282801561213e5780601f106121135761010080835404028352916020019161213e565b820191906000526020600020905b81548152906001019060200180831161212157829003601f168201915b505050506003830154600484015460058501805460408051602060026101006001861615026000190190941693909304601f8101849004840282018401909252818152969760ff90951696939550908301828280156121de5780601f106121b3576101008083540402835291602001916121de565b820191906000526020600020905b8154815290600101906020018083116121c157829003601f168201915b5050505050905086565b600660209081526000928352604080842090915290825290205460ff1681565b6002546001600160a01b031681565b61222f60008051602061403b83398151915233611e68565b61224b5760405162461bcd60e51b815260040161088c90613c74565b600455565b60008061226b60008051602061403b83398151915284611e68565b9150612285600080516020613feb83398151915284611e68565b9050915091565b6122a460008051602061403b83398151915233611e68565b6122c05760405162461bcd60e51b815260040161088c90613c74565b60008281526006602090815260408083206001600160a01b038516845290915290205460ff16156123035760405162461bcd60e51b815260040161088c90613ce2565b60009182526006602090815260408084206001600160a01b0390931684529190529020805460ff19166001179055565b6000818152602081905260408120610c0e90612af4565b60008281526020819052604090206002015461236890610679612978565b6112e25760405162461bcd60e51b815260040180806020018281038252603081526020018061400b6030913960400191505060405180910390fd5b60006123bd600080516020613feb83398151915233611e68565b6123d95760405162461bcd60e51b815260040161088c90613d19565b600084815260056020526040908190205490517fbc0e610a0000000000000000000000000000000000000000000000000000000081526001600160a01b039091169063bc0e610a9061243190869086906004016138f4565b602060405180830381600087803b15801561244b57600080fd5b505af115801561245f573d6000803e3d6000fd5b505050506040513d601f19601f820116820180604052508101906124839190613186565b90505b9392505050565b6124a560008051602061403b83398151915233611e68565b6124c15760405162461bcd60e51b815260040161088c90613c74565b610c60600080516020613feb83398151915282611224565b836124e48133610bc7565b6125005760405162461bcd60e51b815260040161088c90613c06565b61250985611400565b6125255760405162461bcd60e51b815260040161088c90613cab565b600085815260056020526040902060010154806125545760405162461bcd60e51b815260040161088c90613c3d565b60008681526005602052604090206003015460ff16156125865760405162461bcd60e51b815260040161088c90613af3565b6004548311156125a85760405162461bcd60e51b815260040161088c90613a4e565b6002546040517f77f325df0000000000000000000000000000000000000000000000000000000081526001600160a01b03909116906377f325df9085906125f79085908a908a906004016139b6565b6000604051808303818588803b15801561261057600080fd5b505af1158015612624573d6000803e3d6000fd5b50505060009788525050600560205250506040909320600301805460ff19166001179055505050565b6000610c0b836001600160a01b038416612aff565b805160609082906126a1576040805160008082526020820190925290612698565b60608152602001906001900390816126835790505b509150506111c2565b600160005b82518110156126fd578281815181106126bb57fe5b6020910101517fff0000000000000000000000000000000000000000000000000000000000000016600b60fa1b14156126f5576001909101905b6001016126a6565b5060008167ffffffffffffffff8111801561271757600080fd5b5060405190808252806020026020018201604052801561274b57816020015b60608152602001906001900390816127365790505b50905060008060005b85518110156127d15785818151811061276957fe5b6020910101517fff0000000000000000000000000000000000000000000000000000000000000016600b60fa1b14156127c9576127a7868383612b49565b8484815181106127b357fe5b6020908102919091010152600192830192810191505b600101612754565b506127de85828751612b49565b8383815181106127ea57fe5b6020908102919091010152509095945050505050565b60408051602081019091526000815260609084156128b2578585600081811061282557fe5b90506020028101906128379190613e33565b604051602001612848929190613865565b60408051601f19818403018152919052905060015b858110156128b0578187878381811061287257fe5b90506020028101906128849190613e33565b604051602001612896939291906137a0565b60408051601f19818403018152919052915060010161285d565b505b87878286866040516020016128cb9594939291906137fa565b6040516020818303038152906040529150509695505050505050565b606081516000141561290857506040805160208101909152600081526111c2565b60008260008151811061291757fe5b602002602001015190506000600190505b8351811015612971578184828151811061293e57fe5b6020026020010151604051602001612957929190613764565b60408051601f198184030181529190529150600101612928565b5092915050565b3390565b6000828152602081905260409020612994908261264d565b15611287576129a1612978565b6001600160a01b0316816001600160a01b0316837f2f8788117e7eff1d82e926ec794901d17c78024a50270940304540a733656f0d60405160405180910390a45050565b60008281526020819052604090206129fd9082612c06565b1561128757612a0a612978565b6001600160a01b0316816001600160a01b0316837ff6391f5c32d9c69d2a47ea670b442974b53935d1edc7fd64eb21e047a839171b60405160405180910390a45050565b604080516001600160a01b038416602482015260448082018490528251808303909101815260649091019091526020810180517bffffffffffffffffffffffffffffffffffffffffffffffffffffffff167fa9059cbb00000000000000000000000000000000000000000000000000000000179052612ace908490612c1b565b505050565b6000610c0b8383612ccc565b6000610c0b836001600160a01b038416612d30565b6000610c0e82612d48565b6000612b0b8383612d30565b612b4157508154600181810184556000848152602080822090930184905584548482528286019093526040902091909155610c0e565b506000610c0e565b606082820360008167ffffffffffffffff81118015612b6757600080fd5b506040519080825280601f01601f191660200182016040528015612b92576020820181803683370190505b50905060005b82811015612bfc578681870181518110612bae57fe5b602001015160f81c60f81b828281518110612bc557fe5b60200101907effffffffffffffffffffffffffffffffffffffffffffffffffffffffffffff1916908160001a905350600101612b98565b5095945050505050565b6000610c0b836001600160a01b038416612d4c565b6000612c70826040518060400160405280602081526020017f5361666545524332303a206c6f772d6c6576656c2063616c6c206661696c6564815250856001600160a01b0316612e129092919063ffffffff16565b805190915015612ace57808060200190516020811015612c8f57600080fd5b5051612ace5760405162461bcd60e51b815260040180806020018281038252602a81526020018061405b602a913960400191505060405180910390fd5b81546000908210612d0e5760405162461bcd60e51b8152600401808060200182810382526022815260200180613f9a6022913960400191505060405180910390fd5b826000018281548110612d1d57fe5b9060005260206000200154905092915050565b60009081526001919091016020526040902054151590565b5490565b60008181526001830160205260408120548015612e085783546000198083019190810190600090879083908110612d7f57fe5b9060005260206000200154905080876000018481548110612d9c57fe5b600091825260208083209091019290925582815260018981019092526040902090840190558654879080612dcc57fe5b60019003818190600052602060002001600090559055866001016000878152602001908152602001600020600090556001945050505050610c0e565b6000915050610c0e565b6060612483848460008585612e2685612f37565b612e77576040805162461bcd60e51b815260206004820152601d60248201527f416464726573733a2063616c6c20746f206e6f6e2d636f6e7472616374000000604482015290519081900360640190fd5b600080866001600160a01b031685876040518082805190602001908083835b60208310612eb55780518252601f199092019160209182019101612e96565b6001836020036101000a03801982511681845116808217855250505050505090500191505060006040518083038185875af1925050503d8060008114612f17576040519150601f19603f3d011682016040523d82523d6000602084013e612f1c565b606091505b5091509150612f2c828286612f3d565b979650505050505050565b3b151590565b60608315612f4c575081612486565b825115612f5c5782518084602001fd5b8160405162461bcd60e51b81526004018080602001828103825283818151815260200191508051906020019080838360005b83811015612fa6578181015183820152602001612f8e565b50505050905090810190601f168015612fd35780820380516001836020036101000a031916815260200191505b509250505060405180910390fd5b828054600181600116156101000203166002900490600052602060002090601f016020900481019282613017576000855561305d565b82601f1061303057805160ff191683800117855561305d565b8280016001018555821561305d579182015b8281111561305d578251825591602001919060010190613042565b5061306992915061306d565b5090565b5b80821115613069576000815560010161306e565b60008083601f840112613093578182fd5b50813567ffffffffffffffff8111156130aa578182fd5b60208301915083602080830285010111156130c457600080fd5b9250929050565b60008083601f8401126130dc578182fd5b50813567ffffffffffffffff8111156130f3578182fd5b6020830191508360208285010111156130c457600080fd5b80356111c281613f87565b600060208284031215613127578081fd5b813561248681613f72565b600060208284031215613143578081fd5b815161248681613f72565b60006020828403121561315f578081fd5b81518015158114612486578182fd5b60006020828403121561317f578081fd5b5035919050565b600060208284031215613197578081fd5b5051919050565b600080604083850312156131b0578081fd5b8235915060208301356131c281613f72565b809150509250929050565b600080600080600080600080600060a08a8c0312156131ea578485fd5b8935985060208a013567ffffffffffffffff80821115613208578687fd5b6132148d838e01613082565b909a50985060408c013591508082111561322c578687fd5b6132388d838e01613082565b909850965060608c0135915080821115613250578586fd5b61325c8d838e01613082565b909650945060808c0135915080821115613274578384fd5b506132818c828d01613082565b915080935050809150509295985092959850929598565b600080604083850312156132aa578182fd5b50508035926020909101359150565b600080604083850312156131b0578182fd5b600080600080606085870312156132e0578182fd5b8435935060208501356132f281613f72565b9250604085013567ffffffffffffffff81111561330d578283fd5b61331987828801613082565b95989497509550505050565b600080600060408486031215613339578081fd5b83359250602084013567ffffffffffffffff811115613356578182fd5b61336286828701613082565b9497909650939450505050565b600080600080600060a08688031215613386578283fd5b8535945060208601359350604086013592506060860135915060808601356133ad81613f72565b809150509295509295909350565b600080600080608085870312156133d0578182fd5b5050823594602084013594506040840135936060013592509050565b60008060008060008060008060008060006101008c8e03121561340d578485fd5b8b359a5060208c0135995061342460408d0161310b565b985067ffffffffffffffff8060608e0135111561343f578586fd5b61344f8e60608f01358f016130cb565b909950975060808d0135811015613464578586fd5b6134748e60808f01358f01613082565b909750955060a08d0135811015613489578283fd5b5061349a8d60a08e01358e016130cb565b90945092506134ab60c08d0161310b565b91506134b960e08d0161310b565b90509295989b509295989b9093969950565b6000806000806000806000806000806000806101208d8f0312156134ed578586fd5b8c359b506134fd60208e0161310b565b9a5067ffffffffffffffff60408e01351115613517578586fd5b6135278e60408f01358f016130cb565b909a50985067ffffffffffffffff60608e01351115613544578586fd5b6135548e60608f01358f01613082565b909850965067ffffffffffffffff60808e01351115613571578586fd5b6135818e60808f01358f016130cb565b909650945061359260a08e0161310b565b93506135a060c08e0161310b565b925060e08d013591506101008d013590509295989b509295989b509295989b565b60008060008060008060008060008060006101008c8e0312156135e2578485fd5b8b359a506135f260208d0161310b565b995067ffffffffffffffff8060408e0135111561360d578586fd5b61361d8e60408f01358f016130cb565b909a50985060608d0135811015613632578586fd5b6136428e60608f01358f01613082565b909850965060808d0135811015613657578586fd5b506136688d60808e01358e016130cb565b909550935061367960a08d0161310b565b92506134ab60c08d0161310b565b600060208284031215613698578081fd5b815161248681613f87565b60008284526020808501945082825b858110156136e05781356136c581613f72565b6001600160a01b0316875295820195908201906001016136b2565b509495945050505050565b60008284527f07ffffffffffffffffffffffffffffffffffffffffffffffffffffffffffffff83111561371c578081fd5b6020830280836020870137939093016020019283525090919050565b60008151808452613750816020860160208601613f46565b601f01601f19169290920160200192915050565b60008351613776818460208801613f46565b600b60fa1b9083019081528351613794816001840160208801613f46565b01600101949350505050565b600084516137b2818460208901613f46565b7f2c2200000000000000000000000000000000000000000000000000000000000090830190815283856002830137601160f91b93016002810193909352505060030192915050565b6000858783378582018181527fe2909f0000000000000000000000000000000000000000000000000000000000808252865161383d816003850160208b01613f46565b6003920191820181905284866006840137930160068101939093525050600901949350505050565b6000601160f91b8083528385600185013792909101600181019290925250600201919050565b6001600160a01b0391909116815260200190565b60006001600160a01b038816825286602083015260c060408301526138c760c0830187613738565b851515606084015284608084015282810360a08401526138e78185613738565b9998505050505050505050565b6000602082526124836020830184866136a3565b901515815260200190565b91151582521515602082015260400190565b93151584529115156020840152151560408301521515606082015260800190565b90815260200190565b60008a825260a0602083015261396960a083018a8c6136eb565b828103604084015261397c81898b6136a3565b905082810360608401526139918187896136eb565b905082810360808401526139a68185876136eb565b9c9b505050505050505050505050565b9283526020830191909152604082015260600190565b938452602084019290925260408301526001600160a01b0316606082015260800190565b958652602086019490945263ffffffff929092166040850152606084015215156080830152151560a082015260c00190565b94855263ffffffff93841660208601529190921660408401526060830191909152608082015260a00190565b60208082526014908201527f416e7377657220626f6e6420746f6f2068696768000000000000000000000000604082015260600190565b60208082526010908201527f496e76616c6964207175657374696f6e00000000000000000000000000000000604082015260600190565b60208082526017908201527f4d61726b657420616c7265616479207265706f72746564000000000000000000604082015260600190565b60208082526017908201527f4d61726b657420616c726561647920616e737765726564000000000000000000604082015260600190565b60208082526015908201527f5175657374696f6e20616c7265616479206f70656e0000000000000000000000604082015260600190565b6020808252600e908201527f496e76616c6964206d61726b6574000000000000000000000000000000000000604082015260600190565b6020808252600e908201527f496e76616c6964206d6173746572000000000000000000000000000000000000604082015260600190565b6020808252600e908201527f496e76616c696420616e73776572000000000000000000000000000000000000604082015260600190565b60208082526014908201527f4f6e6c79204d61726b6574205265706f72746572000000000000000000000000604082015260600190565b60208082526013908201527f4d61726b6574204964206e6f7420666f756e6400000000000000000000000000604082015260600190565b6020808252600a908201527f4f6e6c792041646d696e00000000000000000000000000000000000000000000604082015260600190565b60208082526015908201527f4d61726b6574206e6f7420726567697374657265640000000000000000000000604082015260600190565b60208082526010908201527f496e76616c6964207265706f7274657200000000000000000000000000000000604082015260600190565b6020808252600d908201527f4f6e6c79205265706f7274657200000000000000000000000000000000000000604082015260600190565b60208082526017908201527f416c7265616479207265676973746572206d61726b6574000000000000000000604082015260600190565b918252602082015260400190565b600063ffffffff808916835260c06020840152613db560c0840189613738565b6001600160a01b0397909716604084015294851660608301525091909216608082015260a0015292915050565b600063ffffffff808916835260c06020840152613e0260c0840189613738565b6001600160a01b03979097166040840152948516606083015250918316608083015290911660a09091015292915050565b6000808335601e19843603018112613e49578283fd5b83018035915067ffffffffffffffff821115613e63578283fd5b6020019150368190038213156130c457600080fd5b60405181810167ffffffffffffffff81118282101715613e9457fe5b604052919050565b600067ffffffffffffffff80841115613eb157fe5b6020613ec08182870201613e78565b8581528181019085855b88811015613f395781358801601f3681830112613ee5578889fd5b813588811115613ef157fe5b613f02818301601f19168901613e78565b91508082523688828501011115613f1757898afd5b8088840189840137810187018990528552509284019290840190600101613eca565b5090979650505050505050565b60005b83811015613f61578181015183820152602001613f49565b838111156118fa5750506000910152565b6001600160a01b0381168114610c6057600080fd5b63ffffffff81168114610c6057600080fdfe456e756d657261626c655365743a20696e646578206f7574206f6620626f756e6473416363657373436f6e74726f6c3a2073656e646572206d75737420626520616e2061646d696e20746f206772616e743204c940063673962b481a0395619b3dbbd137589c419e993978c1c71bcf68ec416363657373436f6e74726f6c3a2073656e646572206d75737420626520616e2061646d696e20746f207265766f6b65a49807205ce4d355092ef5a8a18f56e8913cf4a201fbe287825b095693c217755361666545524332303a204552433230206f7065726174696f6e20646964206e6f742073756363656564416363657373436f6e74726f6c3a2063616e206f6e6c792072656e6f756e636520726f6c657320666f722073656c66a2646970667358221220356c25c4cd8c570ba20f549c35c76887c4bad712575a11710559353f30a71c8a64736f6c63430007060033a49807205ce4d355092ef5a8a18f56e8913cf4a201fbe287825b095693c21775",
  "devdoc": {
    "author": "Marto (https://github.com/0xMarto) & Mati (https://github.com/0xAstraea)",
    "details": "Feel free to make any adjustments to the code (DMs are open @0xMarto)",
    "kind": "dev",
    "methods": {
      "answerOpenQuestion(uint256,bytes32,uint256,uint256)": {
        "details": "This function require that the sender `isMarketReporter`",
        "params": {
          "answer": "The answer being submitted (as bytes32)",
          "bond": "Amount of ETH to bond with this answer",
          "marketId": "The market whose question is being answered",
          "maxPrevious": "Maximum previous bond to calculate minimum new bond"
        }
      },
      "constructor": {
        "params": {
          "initialAdmin": "Address that will be granted the first Admin account"
        }
      },
      "getAccountPermissions(address)": {
        "params": {
          "account": "The address of the account to check."
        },
        "returns": {
          "isAdmin": "Indicates whether the account has the admin role.",
          "isGlobalReporter": "Indicates whether the account has the reporter role."
        }
      },
      "getMarketState(uint256)": {
        "params": {
          "marketId": "The market Id to get the current state parameters"
        },
        "returns": {
          "isAnswered": "Indicates whether the market has been answered by a reporter.",
          "isFinalized": "Indicates whether the market answer is final and the result can be reported.",
          "isRegistered": "Indicates whether the market is registered in the system.",
          "isReported": "Indicates whether the market's result has been reported."
        }
      },
      "getRealityQuestionInfo(uint256)": {
        "params": {
          "marketId": "The market Id to get information for"
        }
      },
      "getRealityResultInfo(uint256)": {
        "params": {
          "marketId": "The Market Id  to get Reality result info"
        },
        "returns": {
          "answer": "the current last or final answer value (as bytes32 index)",
          "finalizeTS": "The pending time to reach the answer timeout",
          "isFinalized": "Whether the question is finalized",
          "isPendingArbitration": "Whether the question is pending arbitration",
          "lastHash": "The history hash of the last answer",
          "questionId": "question identifier"
        }
      },
      "getRoleAdmin(bytes32)": {
        "details": "Returns the admin role that controls `role`. See {grantRole} and {revokeRole}. To change a role's admin, use {_setRoleAdmin}."
      },
      "getRoleMember(bytes32,uint256)": {
        "details": "Returns one of the accounts that have `role`. `index` must be a value between 0 and {getRoleMemberCount}, non-inclusive. Role bearers are not sorted in any particular way, and their ordering may change at any point. WARNING: When using {getRoleMember} and {getRoleMemberCount}, make sure you perform all queries on the same block. See the following https://forum.openzeppelin.com/t/iterating-over-elements-on-enumerableset-in-openzeppelin-contracts/2296[forum post] for more information."
      },
      "getRoleMemberCount(bytes32)": {
        "details": "Returns the number of accounts that have `role`. Can be used together with {getRoleMember} to enumerate all bearers of a role."
      },
      "grantRole(bytes32,address)": {
        "details": "Grants `role` to `account`. If `account` had not been already granted `role`, emits a {RoleGranted} event. Requirements: - the caller must have ``role``'s admin role."
      },
      "hasRole(bytes32,address)": {
        "details": "Returns `true` if `account` has been granted `role`."
      },
      "openQuestion(uint256,uint256,uint32,string,string[],string,uint32,uint32)": {
        "details": "This function require that the sender `isMarketReporter`",
        "params": {
          "bounty": "Amount of ETH to offer as question bounty",
          "category": "Question category for organization",
          "marketId": "The market this question belongs to",
          "outcomes": "Array of possible answer options",
          "question": "The actual question text",
          "startTime": "Timestamp when question becomes answerable",
          "templateId": "Reality.eth template ID defining question structure",
          "timeout": "Duration in seconds before question can be answered"
        },
        "returns": {
          "questionId": "Unique identifier of the created question in Reality.eth"
        }
      },
      "realityClaimWinnings(bytes32,bytes32[],address[],uint256[],bytes32[])": {
        "params": {
          "answerers": "The addresses involved in the claim",
          "answers": "The answers for the claim",
          "bonds": "The bonds for the claim",
          "historyHashes": "The history hashes for the claim",
          "questionId": "The question Id to claim winnings for"
        }
      },
      "realityOpenQuestion(uint256,uint32,string,string[],string,uint32,uint32,uint32)": {
        "returns": {
          "questionId": "The unique identifier for the question"
        }
      },
      "realitySubmitAnswerFor(uint256,bytes32,bytes32,uint256,address)": {
        "params": {
          "answer": "The answer to submit",
          "answerer": "The address submitting the answer for",
          "maxPrevious": "Maximum number of previous answers to consider",
          "questionId": "The question Id to answer"
        }
      },
      "registerMarket(uint256,address,address[])": {
        "details": "Validates market ownership and oracle assignment before registration      Requirements:      - Caller must have REPORTER_ROLE      - Market must be owned by precogMaster      - Market must have this contract set as its oracle      - Market ID must not be already registered",
        "params": {
          "id": "Unique identifier for the market",
          "initialReporters": "Optional array of addresses that can report for this specific market",
          "market": "Address of the PrecogMarket contract"
        }
      },
      "renounceRole(bytes32,address)": {
        "details": "Revokes `role` from the calling account. Roles are often managed via {grantRole} and {revokeRole}: this function's purpose is to provide a mechanism for accounts to lose their privileges if they are compromised (such as when a trusted device is misplaced). If the calling account had been granted `role`, emits a {RoleRevoked} event. Requirements: - the caller must be `account`."
      },
      "reportResult(uint256)": {
        "details": "Also store validated result in local storage to be audited"
      },
      "revokeRole(bytes32,address)": {
        "details": "Revokes `role` from `account`. If `account` had been granted `role`, emits a {RoleRevoked} event. Requirements: - the caller must have ``role``'s admin role."
      },
      "submitResult(uint256,uint32,string,string[],string,uint32,uint32,bytes32,uint256)": {
        "details": "This function require that the sender `isMarketReporter`",
        "returns": {
          "questionId": "The unique identifier for the question"
        }
      }
    },
    "title": "PrecogOracleRealityV1: An smart oracle implementation to report results on Precog Markets using Reality.eth",
    "version": 1
  },
  "userdoc": {
    "kind": "user",
    "methods": {
      "answerOpenQuestion(uint256,bytes32,uint256,uint256)": {
        "notice": "Submits an answer to an open Reality.eth question for a market"
      },
      "constructor": {
        "notice": "Initializes the PrecogRealityOracleV1 contract"
      },
      "getAccountPermissions(address)": {
        "notice": "Returns the permissions status of a given account."
      },
      "getMarketState(uint256)": {
        "notice": "Returns the current state of a given market."
      },
      "getRealityBalance()": {
        "notice": "Get the Reality.eth balance of this contract"
      },
      "getRealityQuestionInfo(uint256)": {
        "notice": "Get comprehensive information about a Reality Question starting settings"
      },
      "getRealityResultInfo(uint256)": {
        "notice": "Get information about a Question resolution status"
      },
      "isMarketRegistered(uint256)": {
        "notice": "Check if a market is already registered on this oracle"
      },
      "isMarketReporter(uint256,address)": {
        "notice": "Check if an account is allowed to summit/report result for a specific Market"
      },
      "openQuestion(uint256,uint256,uint32,string,string[],string,uint32,uint32)": {
        "notice": "Opens a new question in Reality.eth for a specific market"
      },
      "realityClaimWinnings(bytes32,bytes32[],address[],uint256[],bytes32[])": {
        "notice": "Assign winnings in Reality.eth of a question, to later claim them by the answerer"
      },
      "realityOpenQuestion(uint256,uint32,string,string[],string,uint32,uint32,uint32)": {
        "notice": "Open a question in Reality.eth without a local register market"
      },
      "realitySubmitAnswerFor(uint256,bytes32,bytes32,uint256,address)": {
        "notice": "Submit an answer in name of another address in Reality.eth"
      },
      "realityWithdraw()": {
        "notice": "Executes a withdraw on Reality.eth contract"
      },
      "registerMarket(uint256,address,address[])": {
        "notice": "Registers a new market with this oracle"
      },
      "reportResult(uint256)": {
        "notice": "Report result validated by Reality.eth to corresponding Market"
      },
      "submitResult(uint256,uint32,string,string[],string,uint32,uint32,bytes32,uint256)": {
        "notice": "Submit a Market result by opening question and answering it (to be disputed or validate it)"
      }
    },
    "version": 1
  },
  "storageLayout": {
    "storage": [
      {
        "astId": 22,
        "contract": "contracts/PrecogRealityOracleV2.sol:PrecogRealityOracleV2",
        "label": "_roles",
        "offset": 0,
        "slot": "0",
        "type": "t_mapping(t_bytes32,t_struct(RoleData)18_storage)"
      },
      {
        "astId": 12992,
        "contract": "contracts/PrecogRealityOracleV2.sol:PrecogRealityOracleV2",
        "label": "precogMaster",
        "offset": 0,
        "slot": "1",
        "type": "t_address"
      },
      {
        "astId": 12994,
        "contract": "contracts/PrecogRealityOracleV2.sol:PrecogRealityOracleV2",
        "label": "reality",
        "offset": 0,
        "slot": "2",
        "type": "t_address"
      },
      {
        "astId": 12996,
        "contract": "contracts/PrecogRealityOracleV2.sol:PrecogRealityOracleV2",
        "label": "arbitrator",
        "offset": 0,
        "slot": "3",
        "type": "t_address"
      },
      {
        "astId": 12998,
        "contract": "contracts/PrecogRealityOracleV2.sol:PrecogRealityOracleV2",
        "label": "maxAnswerBond",
        "offset": 0,
        "slot": "4",
        "type": "t_uint256"
      },
      {
        "astId": 13002,
        "contract": "contracts/PrecogRealityOracleV2.sol:PrecogRealityOracleV2",
        "label": "markets",
        "offset": 0,
        "slot": "5",
        "type": "t_mapping(t_uint256,t_struct(MarketInfo)12990_storage)"
      },
      {
        "astId": 13008,
        "contract": "contracts/PrecogRealityOracleV2.sol:PrecogRealityOracleV2",
        "label": "marketReporters",
        "offset": 0,
        "slot": "6",
        "type": "t_mapping(t_uint256,t_mapping(t_address,t_bool))"
      }
    ],
    "types": {
      "t_address": {
        "encoding": "inplace",
        "label": "address",
        "numberOfBytes": "20"
      },
      "t_array(t_bytes32)dyn_storage": {
        "base": "t_bytes32",
        "encoding": "dynamic_array",
        "label": "bytes32[]",
        "numberOfBytes": "32"
      },
      "t_bool": {
        "encoding": "inplace",
        "label": "bool",
        "numberOfBytes": "1"
      },
      "t_bytes32": {
        "encoding": "inplace",
        "label": "bytes32",
        "numberOfBytes": "32"
      },
      "t_mapping(t_address,t_bool)": {
        "encoding": "mapping",
        "key": "t_address",
        "label": "mapping(address => bool)",
        "numberOfBytes": "32",
        "value": "t_bool"
      },
      "t_mapping(t_bytes32,t_struct(RoleData)18_storage)": {
        "encoding": "mapping",
        "key": "t_bytes32",
        "label": "mapping(bytes32 => struct AccessControl.RoleData)",
        "numberOfBytes": "32",
        "value": "t_struct(RoleData)18_storage"
      },
      "t_mapping(t_bytes32,t_uint256)": {
        "encoding": "mapping",
        "key": "t_bytes32",
        "label": "mapping(bytes32 => uint256)",
        "numberOfBytes": "32",
        "value": "t_uint256"
      },
      "t_mapping(t_uint256,t_mapping(t_address,t_bool))": {
        "encoding": "mapping",
        "key": "t_uint256",
        "label": "mapping(uint256 => mapping(address => bool))",
        "numberOfBytes": "32",
        "value": "t_mapping(t_address,t_bool)"
      },
      "t_mapping(t_uint256,t_struct(MarketInfo)12990_storage)": {
        "encoding": "mapping",
        "key": "t_uint256",
        "label": "mapping(uint256 => struct PrecogRealityOracleV2.MarketInfo)",
        "numberOfBytes": "32",
        "value": "t_struct(MarketInfo)12990_storage"
      },
      "t_string_storage": {
        "encoding": "bytes",
        "label": "string",
        "numberOfBytes": "32"
      },
      "t_struct(AddressSet)2275_storage": {
        "encoding": "inplace",
        "label": "struct EnumerableSet.AddressSet",
        "members": [
          {
            "astId": 2274,
            "contract": "contracts/PrecogRealityOracleV2.sol:PrecogRealityOracleV2",
            "label": "_inner",
            "offset": 0,
            "slot": "0",
            "type": "t_struct(Set)2010_storage"
          }
        ],
        "numberOfBytes": "64"
      },
      "t_struct(MarketInfo)12990_storage": {
        "encoding": "inplace",
        "label": "struct PrecogRealityOracleV2.MarketInfo",
        "members": [
          {
            "astId": 12979,
            "contract": "contracts/PrecogRealityOracleV2.sol:PrecogRealityOracleV2",
            "label": "market",
            "offset": 0,
            "slot": "0",
            "type": "t_address"
          },
          {
            "astId": 12981,
            "contract": "contracts/PrecogRealityOracleV2.sol:PrecogRealityOracleV2",
            "label": "questionId",
            "offset": 0,
            "slot": "1",
            "type": "t_bytes32"
          },
          {
            "astId": 12983,
            "contract": "contracts/PrecogRealityOracleV2.sol:PrecogRealityOracleV2",
            "label": "outcomes",
            "offset": 0,
            "slot": "2",
            "type": "t_string_storage"
          },
          {
            "astId": 12985,
            "contract": "contracts/PrecogRealityOracleV2.sol:PrecogRealityOracleV2",
            "label": "answered",
            "offset": 0,
            "slot": "3",
            "type": "t_bool"
          },
          {
            "astId": 12987,
            "contract": "contracts/PrecogRealityOracleV2.sol:PrecogRealityOracleV2",
            "label": "resultIndex",
            "offset": 0,
            "slot": "4",
            "type": "t_uint256"
          },
          {
            "astId": 12989,
            "contract": "contracts/PrecogRealityOracleV2.sol:PrecogRealityOracleV2",
            "label": "resultLabel",
            "offset": 0,
            "slot": "5",
            "type": "t_string_storage"
          }
        ],
        "numberOfBytes": "192"
      },
      "t_struct(RoleData)18_storage": {
        "encoding": "inplace",
        "label": "struct AccessControl.RoleData",
        "members": [
          {
            "astId": 15,
            "contract": "contracts/PrecogRealityOracleV2.sol:PrecogRealityOracleV2",
            "label": "members",
            "offset": 0,
            "slot": "0",
            "type": "t_struct(AddressSet)2275_storage"
          },
          {
            "astId": 17,
            "contract": "contracts/PrecogRealityOracleV2.sol:PrecogRealityOracleV2",
            "label": "adminRole",
            "offset": 0,
            "slot": "2",
            "type": "t_bytes32"
          }
        ],
        "numberOfBytes": "96"
      },
      "t_struct(Set)2010_storage": {
        "encoding": "inplace",
        "label": "struct EnumerableSet.Set",
        "members": [
          {
            "astId": 2005,
            "contract": "contracts/PrecogRealityOracleV2.sol:PrecogRealityOracleV2",
            "label": "_values",
            "offset": 0,
            "slot": "0",
            "type": "t_array(t_bytes32)dyn_storage"
          },
          {
            "astId": 2009,
            "contract": "contracts/PrecogRealityOracleV2.sol:PrecogRealityOracleV2",
            "label": "_indexes",
            "offset": 0,
            "slot": "1",
            "type": "t_mapping(t_bytes32,t_uint256)"
          }
        ],
        "numberOfBytes": "64"
      },
      "t_uint256": {
        "encoding": "inplace",
        "label": "uint256",
        "numberOfBytes": "32"
      }
    }
  }
}