{
  "address": "0x065d23d57C45459fA5e14DAB84F3501c38728F27",
  "abi": [
    {
      "inputs": [],
      "stateMutability": "nonpayable",
      "type": "constructor"
    },
    {
      "anonymous": false,
      "inputs": [
        {
          "indexed": true,
          "internalType": "address",
          "name": "account",
          "type": "address"
        },
        {
          "indexed": true,
          "internalType": "address",
          "name": "operator",
          "type": "address"
        },
        {
          "indexed": false,
          "internalType": "bool",
          "name": "approved",
          "type": "bool"
        }
      ],
      "name": "ApprovalForAll",
      "type": "event"
    },
    {
      "anonymous": false,
      "inputs": [
        {
          "indexed": true,
          "internalType": "bytes32",
          "name": "conditionId",
          "type": "bytes32"
        },
        {
          "indexed": true,
          "internalType": "address",
          "name": "oracle",
          "type": "address"
        },
        {
          "indexed": true,
          "internalType": "bytes32",
          "name": "questionId",
          "type": "bytes32"
        },
        {
          "indexed": false,
          "internalType": "uint256",
          "name": "outcomeSlotCount",
          "type": "uint256"
        }
      ],
      "name": "ConditionPreparation",
      "type": "event"
    },
    {
      "anonymous": false,
      "inputs": [
        {
          "indexed": true,
          "internalType": "bytes32",
          "name": "conditionId",
          "type": "bytes32"
        },
        {
          "indexed": true,
          "internalType": "address",
          "name": "oracle",
          "type": "address"
        },
        {
          "indexed": true,
          "internalType": "bytes32",
          "name": "questionId",
          "type": "bytes32"
        },
        {
          "indexed": false,
          "internalType": "uint256",
          "name": "outcomeSlotCount",
          "type": "uint256"
        },
        {
          "indexed": false,
          "internalType": "uint256[]",
          "name": "payoutNumerators",
          "type": "uint256[]"
        }
      ],
      "name": "ConditionResolution",
      "type": "event"
    },
    {
      "anonymous": false,
      "inputs": [
        {
          "indexed": true,
          "internalType": "address",
          "name": "redeemer",
          "type": "address"
        },
        {
          "indexed": true,
          "internalType": "contract IERC20",
          "name": "collateralToken",
          "type": "address"
        },
        {
          "indexed": true,
          "internalType": "bytes32",
          "name": "parentCollectionId",
          "type": "bytes32"
        },
        {
          "indexed": false,
          "internalType": "bytes32",
          "name": "conditionId",
          "type": "bytes32"
        },
        {
          "indexed": false,
          "internalType": "uint256[]",
          "name": "indexSets",
          "type": "uint256[]"
        },
        {
          "indexed": false,
          "internalType": "uint256",
          "name": "payout",
          "type": "uint256"
        }
      ],
      "name": "PayoutRedemption",
      "type": "event"
    },
    {
      "anonymous": false,
      "inputs": [
        {
          "indexed": true,
          "internalType": "address",
          "name": "stakeholder",
          "type": "address"
        },
        {
          "indexed": false,
          "internalType": "contract IERC20",
          "name": "collateralToken",
          "type": "address"
        },
        {
          "indexed": true,
          "internalType": "bytes32",
          "name": "parentCollectionId",
          "type": "bytes32"
        },
        {
          "indexed": true,
          "internalType": "bytes32",
          "name": "conditionId",
          "type": "bytes32"
        },
        {
          "indexed": false,
          "internalType": "uint256[]",
          "name": "partition",
          "type": "uint256[]"
        },
        {
          "indexed": false,
          "internalType": "uint256",
          "name": "amount",
          "type": "uint256"
        }
      ],
      "name": "PositionSplit",
      "type": "event"
    },
    {
      "anonymous": false,
      "inputs": [
        {
          "indexed": true,
          "internalType": "address",
          "name": "stakeholder",
          "type": "address"
        },
        {
          "indexed": false,
          "internalType": "contract IERC20",
          "name": "collateralToken",
          "type": "address"
        },
        {
          "indexed": true,
          "internalType": "bytes32",
          "name": "parentCollectionId",
          "type": "bytes32"
        },
        {
          "indexed": true,
          "internalType": "bytes32",
          "name": "conditionId",
          "type": "bytes32"
        },
        {
          "indexed": false,
          "internalType": "uint256[]",
          "name": "partition",
          "type": "uint256[]"
        },
        {
          "indexed": false,
          "internalType": "uint256",
          "name": "amount",
          "type": "uint256"
        }
      ],
      "name": "PositionsMerge",
      "type": "event"
    },
    {
      "anonymous": false,
      "inputs": [
        {
          "indexed": true,
          "internalType": "address",
          "name": "operator",
          "type": "address"
        },
        {
          "indexed": true,
          "internalType": "address",
          "name": "from",
          "type": "address"
        },
        {
          "indexed": true,
          "internalType": "address",
          "name": "to",
          "type": "address"
        },
        {
          "indexed": false,
          "internalType": "uint256[]",
          "name": "ids",
          "type": "uint256[]"
        },
        {
          "indexed": false,
          "internalType": "uint256[]",
          "name": "values",
          "type": "uint256[]"
        }
      ],
      "name": "TransferBatch",
      "type": "event"
    },
    {
      "anonymous": false,
      "inputs": [
        {
          "indexed": true,
          "internalType": "address",
          "name": "operator",
          "type": "address"
        },
        {
          "indexed": true,
          "internalType": "address",
          "name": "from",
          "type": "address"
        },
        {
          "indexed": true,
          "internalType": "address",
          "name": "to",
          "type": "address"
        },
        {
          "indexed": false,
          "internalType": "uint256",
          "name": "id",
          "type": "uint256"
        },
        {
          "indexed": false,
          "internalType": "uint256",
          "name": "value",
          "type": "uint256"
        }
      ],
      "name": "TransferSingle",
      "type": "event"
    },
    {
      "anonymous": false,
      "inputs": [
        {
          "indexed": false,
          "internalType": "string",
          "name": "value",
          "type": "string"
        },
        {
          "indexed": true,
          "internalType": "uint256",
          "name": "id",
          "type": "uint256"
        }
      ],
      "name": "URI",
      "type": "event"
    },
    {
      "inputs": [
        {
          "internalType": "address",
          "name": "account",
          "type": "address"
        },
        {
          "internalType": "uint256",
          "name": "id",
          "type": "uint256"
        }
      ],
      "name": "balanceOf",
      "outputs": [
        {
          "internalType": "uint256",
          "name": "",
          "type": "uint256"
        }
      ],
      "stateMutability": "view",
      "type": "function"
    },
    {
      "inputs": [
        {
          "internalType": "address[]",
          "name": "accounts",
          "type": "address[]"
        },
        {
          "internalType": "uint256[]",
          "name": "ids",
          "type": "uint256[]"
        }
      ],
      "name": "balanceOfBatch",
      "outputs": [
        {
          "internalType": "uint256[]",
          "name": "",
          "type": "uint256[]"
        }
      ],
      "stateMutability": "view",
      "type": "function"
    },
    {
      "inputs": [
        {
          "internalType": "bytes32",
          "name": "parentCollectionId",
          "type": "bytes32"
        },
        {
          "internalType": "bytes32",
          "name": "conditionId",
          "type": "bytes32"
        },
        {
          "internalType": "uint256",
          "name": "indexSet",
          "type": "uint256"
        }
      ],
      "name": "getCollectionId",
      "outputs": [
        {
          "internalType": "bytes32",
          "name": "",
          "type": "bytes32"
        }
      ],
      "stateMutability": "view",
      "type": "function"
    },
    {
      "inputs": [
        {
          "internalType": "address",
          "name": "oracle",
          "type": "address"
        },
        {
          "internalType": "bytes32",
          "name": "questionId",
          "type": "bytes32"
        },
        {
          "internalType": "uint256",
          "name": "outcomeSlotCount",
          "type": "uint256"
        }
      ],
      "name": "getConditionId",
      "outputs": [
        {
          "internalType": "bytes32",
          "name": "",
          "type": "bytes32"
        }
      ],
      "stateMutability": "pure",
      "type": "function"
    },
    {
      "inputs": [
        {
          "internalType": "bytes32",
          "name": "conditionId",
          "type": "bytes32"
        }
      ],
      "name": "getOutcomeSlotCount",
      "outputs": [
        {
          "internalType": "uint256",
          "name": "",
          "type": "uint256"
        }
      ],
      "stateMutability": "view",
      "type": "function"
    },
    {
      "inputs": [
        {
          "internalType": "contract IERC20",
          "name": "collateralToken",
          "type": "address"
        },
        {
          "internalType": "bytes32",
          "name": "collectionId",
          "type": "bytes32"
        }
      ],
      "name": "getPositionId",
      "outputs": [
        {
          "internalType": "uint256",
          "name": "",
          "type": "uint256"
        }
      ],
      "stateMutability": "pure",
      "type": "function"
    },
    {
      "inputs": [
        {
          "internalType": "address",
          "name": "account",
          "type": "address"
        },
        {
          "internalType": "address",
          "name": "operator",
          "type": "address"
        }
      ],
      "name": "isApprovedForAll",
      "outputs": [
        {
          "internalType": "bool",
          "name": "",
          "type": "bool"
        }
      ],
      "stateMutability": "view",
      "type": "function"
    },
    {
      "inputs": [
        {
          "internalType": "contract IERC20",
          "name": "collateralToken",
          "type": "address"
        },
        {
          "internalType": "bytes32",
          "name": "parentCollectionId",
          "type": "bytes32"
        },
        {
          "internalType": "bytes32",
          "name": "conditionId",
          "type": "bytes32"
        },
        {
          "internalType": "uint256[]",
          "name": "partition",
          "type": "uint256[]"
        },
        {
          "internalType": "uint256",
          "name": "amount",
          "type": "uint256"
        }
      ],
      "name": "mergePositions",
      "outputs": [],
      "stateMutability": "nonpayable",
      "type": "function"
    },
    {
      "inputs": [
        {
          "internalType": "bytes32",
          "name": "",
          "type": "bytes32"
        }
      ],
      "name": "payoutDenominator",
      "outputs": [
        {
          "internalType": "uint256",
          "name": "",
          "type": "uint256"
        }
      ],
      "stateMutability": "view",
      "type": "function"
    },
    {
      "inputs": [
        {
          "internalType": "bytes32",
          "name": "",
          "type": "bytes32"
        },
        {
          "internalType": "uint256",
          "name": "",
          "type": "uint256"
        }
      ],
      "name": "payoutNumerators",
      "outputs": [
        {
          "internalType": "uint256",
          "name": "",
          "type": "uint256"
        }
      ],
      "stateMutability": "view",
      "type": "function"
    },
    {
      "inputs": [
        {
          "internalType": "address",
          "name": "oracle",
          "type": "address"
        },
        {
          "internalType": "bytes32",
          "name": "questionId",
          "type": "bytes32"
        },
        {
          "internalType": "uint256",
          "name": "outcomeSlotCount",
          "type": "uint256"
        }
      ],
      "name": "prepareCondition",
      "outputs": [],
      "stateMutability": "nonpayable",
      "type": "function"
    },
    {
      "inputs": [
        {
          "internalType": "contract IERC20",
          "name": "collateralToken",
          "type": "address"
        },
        {
          "internalType": "bytes32",
          "name": "parentCollectionId",
          "type": "bytes32"
        },
        {
          "internalType": "bytes32",
          "name": "conditionId",
          "type": "bytes32"
        },
        {
          "internalType": "uint256[]",
          "name": "indexSets",
          "type": "uint256[]"
        }
      ],
      "name": "redeemPositions",
      "outputs": [],
      "stateMutability": "nonpayable",
      "type": "function"
    },
    {
      "inputs": [
        {
          "internalType": "bytes32",
          "name": "questionId",
          "type": "bytes32"
        },
        {
          "internalType": "uint256[]",
          "name": "payouts",
          "type": "uint256[]"
        }
      ],
      "name": "reportPayouts",
      "outputs": [],
      "stateMutability": "nonpayable",
      "type": "function"
    },
    {
      "inputs": [
        {
          "internalType": "address",
          "name": "from",
          "type": "address"
        },
        {
          "internalType": "address",
          "name": "to",
          "type": "address"
        },
        {
          "internalType": "uint256[]",
          "name": "ids",
          "type": "uint256[]"
        },
        {
          "internalType": "uint256[]",
          "name": "amounts",
          "type": "uint256[]"
        },
        {
          "internalType": "bytes",
          "name": "data",
          "type": "bytes"
        }
      ],
      "name": "safeBatchTransferFrom",
      "outputs": [],
      "stateMutability": "nonpayable",
      "type": "function"
    },
    {
      "inputs": [
        {
          "internalType": "address",
          "name": "from",
          "type": "address"
        },
        {
          "internalType": "address",
          "name": "to",
          "type": "address"
        },
        {
          "internalType": "uint256",
          "name": "id",
          "type": "uint256"
        },
        {
          "internalType": "uint256",
          "name": "amount",
          "type": "uint256"
        },
        {
          "internalType": "bytes",
          "name": "data",
          "type": "bytes"
        }
      ],
      "name": "safeTransferFrom",
      "outputs": [],
      "stateMutability": "nonpayable",
      "type": "function"
    },
    {
      "inputs": [
        {
          "internalType": "address",
          "name": "operator",
          "type": "address"
        },
        {
          "internalType": "bool",
          "name": "approved",
          "type": "bool"
        }
      ],
      "name": "setApprovalForAll",
      "outputs": [],
      "stateMutability": "nonpayable",
      "type": "function"
    },
    {
      "inputs": [
        {
          "internalType": "contract IERC20",
          "name": "collateralToken",
          "type": "address"
        },
        {
          "internalType": "bytes32",
          "name": "parentCollectionId",
          "type": "bytes32"
        },
        {
          "internalType": "bytes32",
          "name": "conditionId",
          "type": "bytes32"
        },
        {
          "internalType": "uint256[]",
          "name": "partition",
          "type": "uint256[]"
        },
        {
          "internalType": "uint256",
          "name": "amount",
          "type": "uint256"
        }
      ],
      "name": "splitPosition",
      "outputs": [],
      "stateMutability": "nonpayable",
      "type": "function"
    },
    {
      "inputs": [
        {
          "internalType": "bytes4",
          "name": "interfaceId",
          "type": "bytes4"
        }
      ],
      "name": "supportsInterface",
      "outputs": [
        {
          "internalType": "bool",
          "name": "",
          "type": "bool"
        }
      ],
      "stateMutability": "view",
      "type": "function"
    },
    {
      "inputs": [
        {
          "internalType": "uint256",
          "name": "",
          "type": "uint256"
        }
      ],
      "name": "uri",
      "outputs": [
        {
          "internalType": "string",
          "name": "",
          "type": "string"
        }
      ],
      "stateMutability": "view",
      "type": "function"
    }
  ],
  "transactionHash": "0xa2b4e31a028a2dc42fd70d3fbdcc12e3f24bbc198f596c74d7c27e6475730d5e",
  "args": [],
  "numDeployments": 2,
  "solcInputHash": "683a43f7dc693b30f76d2e090e9d827c",
  "bytecode": "0x60806040523480156200001157600080fd5b50604080516020810190915260008152620000336301ffc9a760e01b62000069565b6200003e81620000ee565b62000050636cdb3d1360e11b62000069565b620000626303a24d0760e21b62000069565b50620001b3565b6001600160e01b03198082161415620000c9576040805162461bcd60e51b815260206004820152601c60248201527f4552433136353a20696e76616c696420696e7465726661636520696400000000604482015290519081900360640190fd5b6001600160e01b0319166000908152602081905260409020805460ff19166001179055565b80516200010390600390602084019062000107565b5050565b828054600181600116156101000203166002900490600052602060002090601f0160209004810192826200013f57600085556200018a565b82601f106200015a57805160ff19168380011785556200018a565b828001600101855582156200018a579182015b828111156200018a5782518255916020019190600101906200016d565b50620001989291506200019c565b5090565b5b808211156200019857600081556001016200019d565b61408380620001c36000396000f3fe608060405234801561001057600080fd5b50600436106101505760003560e01c8063852c6ae2116100cd578063d42dc0c211610081578063dd34de6711610066578063dd34de67146108e2578063e985e9c5146108ff578063f242432a1461092d57610150565b8063d42dc0c214610893578063d96ee754146108b057610150565b80639e7212ad116100b25780639e7212ad14610762578063a22cb465146107ee578063c49298ac1461081c57610150565b8063852c6ae214610707578063856296f71461073957610150565b80630e89341c1161012457806339dd75301161010957806339dd7530146104d85780634e1273f41461050457806372ce42751461067b57610150565b80630e89341c1461027f5780632eb2c2d61461031157610150565b8062fdd58e1461015557806301b7037c1461019357806301ffc9a7146102215780630504c8141461025c575b600080fd5b6101816004803603604081101561016b57600080fd5b506001600160a01b0381351690602001356109f8565b60408051918252519081900360200190f35b61021f600480360360808110156101a957600080fd5b6001600160a01b0382351691602081013591604082013591908101906080810160608201356401000000008111156101e057600080fd5b8201836020820111156101f257600080fd5b8035906020019184602083028401116401000000008311171561021457600080fd5b509092509050610a6a565b005b6102486004803603602081101561023757600080fd5b50356001600160e01b031916610de2565b604080519115158252519081900360200190f35b6101816004803603604081101561027257600080fd5b5080359060200135610e01565b61029c6004803603602081101561029557600080fd5b5035610e32565b6040805160208082528351818301528351919283929083019185019080838360005b838110156102d65781810151838201526020016102be565b50505050905090810190601f1680156103035780820380516001836020036101000a031916815260200191505b509250505060405180910390f35b61021f600480360360a081101561032757600080fd5b6001600160a01b03823581169260208101359091169181019060608101604082013564010000000081111561035b57600080fd5b82018360208201111561036d57600080fd5b8035906020019184602083028401116401000000008311171561038f57600080fd5b91908080602002602001604051908101604052809392919081815260200183836020028082843760009201919091525092959493602081019350359150506401000000008111156103df57600080fd5b8201836020820111156103f157600080fd5b8035906020019184602083028401116401000000008311171561041357600080fd5b919080806020026020016040519081016040528093929190818152602001838360200280828437600092019190915250929594936020810193503591505064010000000081111561046357600080fd5b82018360208201111561047557600080fd5b8035906020019184600183028401116401000000008311171561049757600080fd5b91908080601f016020809104026020016040519081016040528093929190818152602001838380828437600092019190915250929550610eca945050505050565b610181600480360360408110156104ee57600080fd5b506001600160a01b0381351690602001356111c8565b61062b6004803603604081101561051a57600080fd5b81019060208101813564010000000081111561053557600080fd5b82018360208201111561054757600080fd5b8035906020019184602083028401116401000000008311171561056957600080fd5b91908080602002602001604051908101604052809392919081815260200183836020028082843760009201919091525092959493602081019350359150506401000000008111156105b957600080fd5b8201836020820111156105cb57600080fd5b803590602001918460208302840111640100000000831117156105ed57600080fd5b9190808060200260200160405190810160405280939291908181526020018383602002808284376000920191909152509295506111db945050505050565b60408051602080825283518183015283519192839290830191858101910280838360005b8381101561066757818101518382015260200161064f565b505050509050019250505060405180910390f35b61021f600480360360a081101561069157600080fd5b6001600160a01b0382351691602081013591604082013591908101906080810160608201356401000000008111156106c857600080fd5b8201836020820111156106da57600080fd5b803590602001918460208302840111640100000000831117156106fc57600080fd5b9193509150356112c7565b6101816004803603606081101561071d57600080fd5b506001600160a01b0381351690602081013590604001356116f9565b6101816004803603606081101561074f57600080fd5b508035906020810135906040013561170e565b61021f600480360360a081101561077857600080fd5b6001600160a01b0382351691602081013591604082013591908101906080810160608201356401000000008111156107af57600080fd5b8201836020820111156107c157600080fd5b803590602001918460208302840111640100000000831117156107e357600080fd5b91935091503561171b565b61021f6004803603604081101561080457600080fd5b506001600160a01b0381351690602001351515611b44565b61021f6004803603604081101561083257600080fd5b8135919081019060408101602082013564010000000081111561085457600080fd5b82018360208201111561086657600080fd5b8035906020019184602083028401116401000000008311171561088857600080fd5b509092509050611c33565b610181600480360360208110156108a957600080fd5b5035611f26565b61021f600480360360608110156108c657600080fd5b506001600160a01b038135169060208101359060400135611f38565b610181600480360360208110156108f857600080fd5b50356120ee565b6102486004803603604081101561091557600080fd5b506001600160a01b0381358116916020013516612100565b61021f600480360360a081101561094357600080fd5b6001600160a01b03823581169260208101359091169160408201359160608101359181019060a08101608082013564010000000081111561098357600080fd5b82018360208201111561099557600080fd5b803590602001918460018302840111640100000000831117156109b757600080fd5b91908080601f01602080910402602001604051908101604052809392919081815260200183838082843760009201919091525092955061212e945050505050565b60006001600160a01b038316610a3f5760405162461bcd60e51b815260040180806020018281038252602b815260200180613dfe602b913960400191505060405180910390fd5b5060008181526001602090815260408083206001600160a01b03861684529091529020545b92915050565b60008381526005602052604090205480610ab55760405162461bcd60e51b8152600401808060200182810382526025815260200180613dd96025913960400191505060405180910390fd5b60008481526004602052604090205480610b16576040805162461bcd60e51b815260206004820152601a60248201527f636f6e646974696f6e206e6f7420707265706172656420796574000000000000604482015290519081900360640190fd5b60006000196001831b01815b85811015610c64576000878783818110610b3857fe5b905060200201359050600081118015610b5057508281105b610ba1576040805162461bcd60e51b815260206004820152601560248201527f676f7420696e76616c696420696e646578207365740000000000000000000000604482015290519081900360640190fd5b6000610bb78c610bb28d8d866122f9565b61270f565b90506000805b87811015610c14576001811b841615610c0c5760008c81526004602052604090208054610c09919083908110610bef57fe5b90600052602060002001548361275390919063ffffffff16565b91505b600101610bbd565b506000610c2133846109f8565b90508015610c5457610c47610c408a610c3a84866127ad565b90612806565b8890612753565b9650610c5433848361286d565b505060019092019150610b229050565b508115610d4f5787610d2b576040805163a9059cbb60e01b81523360048201526024810184905290516001600160a01b038b169163a9059cbb9160448083019260209291908290030181600087803b158015610cbf57600080fd5b505af1158015610cd3573d6000803e3d6000fd5b505050506040513d6020811015610ce957600080fd5b5051610d265760405162461bcd60e51b815260040180806020018281038252602b815260200180613e29602b913960400191505060405180910390fd5b610d4f565b610d4f33610d398b8b61270f565b84604051806020016040528060008152506129a0565b87896001600160a01b0316336001600160a01b03167f2682012a4a4f1973119f1c9b90745d1bd91fa2bab387344f044cb3586864d18d8a8a8a8860405180858152602001806020018381526020018281038252858582818152602001925060200280828437600083820152604051601f909101601f191690920182900397509095505050505050a4505050505050505050565b6001600160e01b03191660009081526020819052604090205460ff1690565b60046020528160005260406000208181548110610e1d57600080fd5b90600052602060002001600091509150505481565b60038054604080516020601f6002600019610100600188161502019095169490940493840181900481028201810190925282815260609390929091830182828015610ebe5780601f10610e9357610100808354040283529160200191610ebe565b820191906000526020600020905b815481529060010190602001808311610ea157829003601f168201915b50505050509050919050565b8151835114610f0a5760405162461bcd60e51b81526004018080602001828103825260288152602001806140056028913960400191505060405180910390fd5b6001600160a01b038416610f4f5760405162461bcd60e51b8152600401808060200182810382526025815260200180613ea16025913960400191505060405180910390fd5b610f57612aa8565b6001600160a01b0316856001600160a01b03161480610f825750610f8285610f7d612aa8565b612100565b610fbd5760405162461bcd60e51b8152600401808060200182810382526032815260200180613ec66032913960400191505060405180910390fd5b6000610fc7612aa8565b9050610fd78187878787876111c0565b60005b84518110156110d8576000858281518110610ff157fe5b60200260200101519050600085838151811061100957fe5b60200260200101519050611076816040518060600160405280602a8152602001613f3e602a91396001600086815260200190815260200160002060008d6001600160a01b03166001600160a01b0316815260200190815260200160002054612aad9092919063ffffffff16565b60008381526001602090815260408083206001600160a01b038e811685529252808320939093558a16815220546110ad9082612753565b60009283526001602081815260408086206001600160a01b038d168752909152909320555001610fda565b50846001600160a01b0316866001600160a01b0316826001600160a01b03167f4a39dc06d4c0dbc64b70af90fd698a233a518aa5d07e595d983b8c0526c8f7fb8787604051808060200180602001838103835285818151815260200191508051906020019060200280838360005b8381101561115e578181015183820152602001611146565b50505050905001838103825284818151815260200191508051906020019060200280838360005b8381101561119d578181015183820152602001611185565b5050505090500194505050505060405180910390a46111c0818787878787612b44565b505050505050565b60006111d4838361270f565b9392505050565b6060815183511461121d5760405162461bcd60e51b8152600401808060200182810382526029815260200180613fdc6029913960400191505060405180910390fd5b6000835167ffffffffffffffff8111801561123757600080fd5b50604051908082528060200260200182016040528015611261578160200160208202803683370190505b50905060005b84518110156112bf576112a085828151811061127f57fe5b602002602001015185838151811061129357fe5b60200260200101516109f8565b8282815181106112ac57fe5b6020908102919091010152600101611267565b509392505050565b6001821161131c576040805162461bcd60e51b815260206004820181905260248201527f676f7420656d707479206f722073696e676c65746f6e20706172746974696f6e604482015290519081900360640190fd5b6000848152600460205260409020548061137d576040805162461bcd60e51b815260206004820152601a60248201527f636f6e646974696f6e206e6f7420707265706172656420796574000000000000604482015290519081900360640190fd5b6000196001821b018060008567ffffffffffffffff8111801561139f57600080fd5b506040519080825280602002602001820160405280156113c9578160200160208202803683370190505b50905060008667ffffffffffffffff811180156113e557600080fd5b5060405190808252806020026020018201604052801561140f578160200160208202803683370190505b50905060005b8781101561153657600089898381811061142b57fe5b90506020020135905060008111801561144357508581105b611494576040805162461bcd60e51b815260206004820152601560248201527f676f7420696e76616c696420696e646578207365740000000000000000000000604482015290519081900360640190fd5b80858216146114ea576040805162461bcd60e51b815260206004820152601660248201527f706172746974696f6e206e6f74206469736a6f696e7400000000000000000000604482015290519081900360640190fd5b938418936114fd8d610bb28e8e856122f9565b84838151811061150957fe5b6020026020010181815250508783838151811061152257fe5b602090810291909101015250600101611415565b5082611634578961161b57604080517f23b872dd0000000000000000000000000000000000000000000000000000000081523360048201523060248201526044810188905290516001600160a01b038d16916323b872dd9160648083019260209291908290030181600087803b1580156115af57600080fd5b505af11580156115c3573d6000803e3d6000fd5b505050506040513d60208110156115d957600080fd5b50516116165760405162461bcd60e51b8152600401808060200182810382526023815260200180613ef86023913960400191505060405180910390fd5b61162f565b61162f336116298d8d61270f565b8861286d565b611649565b611649336116298d610bb28e8e898b186122f9565b61166433838360405180602001604052806000815250612ddc565b888a336001600160a01b03167f2e6bb91f8cbcda0c93623c54d0403a43514fabc40084ec96b6d5379a747862988e8c8c8c60405180856001600160a01b03168152602001806020018381526020018281038252858582818152602001925060200280828437600083820152604051601f909101601f191690920182900397509095505050505050a45050505050505050505050565b600061170684848461302a565b949350505050565b60006117068484846122f9565b60018211611770576040805162461bcd60e51b815260206004820181905260248201527f676f7420656d707479206f722073696e676c65746f6e20706172746974696f6e604482015290519081900360640190fd5b600084815260046020526040902054806117d1576040805162461bcd60e51b815260206004820152601a60248201527f636f6e646974696f6e206e6f7420707265706172656420796574000000000000604482015290519081900360640190fd5b6000196001821b018060008567ffffffffffffffff811180156117f357600080fd5b5060405190808252806020026020018201604052801561181d578160200160208202803683370190505b50905060008667ffffffffffffffff8111801561183957600080fd5b50604051908082528060200260200182016040528015611863578160200160208202803683370190505b50905060005b8781101561198a57600089898381811061187f57fe5b90506020020135905060008111801561189757508581105b6118e8576040805162461bcd60e51b815260206004820152601560248201527f676f7420696e76616c696420696e646578207365740000000000000000000000604482015290519081900360640190fd5b808582161461193e576040805162461bcd60e51b815260206004820152601660248201527f706172746974696f6e206e6f74206469736a6f696e7400000000000000000000604482015290519081900360640190fd5b938418936119518d610bb28e8e856122f9565b84838151811061195d57fe5b6020026020010181815250508783838151811061197657fe5b602090810291909101015250600101611869565b50611996338383613077565b82611a9a5789611a71576040805163a9059cbb60e01b81523360048201526024810188905290516001600160a01b038d169163a9059cbb9160448083019260209291908290030181600087803b1580156119ef57600080fd5b505af1158015611a03573d6000803e3d6000fd5b505050506040513d6020811015611a1957600080fd5b5051611a6c576040805162461bcd60e51b815260206004820181905260248201527f636f756c64206e6f742073656e6420636f6c6c61746572616c20746f6b656e73604482015290519081900360640190fd5b611a95565b611a9533611a7f8d8d61270f565b88604051806020016040528060008152506129a0565b611aaf565b611aaf33611a7f8d610bb28e8e898b186122f9565b888a336001600160a01b03167f6f13ca62553fcc2bcd2372180a43949c1e4cebba603901ede2f4e14f36b282ca8e8c8c8c60405180856001600160a01b03168152602001806020018381526020018281038252858582818152602001925060200280828437600083820152604051601f909101601f191690920182900397509095505050505050a45050505050505050505050565b816001600160a01b0316611b56612aa8565b6001600160a01b03161415611b9c5760405162461bcd60e51b8152600401808060200182810382526029815260200180613fb36029913960400191505060405180910390fd5b8060026000611ba9612aa8565b6001600160a01b03908116825260208083019390935260409182016000908120918716808252919093529120805460ff191692151592909217909155611bed612aa8565b6001600160a01b03167f17307eab39ab6107e8899845ad3d59bd9653f200f220920489ca2b5937696c318360405180821515815260200191505060405180910390a35050565b8060018111611c735760405162461bcd60e51b815260040180806020018281038252602a815260200180613f89602a913960400191505060405180910390fd5b6000611c8033868461302a565b6000818152600460205260409020549091508214611ce5576040805162461bcd60e51b815260206004820152601f60248201527f636f6e646974696f6e206e6f74207072657061726564206f7220666f756e6400604482015290519081900360640190fd5b60008181526005602052604090205415611d46576040805162461bcd60e51b815260206004820152601e60248201527f7061796f75742064656e6f6d696e61746f7220616c7265616479207365740000604482015290519081900360640190fd5b6000805b83811015611e2b576000868683818110611d6057fe5b905060200201359050611d7c818461275390919063ffffffff16565b600085815260046020526040902080549194509083908110611d9a57fe5b9060005260206000200154600014611df9576040805162461bcd60e51b815260206004820152601c60248201527f7061796f7574206e756d657261746f7220616c72656164792073657400000000604482015290519081900360640190fd5b6000848152600460205260409020805482919084908110611e1657fe5b60009182526020909120015550600101611d4a565b5060008111611e81576040805162461bcd60e51b815260206004820152601460248201527f7061796f757420697320616c6c207a65726f6573000000000000000000000000604482015290519081900360640190fd5b60008281526005602090815260408083208490556004825291829020825186815291820183815281549383018490528993339387937fb44d84d3289691f71497564b85d4233648d9dbae8cbdbb4329f301c3a0185894938a93919291606083019084908015611f0f57602002820191906000526020600020905b815481526020019060010190808311611efb575b5050935050505060405180910390a4505050505050565b60009081526004602052604090205490565b610100811115611f8f576040805162461bcd60e51b815260206004820152601660248201527f746f6f206d616e79206f7574636f6d6520736c6f747300000000000000000000604482015290519081900360640190fd5b60018111611fce5760405162461bcd60e51b815260040180806020018281038252602a815260200180613f89602a913960400191505060405180910390fd5b6000611fdb84848461302a565b6000818152600460205260409020549091501561203f576040805162461bcd60e51b815260206004820152601a60248201527f636f6e646974696f6e20616c7265616479207072657061726564000000000000604482015290519081900360640190fd5b8167ffffffffffffffff8111801561205657600080fd5b50604051908082528060200260200182016040528015612080578160200160208202803683370190505b50600082815260046020908152604090912082516120a49391929190910190613c71565b5082846001600160a01b0316827fab3760c3bd2bb38b5bcf54dc79802ed67338b4cf29f3054ded67ed24661e4177856040518082815260200191505060405180910390a450505050565b60056020526000908152604090205481565b6001600160a01b03918216600090815260026020908152604080832093909416825291909152205460ff1690565b6001600160a01b0384166121735760405162461bcd60e51b8152600401808060200182810382526025815260200180613ea16025913960400191505060405180910390fd5b61217b612aa8565b6001600160a01b0316856001600160a01b031614806121a157506121a185610f7d612aa8565b6121dc5760405162461bcd60e51b8152600401808060200182810382526029815260200180613e786029913960400191505060405180910390fd5b60006121e6612aa8565b90506122068187876121f7886132e5565b612200886132e5565b876111c0565b61224d836040518060600160405280602a8152602001613f3e602a913960008781526001602090815260408083206001600160a01b038d1684529091529020549190612aad565b60008581526001602090815260408083206001600160a01b038b811685529252808320939093558716815220546122849084612753565b60008581526001602090815260408083206001600160a01b03808b168086529184529382902094909455805188815291820187905280518a8416938616927fc3d58168c5ae7397731d063d5bbf3d657854427343f4c083240f7aacaa2d0f6292908290030190a46111c081878787878761332a565b6040805160208082018590528183018490528251808303840181526060909201909252805191012060009060ff81901c151582805b7f30644e72e131a029b85045b68181585d97816a916871ca8d3c208c16d87cfd476001850893507f30644e72e131a029b85045b68181585d97816a916871ca8d3c208c16d87cfd4760037f30644e72e131a029b85045b68181585d97816a916871ca8d3c208c16d87cfd478087880987090890506123ab816134b4565b9150807f30644e72e131a029b85045b68181585d97816a916871ca8d3c208c16d87cfd47838409141561232e578280156123e6575060028206155b806123fd5750821580156123fd5750600282066001145b1561242857817f30644e72e131a029b85045b68181585d97816a916871ca8d3c208c16d87cfd470391505b8780156126d05760fe81901c151593507f3fffffffffffffffffffffffffffffffffffffffffffffffffffffffffffffff167f30644e72e131a029b85045b68181585d97816a916871ca8d3c208c16d87cfd4760037f30644e72e131a029b85045b68181585d97816a916871ca8d3c208c16d87cfd4780848509840908915060006124b2836134b4565b90508480156124c2575060028106155b806124d95750841580156124d95750600281066001145b15612501577f30644e72e131a029b85045b68181585d97816a916871ca8d3c208c16d87cfd47035b827f30644e72e131a029b85045b68181585d97816a916871ca8d3c208c16d87cfd4782830914612578576040805162461bcd60e51b815260206004820152601c60248201527f696e76616c696420706172656e7420636f6c6c656374696f6e20494400000000604482015290519081900360640190fd5b60008060066001600160a01b031688878686604051602001808581526020018481526020018381526020018281526020019450505050506040516020818303038152906040526040518082805190602001908083835b602083106125ed5780518252601f1990920191602091820191016125ce565b6001836020036101000a038019825116818451168082178552505050505050905001915050600060405180830381855afa9150503d806000811461264d576040519150601f19603f3d011682016040523d82523d6000602084013e612652565b606091505b5091509150816126a9576040805162461bcd60e51b815260206004820152600c60248201527f6563616464206661696c65640000000000000000000000000000000000000000604482015290519081900360640190fd5b8080602001905160408110156126be57600080fd5b50805160209091015190985095505050505b6002830660011415612702577f4000000000000000000000000000000000000000000000000000000000000000851894505b5092979650505050505050565b6040805160609390931b6bffffffffffffffffffffffff19166020808501919091526034808501939093528151808503909301835260549093019052805191012090565b6000828201838110156111d4576040805162461bcd60e51b815260206004820152601b60248201527f536166654d6174683a206164646974696f6e206f766572666c6f770000000000604482015290519081900360640190fd5b6000826127bc57506000610a64565b828202828482816127c957fe5b04146111d45760405162461bcd60e51b8152600401808060200182810382526021815260200180613f686021913960400191505060405180910390fd5b600080821161285c576040805162461bcd60e51b815260206004820152601a60248201527f536166654d6174683a206469766973696f6e206279207a65726f000000000000604482015290519081900360640190fd5b81838161286557fe5b049392505050565b6001600160a01b0383166128b25760405162461bcd60e51b8152600401808060200182810382526023815260200180613f1b6023913960400191505060405180910390fd5b60006128bc612aa8565b90506128ec818560006128ce876132e5565b6128d7876132e5565b604051806020016040528060008152506111c0565b61293382604051806060016040528060248152602001613e546024913960008681526001602090815260408083206001600160a01b038b1684529091529020549190612aad565b60008481526001602090815260408083206001600160a01b03808a16808652918452828520959095558151888152928301879052815193949093908616927fc3d58168c5ae7397731d063d5bbf3d657854427343f4c083240f7aacaa2d0f6292908290030190a450505050565b6001600160a01b0384166129e55760405162461bcd60e51b815260040180806020018281038252602181526020018061402d6021913960400191505060405180910390fd5b60006129ef612aa8565b9050612a01816000876121f7886132e5565b60008481526001602090815260408083206001600160a01b0389168452909152902054612a2e9084612753565b60008581526001602090815260408083206001600160a01b03808b16808652918452828520959095558151898152928301889052815190948616927fc3d58168c5ae7397731d063d5bbf3d657854427343f4c083240f7aacaa2d0f6292908290030190a4612aa18160008787878761332a565b5050505050565b335b90565b60008184841115612b3c5760405162461bcd60e51b81526004018080602001828103825283818151815260200191508051906020019080838360005b83811015612b01578181015183820152602001612ae9565b50505050905090810190601f168015612b2e5780820380516001836020036101000a031916815260200191505b509250505060405180910390fd5b505050900390565b612b56846001600160a01b0316613c6b565b156111c057836001600160a01b031663bc197c8187878686866040518663ffffffff1660e01b815260040180866001600160a01b03168152602001856001600160a01b03168152602001806020018060200180602001848103845287818151815260200191508051906020019060200280838360005b83811015612be4578181015183820152602001612bcc565b50505050905001848103835286818151815260200191508051906020019060200280838360005b83811015612c23578181015183820152602001612c0b565b50505050905001848103825285818151815260200191508051906020019080838360005b83811015612c5f578181015183820152602001612c47565b50505050905090810190601f168015612c8c5780820380516001836020036101000a031916815260200191505b5098505050505050505050602060405180830381600087803b158015612cb157600080fd5b505af1925050508015612cd657506040513d6020811015612cd157600080fd5b505160015b612d6b57612ce2613cd7565b80612ced5750612d34565b60405162461bcd60e51b8152602060048201818152835160248401528351849391928392604401919085019080838360008315612b01578181015183820152602001612ae9565b60405162461bcd60e51b8152600401808060200182810382526034815260200180613d7d6034913960400191505060405180910390fd5b6001600160e01b031981167fbc197c810000000000000000000000000000000000000000000000000000000014612dd35760405162461bcd60e51b8152600401808060200182810382526028815260200180613db16028913960400191505060405180910390fd5b50505050505050565b6001600160a01b038416612e215760405162461bcd60e51b815260040180806020018281038252602181526020018061402d6021913960400191505060405180910390fd5b8151835114612e615760405162461bcd60e51b81526004018080602001828103825260288152602001806140056028913960400191505060405180910390fd5b6000612e6b612aa8565b9050612e7c816000878787876111c0565b60005b8451811015612f4057612ef760016000878481518110612e9b57fe5b602002602001015181526020019081526020016000206000886001600160a01b03166001600160a01b0316815260200190815260200160002054858381518110612ee157fe5b602002602001015161275390919063ffffffff16565b60016000878481518110612f0757fe5b602090810291909101810151825281810192909252604090810160009081206001600160a01b038b168252909252902055600101612e7f565b50846001600160a01b031660006001600160a01b0316826001600160a01b03167f4a39dc06d4c0dbc64b70af90fd698a233a518aa5d07e595d983b8c0526c8f7fb8787604051808060200180602001838103835285818151815260200191508051906020019060200280838360005b83811015612fc7578181015183820152602001612faf565b50505050905001838103825284818151815260200191508051906020019060200280838360005b83811015613006578181015183820152602001612fee565b5050505090500194505050505060405180910390a4612aa181600087878787612b44565b6040805160609490941b6bffffffffffffffffffffffff19166020808601919091526034850193909352605480850192909252805180850390920182526074909301909252815191012090565b6001600160a01b0383166130bc5760405162461bcd60e51b8152600401808060200182810382526023815260200180613f1b6023913960400191505060405180910390fd5b80518251146130fc5760405162461bcd60e51b81526004018080602001828103825260288152602001806140056028913960400191505060405180910390fd5b6000613106612aa8565b9050613126818560008686604051806020016040528060008152506111c0565b60005b8351811015613204576131bb83828151811061314157fe5b6020026020010151604051806060016040528060248152602001613e54602491396001600088868151811061317257fe5b602002602001015181526020019081526020016000206000896001600160a01b03166001600160a01b0316815260200190815260200160002054612aad9092919063ffffffff16565b600160008684815181106131cb57fe5b602090810291909101810151825281810192909252604090810160009081206001600160a01b038a168252909252902055600101613129565b5060006001600160a01b0316846001600160a01b0316826001600160a01b03167f4a39dc06d4c0dbc64b70af90fd698a233a518aa5d07e595d983b8c0526c8f7fb8686604051808060200180602001838103835285818151815260200191508051906020019060200280838360005b8381101561328b578181015183820152602001613273565b50505050905001838103825284818151815260200191508051906020019060200280838360005b838110156132ca5781810151838201526020016132b2565b5050505090500194505050505060405180910390a450505050565b6040805160018082528183019092526060916000919060208083019080368337019050509050828160008151811061331957fe5b602090810291909101015292915050565b61333c846001600160a01b0316613c6b565b156111c057836001600160a01b031663f23a6e6187878686866040518663ffffffff1660e01b815260040180866001600160a01b03168152602001856001600160a01b0316815260200184815260200183815260200180602001828103825283818151815260200191508051906020019080838360005b838110156133cb5781810151838201526020016133b3565b50505050905090810190601f1680156133f85780820380516001836020036101000a031916815260200191505b509650505050505050602060405180830381600087803b15801561341b57600080fd5b505af192505050801561344057506040513d602081101561343b57600080fd5b505160015b61344c57612ce2613cd7565b6001600160e01b031981167ff23a6e610000000000000000000000000000000000000000000000000000000014612dd35760405162461bcd60e51b8152600401808060200182810382526028815260200180613db16028913960400191505060405180910390fd5b60007f30644e72e131a029b85045b68181585d97816a916871ca8d3c208c16d87cfd47808380099150808283098181820990508181840992508183850993508184840992508183840990508181820982818309905082818209905082818209905082818309915082828609945082858609915082828309915082828509935082848509915082828309915082828309915082828509915082828609945082858609915082828309915082828309915082828609915082828509935082848609945082858609915082828309915082828509935082848509915082828309905082818209905082818209905082818309915082828609945082858509935082848509915082828309915082828309915082828609945082858609915082828309915082828609915082828309915082828309915082828609915082828509935082848509915082828309905082818209905082818309905082818509905082818209905082818209905082818209905082818209905082818309915082828609945082858609915082828609915082828509935082848509915082828509915082828309915082828309905082818309905082818209838182099050838182099050838182099050838182099050838183099150508281830991508282860994508285850993508284850991508282860994508285850993508284860994508285850993508284860994508285860991508282860991508282830991508282850993508284850991508282830991508282860994508285850993508284850991508282850991508282860994508285850993508284860994508285850993508284850991508282830991508282850991508282860994508285860991508282860991508282850993508284860994508285850993508284860994508285850993508284850991508282850991508282830991508282860994508285850993508284850991508282850991508282830991508282860994508285860991508282830990508281820990508281830990508281860990508281820990508281820990508281820990508281820990508281830991508282850993508284860994508285850993508284860994508285860991508282860991508282830991508282830991508282830991508282860991508282850993508284850991508282850991508282830991508282860994508285860991508282860991508282850993508284860994508285860991508282830991508282850993508284860994508285860991508282850993508284860994508285850993508284850991508282850991508282860994508285850993508284850991508282850991508282830991508282830991508282860994508285860991508282830991508282830991508282860991508282850993508284860994508285860991508282860990508281820990508281820990508281830991508282850993508284850991508282860994508285850993508284860994508285850993508284860994508285850993508284850991508282850990508281850991508282830991508282830991508282820991505081818509935081848409925081838509935081848409925081838509935081848509905081818509905081818409925050808284099250808384099250808384099250808384099250808384099250808384099250808384099250808384099250808384099250808384099250808384099250808384099250808384099250808384099250808384099250808384099250808384099250808384099250808384099250808384099250808384099250808384099250808384099250808384099250808384099250808384099250808384099250808384099250808384099250808384099250808384099250808384099250808384099250808384099250808384099250808384099250808384099250808384099250808384099250808384099250808384099250808384099250808384099250808384099250808384099250808384099250808384099250808384099250808384099250808384099250808384099250808384099250808384099250808384099250808384099250808384099250808384099250808384099250808384099250808384099250808384099250808384099250808384099250808384099250808384099250808384099250808384099250808384099250808384099250808384099250808384099250808384099250808384099250808384099250808384099250808384099250808384099250808384099250808384099250808384099250808384099250808384099250808384099250808384099250808384099250808384099250808384099250808384099250808384099250808384099250808384099250808384099250808384099250808384099250808384099250808384099250808384099250808384099250808384099250808384099250808384099250808384099250808384099250808384099250808384099250808384099250808384099250808384099250808384099250808384099250808384099250808384099250808384099250808384099250808384099250808384099250808384099250808384099250808384099250808384099250808384099250808384099250808384099250808384099250808384099250808384099250808384099250808383099392505050565b3b151590565b828054828255906000526020600020908101928215613cac579160200282015b82811115613cac578251825591602001919060010190613c91565b50613cb8929150613cbc565b5090565b5b80821115613cb85760008155600101613cbd565b60e01c90565b600060443d1015613ce757612aaa565b600481823e6308c379a0613cfb8251613cd1565b14613d0557612aaa565b6040513d600319016004823e80513d67ffffffffffffffff8160248401118184111715613d355750505050612aaa565b82840192508251915080821115613d4f5750505050612aaa565b503d83016020828401011115613d6757505050612aaa565b601f01601f191681016020016040529150509056fe455243313135353a207472616e7366657220746f206e6f6e2045524331313535526563656976657220696d706c656d656e746572455243313135353a204552433131353552656365697665722072656a656374656420746f6b656e73726573756c7420666f7220636f6e646974696f6e206e6f7420726563656976656420796574455243313135353a2062616c616e636520717565727920666f7220746865207a65726f2061646472657373636f756c64206e6f74207472616e73666572207061796f757420746f206d6573736167652073656e646572455243313135353a206275726e20616d6f756e7420657863656564732062616c616e6365455243313135353a2063616c6c6572206973206e6f74206f776e6572206e6f7220617070726f766564455243313135353a207472616e7366657220746f20746865207a65726f2061646472657373455243313135353a207472616e736665722063616c6c6572206973206e6f74206f776e6572206e6f7220617070726f766564636f756c64206e6f74207265636569766520636f6c6c61746572616c20746f6b656e73455243313135353a206275726e2066726f6d20746865207a65726f2061646472657373455243313135353a20696e73756666696369656e742062616c616e636520666f72207472616e73666572536166654d6174683a206d756c7469706c69636174696f6e206f766572666c6f7774686572652073686f756c64206265206d6f7265207468616e206f6e65206f7574636f6d6520736c6f74455243313135353a2073657474696e6720617070726f76616c2073746174757320666f722073656c66455243313135353a206163636f756e747320616e6420696473206c656e677468206d69736d61746368455243313135353a2069647320616e6420616d6f756e7473206c656e677468206d69736d61746368455243313135353a206d696e7420746f20746865207a65726f2061646472657373a2646970667358221220cfdc6da81a51698e81d2639dedb406bf7e7e9ccffb855c2d8d7a8eef416b275e64736f6c63430007060033",
  "devdoc": {
    "events": {
      "ConditionPreparation(bytes32,address,bytes32,uint256)": {
        "details": "Emitted upon the successful preparation of a condition.",
        "params": {
          "conditionId": "The condition's ID. This ID may be derived from the other three parameters via ``keccak256(abi.encodePacked(oracle, questionId, outcomeSlotCount))``.",
          "oracle": "The account assigned to report the result for the prepared condition.",
          "outcomeSlotCount": "The number of outcome slots which should be used for this condition. Must not exceed 256.",
          "questionId": "An identifier for the question to be answered by the oracle."
        }
      },
      "PositionSplit(address,address,bytes32,bytes32,uint256[],uint256)": {
        "details": "Emitted when a position is successfully split."
      },
      "PositionsMerge(address,address,bytes32,bytes32,uint256[],uint256)": {
        "details": "Emitted when positions are successfully merged."
      }
    },
    "kind": "dev",
    "methods": {
      "balanceOf(address,uint256)": {
        "details": "See {IERC1155-balanceOf}. Requirements: - `account` cannot be the zero address."
      },
      "balanceOfBatch(address[],uint256[])": {
        "details": "See {IERC1155-balanceOfBatch}. Requirements: - `accounts` and `ids` must have the same length."
      },
      "getCollectionId(bytes32,bytes32,uint256)": {
        "details": "Constructs an outcome collection ID from a parent collection and an outcome collection.",
        "params": {
          "conditionId": "Condition ID of the outcome collection to combine with the parent outcome collection.",
          "indexSet": "Index set of the outcome collection to combine with the parent outcome collection.",
          "parentCollectionId": "Collection ID of the parent outcome collection, or bytes32(0) if there's no parent."
        }
      },
      "getConditionId(address,bytes32,uint256)": {
        "details": "Constructs a condition ID from an oracle, a question ID, and the outcome slot count for the question.",
        "params": {
          "oracle": "The account assigned to report the result for the prepared condition.",
          "outcomeSlotCount": "The number of outcome slots which should be used for this condition. Must not exceed 256.",
          "questionId": "An identifier for the question to be answered by the oracle."
        }
      },
      "getOutcomeSlotCount(bytes32)": {
        "details": "Gets the outcome slot count of a condition.",
        "params": {
          "conditionId": "ID of the condition."
        },
        "returns": {
          "_0": "Number of outcome slots associated with a condition, or zero if condition has not been prepared yet."
        }
      },
      "getPositionId(address,bytes32)": {
        "details": "Constructs a position ID from a collateral token and an outcome collection. These IDs are used as the ERC-1155 ID for this contract.",
        "params": {
          "collateralToken": "Collateral token which backs the position.",
          "collectionId": "ID of the outcome collection associated with this position."
        }
      },
      "isApprovedForAll(address,address)": {
        "details": "See {IERC1155-isApprovedForAll}."
      },
      "prepareCondition(address,bytes32,uint256)": {
        "details": "This function prepares a condition by initializing a payout vector associated with the condition.",
        "params": {
          "oracle": "The account assigned to report the result for the prepared condition.",
          "outcomeSlotCount": "The number of outcome slots which should be used for this condition. Must not exceed 256.",
          "questionId": "An identifier for the question to be answered by the oracle."
        }
      },
      "reportPayouts(bytes32,uint256[])": {
        "details": "Called by the oracle for reporting results of conditions. Will set the payout vector for the condition with the ID ``keccak256(abi.encodePacked(oracle, questionId, outcomeSlotCount))``, where oracle is the message sender, questionId is one of the parameters of this function, and outcomeSlotCount is the length of the payouts parameter, which contains the payoutNumerators for each outcome slot of the condition.",
        "params": {
          "payouts": "The oracle's answer",
          "questionId": "The question ID the oracle is answering for"
        }
      },
      "safeBatchTransferFrom(address,address,uint256[],uint256[],bytes)": {
        "details": "See {IERC1155-safeBatchTransferFrom}."
      },
      "safeTransferFrom(address,address,uint256,uint256,bytes)": {
        "details": "See {IERC1155-safeTransferFrom}."
      },
      "setApprovalForAll(address,bool)": {
        "details": "See {IERC1155-setApprovalForAll}."
      },
      "splitPosition(address,bytes32,bytes32,uint256[],uint256)": {
        "details": "This function splits a position. If splitting from the collateral, this contract will attempt to transfer `amount` collateral from the message sender to itself. Otherwise, this contract will burn `amount` stake held by the message sender in the position being split worth of EIP 1155 tokens. Regardless, if successful, `amount` stake will be minted in the split target positions. If any of the transfers, mints, or burns fail, the transaction will revert. The transaction will also revert if the given partition is trivial, invalid, or refers to more slots than the condition is prepared with.",
        "params": {
          "amount": "The amount of collateral or stake to split.",
          "collateralToken": "The address of the positions' backing collateral token.",
          "conditionId": "The ID of the condition to split on.",
          "parentCollectionId": "The ID of the outcome collections common to the position being split and the split target positions. May be null, in which only the collateral is shared.",
          "partition": "An array of disjoint index sets representing a nontrivial partition of the outcome slots of the given condition. E.g. A|B and C but not A|B and B|C (is not disjoint). Each element's a number which, together with the condition, represents the outcome collection. E.g. 0b110 is A|B, 0b010 is B, etc."
        }
      },
      "supportsInterface(bytes4)": {
        "details": "See {IERC165-supportsInterface}. Time complexity O(1), guaranteed to always use less than 30 000 gas."
      },
      "uri(uint256)": {
        "details": "See {IERC1155MetadataURI-uri}. This implementation returns the same URI for *all* token types. It relies on the token type ID substitution mechanism https://eips.ethereum.org/EIPS/eip-1155#metadata[defined in the EIP]. Clients calling this function must replace the `\\{id\\}` substring with the actual token type ID."
      }
    },
    "version": 1
  },
  "userdoc": {
    "kind": "user",
    "methods": {
      "payoutDenominator(bytes32)": {
        "notice": "Denominator is also used for checking if the condition has been resolved. If the denominator is non-zero, then the condition has been resolved."
      },
      "payoutNumerators(bytes32,uint256)": {
        "notice": "Mapping key is an condition ID. Value represents numerators of the payout vector associated with the condition. This array is initialized with a length equal to the outcome slot count. E.g. Condition with 3 outcomes [A, B, C] and two of those correct [0.5, 0.5, 0]. In Ethereum there are no decimal values, so here, 0.5 is represented by fractions like 1/2 == 0.5. That's why we need numerator and denominator values. Payout numerators are also used as a check of initialization. If the numerators array is empty (has length zero), the condition was not created/prepared. See getOutcomeSlotCount."
      }
    },
    "version": 1
  },
  "storageLayout": {
    "storage": [
      {
        "astId": 406,
        "contract": "contracts/ConditionalTokens.sol:ConditionalTokens",
        "label": "_supportedInterfaces",
        "offset": 0,
        "slot": "0",
        "type": "t_mapping(t_bytes4,t_bool)"
      },
      {
        "astId": 926,
        "contract": "contracts/ConditionalTokens.sol:ConditionalTokens",
        "label": "_balances",
        "offset": 0,
        "slot": "1",
        "type": "t_mapping(t_uint256,t_mapping(t_address,t_uint256))"
      },
      {
        "astId": 932,
        "contract": "contracts/ConditionalTokens.sol:ConditionalTokens",
        "label": "_operatorApprovals",
        "offset": 0,
        "slot": "2",
        "type": "t_mapping(t_address,t_mapping(t_address,t_bool))"
      },
      {
        "astId": 934,
        "contract": "contracts/ConditionalTokens.sol:ConditionalTokens",
        "label": "_uri",
        "offset": 0,
        "slot": "3",
        "type": "t_string_storage"
      },
      {
        "astId": 6924,
        "contract": "contracts/ConditionalTokens.sol:ConditionalTokens",
        "label": "payoutNumerators",
        "offset": 0,
        "slot": "4",
        "type": "t_mapping(t_bytes32,t_array(t_uint256)dyn_storage)"
      },
      {
        "astId": 6929,
        "contract": "contracts/ConditionalTokens.sol:ConditionalTokens",
        "label": "payoutDenominator",
        "offset": 0,
        "slot": "5",
        "type": "t_mapping(t_bytes32,t_uint256)"
      }
    ],
    "types": {
      "t_address": {
        "encoding": "inplace",
        "label": "address",
        "numberOfBytes": "20"
      },
      "t_array(t_uint256)dyn_storage": {
        "base": "t_uint256",
        "encoding": "dynamic_array",
        "label": "uint256[]",
        "numberOfBytes": "32"
      },
      "t_bool": {
        "encoding": "inplace",
        "label": "bool",
        "numberOfBytes": "1"
      },
      "t_bytes32": {
        "encoding": "inplace",
        "label": "bytes32",
        "numberOfBytes": "32"
      },
      "t_bytes4": {
        "encoding": "inplace",
        "label": "bytes4",
        "numberOfBytes": "4"
      },
      "t_mapping(t_address,t_bool)": {
        "encoding": "mapping",
        "key": "t_address",
        "label": "mapping(address => bool)",
        "numberOfBytes": "32",
        "value": "t_bool"
      },
      "t_mapping(t_address,t_mapping(t_address,t_bool))": {
        "encoding": "mapping",
        "key": "t_address",
        "label": "mapping(address => mapping(address => bool))",
        "numberOfBytes": "32",
        "value": "t_mapping(t_address,t_bool)"
      },
      "t_mapping(t_address,t_uint256)": {
        "encoding": "mapping",
        "key": "t_address",
        "label": "mapping(address => uint256)",
        "numberOfBytes": "32",
        "value": "t_uint256"
      },
      "t_mapping(t_bytes32,t_array(t_uint256)dyn_storage)": {
        "encoding": "mapping",
        "key": "t_bytes32",
        "label": "mapping(bytes32 => uint256[])",
        "numberOfBytes": "32",
        "value": "t_array(t_uint256)dyn_storage"
      },
      "t_mapping(t_bytes32,t_uint256)": {
        "encoding": "mapping",
        "key": "t_bytes32",
        "label": "mapping(bytes32 => uint256)",
        "numberOfBytes": "32",
        "value": "t_uint256"
      },
      "t_mapping(t_bytes4,t_bool)": {
        "encoding": "mapping",
        "key": "t_bytes4",
        "label": "mapping(bytes4 => bool)",
        "numberOfBytes": "32",
        "value": "t_bool"
      },
      "t_mapping(t_uint256,t_mapping(t_address,t_uint256))": {
        "encoding": "mapping",
        "key": "t_uint256",
        "label": "mapping(uint256 => mapping(address => uint256))",
        "numberOfBytes": "32",
        "value": "t_mapping(t_address,t_uint256)"
      },
      "t_string_storage": {
        "encoding": "bytes",
        "label": "string",
        "numberOfBytes": "32"
      },
      "t_uint256": {
        "encoding": "inplace",
        "label": "uint256",
        "numberOfBytes": "32"
      }
    }
  }
}