{
  "address": "0xE1781EF8d232b31aADB34E313d129b56c0913015",
  "abi": [
    {
      "anonymous": false,
      "inputs": [
        {
          "indexed": true,
          "internalType": "address",
          "name": "previousOwner",
          "type": "address"
        },
        {
          "indexed": true,
          "internalType": "address",
          "name": "newOwner",
          "type": "address"
        }
      ],
      "name": "OwnershipTransferred",
      "type": "event"
    },
    {
      "anonymous": false,
      "inputs": [
        {
          "indexed": true,
          "internalType": "address",
          "name": "account",
          "type": "address"
        },
        {
          "indexed": false,
          "internalType": "uint256",
          "name": "amount",
          "type": "uint256"
        },
        {
          "indexed": false,
          "internalType": "uint256",
          "name": "tokenIn",
          "type": "uint256"
        }
      ],
      "name": "SharesBought",
      "type": "event"
    },
    {
      "anonymous": false,
      "inputs": [
        {
          "indexed": true,
          "internalType": "address",
          "name": "account",
          "type": "address"
        },
        {
          "indexed": false,
          "internalType": "uint256",
          "name": "amount",
          "type": "uint256"
        },
        {
          "indexed": false,
          "internalType": "uint256",
          "name": "tokenOut",
          "type": "uint256"
        }
      ],
      "name": "SharesRedeemed",
      "type": "event"
    },
    {
      "anonymous": false,
      "inputs": [
        {
          "indexed": true,
          "internalType": "address",
          "name": "account",
          "type": "address"
        },
        {
          "indexed": false,
          "internalType": "uint256",
          "name": "amount",
          "type": "uint256"
        },
        {
          "indexed": false,
          "internalType": "uint256",
          "name": "tokenOut",
          "type": "uint256"
        }
      ],
      "name": "SharesSold",
      "type": "event"
    },
    {
      "inputs": [
        {
          "internalType": "uint256",
          "name": "_outcome",
          "type": "uint256"
        },
        {
          "internalType": "int128",
          "name": "_amount",
          "type": "int128"
        },
        {
          "internalType": "address",
          "name": "_account",
          "type": "address"
        }
      ],
      "name": "_buy",
      "outputs": [
        {
          "internalType": "uint256",
          "name": "_cost",
          "type": "uint256"
        }
      ],
      "stateMutability": "nonpayable",
      "type": "function"
    },
    {
      "inputs": [
        {
          "internalType": "address",
          "name": "_account",
          "type": "address"
        }
      ],
      "name": "_redeem",
      "outputs": [
        {
          "internalType": "uint256",
          "name": "shares",
          "type": "uint256"
        }
      ],
      "stateMutability": "nonpayable",
      "type": "function"
    },
    {
      "inputs": [
        {
          "internalType": "uint256",
          "name": "_outcome",
          "type": "uint256"
        },
        {
          "internalType": "int128",
          "name": "_amount",
          "type": "int128"
        },
        {
          "internalType": "address",
          "name": "_account",
          "type": "address"
        }
      ],
      "name": "_sell",
      "outputs": [
        {
          "internalType": "uint256",
          "name": "_cost",
          "type": "uint256"
        }
      ],
      "stateMutability": "nonpayable",
      "type": "function"
    },
    {
      "inputs": [
        {
          "internalType": "address",
          "name": "",
          "type": "address"
        }
      ],
      "name": "accountShares",
      "outputs": [
        {
          "internalType": "uint256",
          "name": "buys",
          "type": "uint256"
        },
        {
          "internalType": "uint256",
          "name": "sells",
          "type": "uint256"
        },
        {
          "internalType": "uint256",
          "name": "outcomeOneBalance",
          "type": "uint256"
        },
        {
          "internalType": "uint256",
          "name": "outcomeTwoBalance",
          "type": "uint256"
        },
        {
          "internalType": "uint256",
          "name": "deposited",
          "type": "uint256"
        },
        {
          "internalType": "uint256",
          "name": "withdrew",
          "type": "uint256"
        },
        {
          "internalType": "uint256",
          "name": "redeemed",
          "type": "uint256"
        }
      ],
      "stateMutability": "view",
      "type": "function"
    },
    {
      "inputs": [
        {
          "internalType": "uint256",
          "name": "_outcome",
          "type": "uint256"
        },
        {
          "internalType": "int128",
          "name": "_amount",
          "type": "int128"
        }
      ],
      "name": "buy",
      "outputs": [
        {
          "internalType": "uint256",
          "name": "_cost",
          "type": "uint256"
        }
      ],
      "stateMutability": "nonpayable",
      "type": "function"
    },
    {
      "inputs": [
        {
          "internalType": "uint256",
          "name": "_outcome",
          "type": "uint256"
        },
        {
          "internalType": "int128",
          "name": "_amount",
          "type": "int128"
        }
      ],
      "name": "buyPrice",
      "outputs": [
        {
          "internalType": "int128",
          "name": "",
          "type": "int128"
        }
      ],
      "stateMutability": "view",
      "type": "function"
    },
    {
      "inputs": [],
      "name": "closeTimestamp",
      "outputs": [
        {
          "internalType": "uint256",
          "name": "",
          "type": "uint256"
        }
      ],
      "stateMutability": "view",
      "type": "function"
    },
    {
      "inputs": [],
      "name": "cost",
      "outputs": [
        {
          "internalType": "int128",
          "name": "",
          "type": "int128"
        }
      ],
      "stateMutability": "view",
      "type": "function"
    },
    {
      "inputs": [],
      "name": "endTimestamp",
      "outputs": [
        {
          "internalType": "uint256",
          "name": "",
          "type": "uint256"
        }
      ],
      "stateMutability": "view",
      "type": "function"
    },
    {
      "inputs": [],
      "name": "getMarketInfo",
      "outputs": [
        {
          "internalType": "int128",
          "name": "",
          "type": "int128"
        },
        {
          "internalType": "int128",
          "name": "",
          "type": "int128"
        },
        {
          "internalType": "int128",
          "name": "",
          "type": "int128"
        },
        {
          "internalType": "int128",
          "name": "",
          "type": "int128"
        },
        {
          "internalType": "uint256",
          "name": "",
          "type": "uint256"
        },
        {
          "internalType": "uint256",
          "name": "",
          "type": "uint256"
        }
      ],
      "stateMutability": "view",
      "type": "function"
    },
    {
      "inputs": [
        {
          "internalType": "address",
          "name": "_token",
          "type": "address"
        },
        {
          "internalType": "uint256",
          "name": "_amount",
          "type": "uint256"
        }
      ],
      "name": "getTokenEth",
      "outputs": [
        {
          "internalType": "int128",
          "name": "",
          "type": "int128"
        }
      ],
      "stateMutability": "view",
      "type": "function"
    },
    {
      "inputs": [
        {
          "internalType": "address",
          "name": "_token",
          "type": "address"
        },
        {
          "internalType": "int128",
          "name": "_amount",
          "type": "int128"
        }
      ],
      "name": "getTokenWei",
      "outputs": [
        {
          "internalType": "uint256",
          "name": "",
          "type": "uint256"
        }
      ],
      "stateMutability": "view",
      "type": "function"
    },
    {
      "inputs": [],
      "name": "id",
      "outputs": [
        {
          "internalType": "uint256",
          "name": "",
          "type": "uint256"
        }
      ],
      "stateMutability": "view",
      "type": "function"
    },
    {
      "inputs": [
        {
          "internalType": "address",
          "name": "_token",
          "type": "address"
        }
      ],
      "name": "initialize",
      "outputs": [],
      "stateMutability": "nonpayable",
      "type": "function"
    },
    {
      "inputs": [],
      "name": "oracle",
      "outputs": [
        {
          "internalType": "address",
          "name": "",
          "type": "address"
        }
      ],
      "stateMutability": "view",
      "type": "function"
    },
    {
      "inputs": [],
      "name": "owner",
      "outputs": [
        {
          "internalType": "address",
          "name": "",
          "type": "address"
        }
      ],
      "stateMutability": "view",
      "type": "function"
    },
    {
      "inputs": [
        {
          "internalType": "address[]",
          "name": "_accounts",
          "type": "address[]"
        }
      ],
      "name": "redeemBatch",
      "outputs": [
        {
          "internalType": "uint256",
          "name": "redeems",
          "type": "uint256"
        }
      ],
      "stateMutability": "nonpayable",
      "type": "function"
    },
    {
      "inputs": [],
      "name": "redeemShares",
      "outputs": [
        {
          "internalType": "uint256",
          "name": "shares",
          "type": "uint256"
        }
      ],
      "stateMutability": "nonpayable",
      "type": "function"
    },
    {
      "inputs": [
        {
          "internalType": "uint256",
          "name": "_id",
          "type": "uint256"
        },
        {
          "internalType": "uint256",
          "name": "_outcome",
          "type": "uint256"
        }
      ],
      "name": "reportResult",
      "outputs": [],
      "stateMutability": "nonpayable",
      "type": "function"
    },
    {
      "inputs": [],
      "name": "result",
      "outputs": [
        {
          "internalType": "uint256",
          "name": "",
          "type": "uint256"
        }
      ],
      "stateMutability": "view",
      "type": "function"
    },
    {
      "inputs": [
        {
          "internalType": "uint256",
          "name": "_outcome",
          "type": "uint256"
        },
        {
          "internalType": "int128",
          "name": "_amount",
          "type": "int128"
        }
      ],
      "name": "sell",
      "outputs": [
        {
          "internalType": "uint256",
          "name": "_cost",
          "type": "uint256"
        }
      ],
      "stateMutability": "nonpayable",
      "type": "function"
    },
    {
      "inputs": [
        {
          "internalType": "uint256",
          "name": "_outcome",
          "type": "uint256"
        },
        {
          "internalType": "int128",
          "name": "_amount",
          "type": "int128"
        }
      ],
      "name": "sellPrice",
      "outputs": [
        {
          "internalType": "int128",
          "name": "",
          "type": "int128"
        }
      ],
      "stateMutability": "view",
      "type": "function"
    },
    {
      "inputs": [
        {
          "internalType": "uint256",
          "name": "_id",
          "type": "uint256"
        },
        {
          "internalType": "address",
          "name": "_oracle",
          "type": "address"
        },
        {
          "internalType": "uint256",
          "name": "_totalOutcomes",
          "type": "uint256"
        },
        {
          "internalType": "uint256",
          "name": "_subsidy",
          "type": "uint256"
        },
        {
          "internalType": "uint256",
          "name": "_overround",
          "type": "uint256"
        }
      ],
      "name": "setup",
      "outputs": [],
      "stateMutability": "nonpayable",
      "type": "function"
    },
    {
      "inputs": [],
      "name": "startTimestamp",
      "outputs": [
        {
          "internalType": "uint256",
          "name": "",
          "type": "uint256"
        }
      ],
      "stateMutability": "view",
      "type": "function"
    },
    {
      "inputs": [],
      "name": "token",
      "outputs": [
        {
          "internalType": "address",
          "name": "",
          "type": "address"
        }
      ],
      "stateMutability": "view",
      "type": "function"
    },
    {
      "inputs": [
        {
          "internalType": "address",
          "name": "newOwner",
          "type": "address"
        }
      ],
      "name": "transferOwnership",
      "outputs": [],
      "stateMutability": "nonpayable",
      "type": "function"
    },
    {
      "inputs": [
        {
          "internalType": "uint256",
          "name": "_startTimestamp",
          "type": "uint256"
        },
        {
          "internalType": "uint256",
          "name": "_endTimestamp",
          "type": "uint256"
        }
      ],
      "name": "updateDates",
      "outputs": [],
      "stateMutability": "nonpayable",
      "type": "function"
    },
    {
      "inputs": [
        {
          "internalType": "address",
          "name": "_token",
          "type": "address"
        }
      ],
      "name": "withdraw",
      "outputs": [],
      "stateMutability": "nonpayable",
      "type": "function"
    }
  ],
  "transactionHash": "0x11ff7bd2c888c479af96e58665c610961baf77e3354640217801d3a640321638",
  "args": [],
  "numDeployments": 1,
  "solcInputHash": "5a77a6b1c83242e22670c8f88601db36",
  "bytecode": "0x608060405234801561001057600080fd5b50613c0d806100206000396000f3fe608060405234801561001057600080fd5b50600436106101c45760003560e01c80638da5cb5b116100f9578063c4d66de811610097578063e6fd48bc11610071578063e6fd48bc146105c5578063f2fde38b146105cd578063f76da1d9146105f3578063fc0c546a14610619576101c4565b8063c4d66de814610547578063cae326061461056d578063e6b2c87c146105a2576101c4565b8063ae92a93d116100d3578063ae92a93d1461046e578063af640d0f14610494578063b460481d1461049c578063bc0e610a146104a4576101c4565b80638da5cb5b1461043b578063a85adeab14610443578063ad094f3d1461044b576101c4565b806351cff8d9116101665780635467a751116101405780635467a7511461039c57806365372147146103da5780637dc0d1d0146103e2578063898b51a714610406576101c4565b806351cff8d9146102f057806352c8b2f914610318578063535f02ee14610376576101c4565b806323341a05116101a257806323341a051461022e5780633dcb8b81146102755780633f7361eb1461029b57806340088ee1146102c1576101c4565b8063052d7c00146101c957806310f8625a146101e357806313faede614610226575b600080fd5b6101d1610621565b60408051918252519081900360200190f35b61020f600480360360408110156101f957600080fd5b506001600160a01b038135169060200135610627565b60408051600f9290920b8252519081900360200190f35b61020f6106ac565b61023661077d565b60408051600f97880b815295870b602087015293860b858501529190940b6060840152608083019390935260a082019290925290519081900360c00190f35b61020f6004803603604081101561028b57600080fd5b5080359060200135600f0b61083c565b6101d1600480360360208110156102b157600080fd5b50356001600160a01b031661085f565b6101d1600480360360408110156102d757600080fd5b506001600160a01b038135169060200135600f0b610b4f565b6103166004803603602081101561030657600080fd5b50356001600160a01b0316610bca565b005b61033e6004803603602081101561032e57600080fd5b50356001600160a01b0316610d46565b604080519788526020880196909652868601949094526060860192909252608085015260a084015260c0830152519081900360e00190f35b61020f6004803603604081101561038c57600080fd5b5080359060200135600f0b610d83565b610316600480360360a08110156103b257600080fd5b508035906001600160a01b036020820135169060408101359060608101359060800135610d9d565b6101d16110ec565b6103ea6110f2565b604080516001600160a01b039092168252519081900360200190f35b6101d16004803603606081101561041c57600080fd5b508035906020810135600f0b90604001356001600160a01b0316611101565b6103ea611746565b6101d1611755565b6103166004803603604081101561046157600080fd5b508035906020013561175b565b6101d16004803603604081101561048457600080fd5b5080359060200135600f0b6118fc565b6101d1611a08565b6101d1611a0e565b6101d1600480360360208110156104ba57600080fd5b8101906020810181356401000000008111156104d557600080fd5b8201836020820111156104e757600080fd5b8035906020019184602083028401116401000000008311171561050957600080fd5b919080806020026020016040519081016040528093929190818152602001838360200280828437600092019190915250929550611a67945050505050565b6103166004803603602081101561055d57600080fd5b50356001600160a01b0316611bb7565b6101d16004803603606081101561058357600080fd5b508035906020810135600f0b90604001356001600160a01b0316611c52565b610316600480360360408110156105b857600080fd5b50803590602001356121b7565b6101d161220e565b610316600480360360208110156105e357600080fd5b50356001600160a01b0316612214565b6101d16004803603604081101561060957600080fd5b5080359060200135600f0b61230d565b6103ea612419565b60065481565b600080836001600160a01b031663313ce5676040518163ffffffff1660e01b815260040160206040518083038186803b15801561066357600080fd5b505afa158015610677573d6000803e3d6000fd5b505050506040513d602081101561068d57600080fd5b505160ff1690506106a283600a83900a612428565b9150505b92915050565b600f5460009060ff1615156001146106f7576040805162461bcd60e51b815260206004820152600960248201526804e6f742073657475760bc1b604482015290519081900360640190fd5b6000805b60095481101561075e576107548261074f61074a600a858154811061071c57fe5b60009182526020909120600282040154600b5460019092166010026101000a9004600f90810b91900b612468565b6124cd565b612527565b91506001016106fb565b50600b5461077790600f0b6107728361256c565b6125a6565b91505090565b6000806000806000806001600a8054905010156107ab57506000945084935083925082915081905080610834565b600c54600a8054600160801b909204600f0b916000906107c757fe5b90600052602060002090600291828204019190066010029054906101000a9004600f0b600a6001815481106107f857fe5b60009182526020909120600282040154600c54600d54600e54959b5093995060019092166010026101000a9004600f90810b97500b9450925090505b909192939495565b600c5460009061085890600f0b61085385856125ee565b612797565b9392505050565b600080546001600160a01b031633148061087857503330145b6108be576040805162461bcd60e51b815260206004820152601260248201527127b7363c9037bbb732b91037b91039b2b63360711b604482015290519081900360640190fd5b600060065411610915576040805162461bcd60e51b815260206004820152601160248201527f4d61726b6574206e6f7420636c6f736564000000000000000000000000000000604482015290519081900360640190fd5b6001600160a01b03821660009081526008602052604090206006015415610983576040805162461bcd60e51b815260206004820152601760248201527f53686172657320616c72656164792072656465656d6564000000000000000000604482015290519081900360640190fd5b600754600114156109b057506001600160a01b0381166000908152600860205260409020600201546109d9565b600754600214156109d957506001600160a01b0381166000908152600860205260409020600301545b60008111610a2e576040805162461bcd60e51b815260206004820152601160248201527f4e6f7468696e6720746f2072656465656d000000000000000000000000000000604482015290519081900360640190fd5b6001600160a01b038083166000818152600860209081526040808320600601869055600154815163a9059cbb60e01b8152600481019590955260248501879052905194169363a9059cbb93604480820194918390030190829087803b158015610a9657600080fd5b505af1158015610aaa573d6000803e3d6000fd5b505050506040513d6020811015610ac057600080fd5b5051610b06576040805162461bcd60e51b815260206004820152601060248201526f24b73b30b634b2103a3930b739b332b960811b604482015290519081900360640190fd5b604080518281526020810183905281516001600160a01b038516927ff18a1e0eb1d585d2194cdc081f34e04df407e94de5238f45531482467e31705f928290030190a25b919050565b600080836001600160a01b031663313ce5676040518163ffffffff1660e01b815260040160206040518083038186803b158015610b8b57600080fd5b505afa158015610b9f573d6000803e3d6000fd5b505050506040513d6020811015610bb557600080fd5b505160ff1690506106a283600a83900a6127dc565b600f5460ff161515600114610c12576040805162461bcd60e51b815260206004820152600960248201526804e6f742073657475760bc1b604482015290519081900360640190fd5b6000546001600160a01b03163314610c5e576040805162461bcd60e51b815260206004820152600a60248201526927b7363c9037bbb732b960b11b604482015290519081900360640190fd5b600060065411610cb5576040805162461bcd60e51b815260206004820152601160248201527f4d61726b6574206e6f7420636c6f736564000000000000000000000000000000604482015290519081900360640190fd5b610d4333826001600160a01b03166370a08231306040518263ffffffff1660e01b815260040180826001600160a01b0316815260200191505060206040518083038186803b158015610d0657600080fd5b505afa158015610d1a573d6000803e3d6000fd5b505050506040513d6020811015610d3057600080fd5b50516001600160a01b0384169190612855565b50565b6008602052600090815260409020805460018201546002830154600384015460048501546005860154600690960154949593949293919290919087565b6000610858610d9284846128c1565b600c54600f0b612797565b6000546001600160a01b03163314610de9576040805162461bcd60e51b815260206004820152600a60248201526927b7363c9037bbb732b960b11b604482015290519081900360640190fd5b600f5460ff1615610e41576040805162461bcd60e51b815260206004820152601360248201527f416c726561647920696e697469616c697a656400000000000000000000000000604482015290519081900360640190fd5b82600214610e96576040805162461bcd60e51b815260206004820152601a60248201527f4f6e6c79206475616c206d61726b657420737570706f72746564000000000000604482015290519081900360640190fd5b60008111610eeb576040805162461bcd60e51b815260206004820152601760248201527f43616e6e6f7420686176652030206f766572726f756e64000000000000000000604482015290519081900360640190fd5b600154610f03906001600160a01b0316333085612a43565b60028590556003805473ffffffffffffffffffffffffffffffffffffffff19166001600160a01b03868116919091179091556009849055600154600091610f4b911684610627565b90506000610f5885612ab8565b90506000610f6884612710612428565b9050610f8081610f7b846107728661256c565b612468565b600b60106101000a8154816001600160801b030219169083600f0b6001600160801b03160217905550610fc8610fb684846125a6565b600b54600160801b9004600f0b6125a6565b600b8054600f9290920b6001600160801b03166fffffffffffffffffffffffffffffffff1990921691909117905560005b60095481101561106b57600a8054600180820183556000929092527fc65a7bb8d6351c1cf70c95a316cc6a92839c986682d98bc35f958f4883f9d2a8600282040180549183166010026101000a6001600160801b0381810219909316600f89900b939093160291909117905501610ff9565b50600f805460ff1916600117905561108383836125a6565b600c60106101000a8154816001600160801b030219169083600f0b6001600160801b031602179055506110b46106ac565b600c8054600f9290920b6001600160801b03166fffffffffffffffffffffffffffffffff199092169190911790555050505050505050565b60075481565b6003546001600160a01b031681565b600080546001600160a01b031633148061111a57503330145b611160576040805162461bcd60e51b815260206004820152601260248201527127b7363c9037bbb732b91037b91039b2b63360711b604482015290519081900360640190fd5b600084116111a7576040805162461bcd60e51b815260206004820152600f60248201526e496e76616c6964206f7574636f6d6560881b604482015290519081900360640190fd5b600654156111fc576040805162461bcd60e51b815260206004820152601560248201527f4d61726b657420616c726561647920636c6f7365640000000000000000000000604482015290519081900360640190fd5b60005b6009548110156112e1576001811b8516156112d95761124d600a828154811061122457fe5b90600052602060002090600291828204019190066010029054906101000a9004600f0b85612797565b600a828154811061125a57fe5b90600052602060002090600291828204019190066010026101000a8154816001600160801b030219169083600f0b6001600160801b031602179055506112af600c60109054906101000a9004600f0b85612797565b600c60106101000a8154816001600160801b030219169083600f0b6001600160801b031602179055505b6001016111ff565b50600c54600b5461130691600160801b90819004600f90810b9291909104900b6125a6565b600b8054600f9290920b6001600160801b03166fffffffffffffffffffffffffffffffff199092169190911790556000805b600954811015611363576113598261074f61074a600a858154811061071c57fe5b9150600101611338565b50600b5460009061137a90600f0b6107728461256c565b600c5490915060009061139090600f0b83612797565b600c80546fffffffffffffffffffffffffffffffff19166001600160801b03600f86900b161790556001549091506000906113d4906001600160a01b031683610b4f565b90506000811161141a576040805162461bcd60e51b815260206004820152600c60248201526b125b9d985b1a590818dbdcdd60a21b604482015290519081900360640190fd5b600154600090611433906001600160a01b031689610b4f565b905088600114156114f5576001600160a01b0387166000908152600860205260409020600201548111156114ae576040805162461bcd60e51b815260206004820152601460248201527f496e73756666696369656e742062616c616e6365000000000000000000000000604482015290519081900360640190fd5b6001600160a01b0387166000908152600860205260409020600201546114d49082612ad6565b6001600160a01b0388166000908152600860205260409020600201556115b1565b88600214156115b1576001600160a01b03871660009081526008602052604090206003015481111561156e576040805162461bcd60e51b815260206004820152601460248201527f496e73756666696369656e742062616c616e6365000000000000000000000000604482015290519081900360640190fd5b6001600160a01b0387166000908152600860205260409020600301546115949082612ad6565b6001600160a01b0388166000908152600860205260409020600301555b6001546040805163a9059cbb60e01b81526001600160a01b038a81166004830152602482018690529151919092169163a9059cbb9160448083019260209291908290030181600087803b15801561160757600080fd5b505af115801561161b573d6000803e3d6000fd5b505050506040513d602081101561163157600080fd5b5051611677576040805162461bcd60e51b815260206004820152601060248201526f24b73b30b634b2103a3930b739b332b960811b604482015290519081900360640190fd5b600e54611685906001612b33565b600e556001600160a01b03871660009081526008602052604090206001908101546116af91612b33565b6001600160a01b03881660009081526008602052604090206001810191909155600501546116dd9083612b33565b6001600160a01b038816600081815260086020908152604091829020600501939093558051848152928301859052805191927f15d424bdac3ab52a065da0bac1452a0aa9453a23554ce765d3fbe0df6f5eb9ce929081900390910190a250979650505050505050565b6000546001600160a01b031681565b60055481565b6003546001600160a01b031633146117a8576040805162461bcd60e51b815260206004820152600b60248201526a4f6e6c79206f7261636c6560a81b604482015290519081900360640190fd5b60025482146117fe576040805162461bcd60e51b815260206004820152600e60248201527f496e76616c6964206d61726b6574000000000000000000000000000000000000604482015290519081900360640190fd5b600a54811115611847576040805162461bcd60e51b815260206004820152600f60248201526e496e76616c6964206f7574636f6d6560881b604482015290519081900360640190fd5b600554421161189d576040805162461bcd60e51b815260206004820152601060248201527f4d61726b6574206e6f7420656e64656400000000000000000000000000000000604482015290519081900360640190fd5b600654156118f2576040805162461bcd60e51b815260206004820152601560248201527f4d61726b657420616c726561647920636c6f7365640000000000000000000000604482015290519081900360640190fd5b6007555042600655565b600f5460009060ff161515600114611947576040805162461bcd60e51b815260206004820152600960248201526804e6f742073657475760bc1b604482015290519081900360640190fd5b60045442101561199e576040805162461bcd60e51b815260206004820152601260248201527f4d61726b6574206e6f7420737461727465640000000000000000000000000000604482015290519081900360640190fd5b600554156119fd576005544211156119fd576040805162461bcd60e51b815260206004820152601460248201527f4d61726b657420616c726561647920656e646564000000000000000000000000604482015290519081900360640190fd5b610858838333611101565b60025481565b600f5460009060ff161515600114611a59576040805162461bcd60e51b815260206004820152600960248201526804e6f742073657475760bc1b604482015290519081900360640190fd5b611a623361085f565b905090565b600f5460009060ff161515600114611ab2576040805162461bcd60e51b815260206004820152600960248201526804e6f742073657475760bc1b604482015290519081900360640190fd5b6003546001600160a01b03163314611aff576040805162461bcd60e51b815260206004820152600b60248201526a4f6e6c79206f7261636c6560a81b604482015290519081900360640190fd5b60005b8251811015611bb157306001600160a01b0316633f7361eb848381518110611b2657fe5b60200260200101516040518263ffffffff1660e01b815260040180826001600160a01b03168152602001915050602060405180830381600087803b158015611b6d57600080fd5b505af1925050508015611b9257506040513d6020811015611b8d57600080fd5b505160015b611b9b57611ba9565b50611ba7826001612b33565b505b600101611b02565b50919050565b6000546001600160a01b031615611c15576040805162461bcd60e51b815260206004820152601360248201527f416c726561647920696e697469616c697a656400000000000000000000000000604482015290519081900360640190fd5b600080543373ffffffffffffffffffffffffffffffffffffffff1991821617909155600180549091166001600160a01b0392909216919091179055565b600080546001600160a01b0316331480611c6b57503330145b611cb1576040805162461bcd60e51b815260206004820152601260248201527127b7363c9037bbb732b91037b91039b2b63360711b604482015290519081900360640190fd5b60008411611cf8576040805162461bcd60e51b815260206004820152600f60248201526e496e76616c6964206f7574636f6d6560881b604482015290519081900360640190fd5b60065415611d4d576040805162461bcd60e51b815260206004820152601560248201527f4d61726b657420616c726561647920636c6f7365640000000000000000000000604482015290519081900360640190fd5b60005b600954811015611e32576001811b851615611e2a57611d9e600a8281548110611d7557fe5b90600052602060002090600291828204019190066010029054906101000a9004600f0b85612527565b600a8281548110611dab57fe5b90600052602060002090600291828204019190066010026101000a8154816001600160801b030219169083600f0b6001600160801b03160217905550611e00600c60109054906101000a9004600f0b85612527565b600c60106101000a8154816001600160801b030219169083600f0b6001600160801b031602179055505b600101611d50565b50600c54600b54611e5791600160801b90819004600f90810b9291909104900b6125a6565b600b8054600f9290920b6001600160801b03166fffffffffffffffffffffffffffffffff199092169190911790556000805b600954811015611eb457611eaa8261074f61074a600a858154811061071c57fe5b9150600101611e89565b50600b54600090611ecb90600f0b6107728461256c565b600c54909150600090611ee2908390600f0b612797565b600c80546fffffffffffffffffffffffffffffffff19166001600160801b03600f86900b16179055600154909150600090611f26906001600160a01b031683610b4f565b905060008111611f6c576040805162461bcd60e51b815260206004820152600c60248201526b125b9d985b1a590818dbdcdd60a21b604482015290519081900360640190fd5b600154604080516323b872dd60e01b81523360048201523060248201526044810184905290516001600160a01b03909216916323b872dd916064808201926020929091908290030181600087803b158015611fc657600080fd5b505af1158015611fda573d6000803e3d6000fd5b505050506040513d6020811015611ff057600080fd5b5051612036576040805162461bcd60e51b815260206004820152601060248201526f24b73b30b634b2103a3930b739b332b960811b604482015290519081900360640190fd5b60015460009061204f906001600160a01b031689610b4f565b600d54909150612060906001612b33565b600d556001600160a01b038716600090815260086020526040902054612087906001612b33565b6001600160a01b0388166000908152600860205260409020908155600401546120b09083612b33565b6001600160a01b038816600090815260086020526040902060040155600189141561211c576001600160a01b0387166000908152600860205260409020600201546120fb9082612b33565b6001600160a01b038816600090815260086020526040902060020155612168565b8860021415612168576001600160a01b03871660009081526008602052604090206003015461214b9082612b33565b6001600160a01b0388166000908152600860205260409020600301555b604080518281526020810184905281516001600160a01b038a16927f2ac0c7a344c07faca0c8fb818361b688d571a347db8c184800fce2207531dd1e928290030190a250979650505050505050565b6000546001600160a01b03163314612203576040805162461bcd60e51b815260206004820152600a60248201526927b7363c9037bbb732b960b11b604482015290519081900360640190fd5b600491909155600555565b60045481565b6000546001600160a01b03163314612260576040805162461bcd60e51b815260206004820152600a60248201526927b7363c9037bbb732b960b11b604482015290519081900360640190fd5b6001600160a01b0381166122a55760405162461bcd60e51b8152600401808060200182810382526026815260200180613b626026913960400191505060405180910390fd5b600080546040516001600160a01b03808516939216917f8be0079c531659141344cd1fd0a4f28419497f9722a3daafe3b4186f6b6457e091a36000805473ffffffffffffffffffffffffffffffffffffffff19166001600160a01b0392909216919091179055565b600f5460009060ff161515600114612358576040805162461bcd60e51b815260206004820152600960248201526804e6f742073657475760bc1b604482015290519081900360640190fd5b6004544210156123af576040805162461bcd60e51b815260206004820152601260248201527f4d61726b6574206e6f7420737461727465640000000000000000000000000000604482015290519081900360640190fd5b6005541561240e5760055442111561240e576040805162461bcd60e51b815260206004820152601460248201527f4d61726b657420616c726561647920656e646564000000000000000000000000604482015290519081900360640190fd5b610858838333611c52565b6001546001600160a01b031681565b60008161243457600080fd5b60006124408484612b8d565b90506f7fffffffffffffffffffffffffffffff6001600160801b038216111561085857600080fd5b600081600f0b6000141561247b57600080fd5b600082600f0b604085600f0b901b8161249057fe5b0590506f7fffffffffffffffffffffffffffffff1981128015906124c457506f7fffffffffffffffffffffffffffffff8113155b61085857600080fd5b60006840000000000000000082600f0b126124e757600080fd5b683fffffffffffffffff1982600f0b121561250457506000610b4a565b6106a6608083600f0b700171547652b82fe1777d0ffda0d23a7d1202901d612ce8565b6000600f83810b9083900b016f7fffffffffffffffffffffffffffffff1981128015906124c457506f7fffffffffffffffffffffffffffffff81131561085857600080fd5b60008082600f0b1361257d57600080fd5b6080612588836137bb565b600f0b6fb17217f7d1cf79abc9e3b39803f2f6af02901c9050919050565b6000600f83810b9083900b0260401d6f7fffffffffffffffffffffffffffffff1981128015906124c457506f7fffffffffffffffffffffffffffffff81131561085857600080fd5b6000806000600a8054905067ffffffffffffffff8111801561260f57600080fd5b50604051908082528060200260200182016040528015612639578160200160208202803683370190505b50600c54909150600160801b9004600f0b60005b600954811015612725576001811b8716156126cc5761269b600a828154811061267257fe5b90600052602060002090600291828204019190066010029054906101000a9004600f0b87612797565b8382815181106126a757fe5b6020026020010190600f0b9081600f0b815250506126c58287612797565b915061271d565b600a81815481106126d957fe5b90600052602060002090600291828204019190066010029054906101000a9004600f0b83828151811061270857fe5b6020026020010190600f0b9081600f0b815250505b60010161264d565b50600b54600090612741908390600160801b9004600f0b6125a6565b905060005b60095481101561277e576127748561074f61074a87858151811061276657fe5b602002602001015186612468565b9450600101612746565b5061278c816107728661256c565b979650505050505050565b6000600f82810b9084900b036f7fffffffffffffffffffffffffffffff1981128015906124c457506f7fffffffffffffffffffffffffffffff81131561085857600080fd5b6000816127eb575060006106a6565b600083600f0b12156127fc57600080fd5b600f83900b6001600160801b038316810260401c90608084901c0277ffffffffffffffffffffffffffffffffffffffffffffffff81111561283c57600080fd5b60401b811981111561284d57600080fd5b019392505050565b604080516001600160a01b038416602482015260448082018490528251808303909101815260649091019091526020810180517bffffffffffffffffffffffffffffffffffffffffffffffffffffffff1663a9059cbb60e01b1790526128bc90849061389f565b505050565b6000806000600a8054905067ffffffffffffffff811180156128e257600080fd5b5060405190808252806020026020018201604052801561290c578160200160208202803683370190505b50600c54909150600160801b9004600f0b60005b6009548110156129f8576001811b87161561299f5761296e600a828154811061294557fe5b90600052602060002090600291828204019190066010029054906101000a9004600f0b87612527565b83828151811061297a57fe5b6020026020010190600f0b9081600f0b815250506129988287612527565b91506129f0565b600a81815481106129ac57fe5b90600052602060002090600291828204019190066010029054906101000a9004600f0b8382815181106129db57fe5b6020026020010190600f0b9081600f0b815250505b600101612920565b50600b54600090612a14908390600160801b9004600f0b6125a6565b905060005b60095481101561277e57612a398561074f61074a87858151811061276657fe5b9450600101612a19565b604080516001600160a01b0380861660248301528416604482015260648082018490528251808303909101815260849091019091526020810180517bffffffffffffffffffffffffffffffffffffffffffffffffffffffff166323b872dd60e01b179052612ab290859061389f565b50505050565b6000677fffffffffffffff821115612acf57600080fd5b5060401b90565b600082821115612b2d576040805162461bcd60e51b815260206004820152601e60248201527f536166654d6174683a207375627472616374696f6e206f766572666c6f770000604482015290519081900360640190fd5b50900390565b600082820183811015610858576040805162461bcd60e51b815260206004820152601b60248201527f536166654d6174683a206164646974696f6e206f766572666c6f770000000000604482015290519081900360640190fd5b600081612b9957600080fd5b600077ffffffffffffffffffffffffffffffffffffffffffffffff8411612bcf5782604085901b81612bc757fe5b049050612cd4565b60c084811c6401000000008110612be8576020918201911c5b620100008110612bfa576010918201911c5b6101008110612c0b576008918201911c5b60108110612c1b576004918201911c5b60048110612c2b576002918201911c5b60028110612c3a576001820191505b60bf820360018603901c6001018260ff0387901b81612c5557fe5b0492506001600160801b03831115612c6c57600080fd5b608085901c83026001600160801b038616840260c088901c604089901b82811015612c98576001820391505b608084901b92900382811015612caf576001820391505b829003608084901c8214612cbf57fe5b888181612cc857fe5b04870196505050505050505b6001600160801b0381111561085857600080fd5b60006840000000000000000082600f0b12612d0257600080fd5b683fffffffffffffffff1982600f0b1215612d1f57506000610b4a565b6f8000000000000000000000000000000060006780000000000000008416600f0b1315612d5d5770016a09e667f3bcc908b2fb1366ea957d3e0260801c5b60008367400000000000000016600f0b1315612d8a577001306fe0a31b7152de8d5a46305c85edec0260801c5b60008367200000000000000016600f0b1315612db7577001172b83c7d517adcdf7c8c50eb14a791f0260801c5b60008367100000000000000016600f0b1315612de45770010b5586cf9890f6298b92b71842a983630260801c5b60008367080000000000000016600f0b1315612e11577001059b0d31585743ae7c548eb68ca417fd0260801c5b60008367040000000000000016600f0b1315612e3e57700102c9a3e778060ee6f7caca4f7a29bde80260801c5b60008367020000000000000016600f0b1315612e6b5770010163da9fb33356d84a66ae336dcdfa3f0260801c5b60008367010000000000000016600f0b1315612e9857700100b1afa5abcbed6129ab13ec11dc95430260801c5b600083668000000000000016600f0b1315612ec45770010058c86da1c09ea1ff19d294cf2f679b0260801c5b600083664000000000000016600f0b1315612ef0577001002c605e2e8cec506d21bfc89a23a00f0260801c5b600083662000000000000016600f0b1315612f1c57700100162f3904051fa128bca9c55c31e5df0260801c5b600083661000000000000016600f0b1315612f48577001000b175effdc76ba38e31671ca9397250260801c5b600083660800000000000016600f0b1315612f7457700100058ba01fb9f96d6cacd4b180917c3d0260801c5b600083660400000000000016600f0b1315612fa05770010002c5cc37da9491d0985c348c68e7b30260801c5b600083660200000000000016600f0b1315612fcc577001000162e525ee054754457d59952920260260801c5b600083660100000000000016600f0b1315612ff85770010000b17255775c040618bf4a4ade83fc0260801c5b6000836580000000000016600f0b1315613023577001000058b91b5bc9ae2eed81e9b7d4cfab0260801c5b6000836540000000000016600f0b131561304e57700100002c5c89d5ec6ca4d7c8acc017b7c90260801c5b6000836520000000000016600f0b13156130795770010000162e43f4f831060e02d839a9d16d0260801c5b6000836510000000000016600f0b13156130a457700100000b1721bcfc99d9f890ea069117630260801c5b6000836508000000000016600f0b13156130cf5770010000058b90cf1e6d97f9ca14dbcc16280260801c5b6000836504000000000016600f0b13156130fa577001000002c5c863b73f016468f6bac5ca2b0260801c5b6000836502000000000016600f0b131561312557700100000162e430e5a18f6119e3c02282a50260801c5b6000836501000000000016600f0b1315613150577001000000b1721835514b86e6d96efd1bfe0260801c5b60008364800000000016600f0b131561317a57700100000058b90c0b48c6be5df846c5b2ef0260801c5b60008364400000000016600f0b13156131a45770010000002c5c8601cc6b9e94213c72737a0260801c5b60008364200000000016600f0b13156131ce577001000000162e42fff037df38aa2b219f060260801c5b60008364100000000016600f0b13156131f85770010000000b17217fba9c739aa5819f44f90260801c5b60008364080000000016600f0b1315613222577001000000058b90bfcdee5acd3c1cedc8230260801c5b60008364040000000016600f0b131561324c57700100000002c5c85fe31f35a6a30da1be500260801c5b60008364020000000016600f0b13156132765770010000000162e42ff0999ce3541b9fffcf0260801c5b60008364010000000016600f0b13156132a057700100000000b17217f80f4ef5aadda455540260801c5b600083638000000016600f0b13156132c95770010000000058b90bfbf8479bd5a81b51ad0260801c5b600083634000000016600f0b13156132f2577001000000002c5c85fdf84bd62ae30a74cc0260801c5b600083632000000016600f0b131561331b57700100000000162e42fefb2fed257559bdaa0260801c5b600083631000000016600f0b1315613344577001000000000b17217f7d5a7716bba4a9ae0260801c5b600083630800000016600f0b131561336d57700100000000058b90bfbe9ddbac5e109cce0260801c5b600083630400000016600f0b13156133965770010000000002c5c85fdf4b15de6f17eb0d0260801c5b600083630200000016600f0b13156133bf577001000000000162e42fefa494f1478fde050260801c5b600083630100000016600f0b13156133e85770010000000000b17217f7d20cf927c8e94c0260801c5b6000836280000016600f0b1315613410577001000000000058b90bfbe8f71cb4e4b33d0260801c5b6000836240000016600f0b131561343857700100000000002c5c85fdf477b662b269450260801c5b6000836220000016600f0b13156134605770010000000000162e42fefa3ae53369388c0260801c5b6000836210000016600f0b131561348857700100000000000b17217f7d1d351a389d400260801c5b6000836208000016600f0b13156134b05770010000000000058b90bfbe8e8b2d3d4ede0260801c5b6000836204000016600f0b13156134d8577001000000000002c5c85fdf4741bea6e77e0260801c5b6000836202000016600f0b131561350057700100000000000162e42fefa39fe95583c20260801c5b6000836201000016600f0b1315613528577001000000000000b17217f7d1cfb72b45e10260801c5b60008361800016600f0b131561354f57700100000000000058b90bfbe8e7cc35c3f00260801c5b60008361400016600f0b13156135765770010000000000002c5c85fdf473e242ea380260801c5b60008361200016600f0b131561359d577001000000000000162e42fefa39f02b772c0260801c5b60008361100016600f0b13156135c45770010000000000000b17217f7d1cf7d83c1a0260801c5b60008361080016600f0b13156135eb577001000000000000058b90bfbe8e7bdcbe2e0260801c5b60008361040016600f0b131561361257700100000000000002c5c85fdf473dea871f0260801c5b60008361020016600f0b13156136395770010000000000000162e42fefa39ef44d910260801c5b60008361010016600f0b131561366057700100000000000000b17217f7d1cf79e9490260801c5b600083608016600f0b13156136865770010000000000000058b90bfbe8e7bce5440260801c5b600083604016600f0b13156136ac577001000000000000002c5c85fdf473de6eca0260801c5b600083602016600f0b13156136d257700100000000000000162e42fefa39ef366f0260801c5b600083601016600f0b13156136f8577001000000000000000b17217f7d1cf79afa0260801c5b600083600816600f0b131561371e57700100000000000000058b90bfbe8e7bcd6d0260801c5b600083600416600f0b13156137445770010000000000000002c5c85fdf473de6b20260801c5b600083600216600f0b131561376a577001000000000000000162e42fefa39ef3580260801c5b600083600116600f0b13156137905770010000000000000000b17217f7d1cf79ab0260801c5b600f83810b60401d603f03900b1c6f7fffffffffffffffffffffffffffffff8111156106a657600080fd5b60008082600f0b136137cc57600080fd5b6000600f83900b6801000000000000000081126137eb576040918201911d5b64010000000081126137ff576020918201911d5b620100008112613811576010918201911d5b6101008112613822576008918201911d5b60108112613832576004918201911d5b60048112613842576002918201911d5b60028112613851576001820191505b603f19820160401b600f85900b607f8490031b6780000000000000005b60008113156138945790800260ff81901c8281029390930192607f011c9060011d61386e565b509095945050505050565b60006138f4826040518060400160405280602081526020017f5361666545524332303a206c6f772d6c6576656c2063616c6c206661696c6564815250856001600160a01b03166139509092919063ffffffff16565b8051909150156128bc5780806020019051602081101561391357600080fd5b50516128bc5760405162461bcd60e51b815260040180806020018281038252602a815260200180613bae602a913960400191505060405180910390fd5b606061395f8484600085613967565b949350505050565b6060824710156139a85760405162461bcd60e51b8152600401808060200182810382526026815260200180613b886026913960400191505060405180910390fd5b6139b185613ab7565b613a02576040805162461bcd60e51b815260206004820152601d60248201527f416464726573733a2063616c6c20746f206e6f6e2d636f6e7472616374000000604482015290519081900360640190fd5b600080866001600160a01b031685876040518082805190602001908083835b60208310613a405780518252601f199092019160209182019101613a21565b6001836020036101000a03801982511681845116808217855250505050505090500191505060006040518083038185875af1925050503d8060008114613aa2576040519150601f19603f3d011682016040523d82523d6000602084013e613aa7565b606091505b509150915061278c828286613abd565b3b151590565b60608315613acc575081610858565b825115613adc5782518084602001fd5b8160405162461bcd60e51b81526004018080602001828103825283818151815260200191508051906020019080838360005b83811015613b26578181015183820152602001613b0e565b50505050905090810190601f168015613b535780820380516001836020036101000a031916815260200191505b509250505060405180910390fdfe4f776e61626c653a206e6577206f776e657220697320746865207a65726f2061646472657373416464726573733a20696e73756666696369656e742062616c616e636520666f722063616c6c5361666545524332303a204552433230206f7065726174696f6e20646964206e6f742073756363656564a26469706673582212206542b3ac78874561dad6b66a0b7a38f89bcfd45ce937a8a0d883853241ad64bf64736f6c63430007060033",
  "devdoc": {
    "kind": "dev",
    "methods": {
      "buy(uint256,int128)": {
        "params": {
          "_amount": "This is the number of outcome tokens purchased (signed 64.64-bit fixed point number)",
          "_outcome": "The outcome(s) which a user is buying tokens for (1 for YES, 2 for NO)"
        },
        "returns": {
          "_cost": "The total amount of tokens received from selling the _amount of shares"
        }
      },
      "initialize(address)": {
        "params": {
          "_token": "ERC-20 token will be used to purchase and redeem rewards for this Market"
        }
      },
      "sell(uint256,int128)": {
        "params": {
          "_amount": "This is the number of outcome tokens purchased (signed 64.64-bit fixed point number)",
          "_outcome": "The outcome(s) which a user is buying tokens for (1 for YES, 2 for NO)"
        },
        "returns": {
          "_cost": "The total amount of tokens received from selling the _amount of shares"
        }
      },
      "setup(uint256,address,uint256,uint256,uint256)": {
        "params": {
          "_id": "The market id should be unique for each master",
          "_oracle": "The address for the EOA or contract which will report the result for this Market",
          "_overround": "How much 'profit' does the AMM claim in bps. Note that 200 represents 2%",
          "_subsidy": "How much initial funding is used to seed the market (denominated on initialized token)",
          "_totalOutcomes": "The number of different outcomes possible for this market (currently fixed at 2)"
        }
      }
    },
    "version": 1
  },
  "userdoc": {
    "kind": "user",
    "methods": {
      "buy(uint256,int128)": {
        "notice": "This function is used to buy outcome tokens."
      },
      "buyPrice(uint256,int128)": {
        "notice": "This function tells you how much it will cost to make a particular BUY trade.  It does this by calculating the difference between the current cost and the cost after the trade."
      },
      "cost()": {
        "notice": "Total amount of collateral spent in this Market  For example, if a market was seeded with 2000 PRE and then a further 20 PRE has been spent,  this function will return 2020 PRE."
      },
      "initialize(address)": {
        "notice": "Constructor like function for the market maker"
      },
      "sell(uint256,int128)": {
        "notice": "This function is used to sell outcome tokens already bought."
      },
      "sellPrice(uint256,int128)": {
        "notice": "This function tells you how much it will cost to make a particular SELL trade.  It does this by calculating the difference between the current cost and the cost after the trade."
      },
      "setup(uint256,address,uint256,uint256,uint256)": {
        "notice": "Set up some of the variables for the market maker"
      }
    },
    "version": 1
  },
  "storageLayout": {
    "storage": [
      {
        "astId": 10883,
        "contract": "contracts/PrecogMarketV4.sol:PrecogMarketV4",
        "label": "owner",
        "offset": 0,
        "slot": "0",
        "type": "t_address"
      },
      {
        "astId": 10885,
        "contract": "contracts/PrecogMarketV4.sol:PrecogMarketV4",
        "label": "token",
        "offset": 0,
        "slot": "1",
        "type": "t_address"
      },
      {
        "astId": 10887,
        "contract": "contracts/PrecogMarketV4.sol:PrecogMarketV4",
        "label": "id",
        "offset": 0,
        "slot": "2",
        "type": "t_uint256"
      },
      {
        "astId": 10889,
        "contract": "contracts/PrecogMarketV4.sol:PrecogMarketV4",
        "label": "oracle",
        "offset": 0,
        "slot": "3",
        "type": "t_address"
      },
      {
        "astId": 10891,
        "contract": "contracts/PrecogMarketV4.sol:PrecogMarketV4",
        "label": "startTimestamp",
        "offset": 0,
        "slot": "4",
        "type": "t_uint256"
      },
      {
        "astId": 10893,
        "contract": "contracts/PrecogMarketV4.sol:PrecogMarketV4",
        "label": "endTimestamp",
        "offset": 0,
        "slot": "5",
        "type": "t_uint256"
      },
      {
        "astId": 10895,
        "contract": "contracts/PrecogMarketV4.sol:PrecogMarketV4",
        "label": "closeTimestamp",
        "offset": 0,
        "slot": "6",
        "type": "t_uint256"
      },
      {
        "astId": 10897,
        "contract": "contracts/PrecogMarketV4.sol:PrecogMarketV4",
        "label": "result",
        "offset": 0,
        "slot": "7",
        "type": "t_uint256"
      },
      {
        "astId": 10901,
        "contract": "contracts/PrecogMarketV4.sol:PrecogMarketV4",
        "label": "accountShares",
        "offset": 0,
        "slot": "8",
        "type": "t_mapping(t_address,t_struct(ShareInfo)10881_storage)"
      },
      {
        "astId": 10903,
        "contract": "contracts/PrecogMarketV4.sol:PrecogMarketV4",
        "label": "totalOutcomes",
        "offset": 0,
        "slot": "9",
        "type": "t_uint256"
      },
      {
        "astId": 10906,
        "contract": "contracts/PrecogMarketV4.sol:PrecogMarketV4",
        "label": "q",
        "offset": 0,
        "slot": "10",
        "type": "t_array(t_int128)dyn_storage"
      },
      {
        "astId": 10908,
        "contract": "contracts/PrecogMarketV4.sol:PrecogMarketV4",
        "label": "b",
        "offset": 0,
        "slot": "11",
        "type": "t_int128"
      },
      {
        "astId": 10910,
        "contract": "contracts/PrecogMarketV4.sol:PrecogMarketV4",
        "label": "alpha",
        "offset": 16,
        "slot": "11",
        "type": "t_int128"
      },
      {
        "astId": 10912,
        "contract": "contracts/PrecogMarketV4.sol:PrecogMarketV4",
        "label": "currentCost",
        "offset": 0,
        "slot": "12",
        "type": "t_int128"
      },
      {
        "astId": 10914,
        "contract": "contracts/PrecogMarketV4.sol:PrecogMarketV4",
        "label": "totalShares",
        "offset": 16,
        "slot": "12",
        "type": "t_int128"
      },
      {
        "astId": 10916,
        "contract": "contracts/PrecogMarketV4.sol:PrecogMarketV4",
        "label": "totalBuys",
        "offset": 0,
        "slot": "13",
        "type": "t_uint256"
      },
      {
        "astId": 10918,
        "contract": "contracts/PrecogMarketV4.sol:PrecogMarketV4",
        "label": "totalSells",
        "offset": 0,
        "slot": "14",
        "type": "t_uint256"
      },
      {
        "astId": 10920,
        "contract": "contracts/PrecogMarketV4.sol:PrecogMarketV4",
        "label": "initialized",
        "offset": 0,
        "slot": "15",
        "type": "t_bool"
      }
    ],
    "types": {
      "t_address": {
        "encoding": "inplace",
        "label": "address",
        "numberOfBytes": "20"
      },
      "t_array(t_int128)dyn_storage": {
        "base": "t_int128",
        "encoding": "dynamic_array",
        "label": "int128[]",
        "numberOfBytes": "32"
      },
      "t_bool": {
        "encoding": "inplace",
        "label": "bool",
        "numberOfBytes": "1"
      },
      "t_int128": {
        "encoding": "inplace",
        "label": "int128",
        "numberOfBytes": "16"
      },
      "t_mapping(t_address,t_struct(ShareInfo)10881_storage)": {
        "encoding": "mapping",
        "key": "t_address",
        "label": "mapping(address => struct PrecogMarketV4.ShareInfo)",
        "numberOfBytes": "32",
        "value": "t_struct(ShareInfo)10881_storage"
      },
      "t_struct(ShareInfo)10881_storage": {
        "encoding": "inplace",
        "label": "struct PrecogMarketV4.ShareInfo",
        "members": [
          {
            "astId": 10868,
            "contract": "contracts/PrecogMarketV4.sol:PrecogMarketV4",
            "label": "buys",
            "offset": 0,
            "slot": "0",
            "type": "t_uint256"
          },
          {
            "astId": 10870,
            "contract": "contracts/PrecogMarketV4.sol:PrecogMarketV4",
            "label": "sells",
            "offset": 0,
            "slot": "1",
            "type": "t_uint256"
          },
          {
            "astId": 10872,
            "contract": "contracts/PrecogMarketV4.sol:PrecogMarketV4",
            "label": "outcomeOneBalance",
            "offset": 0,
            "slot": "2",
            "type": "t_uint256"
          },
          {
            "astId": 10874,
            "contract": "contracts/PrecogMarketV4.sol:PrecogMarketV4",
            "label": "outcomeTwoBalance",
            "offset": 0,
            "slot": "3",
            "type": "t_uint256"
          },
          {
            "astId": 10876,
            "contract": "contracts/PrecogMarketV4.sol:PrecogMarketV4",
            "label": "deposited",
            "offset": 0,
            "slot": "4",
            "type": "t_uint256"
          },
          {
            "astId": 10878,
            "contract": "contracts/PrecogMarketV4.sol:PrecogMarketV4",
            "label": "withdrew",
            "offset": 0,
            "slot": "5",
            "type": "t_uint256"
          },
          {
            "astId": 10880,
            "contract": "contracts/PrecogMarketV4.sol:PrecogMarketV4",
            "label": "redeemed",
            "offset": 0,
            "slot": "6",
            "type": "t_uint256"
          }
        ],
        "numberOfBytes": "224"
      },
      "t_uint256": {
        "encoding": "inplace",
        "label": "uint256",
        "numberOfBytes": "32"
      }
    }
  }
}