{
  "address": "0x95d4E2E5c49a76c35E52932FC668fe2D31D35F9B",
  "abi": [
    {
      "anonymous": false,
      "inputs": [
        {
          "indexed": true,
          "internalType": "address",
          "name": "previousOwner",
          "type": "address"
        },
        {
          "indexed": true,
          "internalType": "address",
          "name": "newOwner",
          "type": "address"
        }
      ],
      "name": "OwnershipTransferred",
      "type": "event"
    },
    {
      "anonymous": false,
      "inputs": [
        {
          "indexed": true,
          "internalType": "address",
          "name": "account",
          "type": "address"
        },
        {
          "indexed": false,
          "internalType": "uint256",
          "name": "amount",
          "type": "uint256"
        },
        {
          "indexed": false,
          "internalType": "uint256",
          "name": "tokenIn",
          "type": "uint256"
        }
      ],
      "name": "SharesBought",
      "type": "event"
    },
    {
      "anonymous": false,
      "inputs": [
        {
          "indexed": true,
          "internalType": "address",
          "name": "account",
          "type": "address"
        },
        {
          "indexed": false,
          "internalType": "uint256",
          "name": "amount",
          "type": "uint256"
        },
        {
          "indexed": false,
          "internalType": "uint256",
          "name": "tokenOut",
          "type": "uint256"
        }
      ],
      "name": "SharesRedeemed",
      "type": "event"
    },
    {
      "anonymous": false,
      "inputs": [
        {
          "indexed": true,
          "internalType": "address",
          "name": "account",
          "type": "address"
        },
        {
          "indexed": false,
          "internalType": "uint256",
          "name": "amount",
          "type": "uint256"
        },
        {
          "indexed": false,
          "internalType": "uint256",
          "name": "tokenOut",
          "type": "uint256"
        }
      ],
      "name": "SharesSold",
      "type": "event"
    },
    {
      "inputs": [
        {
          "internalType": "uint256",
          "name": "_outcome",
          "type": "uint256"
        },
        {
          "internalType": "int128",
          "name": "_amount",
          "type": "int128"
        },
        {
          "internalType": "address",
          "name": "_account",
          "type": "address"
        }
      ],
      "name": "_buy",
      "outputs": [
        {
          "internalType": "uint256",
          "name": "_cost",
          "type": "uint256"
        }
      ],
      "stateMutability": "nonpayable",
      "type": "function"
    },
    {
      "inputs": [
        {
          "internalType": "address",
          "name": "_account",
          "type": "address"
        }
      ],
      "name": "_redeem",
      "outputs": [
        {
          "internalType": "uint256",
          "name": "shares",
          "type": "uint256"
        }
      ],
      "stateMutability": "nonpayable",
      "type": "function"
    },
    {
      "inputs": [
        {
          "internalType": "uint256",
          "name": "_outcome",
          "type": "uint256"
        },
        {
          "internalType": "int128",
          "name": "_amount",
          "type": "int128"
        },
        {
          "internalType": "address",
          "name": "_account",
          "type": "address"
        }
      ],
      "name": "_sell",
      "outputs": [
        {
          "internalType": "uint256",
          "name": "_cost",
          "type": "uint256"
        }
      ],
      "stateMutability": "nonpayable",
      "type": "function"
    },
    {
      "inputs": [
        {
          "internalType": "address",
          "name": "",
          "type": "address"
        }
      ],
      "name": "accountShares",
      "outputs": [
        {
          "internalType": "uint256",
          "name": "buys",
          "type": "uint256"
        },
        {
          "internalType": "uint256",
          "name": "sells",
          "type": "uint256"
        },
        {
          "internalType": "uint256",
          "name": "outcomeOneBalance",
          "type": "uint256"
        },
        {
          "internalType": "uint256",
          "name": "outcomeTwoBalance",
          "type": "uint256"
        },
        {
          "internalType": "uint256",
          "name": "deposited",
          "type": "uint256"
        },
        {
          "internalType": "uint256",
          "name": "withdrew",
          "type": "uint256"
        },
        {
          "internalType": "uint256",
          "name": "redeemed",
          "type": "uint256"
        }
      ],
      "stateMutability": "view",
      "type": "function"
    },
    {
      "inputs": [
        {
          "internalType": "uint256",
          "name": "_outcome",
          "type": "uint256"
        },
        {
          "internalType": "int128",
          "name": "_amount",
          "type": "int128"
        }
      ],
      "name": "buy",
      "outputs": [
        {
          "internalType": "uint256",
          "name": "_cost",
          "type": "uint256"
        }
      ],
      "stateMutability": "nonpayable",
      "type": "function"
    },
    {
      "inputs": [
        {
          "internalType": "uint256",
          "name": "_outcome",
          "type": "uint256"
        },
        {
          "internalType": "int128",
          "name": "_amount",
          "type": "int128"
        }
      ],
      "name": "buyPrice",
      "outputs": [
        {
          "internalType": "int128",
          "name": "",
          "type": "int128"
        }
      ],
      "stateMutability": "view",
      "type": "function"
    },
    {
      "inputs": [],
      "name": "closeTimestamp",
      "outputs": [
        {
          "internalType": "uint256",
          "name": "",
          "type": "uint256"
        }
      ],
      "stateMutability": "view",
      "type": "function"
    },
    {
      "inputs": [],
      "name": "cost",
      "outputs": [
        {
          "internalType": "int128",
          "name": "",
          "type": "int128"
        }
      ],
      "stateMutability": "view",
      "type": "function"
    },
    {
      "inputs": [],
      "name": "endTimestamp",
      "outputs": [
        {
          "internalType": "uint256",
          "name": "",
          "type": "uint256"
        }
      ],
      "stateMutability": "view",
      "type": "function"
    },
    {
      "inputs": [],
      "name": "getMarketInfo",
      "outputs": [
        {
          "internalType": "int128",
          "name": "",
          "type": "int128"
        },
        {
          "internalType": "int128",
          "name": "",
          "type": "int128"
        },
        {
          "internalType": "int128",
          "name": "",
          "type": "int128"
        },
        {
          "internalType": "int128",
          "name": "",
          "type": "int128"
        },
        {
          "internalType": "uint256",
          "name": "",
          "type": "uint256"
        },
        {
          "internalType": "uint256",
          "name": "",
          "type": "uint256"
        }
      ],
      "stateMutability": "view",
      "type": "function"
    },
    {
      "inputs": [],
      "name": "id",
      "outputs": [
        {
          "internalType": "uint256",
          "name": "",
          "type": "uint256"
        }
      ],
      "stateMutability": "view",
      "type": "function"
    },
    {
      "inputs": [
        {
          "internalType": "address",
          "name": "_token",
          "type": "address"
        }
      ],
      "name": "initialize",
      "outputs": [],
      "stateMutability": "nonpayable",
      "type": "function"
    },
    {
      "inputs": [],
      "name": "oracle",
      "outputs": [
        {
          "internalType": "address",
          "name": "",
          "type": "address"
        }
      ],
      "stateMutability": "view",
      "type": "function"
    },
    {
      "inputs": [],
      "name": "owner",
      "outputs": [
        {
          "internalType": "address",
          "name": "",
          "type": "address"
        }
      ],
      "stateMutability": "view",
      "type": "function"
    },
    {
      "inputs": [
        {
          "internalType": "address[]",
          "name": "_accounts",
          "type": "address[]"
        }
      ],
      "name": "redeemBatch",
      "outputs": [
        {
          "internalType": "uint256",
          "name": "redeems",
          "type": "uint256"
        }
      ],
      "stateMutability": "nonpayable",
      "type": "function"
    },
    {
      "inputs": [],
      "name": "redeemShares",
      "outputs": [
        {
          "internalType": "uint256",
          "name": "shares",
          "type": "uint256"
        }
      ],
      "stateMutability": "nonpayable",
      "type": "function"
    },
    {
      "inputs": [
        {
          "internalType": "uint256",
          "name": "_id",
          "type": "uint256"
        },
        {
          "internalType": "uint256",
          "name": "_outcome",
          "type": "uint256"
        }
      ],
      "name": "reportResult",
      "outputs": [],
      "stateMutability": "nonpayable",
      "type": "function"
    },
    {
      "inputs": [],
      "name": "result",
      "outputs": [
        {
          "internalType": "uint256",
          "name": "",
          "type": "uint256"
        }
      ],
      "stateMutability": "view",
      "type": "function"
    },
    {
      "inputs": [
        {
          "internalType": "uint256",
          "name": "_outcome",
          "type": "uint256"
        },
        {
          "internalType": "int128",
          "name": "_amount",
          "type": "int128"
        }
      ],
      "name": "sell",
      "outputs": [
        {
          "internalType": "uint256",
          "name": "_cost",
          "type": "uint256"
        }
      ],
      "stateMutability": "nonpayable",
      "type": "function"
    },
    {
      "inputs": [
        {
          "internalType": "uint256",
          "name": "_outcome",
          "type": "uint256"
        },
        {
          "internalType": "int128",
          "name": "_amount",
          "type": "int128"
        }
      ],
      "name": "sellPrice",
      "outputs": [
        {
          "internalType": "int128",
          "name": "",
          "type": "int128"
        }
      ],
      "stateMutability": "view",
      "type": "function"
    },
    {
      "inputs": [
        {
          "internalType": "uint256",
          "name": "_id",
          "type": "uint256"
        },
        {
          "internalType": "address",
          "name": "_oracle",
          "type": "address"
        },
        {
          "internalType": "uint256",
          "name": "_totalOutcomes",
          "type": "uint256"
        },
        {
          "internalType": "uint256",
          "name": "_subsidy",
          "type": "uint256"
        },
        {
          "internalType": "uint256",
          "name": "_overround",
          "type": "uint256"
        }
      ],
      "name": "setup",
      "outputs": [],
      "stateMutability": "nonpayable",
      "type": "function"
    },
    {
      "inputs": [],
      "name": "startTimestamp",
      "outputs": [
        {
          "internalType": "uint256",
          "name": "",
          "type": "uint256"
        }
      ],
      "stateMutability": "view",
      "type": "function"
    },
    {
      "inputs": [],
      "name": "token",
      "outputs": [
        {
          "internalType": "address",
          "name": "",
          "type": "address"
        }
      ],
      "stateMutability": "view",
      "type": "function"
    },
    {
      "inputs": [
        {
          "internalType": "address",
          "name": "newOwner",
          "type": "address"
        }
      ],
      "name": "transferOwnership",
      "outputs": [],
      "stateMutability": "nonpayable",
      "type": "function"
    },
    {
      "inputs": [
        {
          "internalType": "uint256",
          "name": "_startTimestamp",
          "type": "uint256"
        },
        {
          "internalType": "uint256",
          "name": "_endTimestamp",
          "type": "uint256"
        }
      ],
      "name": "updateDates",
      "outputs": [],
      "stateMutability": "nonpayable",
      "type": "function"
    },
    {
      "inputs": [
        {
          "internalType": "address",
          "name": "_token",
          "type": "address"
        }
      ],
      "name": "withdraw",
      "outputs": [],
      "stateMutability": "nonpayable",
      "type": "function"
    }
  ],
  "transactionHash": "0xc9805a3225fb1e03ef4bd511651b8eae511386c261eee84a9793edf771589ad4",
  "args": [],
  "numDeployments": 1,
  "solcInputHash": "be39ec8c19c7a8f377d05d90005b56f8",
  "bytecode": "0x608060405234801561001057600080fd5b50613c08806100206000396000f3fe608060405234801561001057600080fd5b50600436106101ae5760003560e01c8063a85adeab116100ee578063c4d66de811610097578063e6fd48bc11610071578063e6fd48bc14610554578063f2fde38b1461055c578063f76da1d914610582578063fc0c546a146105a8576101ae565b8063c4d66de8146104d6578063cae32606146104fc578063e6b2c87c14610531576101ae565b8063af640d0f116100c8578063af640d0f14610423578063b460481d1461042b578063bc0e610a14610433576101ae565b8063a85adeab146103d2578063ad094f3d146103da578063ae92a93d146103fd576101ae565b806352c8b2f91161015b578063653721471161013557806365372147146103695780637dc0d1d014610371578063898b51a7146103955780638da5cb5b146103ca576101ae565b806352c8b2f9146102a7578063535f02ee146103055780635467a7511461032b576101ae565b80633dcb8b811161018c5780633dcb8b81146102335780633f7361eb1461025957806351cff8d91461027f576101ae565b8063052d7c00146101b357806313faede6146101cd57806323341a05146101ec575b600080fd5b6101bb6105b0565b60408051918252519081900360200190f35b6101d56105b6565b60408051600f9290920b8252519081900360200190f35b6101f4610687565b60408051600f97880b815295870b602087015293860b858501529190940b6060840152608083019390935260a082019290925290519081900360c00190f35b6101d56004803603604081101561024957600080fd5b5080359060200135600f0b61074b565b6101bb6004803603602081101561026f57600080fd5b50356001600160a01b031661079e565b6102a56004803603602081101561029557600080fd5b50356001600160a01b0316610aa0565b005b6102cd600480360360208110156102bd57600080fd5b50356001600160a01b0316610c1c565b604080519788526020880196909652868601949094526060860192909252608085015260a084015260c0830152519081900360e00190f35b6101d56004803603604081101561031b57600080fd5b5080359060200135600f0b610c59565b6102a5600480360360a081101561034157600080fd5b508035906001600160a01b036020820135169060408101359060608101359060800135610c81565b6101bb610fef565b610379610ff5565b604080516001600160a01b039092168252519081900360200190f35b6101bb600480360360608110156103ab57600080fd5b508035906020810135600f0b90604001356001600160a01b0316611004565b610379611679565b6101bb611688565b6102a5600480360360408110156103f057600080fd5b508035906020013561168e565b6101bb6004803603604081101561041357600080fd5b5080359060200135600f0b61182f565b6101bb61194a565b6101bb611950565b6101bb6004803603602081101561044957600080fd5b81019060208101813564010000000081111561046457600080fd5b82018360208201111561047657600080fd5b8035906020019184602083028401116401000000008311171561049857600080fd5b9190808060200260200160405190810160405280939291908181526020018383602002808284376000920191909152509295506119b8945050505050565b6102a5600480360360208110156104ec57600080fd5b50356001600160a01b0316611b18565b6101bb6004803603606081101561051257600080fd5b508035906020810135600f0b90604001356001600160a01b0316611bb3565b6102a56004803603604081101561054757600080fd5b5080359060200135612126565b6101bb61217d565b6102a56004803603602081101561057257600080fd5b50356001600160a01b0316612183565b6101bb6004803603604081101561059857600080fd5b5080359060200135600f0b61227c565b610379612397565b60065481565b60105460009060ff161515600114610601576040805162461bcd60e51b815260206004820152600960248201526804e6f742073657475760bc1b604482015290519081900360640190fd5b6000805b6009548110156106685761065e82610659610654600a858154811061062657fe5b60009182526020909120600282040154600b5460019092166010026101000a9004600f90810b91900b6123a6565b61240b565b612465565b9150600101610605565b50600b5461068190600f0b61067c836124aa565b6124e4565b91505090565b6000806000806000806001600a8054905010156106b557506000945084935083925082915081905080610743565b600d54600a8054600f9290920b916000906106cc57fe5b90600052602060002090600291828204019190066010029054906101000a9004600f0b600a6001815481106106fd57fe5b90600052602060002090600291828204019190066010029054906101000a9004600f0b600c60109054906101000a9004600f0b600e54600f549550955095509550955095505b909192939495565b600c54600090819061077090600160801b9004600f0b61076b868661252c565b6126ce565b600c54909150600090610787908390600f0b6123a6565b905061079382826126ce565b925050505b92915050565b600080546001600160a01b03163314806107bf5750601054610100900460ff165b610805576040805162461bcd60e51b815260206004820152601260248201527127b7363c9037bbb732b91037b91039b2b63360711b604482015290519081900360640190fd5b60006006541161085c576040805162461bcd60e51b815260206004820152601160248201527f4d61726b6574206e6f7420636c6f736564000000000000000000000000000000604482015290519081900360640190fd5b6001600160a01b038216600090815260086020526040902060060154156108ca576040805162461bcd60e51b815260206004820152601760248201527f53686172657320616c72656164792072656465656d6564000000000000000000604482015290519081900360640190fd5b600754600114156108f757506001600160a01b038116600090815260086020526040902060020154610920565b6007546002141561092057506001600160a01b0381166000908152600860205260409020600301545b60008111610975576040805162461bcd60e51b815260206004820152601160248201527f4e6f7468696e6720746f2072656465656d000000000000000000000000000000604482015290519081900360640190fd5b6001600160a01b038083166000818152600860209081526040808320600601869055600154815163a9059cbb60e01b8152600481019590955260248501879052905194169363a9059cbb93604480820194918390030190829087803b1580156109dd57600080fd5b505af11580156109f1573d6000803e3d6000fd5b505050506040513d6020811015610a0757600080fd5b5051610a4d576040805162461bcd60e51b815260206004820152601060248201526f24b73b30b634b2103a3930b739b332b960811b604482015290519081900360640190fd5b604080518281526020810183905281516001600160a01b038516927ff18a1e0eb1d585d2194cdc081f34e04df407e94de5238f45531482467e31705f928290030190a26010805461ff0019169055919050565b60105460ff161515600114610ae8576040805162461bcd60e51b815260206004820152600960248201526804e6f742073657475760bc1b604482015290519081900360640190fd5b6000546001600160a01b03163314610b34576040805162461bcd60e51b815260206004820152600a60248201526927b7363c9037bbb732b960b11b604482015290519081900360640190fd5b600060065411610b8b576040805162461bcd60e51b815260206004820152601160248201527f4d61726b6574206e6f7420636c6f736564000000000000000000000000000000604482015290519081900360640190fd5b610c1933826001600160a01b03166370a08231306040518263ffffffff1660e01b815260040180826001600160a01b0316815260200191505060206040518083038186803b158015610bdc57600080fd5b505afa158015610bf0573d6000803e3d6000fd5b505050506040513d6020811015610c0657600080fd5b50516001600160a01b0384169190612713565b50565b6008602052600090815260409020805460018201546002830154600384015460048501546005860154600690960154949593949293919290919087565b6000610c7a610c68848461277f565b600c54600160801b9004600f0b6126ce565b9392505050565b6000546001600160a01b03163314610ccd576040805162461bcd60e51b815260206004820152600a60248201526927b7363c9037bbb732b960b11b604482015290519081900360640190fd5b60105460ff1615610d25576040805162461bcd60e51b815260206004820152601360248201527f416c726561647920696e697469616c697a656400000000000000000000000000604482015290519081900360640190fd5b82600214610d7a576040805162461bcd60e51b815260206004820152601a60248201527f4f6e6c79206475616c206d61726b657420737570706f72746564000000000000604482015290519081900360640190fd5b60008111610dcf576040805162461bcd60e51b815260206004820152601760248201527f43616e6e6f7420686176652030206f766572726f756e64000000000000000000604482015290519081900360640190fd5b600154610de7906001600160a01b03163330856128fa565b60028590556003805473ffffffffffffffffffffffffffffffffffffffff19166001600160a01b03868116919091179091556009849055600154600091610e2f91168461296f565b90506000610e3c856129f2565b90506000610e4c84612710612a10565b9050610e6481610e5f8461067c866124aa565b6123a6565b600b60106101000a8154816001600160801b030219169083600f0b6001600160801b03160217905550610eac610e9a84846124e4565b600b54600160801b9004600f0b6124e4565b600b8054600f9290920b6001600160801b03166001600160801b031990921691909117905560005b600954811015610f4657600a8054600180820183556000929092527fc65a7bb8d6351c1cf70c95a316cc6a92839c986682d98bc35f958f4883f9d2a8600282040180549183166010026101000a6001600160801b0381810219909316600f89900b939093160291909117905501610ed4565b50610f5183836124e4565b600d8054600f9290920b6001600160801b03166001600160801b0319909216919091179055610f82620186a06129f2565b600c8054600f9290920b6001600160801b03166001600160801b03199092169190911790556010805460ff19166001179055610fbc6105b6565b600c60106101000a8154816001600160801b030219169083600f0b6001600160801b031602179055505050505050505050565b60075481565b6003546001600160a01b031681565b600080546001600160a01b03163314806110255750601054610100900460ff165b61106b576040805162461bcd60e51b815260206004820152601260248201527127b7363c9037bbb732b91037b91039b2b63360711b604482015290519081900360640190fd5b600084116110b2576040805162461bcd60e51b815260206004820152600f60248201526e496e76616c6964206f7574636f6d6560881b604482015290519081900360640190fd5b60065415611107576040805162461bcd60e51b815260206004820152601560248201527f4d61726b657420616c726561647920636c6f7365640000000000000000000000604482015290519081900360640190fd5b60005b6009548110156111e8576001811b8516156111e057611158600a828154811061112f57fe5b90600052602060002090600291828204019190066010029054906101000a9004600f0b856126ce565b600a828154811061116557fe5b90600052602060002090600291828204019190066010026101000a8154816001600160801b030219169083600f0b6001600160801b031602179055506111ba600d60009054906101000a9004600f0b856126ce565b600d8054600f9290920b6001600160801b03166001600160801b03199092169190911790555b60010161110a565b50600d54600b5461120791600f90810b91600160801b9004900b6124e4565b600b8054600f9290920b6001600160801b03166001600160801b03199092169190911790556000805b60095481101561125b5761125182610659610654600a858154811061062657fe5b9150600101611230565b50600b5460009061127290600f0b61067c846124aa565b600c5490915060009061128f90600160801b9004600f0b836126ce565b600c549091506000906112a6908390600f0b6123a6565b600c8054600f86900b6001600160801b03908116600160801b0291161790556001549091506000906112ea906001600160a01b03166112e585856126ce565b612a50565b905060008111611341576040805162461bcd60e51b815260206004820152600e60248201527f496e76616c69642072657475726e000000000000000000000000000000000000604482015290519081900360640190fd5b60015460009061135a906001600160a01b03168a612a50565b9050896001141561141c576001600160a01b0388166000908152600860205260409020600201548111156113d5576040805162461bcd60e51b815260206004820152601460248201527f496e73756666696369656e742062616c616e6365000000000000000000000000604482015290519081900360640190fd5b6001600160a01b0388166000908152600860205260409020600201546113fb9082612acb565b6001600160a01b0389166000908152600860205260409020600201556114d8565b89600214156114d8576001600160a01b038816600090815260086020526040902060030154811115611495576040805162461bcd60e51b815260206004820152601460248201527f496e73756666696369656e742062616c616e6365000000000000000000000000604482015290519081900360640190fd5b6001600160a01b0388166000908152600860205260409020600301546114bb9082612acb565b6001600160a01b0389166000908152600860205260409020600301555b6001546040805163a9059cbb60e01b81526001600160a01b038b81166004830152602482018690529151919092169163a9059cbb9160448083019260209291908290030181600087803b15801561152e57600080fd5b505af1158015611542573d6000803e3d6000fd5b505050506040513d602081101561155857600080fd5b505161159e576040805162461bcd60e51b815260206004820152601060248201526f24b73b30b634b2103a3930b739b332b960811b604482015290519081900360640190fd5b600f546115ac906001612b28565b600f556001600160a01b03881660009081526008602052604090206001908101546115d691612b28565b6001600160a01b03891660009081526008602052604090206001810191909155600501546116049083612b28565b6001600160a01b038916600081815260086020908152604091829020600501939093558051848152928301859052805191927f15d424bdac3ab52a065da0bac1452a0aa9453a23554ce765d3fbe0df6f5eb9ce929081900390910190a2506010805461ff001916905598975050505050505050565b6000546001600160a01b031681565b60055481565b6003546001600160a01b031633146116db576040805162461bcd60e51b815260206004820152600b60248201526a4f6e6c79206f7261636c6560a81b604482015290519081900360640190fd5b6002548214611731576040805162461bcd60e51b815260206004820152600e60248201527f496e76616c6964206d61726b6574000000000000000000000000000000000000604482015290519081900360640190fd5b600a5481111561177a576040805162461bcd60e51b815260206004820152600f60248201526e496e76616c6964206f7574636f6d6560881b604482015290519081900360640190fd5b60055442116117d0576040805162461bcd60e51b815260206004820152601060248201527f4d61726b6574206e6f7420656e64656400000000000000000000000000000000604482015290519081900360640190fd5b60065415611825576040805162461bcd60e51b815260206004820152601560248201527f4d61726b657420616c726561647920636c6f7365640000000000000000000000604482015290519081900360640190fd5b6007555042600655565b60105460009060ff16151560011461187a576040805162461bcd60e51b815260206004820152600960248201526804e6f742073657475760bc1b604482015290519081900360640190fd5b6004544210156118d1576040805162461bcd60e51b815260206004820152601260248201527f4d61726b6574206e6f7420737461727465640000000000000000000000000000604482015290519081900360640190fd5b6005541561193057600554421115611930576040805162461bcd60e51b815260206004820152601460248201527f4d61726b657420616c726561647920656e646564000000000000000000000000604482015290519081900360640190fd5b6010805461ff001916610100179055610c7a838333611004565b60025481565b60105460009060ff16151560011461199b576040805162461bcd60e51b815260206004820152600960248201526804e6f742073657475760bc1b604482015290519081900360640190fd5b6010805461ff0019166101001790556119b33361079e565b905090565b60105460009060ff161515600114611a03576040805162461bcd60e51b815260206004820152600960248201526804e6f742073657475760bc1b604482015290519081900360640190fd5b6003546001600160a01b03163314611a50576040805162461bcd60e51b815260206004820152600b60248201526a4f6e6c79206f7261636c6560a81b604482015290519081900360640190fd5b6010805461ff00191661010017905560005b8251811015611b1157306001600160a01b0316633f7361eb848381518110611a8657fe5b60200260200101516040518263ffffffff1660e01b815260040180826001600160a01b03168152602001915050602060405180830381600087803b158015611acd57600080fd5b505af1925050508015611af257506040513d6020811015611aed57600080fd5b505160015b611afb57611b09565b50611b07826001612b28565b505b600101611a62565b505b919050565b6000546001600160a01b031615611b76576040805162461bcd60e51b815260206004820152601360248201527f416c726561647920696e697469616c697a656400000000000000000000000000604482015290519081900360640190fd5b600080543373ffffffffffffffffffffffffffffffffffffffff1991821617909155600180549091166001600160a01b0392909216919091179055565b600080546001600160a01b0316331480611bd45750601054610100900460ff165b611c1a576040805162461bcd60e51b815260206004820152601260248201527127b7363c9037bbb732b91037b91039b2b63360711b604482015290519081900360640190fd5b60008411611c61576040805162461bcd60e51b815260206004820152600f60248201526e496e76616c6964206f7574636f6d6560881b604482015290519081900360640190fd5b60065415611cb6576040805162461bcd60e51b815260206004820152601560248201527f4d61726b657420616c726561647920636c6f7365640000000000000000000000604482015290519081900360640190fd5b60005b600954811015611d97576001811b851615611d8f57611d07600a8281548110611cde57fe5b90600052602060002090600291828204019190066010029054906101000a9004600f0b85612465565b600a8281548110611d1457fe5b90600052602060002090600291828204019190066010026101000a8154816001600160801b030219169083600f0b6001600160801b03160217905550611d69600d60009054906101000a9004600f0b85612465565b600d8054600f9290920b6001600160801b03166001600160801b03199092169190911790555b600101611cb9565b50600d54600b54611db691600f90810b91600160801b9004900b6124e4565b600b8054600f9290920b6001600160801b03166001600160801b03199092169190911790556000805b600954811015611e0a57611e0082610659610654600a858154811061062657fe5b9150600101611ddf565b50600b54600090611e2190600f0b61067c846124aa565b90506000611e3e82600c60109054906101000a9004600f0b6126ce565b600c8054600f85900b6001600160801b03908116600160801b029116179055600154909150600090611e79906001600160a01b031683612a50565b905060008111611ed0576040805162461bcd60e51b815260206004820152600c60248201527f496e76616c696420636f73740000000000000000000000000000000000000000604482015290519081900360640190fd5b600154604080516323b872dd60e01b81523360048201523060248201526044810184905290516001600160a01b03909216916323b872dd916064808201926020929091908290030181600087803b158015611f2a57600080fd5b505af1158015611f3e573d6000803e3d6000fd5b505050506040513d6020811015611f5457600080fd5b5051611f9a576040805162461bcd60e51b815260206004820152601060248201526f24b73b30b634b2103a3930b739b332b960811b604482015290519081900360640190fd5b600154600090611fb3906001600160a01b031689612a50565b600e54909150611fc4906001612b28565b600e556001600160a01b038716600090815260086020526040902054611feb906001612b28565b6001600160a01b0388166000908152600860205260409020908155600401546120149083612b28565b6001600160a01b0388166000908152600860205260409020600401556001891415612080576001600160a01b03871660009081526008602052604090206002015461205f9082612b28565b6001600160a01b0388166000908152600860205260409020600201556120cc565b88600214156120cc576001600160a01b0387166000908152600860205260409020600301546120af9082612b28565b6001600160a01b0388166000908152600860205260409020600301555b604080518281526020810184905281516001600160a01b038a16927f2ac0c7a344c07faca0c8fb818361b688d571a347db8c184800fce2207531dd1e928290030190a2506010805461ff0019169055979650505050505050565b6000546001600160a01b03163314612172576040805162461bcd60e51b815260206004820152600a60248201526927b7363c9037bbb732b960b11b604482015290519081900360640190fd5b600491909155600555565b60045481565b6000546001600160a01b031633146121cf576040805162461bcd60e51b815260206004820152600a60248201526927b7363c9037bbb732b960b11b604482015290519081900360640190fd5b6001600160a01b0381166122145760405162461bcd60e51b8152600401808060200182810382526026815260200180613b836026913960400191505060405180910390fd5b600080546040516001600160a01b03808516939216917f8be0079c531659141344cd1fd0a4f28419497f9722a3daafe3b4186f6b6457e091a36000805473ffffffffffffffffffffffffffffffffffffffff19166001600160a01b0392909216919091179055565b60105460009060ff1615156001146122c7576040805162461bcd60e51b815260206004820152600960248201526804e6f742073657475760bc1b604482015290519081900360640190fd5b60045442101561231e576040805162461bcd60e51b815260206004820152601260248201527f4d61726b6574206e6f7420737461727465640000000000000000000000000000604482015290519081900360640190fd5b6005541561237d5760055442111561237d576040805162461bcd60e51b815260206004820152601460248201527f4d61726b657420616c726561647920656e646564000000000000000000000000604482015290519081900360640190fd5b6010805461ff001916610100179055610c7a838333611bb3565b6001546001600160a01b031681565b600081600f0b600014156123b957600080fd5b600082600f0b604085600f0b901b816123ce57fe5b0590506f7fffffffffffffffffffffffffffffff19811280159061240257506f7fffffffffffffffffffffffffffffff8113155b610c7a57600080fd5b60006840000000000000000082600f0b1261242557600080fd5b683fffffffffffffffff1982600f0b121561244257506000611b13565b610798608083600f0b700171547652b82fe1777d0ffda0d23a7d1202901d612b82565b6000600f83810b9083900b016f7fffffffffffffffffffffffffffffff19811280159061240257506f7fffffffffffffffffffffffffffffff811315610c7a57600080fd5b60008082600f0b136124bb57600080fd5b60806124c683613655565b600f0b6fb17217f7d1cf79abc9e3b39803f2f6af02901c9050919050565b6000600f83810b9083900b0260401d6f7fffffffffffffffffffffffffffffff19811280159061240257506f7fffffffffffffffffffffffffffffff811315610c7a57600080fd5b6000806000600a8054905067ffffffffffffffff8111801561254d57600080fd5b50604051908082528060200260200182016040528015612577578160200160208202803683370190505b50600d54909150600f0b60005b60095481101561265c576001811b871615612603576125d2600a82815481106125a957fe5b90600052602060002090600291828204019190066010029054906101000a9004600f0b876126ce565b8382815181106125de57fe5b6020026020010190600f0b9081600f0b815250506125fc82876126ce565b9150612654565b600a818154811061261057fe5b90600052602060002090600291828204019190066010029054906101000a9004600f0b83828151811061263f57fe5b6020026020010190600f0b9081600f0b815250505b600101612584565b50600b54600090612678908390600160801b9004600f0b6124e4565b905060005b6009548110156126b5576126ab8561065961065487858151811061269d57fe5b6020026020010151866123a6565b945060010161267d565b506126c38161067c866124aa565b979650505050505050565b6000600f82810b9084900b036f7fffffffffffffffffffffffffffffff19811280159061240257506f7fffffffffffffffffffffffffffffff811315610c7a57600080fd5b604080516001600160a01b038416602482015260448082018490528251808303909101815260649091019091526020810180517bffffffffffffffffffffffffffffffffffffffffffffffffffffffff1663a9059cbb60e01b17905261277a908490613739565b505050565b6000806000600a8054905067ffffffffffffffff811180156127a057600080fd5b506040519080825280602002602001820160405280156127ca578160200160208202803683370190505b50600d54909150600f0b60005b6009548110156128af576001811b87161561285657612825600a82815481106127fc57fe5b90600052602060002090600291828204019190066010029054906101000a9004600f0b87612465565b83828151811061283157fe5b6020026020010190600f0b9081600f0b8152505061284f8287612465565b91506128a7565b600a818154811061286357fe5b90600052602060002090600291828204019190066010029054906101000a9004600f0b83828151811061289257fe5b6020026020010190600f0b9081600f0b815250505b6001016127d7565b50600b546000906128cb908390600160801b9004600f0b6124e4565b905060005b6009548110156126b5576128f08561065961065487858151811061269d57fe5b94506001016128d0565b604080516001600160a01b0380861660248301528416604482015260648082018490528251808303909101815260849091019091526020810180517bffffffffffffffffffffffffffffffffffffffffffffffffffffffff166323b872dd60e01b179052612969908590613739565b50505050565b600080836001600160a01b031663313ce5676040518163ffffffff1660e01b815260040160206040518083038186803b1580156129ab57600080fd5b505afa1580156129bf573d6000803e3d6000fd5b505050506040513d60208110156129d557600080fd5b505160ff1690506129ea83600a83900a612a10565b949350505050565b6000677fffffffffffffff821115612a0957600080fd5b5060401b90565b600081612a1c57600080fd5b6000612a2884846137ea565b90506f7fffffffffffffffffffffffffffffff6001600160801b0382161115610c7a57600080fd5b600080836001600160a01b031663313ce5676040518163ffffffff1660e01b815260040160206040518083038186803b158015612a8c57600080fd5b505afa158015612aa0573d6000803e3d6000fd5b505050506040513d6020811015612ab657600080fd5b505160ff1690506129ea83600a83900a613945565b600082821115612b22576040805162461bcd60e51b815260206004820152601e60248201527f536166654d6174683a207375627472616374696f6e206f766572666c6f770000604482015290519081900360640190fd5b50900390565b600082820183811015610c7a576040805162461bcd60e51b815260206004820152601b60248201527f536166654d6174683a206164646974696f6e206f766572666c6f770000000000604482015290519081900360640190fd5b60006840000000000000000082600f0b12612b9c57600080fd5b683fffffffffffffffff1982600f0b1215612bb957506000611b13565b6f8000000000000000000000000000000060006780000000000000008416600f0b1315612bf75770016a09e667f3bcc908b2fb1366ea957d3e0260801c5b60008367400000000000000016600f0b1315612c24577001306fe0a31b7152de8d5a46305c85edec0260801c5b60008367200000000000000016600f0b1315612c51577001172b83c7d517adcdf7c8c50eb14a791f0260801c5b60008367100000000000000016600f0b1315612c7e5770010b5586cf9890f6298b92b71842a983630260801c5b60008367080000000000000016600f0b1315612cab577001059b0d31585743ae7c548eb68ca417fd0260801c5b60008367040000000000000016600f0b1315612cd857700102c9a3e778060ee6f7caca4f7a29bde80260801c5b60008367020000000000000016600f0b1315612d055770010163da9fb33356d84a66ae336dcdfa3f0260801c5b60008367010000000000000016600f0b1315612d3257700100b1afa5abcbed6129ab13ec11dc95430260801c5b600083668000000000000016600f0b1315612d5e5770010058c86da1c09ea1ff19d294cf2f679b0260801c5b600083664000000000000016600f0b1315612d8a577001002c605e2e8cec506d21bfc89a23a00f0260801c5b600083662000000000000016600f0b1315612db657700100162f3904051fa128bca9c55c31e5df0260801c5b600083661000000000000016600f0b1315612de2577001000b175effdc76ba38e31671ca9397250260801c5b600083660800000000000016600f0b1315612e0e57700100058ba01fb9f96d6cacd4b180917c3d0260801c5b600083660400000000000016600f0b1315612e3a5770010002c5cc37da9491d0985c348c68e7b30260801c5b600083660200000000000016600f0b1315612e66577001000162e525ee054754457d59952920260260801c5b600083660100000000000016600f0b1315612e925770010000b17255775c040618bf4a4ade83fc0260801c5b6000836580000000000016600f0b1315612ebd577001000058b91b5bc9ae2eed81e9b7d4cfab0260801c5b6000836540000000000016600f0b1315612ee857700100002c5c89d5ec6ca4d7c8acc017b7c90260801c5b6000836520000000000016600f0b1315612f135770010000162e43f4f831060e02d839a9d16d0260801c5b6000836510000000000016600f0b1315612f3e57700100000b1721bcfc99d9f890ea069117630260801c5b6000836508000000000016600f0b1315612f695770010000058b90cf1e6d97f9ca14dbcc16280260801c5b6000836504000000000016600f0b1315612f94577001000002c5c863b73f016468f6bac5ca2b0260801c5b6000836502000000000016600f0b1315612fbf57700100000162e430e5a18f6119e3c02282a50260801c5b6000836501000000000016600f0b1315612fea577001000000b1721835514b86e6d96efd1bfe0260801c5b60008364800000000016600f0b131561301457700100000058b90c0b48c6be5df846c5b2ef0260801c5b60008364400000000016600f0b131561303e5770010000002c5c8601cc6b9e94213c72737a0260801c5b60008364200000000016600f0b1315613068577001000000162e42fff037df38aa2b219f060260801c5b60008364100000000016600f0b13156130925770010000000b17217fba9c739aa5819f44f90260801c5b60008364080000000016600f0b13156130bc577001000000058b90bfcdee5acd3c1cedc8230260801c5b60008364040000000016600f0b13156130e657700100000002c5c85fe31f35a6a30da1be500260801c5b60008364020000000016600f0b13156131105770010000000162e42ff0999ce3541b9fffcf0260801c5b60008364010000000016600f0b131561313a57700100000000b17217f80f4ef5aadda455540260801c5b600083638000000016600f0b13156131635770010000000058b90bfbf8479bd5a81b51ad0260801c5b600083634000000016600f0b131561318c577001000000002c5c85fdf84bd62ae30a74cc0260801c5b600083632000000016600f0b13156131b557700100000000162e42fefb2fed257559bdaa0260801c5b600083631000000016600f0b13156131de577001000000000b17217f7d5a7716bba4a9ae0260801c5b600083630800000016600f0b131561320757700100000000058b90bfbe9ddbac5e109cce0260801c5b600083630400000016600f0b13156132305770010000000002c5c85fdf4b15de6f17eb0d0260801c5b600083630200000016600f0b1315613259577001000000000162e42fefa494f1478fde050260801c5b600083630100000016600f0b13156132825770010000000000b17217f7d20cf927c8e94c0260801c5b6000836280000016600f0b13156132aa577001000000000058b90bfbe8f71cb4e4b33d0260801c5b6000836240000016600f0b13156132d257700100000000002c5c85fdf477b662b269450260801c5b6000836220000016600f0b13156132fa5770010000000000162e42fefa3ae53369388c0260801c5b6000836210000016600f0b131561332257700100000000000b17217f7d1d351a389d400260801c5b6000836208000016600f0b131561334a5770010000000000058b90bfbe8e8b2d3d4ede0260801c5b6000836204000016600f0b1315613372577001000000000002c5c85fdf4741bea6e77e0260801c5b6000836202000016600f0b131561339a57700100000000000162e42fefa39fe95583c20260801c5b6000836201000016600f0b13156133c2577001000000000000b17217f7d1cfb72b45e10260801c5b60008361800016600f0b13156133e957700100000000000058b90bfbe8e7cc35c3f00260801c5b60008361400016600f0b13156134105770010000000000002c5c85fdf473e242ea380260801c5b60008361200016600f0b1315613437577001000000000000162e42fefa39f02b772c0260801c5b60008361100016600f0b131561345e5770010000000000000b17217f7d1cf7d83c1a0260801c5b60008361080016600f0b1315613485577001000000000000058b90bfbe8e7bdcbe2e0260801c5b60008361040016600f0b13156134ac57700100000000000002c5c85fdf473dea871f0260801c5b60008361020016600f0b13156134d35770010000000000000162e42fefa39ef44d910260801c5b60008361010016600f0b13156134fa57700100000000000000b17217f7d1cf79e9490260801c5b600083608016600f0b13156135205770010000000000000058b90bfbe8e7bce5440260801c5b600083604016600f0b1315613546577001000000000000002c5c85fdf473de6eca0260801c5b600083602016600f0b131561356c57700100000000000000162e42fefa39ef366f0260801c5b600083601016600f0b1315613592577001000000000000000b17217f7d1cf79afa0260801c5b600083600816600f0b13156135b857700100000000000000058b90bfbe8e7bcd6d0260801c5b600083600416600f0b13156135de5770010000000000000002c5c85fdf473de6b20260801c5b600083600216600f0b1315613604577001000000000000000162e42fefa39ef3580260801c5b600083600116600f0b131561362a5770010000000000000000b17217f7d1cf79ab0260801c5b600f83810b60401d603f03900b1c6f7fffffffffffffffffffffffffffffff81111561079857600080fd5b60008082600f0b1361366657600080fd5b6000600f83900b680100000000000000008112613685576040918201911d5b6401000000008112613699576020918201911d5b6201000081126136ab576010918201911d5b61010081126136bc576008918201911d5b601081126136cc576004918201911d5b600481126136dc576002918201911d5b600281126136eb576001820191505b603f19820160401b600f85900b607f8490031b6780000000000000005b600081131561372e5790800260ff81901c8281029390930192607f011c9060011d613708565b509095945050505050565b600061378e826040518060400160405280602081526020017f5361666545524332303a206c6f772d6c6576656c2063616c6c206661696c6564815250856001600160a01b03166139be9092919063ffffffff16565b80519091501561277a578080602001905160208110156137ad57600080fd5b505161277a5760405162461bcd60e51b815260040180806020018281038252602a815260200180613ba9602a913960400191505060405180910390fd5b6000816137f657600080fd5b600077ffffffffffffffffffffffffffffffffffffffffffffffff841161382c5782604085901b8161382457fe5b049050613931565b60c084811c6401000000008110613845576020918201911c5b620100008110613857576010918201911c5b6101008110613868576008918201911c5b60108110613878576004918201911c5b60048110613888576002918201911c5b60028110613897576001820191505b60bf820360018603901c6001018260ff0387901b816138b257fe5b0492506001600160801b038311156138c957600080fd5b608085901c83026001600160801b038616840260c088901c604089901b828110156138f5576001820391505b608084901b9290038281101561390c576001820391505b829003608084901c821461391c57fe5b88818161392557fe5b04870196505050505050505b6001600160801b03811115610c7a57600080fd5b60008161395457506000610798565b600083600f0b121561396557600080fd5b600f83900b6001600160801b038316810260401c90608084901c0277ffffffffffffffffffffffffffffffffffffffffffffffff8111156139a557600080fd5b60401b81198111156139b657600080fd5b019392505050565b60606129ea8484600085856139d285613ad8565b613a23576040805162461bcd60e51b815260206004820152601d60248201527f416464726573733a2063616c6c20746f206e6f6e2d636f6e7472616374000000604482015290519081900360640190fd5b600080866001600160a01b031685876040518082805190602001908083835b60208310613a615780518252601f199092019160209182019101613a42565b6001836020036101000a03801982511681845116808217855250505050505090500191505060006040518083038185875af1925050503d8060008114613ac3576040519150601f19603f3d011682016040523d82523d6000602084013e613ac8565b606091505b50915091506126c3828286613ade565b3b151590565b60608315613aed575081610c7a565b825115613afd5782518084602001fd5b8160405162461bcd60e51b81526004018080602001828103825283818151815260200191508051906020019080838360005b83811015613b47578181015183820152602001613b2f565b50505050905090810190601f168015613b745780820380516001836020036101000a031916815260200191505b509250505060405180910390fdfe4f776e61626c653a206e6577206f776e657220697320746865207a65726f20616464726573735361666545524332303a204552433230206f7065726174696f6e20646964206e6f742073756363656564a2646970667358221220c7dae39054a94a693a804528f6f640334999509bc2d6a16204bb099b7e3f4c4a64736f6c63430007060033",
  "devdoc": {
    "kind": "dev",
    "methods": {
      "buy(uint256,int128)": {
        "params": {
          "_amount": "This is the number of outcome tokens purchased (signed 64.64-bit fixed point number)",
          "_outcome": "The outcome(s) which a user is buying tokens for (1 for YES, 2 for NO)"
        },
        "returns": {
          "_cost": "The total amount of tokens received from selling the _amount of shares"
        }
      },
      "initialize(address)": {
        "params": {
          "_token": "ERC-20 token will be used to purchase and redeem rewards for this Market"
        }
      },
      "reportResult(uint256,uint256)": {
        "params": {
          "_id": "Unique identifier received on market setup",
          "_outcome": "The resulted outcome of the market"
        }
      },
      "sell(uint256,int128)": {
        "params": {
          "_amount": "This is the number of outcome tokens purchased (signed 64.64-bit fixed point number)",
          "_outcome": "The outcome(s) which a user is buying tokens for (1 for YES, 2 for NO)"
        },
        "returns": {
          "_cost": "The total amount of tokens received from selling the _amount of shares"
        }
      },
      "setup(uint256,address,uint256,uint256,uint256)": {
        "params": {
          "_id": "The market id should be unique for each master",
          "_oracle": "The address for the EOA or contract which will report the result for this Market",
          "_overround": "Initial gain allocation of the AMM in bps. Note that 200 represents 2%",
          "_subsidy": "How much initial funding is used to seed the market (denominated on initialized token)",
          "_totalOutcomes": "The number of different outcomes possible for this market (currently fixed at 2)"
        }
      },
      "updateDates(uint256,uint256)": {
        "params": {
          "_endTimestamp": "Block timestamp when the market ends trading and enable report results",
          "_startTimestamp": "Block timestamp when the market start allowing shares trading"
        }
      }
    },
    "version": 1
  },
  "userdoc": {
    "kind": "user",
    "methods": {
      "_buy(uint256,int128,address)": {
        "notice": "Internal Buy function used by the public Sell function and PrecogMaster (to facilitate token approvals)"
      },
      "_redeem(address)": {
        "notice": "Internal Redeem function used by single share redeeming and redeem in batch"
      },
      "_sell(uint256,int128,address)": {
        "notice": "Internal Sell function used by the public Sell function and PrecogMaster (to facilitate token approvals)"
      },
      "buy(uint256,int128)": {
        "notice": "This function is used to buy outcome tokens."
      },
      "buyPrice(uint256,int128)": {
        "notice": "This function tells you how much it will cost to make a particular BUY trade.  It does this by calculating the difference between the current cost and the cost after the trade."
      },
      "cost()": {
        "notice": "Total amount of collateral spent in this Market  For example, if a market was seeded with 2000 PRE and then a further 20 PRE has been spent,  this function will return 2020 PRE."
      },
      "getMarketInfo()": {
        "notice": "Get current market state information:  total shares (all outcomes), total YES shares, total NO shares, current liquidity, buys counter, sells counter"
      },
      "initialize(address)": {
        "notice": "Constructor like function for the market maker"
      },
      "reportResult(uint256,uint256)": {
        "notice": "Used to report results of the market (only for defined oracle)"
      },
      "sell(uint256,int128)": {
        "notice": "This function is used to sell outcome tokens already bought."
      },
      "sellPrice(uint256,int128)": {
        "notice": "This function tells you how much it will return making a particular SELL trade.  It does this by calculating the difference between the current cost and the cost after the trade."
      },
      "setup(uint256,address,uint256,uint256,uint256)": {
        "notice": "Set up some of the variables for the market maker"
      },
      "transferOwnership(address)": {
        "notice": "Admin function to transfer the ownership of this contract"
      },
      "updateDates(uint256,uint256)": {
        "notice": "Used to update open market periods"
      },
      "withdraw(address)": {
        "notice": "Used to retrieve any liquidity left on the market (allowed only when market is closed)"
      }
    },
    "version": 1
  },
  "storageLayout": {
    "storage": [
      {
        "astId": 12511,
        "contract": "contracts/PrecogMarketV5.sol:PrecogMarketV5",
        "label": "owner",
        "offset": 0,
        "slot": "0",
        "type": "t_address"
      },
      {
        "astId": 12513,
        "contract": "contracts/PrecogMarketV5.sol:PrecogMarketV5",
        "label": "token",
        "offset": 0,
        "slot": "1",
        "type": "t_address"
      },
      {
        "astId": 12515,
        "contract": "contracts/PrecogMarketV5.sol:PrecogMarketV5",
        "label": "id",
        "offset": 0,
        "slot": "2",
        "type": "t_uint256"
      },
      {
        "astId": 12517,
        "contract": "contracts/PrecogMarketV5.sol:PrecogMarketV5",
        "label": "oracle",
        "offset": 0,
        "slot": "3",
        "type": "t_address"
      },
      {
        "astId": 12519,
        "contract": "contracts/PrecogMarketV5.sol:PrecogMarketV5",
        "label": "startTimestamp",
        "offset": 0,
        "slot": "4",
        "type": "t_uint256"
      },
      {
        "astId": 12521,
        "contract": "contracts/PrecogMarketV5.sol:PrecogMarketV5",
        "label": "endTimestamp",
        "offset": 0,
        "slot": "5",
        "type": "t_uint256"
      },
      {
        "astId": 12523,
        "contract": "contracts/PrecogMarketV5.sol:PrecogMarketV5",
        "label": "closeTimestamp",
        "offset": 0,
        "slot": "6",
        "type": "t_uint256"
      },
      {
        "astId": 12525,
        "contract": "contracts/PrecogMarketV5.sol:PrecogMarketV5",
        "label": "result",
        "offset": 0,
        "slot": "7",
        "type": "t_uint256"
      },
      {
        "astId": 12529,
        "contract": "contracts/PrecogMarketV5.sol:PrecogMarketV5",
        "label": "accountShares",
        "offset": 0,
        "slot": "8",
        "type": "t_mapping(t_address,t_struct(ShareInfo)12509_storage)"
      },
      {
        "astId": 12531,
        "contract": "contracts/PrecogMarketV5.sol:PrecogMarketV5",
        "label": "totalOutcomes",
        "offset": 0,
        "slot": "9",
        "type": "t_uint256"
      },
      {
        "astId": 12534,
        "contract": "contracts/PrecogMarketV5.sol:PrecogMarketV5",
        "label": "q",
        "offset": 0,
        "slot": "10",
        "type": "t_array(t_int128)dyn_storage"
      },
      {
        "astId": 12536,
        "contract": "contracts/PrecogMarketV5.sol:PrecogMarketV5",
        "label": "b",
        "offset": 0,
        "slot": "11",
        "type": "t_int128"
      },
      {
        "astId": 12538,
        "contract": "contracts/PrecogMarketV5.sol:PrecogMarketV5",
        "label": "alpha",
        "offset": 16,
        "slot": "11",
        "type": "t_int128"
      },
      {
        "astId": 12540,
        "contract": "contracts/PrecogMarketV5.sol:PrecogMarketV5",
        "label": "dust",
        "offset": 0,
        "slot": "12",
        "type": "t_int128"
      },
      {
        "astId": 12542,
        "contract": "contracts/PrecogMarketV5.sol:PrecogMarketV5",
        "label": "currentCost",
        "offset": 16,
        "slot": "12",
        "type": "t_int128"
      },
      {
        "astId": 12544,
        "contract": "contracts/PrecogMarketV5.sol:PrecogMarketV5",
        "label": "totalShares",
        "offset": 0,
        "slot": "13",
        "type": "t_int128"
      },
      {
        "astId": 12546,
        "contract": "contracts/PrecogMarketV5.sol:PrecogMarketV5",
        "label": "totalBuys",
        "offset": 0,
        "slot": "14",
        "type": "t_uint256"
      },
      {
        "astId": 12548,
        "contract": "contracts/PrecogMarketV5.sol:PrecogMarketV5",
        "label": "totalSells",
        "offset": 0,
        "slot": "15",
        "type": "t_uint256"
      },
      {
        "astId": 12550,
        "contract": "contracts/PrecogMarketV5.sol:PrecogMarketV5",
        "label": "marketSetup",
        "offset": 0,
        "slot": "16",
        "type": "t_bool"
      },
      {
        "astId": 12552,
        "contract": "contracts/PrecogMarketV5.sol:PrecogMarketV5",
        "label": "internalCall",
        "offset": 1,
        "slot": "16",
        "type": "t_bool"
      }
    ],
    "types": {
      "t_address": {
        "encoding": "inplace",
        "label": "address",
        "numberOfBytes": "20"
      },
      "t_array(t_int128)dyn_storage": {
        "base": "t_int128",
        "encoding": "dynamic_array",
        "label": "int128[]",
        "numberOfBytes": "32"
      },
      "t_bool": {
        "encoding": "inplace",
        "label": "bool",
        "numberOfBytes": "1"
      },
      "t_int128": {
        "encoding": "inplace",
        "label": "int128",
        "numberOfBytes": "16"
      },
      "t_mapping(t_address,t_struct(ShareInfo)12509_storage)": {
        "encoding": "mapping",
        "key": "t_address",
        "label": "mapping(address => struct PrecogMarketV5.ShareInfo)",
        "numberOfBytes": "32",
        "value": "t_struct(ShareInfo)12509_storage"
      },
      "t_struct(ShareInfo)12509_storage": {
        "encoding": "inplace",
        "label": "struct PrecogMarketV5.ShareInfo",
        "members": [
          {
            "astId": 12496,
            "contract": "contracts/PrecogMarketV5.sol:PrecogMarketV5",
            "label": "buys",
            "offset": 0,
            "slot": "0",
            "type": "t_uint256"
          },
          {
            "astId": 12498,
            "contract": "contracts/PrecogMarketV5.sol:PrecogMarketV5",
            "label": "sells",
            "offset": 0,
            "slot": "1",
            "type": "t_uint256"
          },
          {
            "astId": 12500,
            "contract": "contracts/PrecogMarketV5.sol:PrecogMarketV5",
            "label": "outcomeOneBalance",
            "offset": 0,
            "slot": "2",
            "type": "t_uint256"
          },
          {
            "astId": 12502,
            "contract": "contracts/PrecogMarketV5.sol:PrecogMarketV5",
            "label": "outcomeTwoBalance",
            "offset": 0,
            "slot": "3",
            "type": "t_uint256"
          },
          {
            "astId": 12504,
            "contract": "contracts/PrecogMarketV5.sol:PrecogMarketV5",
            "label": "deposited",
            "offset": 0,
            "slot": "4",
            "type": "t_uint256"
          },
          {
            "astId": 12506,
            "contract": "contracts/PrecogMarketV5.sol:PrecogMarketV5",
            "label": "withdrew",
            "offset": 0,
            "slot": "5",
            "type": "t_uint256"
          },
          {
            "astId": 12508,
            "contract": "contracts/PrecogMarketV5.sol:PrecogMarketV5",
            "label": "redeemed",
            "offset": 0,
            "slot": "6",
            "type": "t_uint256"
          }
        ],
        "numberOfBytes": "224"
      },
      "t_uint256": {
        "encoding": "inplace",
        "label": "uint256",
        "numberOfBytes": "32"
      }
    }
  }
}