{
  "address": "0x16D24dE99e3282F153B72229a3c23959cC20FdA3",
  "abi": [
    {
      "inputs": [
        {
          "internalType": "address",
          "name": "precogToken",
          "type": "address"
        },
        {
          "internalType": "address",
          "name": "initialAdmin",
          "type": "address"
        }
      ],
      "stateMutability": "nonpayable",
      "type": "constructor"
    },
    {
      "anonymous": false,
      "inputs": [
        {
          "indexed": true,
          "internalType": "address",
          "name": "creator",
          "type": "address"
        },
        {
          "indexed": false,
          "internalType": "uint256",
          "name": "id",
          "type": "uint256"
        },
        {
          "indexed": false,
          "internalType": "address",
          "name": "market",
          "type": "address"
        }
      ],
      "name": "MarketCreated",
      "type": "event"
    },
    {
      "anonymous": false,
      "inputs": [
        {
          "indexed": true,
          "internalType": "bytes32",
          "name": "role",
          "type": "bytes32"
        },
        {
          "indexed": true,
          "internalType": "bytes32",
          "name": "previousAdminRole",
          "type": "bytes32"
        },
        {
          "indexed": true,
          "internalType": "bytes32",
          "name": "newAdminRole",
          "type": "bytes32"
        }
      ],
      "name": "RoleAdminChanged",
      "type": "event"
    },
    {
      "anonymous": false,
      "inputs": [
        {
          "indexed": true,
          "internalType": "bytes32",
          "name": "role",
          "type": "bytes32"
        },
        {
          "indexed": true,
          "internalType": "address",
          "name": "account",
          "type": "address"
        },
        {
          "indexed": true,
          "internalType": "address",
          "name": "sender",
          "type": "address"
        }
      ],
      "name": "RoleGranted",
      "type": "event"
    },
    {
      "anonymous": false,
      "inputs": [
        {
          "indexed": true,
          "internalType": "bytes32",
          "name": "role",
          "type": "bytes32"
        },
        {
          "indexed": true,
          "internalType": "address",
          "name": "account",
          "type": "address"
        },
        {
          "indexed": true,
          "internalType": "address",
          "name": "sender",
          "type": "address"
        }
      ],
      "name": "RoleRevoked",
      "type": "event"
    },
    {
      "anonymous": false,
      "inputs": [
        {
          "indexed": true,
          "internalType": "address",
          "name": "account",
          "type": "address"
        },
        {
          "indexed": true,
          "internalType": "uint256",
          "name": "user",
          "type": "uint256"
        },
        {
          "indexed": false,
          "internalType": "uint256",
          "name": "amount",
          "type": "uint256"
        },
        {
          "indexed": false,
          "internalType": "uint256",
          "name": "timestamp",
          "type": "uint256"
        }
      ],
      "name": "TokensClaimed",
      "type": "event"
    },
    {
      "anonymous": false,
      "inputs": [
        {
          "indexed": true,
          "internalType": "address",
          "name": "account",
          "type": "address"
        },
        {
          "indexed": false,
          "internalType": "uint256",
          "name": "amount",
          "type": "uint256"
        },
        {
          "indexed": false,
          "internalType": "uint256",
          "name": "timestamp",
          "type": "uint256"
        }
      ],
      "name": "TokensMinted",
      "type": "event"
    },
    {
      "inputs": [],
      "name": "ADMIN_ROLE",
      "outputs": [
        {
          "internalType": "bytes32",
          "name": "",
          "type": "bytes32"
        }
      ],
      "stateMutability": "view",
      "type": "function"
    },
    {
      "inputs": [],
      "name": "CALLER_ROLE",
      "outputs": [
        {
          "internalType": "bytes32",
          "name": "",
          "type": "bytes32"
        }
      ],
      "stateMutability": "view",
      "type": "function"
    },
    {
      "inputs": [],
      "name": "DEFAULT_ADMIN_ROLE",
      "outputs": [
        {
          "internalType": "bytes32",
          "name": "",
          "type": "bytes32"
        }
      ],
      "stateMutability": "view",
      "type": "function"
    },
    {
      "inputs": [],
      "name": "MARKET_CREATOR_ROLE",
      "outputs": [
        {
          "internalType": "bytes32",
          "name": "",
          "type": "bytes32"
        }
      ],
      "stateMutability": "view",
      "type": "function"
    },
    {
      "inputs": [
        {
          "internalType": "address",
          "name": "",
          "type": "address"
        }
      ],
      "name": "accountTokenClaims",
      "outputs": [
        {
          "internalType": "address",
          "name": "account",
          "type": "address"
        },
        {
          "internalType": "uint256",
          "name": "user",
          "type": "uint256"
        },
        {
          "internalType": "uint256",
          "name": "claimedAmount",
          "type": "uint256"
        },
        {
          "internalType": "uint256",
          "name": "claimedTimestamp",
          "type": "uint256"
        }
      ],
      "stateMutability": "view",
      "type": "function"
    },
    {
      "inputs": [
        {
          "internalType": "address",
          "name": "account",
          "type": "address"
        }
      ],
      "name": "addAdmin",
      "outputs": [],
      "stateMutability": "nonpayable",
      "type": "function"
    },
    {
      "inputs": [
        {
          "internalType": "address",
          "name": "account",
          "type": "address"
        }
      ],
      "name": "addCaller",
      "outputs": [],
      "stateMutability": "nonpayable",
      "type": "function"
    },
    {
      "inputs": [
        {
          "internalType": "address",
          "name": "account",
          "type": "address"
        }
      ],
      "name": "addMarketCreator",
      "outputs": [],
      "stateMutability": "nonpayable",
      "type": "function"
    },
    {
      "inputs": [
        {
          "internalType": "address",
          "name": "account",
          "type": "address"
        },
        {
          "internalType": "uint256",
          "name": "user",
          "type": "uint256"
        },
        {
          "internalType": "uint256",
          "name": "amount",
          "type": "uint256"
        }
      ],
      "name": "claimToken",
      "outputs": [
        {
          "internalType": "bool",
          "name": "",
          "type": "bool"
        }
      ],
      "stateMutability": "nonpayable",
      "type": "function"
    },
    {
      "inputs": [
        {
          "internalType": "string",
          "name": "name",
          "type": "string"
        },
        {
          "internalType": "string",
          "name": "description",
          "type": "string"
        },
        {
          "internalType": "string",
          "name": "category",
          "type": "string"
        },
        {
          "internalType": "uint256",
          "name": "startTimestamp",
          "type": "uint256"
        },
        {
          "internalType": "uint256",
          "name": "endTimestamp",
          "type": "uint256"
        },
        {
          "internalType": "address",
          "name": "creator",
          "type": "address"
        },
        {
          "internalType": "uint256",
          "name": "totalOutcomes",
          "type": "uint256"
        },
        {
          "internalType": "uint256",
          "name": "funding",
          "type": "uint256"
        },
        {
          "internalType": "uint256",
          "name": "overround",
          "type": "uint256"
        },
        {
          "internalType": "address",
          "name": "collateralToken",
          "type": "address"
        },
        {
          "internalType": "address",
          "name": "collateralFunder",
          "type": "address"
        },
        {
          "internalType": "address",
          "name": "marketOracle",
          "type": "address"
        }
      ],
      "name": "createCustomMarket",
      "outputs": [
        {
          "internalType": "uint256",
          "name": "newMarketId",
          "type": "uint256"
        }
      ],
      "stateMutability": "nonpayable",
      "type": "function"
    },
    {
      "inputs": [
        {
          "internalType": "string",
          "name": "name",
          "type": "string"
        },
        {
          "internalType": "string",
          "name": "description",
          "type": "string"
        },
        {
          "internalType": "string",
          "name": "category",
          "type": "string"
        },
        {
          "internalType": "uint256",
          "name": "startTimestamp",
          "type": "uint256"
        },
        {
          "internalType": "uint256",
          "name": "endTimestamp",
          "type": "uint256"
        },
        {
          "internalType": "address",
          "name": "creator",
          "type": "address"
        },
        {
          "internalType": "uint256",
          "name": "totalOutcomes",
          "type": "uint256"
        },
        {
          "internalType": "uint256",
          "name": "funding",
          "type": "uint256"
        },
        {
          "internalType": "uint256",
          "name": "overround",
          "type": "uint256"
        }
      ],
      "name": "createMarket",
      "outputs": [
        {
          "internalType": "uint256",
          "name": "newMarketId",
          "type": "uint256"
        }
      ],
      "stateMutability": "nonpayable",
      "type": "function"
    },
    {
      "inputs": [],
      "name": "createdMarkets",
      "outputs": [
        {
          "internalType": "uint256",
          "name": "",
          "type": "uint256"
        }
      ],
      "stateMutability": "view",
      "type": "function"
    },
    {
      "inputs": [],
      "name": "currentSeason",
      "outputs": [
        {
          "internalType": "uint256",
          "name": "",
          "type": "uint256"
        }
      ],
      "stateMutability": "view",
      "type": "function"
    },
    {
      "inputs": [
        {
          "internalType": "bytes32",
          "name": "role",
          "type": "bytes32"
        }
      ],
      "name": "getRoleAdmin",
      "outputs": [
        {
          "internalType": "bytes32",
          "name": "",
          "type": "bytes32"
        }
      ],
      "stateMutability": "view",
      "type": "function"
    },
    {
      "inputs": [
        {
          "internalType": "bytes32",
          "name": "role",
          "type": "bytes32"
        },
        {
          "internalType": "uint256",
          "name": "index",
          "type": "uint256"
        }
      ],
      "name": "getRoleMember",
      "outputs": [
        {
          "internalType": "address",
          "name": "",
          "type": "address"
        }
      ],
      "stateMutability": "view",
      "type": "function"
    },
    {
      "inputs": [
        {
          "internalType": "bytes32",
          "name": "role",
          "type": "bytes32"
        }
      ],
      "name": "getRoleMemberCount",
      "outputs": [
        {
          "internalType": "uint256",
          "name": "",
          "type": "uint256"
        }
      ],
      "stateMutability": "view",
      "type": "function"
    },
    {
      "inputs": [
        {
          "internalType": "bytes32",
          "name": "role",
          "type": "bytes32"
        },
        {
          "internalType": "address",
          "name": "account",
          "type": "address"
        }
      ],
      "name": "grantRole",
      "outputs": [],
      "stateMutability": "nonpayable",
      "type": "function"
    },
    {
      "inputs": [
        {
          "internalType": "address",
          "name": "account",
          "type": "address"
        },
        {
          "internalType": "uint256",
          "name": "user",
          "type": "uint256"
        }
      ],
      "name": "hadClaimed",
      "outputs": [
        {
          "internalType": "bool",
          "name": "",
          "type": "bool"
        }
      ],
      "stateMutability": "view",
      "type": "function"
    },
    {
      "inputs": [
        {
          "internalType": "uint256",
          "name": "marketId",
          "type": "uint256"
        },
        {
          "internalType": "address",
          "name": "account",
          "type": "address"
        }
      ],
      "name": "hasRedeemedShares",
      "outputs": [
        {
          "internalType": "bool",
          "name": "",
          "type": "bool"
        }
      ],
      "stateMutability": "view",
      "type": "function"
    },
    {
      "inputs": [
        {
          "internalType": "bytes32",
          "name": "role",
          "type": "bytes32"
        },
        {
          "internalType": "address",
          "name": "account",
          "type": "address"
        }
      ],
      "name": "hasRole",
      "outputs": [
        {
          "internalType": "bool",
          "name": "",
          "type": "bool"
        }
      ],
      "stateMutability": "view",
      "type": "function"
    },
    {
      "inputs": [
        {
          "internalType": "uint256",
          "name": "marketId",
          "type": "uint256"
        },
        {
          "internalType": "address",
          "name": "account",
          "type": "address"
        }
      ],
      "name": "marketAccountShares",
      "outputs": [
        {
          "internalType": "uint256",
          "name": "buys",
          "type": "uint256"
        },
        {
          "internalType": "uint256",
          "name": "sells",
          "type": "uint256"
        },
        {
          "internalType": "uint256",
          "name": "deposited",
          "type": "uint256"
        },
        {
          "internalType": "uint256",
          "name": "withdrew",
          "type": "uint256"
        },
        {
          "internalType": "uint256",
          "name": "redeemed",
          "type": "uint256"
        },
        {
          "internalType": "uint256[]",
          "name": "balances",
          "type": "uint256[]"
        }
      ],
      "stateMutability": "view",
      "type": "function"
    },
    {
      "inputs": [
        {
          "internalType": "uint256",
          "name": "marketId",
          "type": "uint256"
        },
        {
          "internalType": "uint256",
          "name": "outcome",
          "type": "uint256"
        },
        {
          "internalType": "int128",
          "name": "sharesAmount",
          "type": "int128"
        },
        {
          "internalType": "uint256",
          "name": "maxAmountIn",
          "type": "uint256"
        }
      ],
      "name": "marketBuy",
      "outputs": [
        {
          "internalType": "uint256",
          "name": "amountIn",
          "type": "uint256"
        }
      ],
      "stateMutability": "nonpayable",
      "type": "function"
    },
    {
      "inputs": [
        {
          "internalType": "uint256",
          "name": "marketId",
          "type": "uint256"
        },
        {
          "internalType": "uint256",
          "name": "outcome",
          "type": "uint256"
        },
        {
          "internalType": "int128",
          "name": "sharesAmount",
          "type": "int128"
        }
      ],
      "name": "marketBuyPrice",
      "outputs": [
        {
          "internalType": "int128",
          "name": "",
          "type": "int128"
        }
      ],
      "stateMutability": "view",
      "type": "function"
    },
    {
      "inputs": [
        {
          "internalType": "uint256",
          "name": "marketId",
          "type": "uint256"
        }
      ],
      "name": "marketRedeemShares",
      "outputs": [
        {
          "internalType": "uint256",
          "name": "shares",
          "type": "uint256"
        }
      ],
      "stateMutability": "nonpayable",
      "type": "function"
    },
    {
      "inputs": [
        {
          "internalType": "uint256",
          "name": "marketId",
          "type": "uint256"
        },
        {
          "internalType": "uint256",
          "name": "outcome",
          "type": "uint256"
        },
        {
          "internalType": "int128",
          "name": "sharesAmount",
          "type": "int128"
        },
        {
          "internalType": "uint256",
          "name": "minAmountOut",
          "type": "uint256"
        }
      ],
      "name": "marketSell",
      "outputs": [
        {
          "internalType": "uint256",
          "name": "amountOut",
          "type": "uint256"
        }
      ],
      "stateMutability": "nonpayable",
      "type": "function"
    },
    {
      "inputs": [
        {
          "internalType": "uint256",
          "name": "marketId",
          "type": "uint256"
        },
        {
          "internalType": "uint256",
          "name": "outcome",
          "type": "uint256"
        },
        {
          "internalType": "int128",
          "name": "sharesAmount",
          "type": "int128"
        }
      ],
      "name": "marketSellPrice",
      "outputs": [
        {
          "internalType": "int128",
          "name": "",
          "type": "int128"
        }
      ],
      "stateMutability": "view",
      "type": "function"
    },
    {
      "inputs": [
        {
          "internalType": "uint256",
          "name": "marketId",
          "type": "uint256"
        }
      ],
      "name": "marketSharesInfo",
      "outputs": [
        {
          "internalType": "int128",
          "name": "totalShares",
          "type": "int128"
        },
        {
          "internalType": "int128[]",
          "name": "sharesBalances",
          "type": "int128[]"
        },
        {
          "internalType": "int128",
          "name": "cost",
          "type": "int128"
        },
        {
          "internalType": "uint256",
          "name": "totalBuys",
          "type": "uint256"
        },
        {
          "internalType": "uint256",
          "name": "totalSells",
          "type": "uint256"
        }
      ],
      "stateMutability": "view",
      "type": "function"
    },
    {
      "inputs": [
        {
          "internalType": "uint256",
          "name": "marketId",
          "type": "uint256"
        },
        {
          "internalType": "address",
          "name": "newOwner",
          "type": "address"
        }
      ],
      "name": "marketTransferOwnership",
      "outputs": [],
      "stateMutability": "nonpayable",
      "type": "function"
    },
    {
      "inputs": [
        {
          "internalType": "uint256",
          "name": "marketId",
          "type": "uint256"
        },
        {
          "internalType": "address",
          "name": "marketToken",
          "type": "address"
        }
      ],
      "name": "marketWithdraw",
      "outputs": [],
      "stateMutability": "nonpayable",
      "type": "function"
    },
    {
      "inputs": [
        {
          "internalType": "uint256",
          "name": "",
          "type": "uint256"
        }
      ],
      "name": "markets",
      "outputs": [
        {
          "internalType": "string",
          "name": "name",
          "type": "string"
        },
        {
          "internalType": "string",
          "name": "description",
          "type": "string"
        },
        {
          "internalType": "string",
          "name": "category",
          "type": "string"
        },
        {
          "internalType": "uint256",
          "name": "startTimestamp",
          "type": "uint256"
        },
        {
          "internalType": "uint256",
          "name": "endTimestamp",
          "type": "uint256"
        },
        {
          "internalType": "address",
          "name": "creator",
          "type": "address"
        },
        {
          "internalType": "address",
          "name": "market",
          "type": "address"
        }
      ],
      "stateMutability": "view",
      "type": "function"
    },
    {
      "inputs": [
        {
          "internalType": "uint256",
          "name": "",
          "type": "uint256"
        }
      ],
      "name": "miningSeasons",
      "outputs": [
        {
          "internalType": "uint256",
          "name": "startTimestamp",
          "type": "uint256"
        },
        {
          "internalType": "uint256",
          "name": "endTimestamp",
          "type": "uint256"
        },
        {
          "internalType": "uint256",
          "name": "maxUserClaim",
          "type": "uint256"
        },
        {
          "internalType": "uint256",
          "name": "maxTotalClaim",
          "type": "uint256"
        },
        {
          "internalType": "uint256",
          "name": "maxTotalMint",
          "type": "uint256"
        },
        {
          "internalType": "uint256",
          "name": "claimedAmount",
          "type": "uint256"
        },
        {
          "internalType": "uint256",
          "name": "mintedAmount",
          "type": "uint256"
        }
      ],
      "stateMutability": "view",
      "type": "function"
    },
    {
      "inputs": [
        {
          "internalType": "address",
          "name": "from",
          "type": "address"
        },
        {
          "internalType": "uint256",
          "name": "amount",
          "type": "uint256"
        }
      ],
      "name": "precogBurn",
      "outputs": [],
      "stateMutability": "nonpayable",
      "type": "function"
    },
    {
      "inputs": [
        {
          "internalType": "address",
          "name": "to",
          "type": "address"
        },
        {
          "internalType": "uint256",
          "name": "amount",
          "type": "uint256"
        }
      ],
      "name": "precogMint",
      "outputs": [],
      "stateMutability": "nonpayable",
      "type": "function"
    },
    {
      "inputs": [
        {
          "internalType": "address",
          "name": "newPrecogMaster",
          "type": "address"
        }
      ],
      "name": "precogTransferOwnership",
      "outputs": [],
      "stateMutability": "nonpayable",
      "type": "function"
    },
    {
      "inputs": [
        {
          "internalType": "address",
          "name": "account",
          "type": "address"
        }
      ],
      "name": "removeAdmin",
      "outputs": [],
      "stateMutability": "nonpayable",
      "type": "function"
    },
    {
      "inputs": [
        {
          "internalType": "address",
          "name": "account",
          "type": "address"
        }
      ],
      "name": "removeCaller",
      "outputs": [],
      "stateMutability": "nonpayable",
      "type": "function"
    },
    {
      "inputs": [
        {
          "internalType": "address",
          "name": "account",
          "type": "address"
        }
      ],
      "name": "removeMarketCreator",
      "outputs": [],
      "stateMutability": "nonpayable",
      "type": "function"
    },
    {
      "inputs": [
        {
          "internalType": "bytes32",
          "name": "role",
          "type": "bytes32"
        },
        {
          "internalType": "address",
          "name": "account",
          "type": "address"
        }
      ],
      "name": "renounceRole",
      "outputs": [],
      "stateMutability": "nonpayable",
      "type": "function"
    },
    {
      "inputs": [
        {
          "internalType": "bytes32",
          "name": "role",
          "type": "bytes32"
        },
        {
          "internalType": "address",
          "name": "account",
          "type": "address"
        }
      ],
      "name": "revokeRole",
      "outputs": [],
      "stateMutability": "nonpayable",
      "type": "function"
    },
    {
      "inputs": [
        {
          "internalType": "address",
          "name": "_market",
          "type": "address"
        }
      ],
      "name": "setBaseMarket",
      "outputs": [],
      "stateMutability": "nonpayable",
      "type": "function"
    },
    {
      "inputs": [
        {
          "internalType": "address",
          "name": "_oracle",
          "type": "address"
        }
      ],
      "name": "setBaseOracle",
      "outputs": [],
      "stateMutability": "nonpayable",
      "type": "function"
    },
    {
      "inputs": [
        {
          "internalType": "uint256",
          "name": "seasonIndex",
          "type": "uint256"
        },
        {
          "internalType": "uint256",
          "name": "startTimestamp",
          "type": "uint256"
        },
        {
          "internalType": "uint256",
          "name": "endTimestamp",
          "type": "uint256"
        },
        {
          "internalType": "uint256",
          "name": "maxUserClaim",
          "type": "uint256"
        },
        {
          "internalType": "uint256",
          "name": "maxTotalClaim",
          "type": "uint256"
        },
        {
          "internalType": "uint256",
          "name": "maxTotalMint",
          "type": "uint256"
        },
        {
          "internalType": "uint256",
          "name": "claimedAmount",
          "type": "uint256"
        },
        {
          "internalType": "uint256",
          "name": "mintedAmount",
          "type": "uint256"
        }
      ],
      "name": "setMiningSeason",
      "outputs": [],
      "stateMutability": "nonpayable",
      "type": "function"
    },
    {
      "inputs": [],
      "name": "token",
      "outputs": [
        {
          "internalType": "address",
          "name": "",
          "type": "address"
        }
      ],
      "stateMutability": "view",
      "type": "function"
    },
    {
      "inputs": [
        {
          "internalType": "uint256",
          "name": "seasonIndex",
          "type": "uint256"
        }
      ],
      "name": "updateCurrentSeason",
      "outputs": [],
      "stateMutability": "nonpayable",
      "type": "function"
    },
    {
      "inputs": [
        {
          "internalType": "uint256",
          "name": "id",
          "type": "uint256"
        },
        {
          "internalType": "string",
          "name": "name",
          "type": "string"
        },
        {
          "internalType": "string",
          "name": "description",
          "type": "string"
        },
        {
          "internalType": "string",
          "name": "category",
          "type": "string"
        },
        {
          "internalType": "uint256",
          "name": "startTimestamp",
          "type": "uint256"
        },
        {
          "internalType": "uint256",
          "name": "endTimestamp",
          "type": "uint256"
        },
        {
          "internalType": "address",
          "name": "marketCreator",
          "type": "address"
        },
        {
          "internalType": "address",
          "name": "marketOracle",
          "type": "address"
        }
      ],
      "name": "updateMarket",
      "outputs": [],
      "stateMutability": "nonpayable",
      "type": "function"
    },
    {
      "inputs": [
        {
          "internalType": "address",
          "name": "account",
          "type": "address"
        },
        {
          "internalType": "uint256",
          "name": "amount",
          "type": "uint256"
        },
        {
          "internalType": "uint256",
          "name": "timestamp",
          "type": "uint256"
        }
      ],
      "name": "updateTokenClaim",
      "outputs": [],
      "stateMutability": "nonpayable",
      "type": "function"
    },
    {
      "inputs": [
        {
          "internalType": "uint256",
          "name": "",
          "type": "uint256"
        }
      ],
      "name": "userTokenClaims",
      "outputs": [
        {
          "internalType": "address",
          "name": "account",
          "type": "address"
        },
        {
          "internalType": "uint256",
          "name": "user",
          "type": "uint256"
        },
        {
          "internalType": "uint256",
          "name": "claimedAmount",
          "type": "uint256"
        },
        {
          "internalType": "uint256",
          "name": "claimedTimestamp",
          "type": "uint256"
        }
      ],
      "stateMutability": "view",
      "type": "function"
    },
    {
      "inputs": [
        {
          "internalType": "address",
          "name": "_token",
          "type": "address"
        }
      ],
      "name": "withdraw",
      "outputs": [],
      "stateMutability": "nonpayable",
      "type": "function"
    }
  ],
  "transactionHash": "0x0e75bfd86ce61c15ffb53692461e75272303c1df53ea50f3cbd998a18400b1f7",
  "args": [
    "0x7779ec685Aa0bf5483B3e0c15dAf246d2d978888",
    "0x9475A4C1BF5Fc80aE079303f14B523da19619c16"
  ],
  "numDeployments": 1,
  "solcInputHash": "a4493724fe63669d87fbf8d3b1831904",
  "bytecode": "0x60806040523480156200001157600080fd5b50604051620041ea380380620041ea83398101604081905262000034916200023d565b62000041600082620000ba565b6200007c7f843c3a00fa95510a35f425371231fd3fe4642e719cb4595160763d6d02594b50600080516020620041ca833981519152620000ca565b600180546001600160a01b0319166001600160a01b038416179055620000b2600080516020620041ca83398151915282620000ba565b505062000274565b620000c682826200011c565b5050565b600082815260208190526040808220600201549051839285917fbd79b86ffe0ab8e8776151514217cd7cacd52c909f66475c3af44e129f0b00ff9190a460009182526020829052604090912060020155565b60008281526020818152604090912062000141918390620024cd62000195821b17901c565b15620000c65762000151620001b5565b6001600160a01b0316816001600160a01b0316837f2f8788117e7eff1d82e926ec794901d17c78024a50270940304540a733656f0d60405160405180910390a45050565b6000620001ac836001600160a01b038416620001b9565b90505b92915050565b3390565b6000620001c7838362000208565b620001ff57508154600181810184556000848152602080822090930184905584548482528286019093526040902091909155620001af565b506000620001af565b60009081526001919091016020526040902054151590565b80516001600160a01b03811681146200023857600080fd5b919050565b6000806040838503121562000250578182fd5b6200025b8362000220565b91506200026b6020840162000220565b90509250929050565b613f4680620002846000396000f3fe608060405234801561001057600080fd5b50600436106103205760003560e01c806391d14854116101a7578063bc05b806116100ee578063d6fb7d7911610097578063f2fd594311610071578063f2fd5943146106d2578063f944a5ff146106e5578063fc0c546a146106f857610320565b8063d6fb7d7914610699578063de02852a146106ac578063eef21cd2146106bf57610320565b8063d20e447f116100c8578063d20e447f14610660578063d33bfe4f14610673578063d547741f1461068657610320565b8063bc05b80614610625578063bcb3962114610645578063ca15c8731461064d57610320565b8063ae42820c11610150578063b608b8f41161012a578063b608b8f4146105d9578063ba2e3684146105ff578063bb31675a1461061257610320565b8063ae42820c146105a3578063b1283e77146105ab578063b590b56f146105d157610320565b8063a15fd10f11610181578063a15fd10f14610564578063a217fddf14610577578063a9683f6e1461057f57610320565b806391d148541461052b5780639971537c1461053e5780639c6c412e1461055157610320565b8063355987cd1161026b578063704802751161021457806375b238fc116101ee57806375b238fc146104fb578063774237fc146105035780639010d07c1461050b57610320565b806370480275146104c257806370f4a7ae146104d5578063747293fb146104e857610320565b80634836e867116102455780634836e8671461047757806351cff8d91461049c5780636354eeb3146104af57610320565b8063355987cd1461043e57806336568abe146104515780633dc2724a1461046457610320565b806319fa3140116102cd5780632f2ff15d116102a75780632f2ff15d146104055780632fb1541b1461041857806330829a201461042b57610320565b806319fa3140146103bf578063248a9ca3146103df57806326f2a446146103f257610320565b806313dffedc116102fe57806313dffedc1461038657806314ae3ffc146103995780631785f53c146103ac57610320565b8063020917fe14610325578063127e9cbd1461033a578063129c7ce414610366575b600080fd5b610338610333366004613167565b610700565b005b61034d610348366004613167565b6107a2565b60405161035d9493929190613878565b60405180910390f35b61037961037436600461370b565b6107d3565b60405161035d91906138a9565b610338610394366004613610565b61090e565b6103386103a736600461319f565b610b65565b6103386103ba366004613167565b610c1a565b6103d26103cd36600461319f565b610c69565b60405161035d919061389e565b6103796103ed3660046132b3565b610cab565b6103796104003660046134ef565b610cc3565b6103386104133660046132cb565b610dbe565b610338610426366004613788565b610e25565b6103386104393660046132cb565b610eca565b61033861044c366004613167565b610f57565b61033861045f3660046132cb565b610fb5565b61034d6104723660046132b3565b611016565b61048a6104853660046132cb565b611047565b60405161035d96959493929190613d17565b6103386104aa366004613167565b611194565b6103386104bd3660046131ca565b611259565b6103386104d0366004613167565b6112d3565b6103386104e3366004613167565b61131f565b6103386104f6366004613167565b611375565b6103796113d3565b6103796113e5565b61051e6105193660046132fa565b611409565b60405161035d9190613827565b6103d26105393660046132cb565b611421565b6103d261054c3660046132cb565b611439565b6103d261055f3660046131ca565b6114d6565b610338610572366004613167565b6117eb565b610379611849565b61059261058d3660046132b3565b61184e565b60405161035d9594939291906138c0565b610379611913565b6105be6105b93660046132b3565b611937565b60405161035d9796959493929190613928565b610379611b2e565b6105ec6105e73660046132b3565b611b34565b60405161035d9796959493929190613d80565b61033861060d3660046132cb565b611b71565b610338610620366004613167565b611be5565b6106386106333660046136d3565b611c3b565b60405161035d91906138b2565b610379611ce5565b61037961065b3660046132b3565b611ceb565b61037961066e36600461340a565b611d02565b61037961068136600461370b565b611ee6565b6103386106943660046132cb565b61218b565b6103386106a73660046132b3565b6121e4565b6103386106ba36600461319f565b61221d565b6103386106cd366004613167565b61235c565b6103796106e03660046132b3565b6123ba565b6106386106f33660046136d3565b612464565b61051e6124be565b610718600080516020613e9883398151915233611421565b61073d5760405162461bcd60e51b815260040161073490613bee565b60405180910390fd5b60015460405163f2fde38b60e01b81526001600160a01b039091169063f2fde38b9061076d908490600401613827565b600060405180830381600087803b15801561078757600080fd5b505af115801561079b573d6000803e3d6000fd5b5050505050565b60066020526000908152604090208054600182015460028301546003909301546001600160a01b0390921692909184565b6000848152600960205260408120600301544210156108045760405162461bcd60e51b815260040161073490613a6d565b6000858152600960205260409020600401544211156108355760405162461bcd60e51b8152600401610734906139c8565b600085815260096020526040908190206006015490517f898b51a70000000000000000000000000000000000000000000000000000000081526001600160a01b039091169063898b51a79061089290879087903390600401613ce7565b602060405180830381600087803b1580156108ac57600080fd5b505af11580156108c0573d6000803e3d6000fd5b505050506040513d601f19601f820116820180604052508101906108e491906135f8565b9050818110156109065760405162461bcd60e51b8152600401610734906139ff565b949350505050565b610926600080516020613e9883398151915233611421565b6109425760405162461bcd60e51b815260040161073490613bee565b86511561096a5760008881526009602090815260409091208851610968928a0190613004565b505b855115610998576000888152600960209081526040909120875161099692600190920191890190613004565b505b8451156109c657600088815260096020908152604090912086516109c492600290920191880190613004565b505b6001600160a01b03821615610a0057600088815260096020526040902060050180546001600160a01b0319166001600160a01b0384161790555b6001600160a01b03811615610a9b57600088815260096020526040908190206006015490517f1cb44dfc0000000000000000000000000000000000000000000000000000000081526001600160a01b0390911690631cb44dfc90610a68908490600401613827565b600060405180830381600087803b158015610a8257600080fd5b505af1158015610a96573d6000803e3d6000fd5b505050505b60008415610abb5750600088815260096020526040902060030184905560015b8315610ad95750600088815260096020526040902060040183905560015b8015610b5a57600089815260096020526040908190206006810154600382015460049283015493516339acb21f60e21b81526001600160a01b039092169363e6b2c87c93610b279301613d09565b600060405180830381600087803b158015610b4157600080fd5b505af1158015610b55573d6000803e3d6000fd5b505050505b505050505050505050565b610b7d600080516020613e9883398151915233611421565b610b995760405162461bcd60e51b815260040161073490613bee565b6001546040517f9dc29fac0000000000000000000000000000000000000000000000000000000081526001600160a01b0390911690639dc29fac90610be4908590859060040161385f565b600060405180830381600087803b158015610bfe57600080fd5b505af1158015610c12573d6000803e3d6000fd5b505050505050565b610c32600080516020613e9883398151915233611421565b610c4e5760405162461bcd60e51b815260040161073490613bee565b610c66600080516020613e988339815191528261218b565b50565b6001600160a01b038216600090815260066020526040812060030154151580610ca2575060008281526007602052604090206003015415155b90505b92915050565b6000818152602081905260409020600201545b919050565b6000610cef7fd3065a24ad9e7725d223007135762d2902038999e3e5829146654498a58d979533611421565b610d0b5760405162461bcd60e51b815260040161073490613aa4565b60006040518060e001604052808f81526020018e81526020018d81526020018c81526020018b81526020018a6001600160a01b0316815260200160006001600160a01b0316815250905060006040518060c001604052808a8152602001898152602001888152602001876001600160a01b03168152602001866001600160a01b03168152602001856001600160a01b03168152509050610dab82826124e2565b9f9e505050505050505050505050505050565b600082815260208190526040902060020154610ddc90610539612858565b610e175760405162461bcd60e51b815260040180806020018281038252602f815260200180613e39602f913960400191505060405180910390fd5b610e21828261285c565b5050565b610e3d600080516020613e9883398151915233611421565b610e595760405162461bcd60e51b815260040161073490613bee565b6040805160e0810182529788526020808901978852888201968752606089019586526080890194855260a0890193845260c089019283526000998a52600890529097209551865593516001860155915160028501555160038401555160048301555160058201559051600690910155565b610ee2600080516020613e9883398151915233611421565b610efe5760405162461bcd60e51b815260040161073490613bee565b600082815260096020526040908190206006015490517f51cff8d90000000000000000000000000000000000000000000000000000000081526001600160a01b03909116906351cff8d990610be4908490600401613827565b610f6f600080516020613e9883398151915233611421565b610f8b5760405162461bcd60e51b815260040161073490613bee565b610c667fd3065a24ad9e7725d223007135762d2902038999e3e5829146654498a58d979582610dbe565b610fbd612858565b6001600160a01b0316816001600160a01b03161461100c5760405162461bcd60e51b815260040180806020018281038252602f815260200180613ee2602f913960400191505060405180910390fd5b610e2182826128c5565b60076020526000908152604090208054600182015460028301546003909301546001600160a01b0390921692909184565b6000828152600960205260408082206006015490516352c8b2f960e01b815282918291829182916060916001600160a01b03169081906352c8b2f990611091908b90600401613827565b60a06040518083038186803b1580156110a957600080fd5b505afa1580156110bd573d6000803e3d6000fd5b505050506040513d601f19601f820116820180604052508101906110e19190613749565b6040517f05b4b371000000000000000000000000000000000000000000000000000000008152949b50929950909750955093506001600160a01b038216906305b4b37190611133908b90600401613827565b60006040518083038186803b15801561114b57600080fd5b505afa15801561115f573d6000803e3d6000fd5b505050506040513d6000823e601f3d908101601f1916820160405261118791908101906131fe565b9150509295509295509295565b6111ac600080516020613e9883398151915233611421565b6111c85760405162461bcd60e51b815260040161073490613bee565b610c6633826001600160a01b03166370a08231306040518263ffffffff1660e01b81526004016111f89190613827565b60206040518083038186803b15801561121057600080fd5b505afa158015611224573d6000803e3d6000fd5b505050506040513d601f19601f8201168201806040525081019061124891906135f8565b6001600160a01b038416919061292e565b611271600080516020613e9883398151915233611421565b61128d5760405162461bcd60e51b815260040161073490613bee565b6001600160a01b03909216600090815260066020908152604080832060028082018690556003808301889055600190920154855260079093529220908101929092550155565b6112eb600080516020613e9883398151915233611421565b6113075760405162461bcd60e51b815260040161073490613bee565b610c66600080516020613e9883398151915282610dbe565b611337600080516020613e9883398151915233611421565b6113535760405162461bcd60e51b815260040161073490613bee565b600480546001600160a01b0319166001600160a01b0392909216919091179055565b61138d600080516020613e9883398151915233611421565b6113a95760405162461bcd60e51b815260040161073490613bee565b610c667f843c3a00fa95510a35f425371231fd3fe4642e719cb4595160763d6d02594b5082610dbe565b600080516020613e9883398151915281565b7f843c3a00fa95510a35f425371231fd3fe4642e719cb4595160763d6d02594b5081565b6000828152602081905260408120610ca290836129b3565b6000828152602081905260408120610ca290836129bf565b6000828152600960205260408082206006015490516352c8b2f960e01b815282916001600160a01b0316906352c8b2f990611478908690600401613827565b60a06040518083038186803b15801561149057600080fd5b505afa1580156114a4573d6000803e3d6000fd5b505050506040513d601f19601f820116820180604052508101906114c89190613749565b151598975050505050505050565b60006115027f843c3a00fa95510a35f425371231fd3fe4642e719cb4595160763d6d02594b5033611421565b61151e5760405162461bcd60e51b815260040161073490613adb565b6001600160a01b038416600090815260066020526040902060030154156115575760405162461bcd60e51b815260040161073490613b12565b600083815260076020526040902060030154156115865760405162461bcd60e51b815260040161073490613991565b600354600090815260086020526040902080541561166c5780544210156115bf5760405162461bcd60e51b815260040161073490613bb7565b806001015442106115e25760405162461bcd60e51b815260040161073490613c5c565b80600201548311156116065760405162461bcd60e51b815260040161073490613a36565b6003810154600582015461161b9085906129d4565b11156116395760405162461bcd60e51b815260040161073490613c25565b6004810154600682015461164e9085906129d4565b111561166c5760405162461bcd60e51b815260040161073490613b49565b604080516080810182526001600160a01b0380881680835260208084018981528486018981524260608701908152600094855260068452878520875181549088166001600160a01b03199182161782558451600180840191909155845160028085019190915584516003948501558f8952600790975299909620885181549816979096169690961785559151968401969096559451908201559251920191909155600582015461171c90856129d4565b6005830155600682015461173090856129d4565b60068301556001546040516340c10f1960e01b81526001600160a01b03909116906340c10f1990611767908990889060040161385f565b600060405180830381600087803b15801561178157600080fd5b505af1158015611795573d6000803e3d6000fd5b5050505084866001600160a01b03167fe49649ad7d04a14b0d2a43dae89f207c0822143ff6f88a6480e88907e4e5c54886426040516117d5929190613d09565b60405180910390a36001925050505b9392505050565b611803600080516020613e9883398151915233611421565b61181f5760405162461bcd60e51b815260040161073490613bee565b610c667fd3065a24ad9e7725d223007135762d2902038999e3e5829146654498a58d97958261218b565b600081565b6000818152600960205260408082206006015481517f23341a0500000000000000000000000000000000000000000000000000000000815291516060928492839283926001600160a01b039092169182916323341a05916004808201928792909190829003018186803b1580156118c457600080fd5b505afa1580156118d8573d6000803e3d6000fd5b505050506040513d6000823e601f3d908101601f191682016040526119009190810190613337565b939b929a50909850965090945092505050565b7fd3065a24ad9e7725d223007135762d2902038999e3e5829146654498a58d979581565b60096020908152600091825260409182902080548351601f600260001961010060018616150201909316929092049182018490048402810184019094528084529092918391908301828280156119ce5780601f106119a3576101008083540402835291602001916119ce565b820191906000526020600020905b8154815290600101906020018083116119b157829003601f168201915b505050505090806001018054600181600116156101000203166002900480601f016020809104026020016040519081016040528092919081815260200182805460018160011615610100020316600290048015611a6c5780601f10611a4157610100808354040283529160200191611a6c565b820191906000526020600020905b815481529060010190602001808311611a4f57829003601f168201915b50505060028085018054604080516020601f6000196101006001871615020190941695909504928301859004850281018501909152818152959695945090925090830182828015611afe5780601f10611ad357610100808354040283529160200191611afe565b820191906000526020600020905b815481529060010190602001808311611ae157829003601f168201915b505050600384015460048501546005860154600690960154949591949093506001600160a01b0391821692501687565b60025481565b6008602052600090815260409020805460018201546002830154600384015460048501546005860154600690960154949593949293919290919087565b611b89600080516020613e9883398151915233611421565b611ba55760405162461bcd60e51b815260040161073490613bee565b6000828152600960205260409081902060060154905163f2fde38b60e01b81526001600160a01b039091169063f2fde38b90610be4908490600401613827565b611bfd600080516020613e9883398151915233611421565b611c195760405162461bcd60e51b815260040161073490613bee565b600580546001600160a01b0319166001600160a01b0392909216919091179055565b6000838152600960205260408082206006015490517f535f02ee0000000000000000000000000000000000000000000000000000000081526001600160a01b039091169063535f02ee90611c959086908690600401613cd6565b60206040518083038186803b158015611cad57600080fd5b505afa158015611cc1573d6000803e3d6000fd5b505050506040513d601f19601f82011682018060405250810190610906919061331b565b60035481565b6000818152602081905260408120610ca590612a2e565b6000611d2e7f843c3a00fa95510a35f425371231fd3fe4642e719cb4595160763d6d02594b5033611421565b611d4a5760405162461bcd60e51b815260040161073490613adb565b6001546040516340c10f1960e01b81526001600160a01b03909116906340c10f1990611d7c903090879060040161385f565b600060405180830381600087803b158015611d9657600080fd5b505af1158015611daa573d6000803e3d6000fd5b5050505060006040518060e001604052808f8f8080601f016020809104026020016040519081016040528093929190818152602001838380828437600081840152601f19601f8201169050808301925050505050505081526020018d8d8080601f016020809104026020016040519081016040528093929190818152602001838380828437600092019190915250505090825250604080516020601f8e018190048102820181019092528c815291810191908d908d9081908401838280828437600092018290525093855250505060208083018c905260408084018c90526001600160a01b03808c16606080870191909152608095860194909452815160c0810183528b81529283018a905290820188905260015481169282019290925230928101929092526005541660a0820152909150610dab82826124e2565b600084815260096020526040812060030154421015611f175760405162461bcd60e51b815260040161073490613a6d565b600085815260096020526040902060040154421115611f485760405162461bcd60e51b8152600401610734906139c8565b60008581526009602090815260408083206006015481517ffc0c546a00000000000000000000000000000000000000000000000000000000815291516001600160a01b039091169263fc0c546a9260048082019391829003018186803b158015611fb157600080fd5b505afa158015611fc5573d6000803e3d6000fd5b505050506040513d601f19601f82011682018060405250810190611fe99190613183565b6001549091506001600160a01b0380831691161415612086576001546040517fbb35783b0000000000000000000000000000000000000000000000000000000081526001600160a01b039091169063bb35783b9061204f9033903090889060040161383b565b600060405180830381600087803b15801561206957600080fd5b505af115801561207d573d6000803e3d6000fd5b5050505061209b565b61209b6001600160a01b038216333086612a39565b600086815260096020526040908190206006015490517fcae326060000000000000000000000000000000000000000000000000000000081526001600160a01b039091169063cae32606906120f890889088903390600401613ce7565b602060405180830381600087803b15801561211257600080fd5b505af1158015612126573d6000803e3d6000fd5b505050506040513d601f19601f8201168201806040525081019061214a91906135f8565b91508282111561216c5760405162461bcd60e51b815260040161073490613b80565b8282101561218257612182336112488585612ac7565b50949350505050565b6000828152602081905260409020600201546121a990610539612858565b61100c5760405162461bcd60e51b8152600401808060200182810382526030815260200180613e686030913960400191505060405180910390fd5b6121fc600080516020613e9883398151915233611421565b6122185760405162461bcd60e51b815260040161073490613bee565b600355565b612235600080516020613e9883398151915233611421565b6122515760405162461bcd60e51b815260040161073490613bee565b600354600090815260086020526040902080541561229c576004810154600682015461227e9084906129d4565b111561229c5760405162461bcd60e51b815260040161073490613b49565b60068101546122ab90836129d4565b60068201556001546040516340c10f1960e01b81526001600160a01b03909116906340c10f19906122e2908690869060040161385f565b600060405180830381600087803b1580156122fc57600080fd5b505af1158015612310573d6000803e3d6000fd5b50505050826001600160a01b03167f2e8ac5177a616f2aec08c3048f5021e4e9743ece034e8d83ba5caf76688bb475834260405161234f929190613d09565b60405180910390a2505050565b612374600080516020613e9883398151915233611421565b6123905760405162461bcd60e51b815260040161073490613bee565b610c667f843c3a00fa95510a35f425371231fd3fe4642e719cb4595160763d6d02594b508261218b565b6000818152600960205260408082206006015490517f3f7361eb0000000000000000000000000000000000000000000000000000000081526001600160a01b0390911690633f7361eb90612412903390600401613827565b602060405180830381600087803b15801561242c57600080fd5b505af1158015612440573d6000803e3d6000fd5b505050506040513d601f19601f82011682018060405250810190610ca591906135f8565b6000838152600960205260408082206006015490517f3dcb8b810000000000000000000000000000000000000000000000000000000081526001600160a01b0390911690633dcb8b8190611c959086908690600401613cd6565b6001546001600160a01b031681565b6000610ca2836001600160a01b038416612b24565b60045460009081906124fc906001600160a01b0316612b6e565b60608401516040517fc4d66de800000000000000000000000000000000000000000000000000000000815291925082916001600160a01b0383169163c4d66de89161254a9190600401613827565b600060405180830381600087803b15801561256457600080fd5b505af1158015612578573d6000803e3d6000fd5b50505060808501516001600160a01b0316301490506125bd576125bd846080015130866020015187606001516001600160a01b0316612a39909392919063ffffffff16565b83606001516001600160a01b031663095ea7b3836000196040518363ffffffff1660e01b81526004016125f192919061385f565b602060405180830381600087803b15801561260b57600080fd5b505af115801561261f573d6000803e3d6000fd5b505050506040513d601f19601f820116820180604052508101906126439190613293565b5060025460a08501518551602087015160408089015190517f5467a7510000000000000000000000000000000000000000000000000000000081529497506001600160a01b03861694635467a751946126a4948a9491939092600401613caa565b600060405180830381600087803b1580156126be57600080fd5b505af11580156126d2573d6000803e3d6000fd5b50505050606085015160808601516040516339acb21f60e21b81526001600160a01b0384169263e6b2c87c9261270a92600401613d09565b600060405180830381600087803b15801561272457600080fd5b505af1158015612738573d6000803e3d6000fd5b5050506001600160a01b03831660c0870152506000838152600960209081526040909120865180518893612770928492910190613004565b5060208281015180516127899260018501920190613004565b50604082015180516127a5916002840191602090910190613004565b50606082015160038201556080820151600482015560a08201516005820180546001600160a01b03199081166001600160a01b039384161790915560c0909301516006909201805490931691161790556002546128039060016129d4565b6002819055508460a001516001600160a01b03167f8263f983d31825e2fcfa4ff69822ca37ec7846c9c6a84da9b59ae29d8e43ddab8484604051612848929190613c93565b60405180910390a2505092915050565b3390565b600082815260208190526040902061287490826124cd565b15610e2157612881612858565b6001600160a01b0316816001600160a01b0316837f2f8788117e7eff1d82e926ec794901d17c78024a50270940304540a733656f0d60405160405180910390a45050565b60008281526020819052604090206128dd9082612c29565b15610e21576128ea612858565b6001600160a01b0316816001600160a01b0316837ff6391f5c32d9c69d2a47ea670b442974b53935d1edc7fd64eb21e047a839171b60405160405180910390a45050565b604080516001600160a01b038416602482015260448082018490528251808303909101815260649091019091526020810180517bffffffffffffffffffffffffffffffffffffffffffffffffffffffff167fa9059cbb000000000000000000000000000000000000000000000000000000001790526129ae908490612c3e565b505050565b6000610ca28383612cef565b6000610ca2836001600160a01b038416612d53565b600082820183811015610ca2576040805162461bcd60e51b815260206004820152601b60248201527f536166654d6174683a206164646974696f6e206f766572666c6f770000000000604482015290519081900360640190fd5b6000610ca582612d6b565b604080516001600160a01b0380861660248301528416604482015260648082018490528251808303909101815260849091019091526020810180517bffffffffffffffffffffffffffffffffffffffffffffffffffffffff167f23b872dd00000000000000000000000000000000000000000000000000000000179052612ac1908590612c3e565b50505050565b600082821115612b1e576040805162461bcd60e51b815260206004820152601e60248201527f536166654d6174683a207375627472616374696f6e206f766572666c6f770000604482015290519081900360640190fd5b50900390565b6000612b308383612d53565b612b6657508154600181810184556000848152602080822090930184905584548482528286019093526040902091909155610ca5565b506000610ca5565b60006040517f3d602d80600a3d3981f3363d3d373d3d3d363d7300000000000000000000000081528260601b60148201527f5af43d82803e903d91602b57fd5bf3000000000000000000000000000000000060288201526037816000f09150506001600160a01b038116610cbe576040805162461bcd60e51b815260206004820152601660248201527f455243313136373a20637265617465206661696c656400000000000000000000604482015290519081900360640190fd5b6000610ca2836001600160a01b038416612d6f565b6000612c93826040518060400160405280602081526020017f5361666545524332303a206c6f772d6c6576656c2063616c6c206661696c6564815250856001600160a01b0316612e359092919063ffffffff16565b8051909150156129ae57808060200190516020811015612cb257600080fd5b50516129ae5760405162461bcd60e51b815260040180806020018281038252602a815260200180613eb8602a913960400191505060405180910390fd5b81546000908210612d315760405162461bcd60e51b8152600401808060200182810382526022815260200180613e176022913960400191505060405180910390fd5b826000018281548110612d4057fe5b9060005260206000200154905092915050565b60009081526001919091016020526040902054151590565b5490565b60008181526001830160205260408120548015612e2b5783546000198083019190810190600090879083908110612da257fe5b9060005260206000200154905080876000018481548110612dbf57fe5b600091825260208083209091019290925582815260018981019092526040902090840190558654879080612def57fe5b60019003818190600052602060002001600090559055866001016000878152602001908152602001600020600090556001945050505050610ca5565b6000915050610ca5565b6060610906848460008585612e4985612f5a565b612e9a576040805162461bcd60e51b815260206004820152601d60248201527f416464726573733a2063616c6c20746f206e6f6e2d636f6e7472616374000000604482015290519081900360640190fd5b600080866001600160a01b031685876040518082805190602001908083835b60208310612ed85780518252601f199092019160209182019101612eb9565b6001836020036101000a03801982511681845116808217855250505050505090500191505060006040518083038185875af1925050503d8060008114612f3a576040519150601f19603f3d011682016040523d82523d6000602084013e612f3f565b606091505b5091509150612f4f828286612f60565b979650505050505050565b3b151590565b60608315612f6f5750816117e4565b825115612f7f5782518084602001fd5b8160405162461bcd60e51b81526004018080602001828103825283818151815260200191508051906020019080838360005b83811015612fc9578181015183820152602001612fb1565b50505050905090810190601f168015612ff65780820380516001836020036101000a031916815260200191505b509250505060405180910390fd5b828054600181600116156101000203166002900490600052602060002090601f01602090048101928261303a5760008555613080565b82601f1061305357805160ff1916838001178555613080565b82800160010185558215613080579182015b82811115613080578251825591602001919060010190613065565b5061308c929150613090565b5090565b5b8082111561308c5760008155600101613091565b8035610cbe81613df2565b8051610cbe81613e07565b60008083601f8401126130cc578182fd5b50813567ffffffffffffffff8111156130e3578182fd5b6020830191508360208285010111156130fb57600080fd5b9250929050565b600082601f830112613112578081fd5b813567ffffffffffffffff81111561312657fe5b613139601f8201601f1916602001613db0565b81815284602083860101111561314d578283fd5b816020850160208301379081016020019190915292915050565b600060208284031215613178578081fd5b8135610ca281613df2565b600060208284031215613194578081fd5b8151610ca281613df2565b600080604083850312156131b1578081fd5b82356131bc81613df2565b946020939093013593505050565b6000806000606084860312156131de578081fd5b83356131e981613df2565b95602085013595506040909401359392505050565b60006020808385031215613210578182fd5b825167ffffffffffffffff811115613226578283fd5b8301601f81018513613236578283fd5b805161324961324482613dd4565b613db0565b8181528381019083850185840285018601891015613265578687fd5b8694505b83851015613287578051835260019490940193918501918501613269565b50979650505050505050565b6000602082840312156132a4578081fd5b81518015158114610ca2578182fd5b6000602082840312156132c4578081fd5b5035919050565b600080604083850312156132dd578182fd5b8235915060208301356132ef81613df2565b809150509250929050565b6000806040838503121561330c578182fd5b50508035926020909101359150565b60006020828403121561332c578081fd5b8151610ca281613e07565b600080600080600060a0868803121561334e578283fd5b855161335981613e07565b8095505060208087015167ffffffffffffffff811115613377578485fd5b8701601f81018913613387578485fd5b805161339561324482613dd4565b81815283810190838501858402850186018d10156133b1578889fd5b8894505b838510156133dc5780516133c881613e07565b8352600194909401939185019185016133b5565b5080985050505050506133f1604087016130b0565b6060870151608090970151959894975095949392505050565b6000806000806000806000806000806000806101208d8f03121561342c57898afd5b67ffffffffffffffff8d35111561344157898afd5b61344e8e8e358f016130bb565b909c509a5067ffffffffffffffff60208e0135111561346b57898afd5b61347b8e60208f01358f016130bb565b909a50985067ffffffffffffffff60408e01351115613498578687fd5b6134a88e60408f01358f016130bb565b909850965060608d0135955060808d013594506134c760a08e016130a5565b935060c08d0135925060e08d013591506101008d013590509295989b509295989b509295989b565b6000806000806000806000806000806000806101808d8f031215613511578586fd5b67ffffffffffffffff8d351115613526578586fd5b6135338e8e358f01613102565b9b5067ffffffffffffffff60208e0135111561354d578586fd5b61355d8e60208f01358f01613102565b9a5067ffffffffffffffff60408e01351115613577578586fd5b6135878e60408f01358f01613102565b995060608d0135985060808d013597506135a360a08e016130a5565b965060c08d0135955060e08d013594506101008d013593506135c86101208e016130a5565b92506135d76101408e016130a5565b91506135e66101608e016130a5565b90509295989b509295989b509295989b565b600060208284031215613609578081fd5b5051919050565b600080600080600080600080610100898b03121561362c578182fd5b88359750602089013567ffffffffffffffff8082111561364a578384fd5b6136568c838d01613102565b985060408b013591508082111561366b578384fd5b6136778c838d01613102565b975060608b013591508082111561368c578384fd5b506136998b828c01613102565b9550506080890135935060a089013592506136b660c08a016130a5565b91506136c460e08a016130a5565b90509295985092959890939650565b6000806000606084860312156136e7578081fd5b8335925060208401359150604084013561370081613e07565b809150509250925092565b60008060008060808587031215613720578182fd5b8435935060208501359250604085013561373981613e07565b9396929550929360600135925050565b600080600080600060a08688031215613760578283fd5b5050835160208501516040860151606087015160809097015192989197509594509092509050565b600080600080600080600080610100898b0312156137a4578182fd5b505086359860208801359850604088013597606081013597506080810135965060a0810135955060c0810135945060e0013592509050565b60008151808452815b81811015613801576020818501810151868301820152016137e5565b818111156138125782602083870101525b50601f01601f19169290920160200192915050565b6001600160a01b0391909116815260200190565b6001600160a01b039384168152919092166020820152604081019190915260600190565b6001600160a01b03929092168252602082015260400190565b6001600160a01b0394909416845260208401929092526040830152606082015260800190565b901515815260200190565b90815260200190565b600f9190910b815260200190565b600060a08201600f88810b8452602060a08186015282895180855260c087019150828b019450855b81811015613906578551850b835294830194918301916001016138e8565b50509790910b6040850152505050606081019290925260809091015292915050565b600060e0825261393b60e083018a6137dc565b828103602084015261394d818a6137dc565b9050828103604084015261396181896137dc565b6060840197909752505060808101939093526001600160a01b0391821660a08401521660c0909101529392505050565b60208082526014908201527f5573657220616c726561647920636c61696d6564000000000000000000000000604082015260600190565b60208082526014908201527f4d61726b657420616c726561647920656e646564000000000000000000000000604082015260600190565b60208082526011908201527f4d696e20616d6f756e7420726561636821000000000000000000000000000000604082015260600190565b60208082526019908201527f496e76616c6964207573657220636c61696d20616d6f756e7400000000000000604082015260600190565b60208082526012908201527f4d61726b6574206e6f7420737461727465640000000000000000000000000000604082015260600190565b60208082526013908201527f4f6e6c79204d61726b65742043726561746f7200000000000000000000000000604082015260600190565b6020808252600b908201527f4f6e6c792043616c6c6572000000000000000000000000000000000000000000604082015260600190565b60208082526017908201527f4163636f756e7420616c726561647920636c61696d6564000000000000000000604082015260600190565b60208082526016908201527f536561736f6e206d617820746f6b656e206d696e747300000000000000000000604082015260600190565b60208082526011908201527f4d617820616d6f756e7420726561636821000000000000000000000000000000604082015260600190565b60208082526012908201527f536561736f6e206e6f7420737461727465640000000000000000000000000000604082015260600190565b6020808252600a908201527f4f6e6c792041646d696e00000000000000000000000000000000000000000000604082015260600190565b60208082526017908201527f536561736f6e206d617820746f6b656e20636c61696d73000000000000000000604082015260600190565b60208082526014908201527f536561736f6e20616c726561647920656e646564000000000000000000000000604082015260600190565b9182526001600160a01b0316602082015260400190565b9485526001600160a01b0393909316602085015260408401919091526060830152608082015260a00190565b918252600f0b602082015260400190565b928352600f9190910b60208301526001600160a01b0316604082015260600190565b918252602082015260400190565b600060c082018883526020888185015287604085015286606085015285608085015260c060a085015281855180845260e0860191508287019350845b81811015613d6f57845183529383019391830191600101613d53565b50909b9a5050505050505050505050565b968752602087019590955260408601939093526060850191909152608084015260a083015260c082015260e00190565b60405181810167ffffffffffffffff81118282101715613dcc57fe5b604052919050565b600067ffffffffffffffff821115613de857fe5b5060209081020190565b6001600160a01b0381168114610c6657600080fd5b80600f0b8114610c6657600080fdfe456e756d657261626c655365743a20696e646578206f7574206f6620626f756e6473416363657373436f6e74726f6c3a2073656e646572206d75737420626520616e2061646d696e20746f206772616e74416363657373436f6e74726f6c3a2073656e646572206d75737420626520616e2061646d696e20746f207265766f6b65a49807205ce4d355092ef5a8a18f56e8913cf4a201fbe287825b095693c217755361666545524332303a204552433230206f7065726174696f6e20646964206e6f742073756363656564416363657373436f6e74726f6c3a2063616e206f6e6c792072656e6f756e636520726f6c657320666f722073656c66a264697066735822122072595d0bed86c4775b760644b7df97f3dc5dd0ae0759b1d84e9429869d4a993a64736f6c63430007060033a49807205ce4d355092ef5a8a18f56e8913cf4a201fbe287825b095693c21775",
  "devdoc": {
    "author": "Marto",
    "details": "Feel free to make any adjustments to the code",
    "kind": "dev",
    "methods": {
      "getRoleAdmin(bytes32)": {
        "details": "Returns the admin role that controls `role`. See {grantRole} and {revokeRole}. To change a role's admin, use {_setRoleAdmin}."
      },
      "getRoleMember(bytes32,uint256)": {
        "details": "Returns one of the accounts that have `role`. `index` must be a value between 0 and {getRoleMemberCount}, non-inclusive. Role bearers are not sorted in any particular way, and their ordering may change at any point. WARNING: When using {getRoleMember} and {getRoleMemberCount}, make sure you perform all queries on the same block. See the following https://forum.openzeppelin.com/t/iterating-over-elements-on-enumerableset-in-openzeppelin-contracts/2296[forum post] for more information."
      },
      "getRoleMemberCount(bytes32)": {
        "details": "Returns the number of accounts that have `role`. Can be used together with {getRoleMember} to enumerate all bearers of a role."
      },
      "grantRole(bytes32,address)": {
        "details": "Grants `role` to `account`. If `account` had not been already granted `role`, emits a {RoleGranted} event. Requirements: - the caller must have ``role``'s admin role."
      },
      "hasRole(bytes32,address)": {
        "details": "Returns `true` if `account` has been granted `role`."
      },
      "renounceRole(bytes32,address)": {
        "details": "Revokes `role` from the calling account. Roles are often managed via {grantRole} and {revokeRole}: this function's purpose is to provide a mechanism for accounts to lose their privileges if they are compromised (such as when a trusted device is misplaced). If the calling account had been granted `role`, emits a {RoleRevoked} event. Requirements: - the caller must be `account`."
      },
      "revokeRole(bytes32,address)": {
        "details": "Revokes `role` from `account`. If `account` had been granted `role`, emits a {RoleRevoked} event. Requirements: - the caller must have ``role``'s admin role."
      }
    },
    "title": "PrecogMasterV6: Contract to manage PrecogMarkets interactions and PrecogToken claims",
    "version": 1
  },
  "userdoc": {
    "kind": "user",
    "methods": {},
    "version": 1
  },
  "storageLayout": {
    "storage": [
      {
        "astId": 22,
        "contract": "contracts/PrecogMasterV6.sol:PrecogMasterV6",
        "label": "_roles",
        "offset": 0,
        "slot": "0",
        "type": "t_mapping(t_bytes32,t_struct(RoleData)18_storage)"
      },
      {
        "astId": 21335,
        "contract": "contracts/PrecogMasterV6.sol:PrecogMasterV6",
        "label": "token",
        "offset": 0,
        "slot": "1",
        "type": "t_address"
      },
      {
        "astId": 21337,
        "contract": "contracts/PrecogMasterV6.sol:PrecogMasterV6",
        "label": "createdMarkets",
        "offset": 0,
        "slot": "2",
        "type": "t_uint256"
      },
      {
        "astId": 21339,
        "contract": "contracts/PrecogMasterV6.sol:PrecogMasterV6",
        "label": "currentSeason",
        "offset": 0,
        "slot": "3",
        "type": "t_uint256"
      },
      {
        "astId": 21341,
        "contract": "contracts/PrecogMasterV6.sol:PrecogMasterV6",
        "label": "market",
        "offset": 0,
        "slot": "4",
        "type": "t_address"
      },
      {
        "astId": 21343,
        "contract": "contracts/PrecogMasterV6.sol:PrecogMasterV6",
        "label": "oracle",
        "offset": 0,
        "slot": "5",
        "type": "t_address"
      },
      {
        "astId": 21347,
        "contract": "contracts/PrecogMasterV6.sol:PrecogMasterV6",
        "label": "accountTokenClaims",
        "offset": 0,
        "slot": "6",
        "type": "t_mapping(t_address,t_struct(TokenClaim)21290_storage)"
      },
      {
        "astId": 21351,
        "contract": "contracts/PrecogMasterV6.sol:PrecogMasterV6",
        "label": "userTokenClaims",
        "offset": 0,
        "slot": "7",
        "type": "t_mapping(t_uint256,t_struct(TokenClaim)21290_storage)"
      },
      {
        "astId": 21355,
        "contract": "contracts/PrecogMasterV6.sol:PrecogMasterV6",
        "label": "miningSeasons",
        "offset": 0,
        "slot": "8",
        "type": "t_mapping(t_uint256,t_struct(MiningSeason)21305_storage)"
      },
      {
        "astId": 21359,
        "contract": "contracts/PrecogMasterV6.sol:PrecogMasterV6",
        "label": "markets",
        "offset": 0,
        "slot": "9",
        "type": "t_mapping(t_uint256,t_struct(MarketInfo)21320_storage)"
      }
    ],
    "types": {
      "t_address": {
        "encoding": "inplace",
        "label": "address",
        "numberOfBytes": "20"
      },
      "t_array(t_bytes32)dyn_storage": {
        "base": "t_bytes32",
        "encoding": "dynamic_array",
        "label": "bytes32[]",
        "numberOfBytes": "32"
      },
      "t_bytes32": {
        "encoding": "inplace",
        "label": "bytes32",
        "numberOfBytes": "32"
      },
      "t_mapping(t_address,t_struct(TokenClaim)21290_storage)": {
        "encoding": "mapping",
        "key": "t_address",
        "label": "mapping(address => struct PrecogMasterV6.TokenClaim)",
        "numberOfBytes": "32",
        "value": "t_struct(TokenClaim)21290_storage"
      },
      "t_mapping(t_bytes32,t_struct(RoleData)18_storage)": {
        "encoding": "mapping",
        "key": "t_bytes32",
        "label": "mapping(bytes32 => struct AccessControl.RoleData)",
        "numberOfBytes": "32",
        "value": "t_struct(RoleData)18_storage"
      },
      "t_mapping(t_bytes32,t_uint256)": {
        "encoding": "mapping",
        "key": "t_bytes32",
        "label": "mapping(bytes32 => uint256)",
        "numberOfBytes": "32",
        "value": "t_uint256"
      },
      "t_mapping(t_uint256,t_struct(MarketInfo)21320_storage)": {
        "encoding": "mapping",
        "key": "t_uint256",
        "label": "mapping(uint256 => struct PrecogMasterV6.MarketInfo)",
        "numberOfBytes": "32",
        "value": "t_struct(MarketInfo)21320_storage"
      },
      "t_mapping(t_uint256,t_struct(MiningSeason)21305_storage)": {
        "encoding": "mapping",
        "key": "t_uint256",
        "label": "mapping(uint256 => struct PrecogMasterV6.MiningSeason)",
        "numberOfBytes": "32",
        "value": "t_struct(MiningSeason)21305_storage"
      },
      "t_mapping(t_uint256,t_struct(TokenClaim)21290_storage)": {
        "encoding": "mapping",
        "key": "t_uint256",
        "label": "mapping(uint256 => struct PrecogMasterV6.TokenClaim)",
        "numberOfBytes": "32",
        "value": "t_struct(TokenClaim)21290_storage"
      },
      "t_string_storage": {
        "encoding": "bytes",
        "label": "string",
        "numberOfBytes": "32"
      },
      "t_struct(AddressSet)3530_storage": {
        "encoding": "inplace",
        "label": "struct EnumerableSet.AddressSet",
        "members": [
          {
            "astId": 3529,
            "contract": "contracts/PrecogMasterV6.sol:PrecogMasterV6",
            "label": "_inner",
            "offset": 0,
            "slot": "0",
            "type": "t_struct(Set)3265_storage"
          }
        ],
        "numberOfBytes": "64"
      },
      "t_struct(MarketInfo)21320_storage": {
        "encoding": "inplace",
        "label": "struct PrecogMasterV6.MarketInfo",
        "members": [
          {
            "astId": 21307,
            "contract": "contracts/PrecogMasterV6.sol:PrecogMasterV6",
            "label": "name",
            "offset": 0,
            "slot": "0",
            "type": "t_string_storage"
          },
          {
            "astId": 21309,
            "contract": "contracts/PrecogMasterV6.sol:PrecogMasterV6",
            "label": "description",
            "offset": 0,
            "slot": "1",
            "type": "t_string_storage"
          },
          {
            "astId": 21311,
            "contract": "contracts/PrecogMasterV6.sol:PrecogMasterV6",
            "label": "category",
            "offset": 0,
            "slot": "2",
            "type": "t_string_storage"
          },
          {
            "astId": 21313,
            "contract": "contracts/PrecogMasterV6.sol:PrecogMasterV6",
            "label": "startTimestamp",
            "offset": 0,
            "slot": "3",
            "type": "t_uint256"
          },
          {
            "astId": 21315,
            "contract": "contracts/PrecogMasterV6.sol:PrecogMasterV6",
            "label": "endTimestamp",
            "offset": 0,
            "slot": "4",
            "type": "t_uint256"
          },
          {
            "astId": 21317,
            "contract": "contracts/PrecogMasterV6.sol:PrecogMasterV6",
            "label": "creator",
            "offset": 0,
            "slot": "5",
            "type": "t_address"
          },
          {
            "astId": 21319,
            "contract": "contracts/PrecogMasterV6.sol:PrecogMasterV6",
            "label": "market",
            "offset": 0,
            "slot": "6",
            "type": "t_address"
          }
        ],
        "numberOfBytes": "224"
      },
      "t_struct(MiningSeason)21305_storage": {
        "encoding": "inplace",
        "label": "struct PrecogMasterV6.MiningSeason",
        "members": [
          {
            "astId": 21292,
            "contract": "contracts/PrecogMasterV6.sol:PrecogMasterV6",
            "label": "startTimestamp",
            "offset": 0,
            "slot": "0",
            "type": "t_uint256"
          },
          {
            "astId": 21294,
            "contract": "contracts/PrecogMasterV6.sol:PrecogMasterV6",
            "label": "endTimestamp",
            "offset": 0,
            "slot": "1",
            "type": "t_uint256"
          },
          {
            "astId": 21296,
            "contract": "contracts/PrecogMasterV6.sol:PrecogMasterV6",
            "label": "maxUserClaim",
            "offset": 0,
            "slot": "2",
            "type": "t_uint256"
          },
          {
            "astId": 21298,
            "contract": "contracts/PrecogMasterV6.sol:PrecogMasterV6",
            "label": "maxTotalClaim",
            "offset": 0,
            "slot": "3",
            "type": "t_uint256"
          },
          {
            "astId": 21300,
            "contract": "contracts/PrecogMasterV6.sol:PrecogMasterV6",
            "label": "maxTotalMint",
            "offset": 0,
            "slot": "4",
            "type": "t_uint256"
          },
          {
            "astId": 21302,
            "contract": "contracts/PrecogMasterV6.sol:PrecogMasterV6",
            "label": "claimedAmount",
            "offset": 0,
            "slot": "5",
            "type": "t_uint256"
          },
          {
            "astId": 21304,
            "contract": "contracts/PrecogMasterV6.sol:PrecogMasterV6",
            "label": "mintedAmount",
            "offset": 0,
            "slot": "6",
            "type": "t_uint256"
          }
        ],
        "numberOfBytes": "224"
      },
      "t_struct(RoleData)18_storage": {
        "encoding": "inplace",
        "label": "struct AccessControl.RoleData",
        "members": [
          {
            "astId": 15,
            "contract": "contracts/PrecogMasterV6.sol:PrecogMasterV6",
            "label": "members",
            "offset": 0,
            "slot": "0",
            "type": "t_struct(AddressSet)3530_storage"
          },
          {
            "astId": 17,
            "contract": "contracts/PrecogMasterV6.sol:PrecogMasterV6",
            "label": "adminRole",
            "offset": 0,
            "slot": "2",
            "type": "t_bytes32"
          }
        ],
        "numberOfBytes": "96"
      },
      "t_struct(Set)3265_storage": {
        "encoding": "inplace",
        "label": "struct EnumerableSet.Set",
        "members": [
          {
            "astId": 3260,
            "contract": "contracts/PrecogMasterV6.sol:PrecogMasterV6",
            "label": "_values",
            "offset": 0,
            "slot": "0",
            "type": "t_array(t_bytes32)dyn_storage"
          },
          {
            "astId": 3264,
            "contract": "contracts/PrecogMasterV6.sol:PrecogMasterV6",
            "label": "_indexes",
            "offset": 0,
            "slot": "1",
            "type": "t_mapping(t_bytes32,t_uint256)"
          }
        ],
        "numberOfBytes": "64"
      },
      "t_struct(TokenClaim)21290_storage": {
        "encoding": "inplace",
        "label": "struct PrecogMasterV6.TokenClaim",
        "members": [
          {
            "astId": 21283,
            "contract": "contracts/PrecogMasterV6.sol:PrecogMasterV6",
            "label": "account",
            "offset": 0,
            "slot": "0",
            "type": "t_address"
          },
          {
            "astId": 21285,
            "contract": "contracts/PrecogMasterV6.sol:PrecogMasterV6",
            "label": "user",
            "offset": 0,
            "slot": "1",
            "type": "t_uint256"
          },
          {
            "astId": 21287,
            "contract": "contracts/PrecogMasterV6.sol:PrecogMasterV6",
            "label": "claimedAmount",
            "offset": 0,
            "slot": "2",
            "type": "t_uint256"
          },
          {
            "astId": 21289,
            "contract": "contracts/PrecogMasterV6.sol:PrecogMasterV6",
            "label": "claimedTimestamp",
            "offset": 0,
            "slot": "3",
            "type": "t_uint256"
          }
        ],
        "numberOfBytes": "128"
      },
      "t_uint256": {
        "encoding": "inplace",
        "label": "uint256",
        "numberOfBytes": "32"
      }
    }
  }
}