{
  "address": "0x1eB90323aE74E5FBc3241c1D074cFd0b117d7e8E",
  "abi": [
    {
      "inputs": [
        {
          "internalType": "address",
          "name": "precogToken",
          "type": "address"
        },
        {
          "internalType": "address",
          "name": "initialAdmin",
          "type": "address"
        }
      ],
      "stateMutability": "nonpayable",
      "type": "constructor"
    },
    {
      "anonymous": false,
      "inputs": [
        {
          "indexed": true,
          "internalType": "bytes32",
          "name": "role",
          "type": "bytes32"
        },
        {
          "indexed": true,
          "internalType": "bytes32",
          "name": "previousAdminRole",
          "type": "bytes32"
        },
        {
          "indexed": true,
          "internalType": "bytes32",
          "name": "newAdminRole",
          "type": "bytes32"
        }
      ],
      "name": "RoleAdminChanged",
      "type": "event"
    },
    {
      "anonymous": false,
      "inputs": [
        {
          "indexed": true,
          "internalType": "bytes32",
          "name": "role",
          "type": "bytes32"
        },
        {
          "indexed": true,
          "internalType": "address",
          "name": "account",
          "type": "address"
        },
        {
          "indexed": true,
          "internalType": "address",
          "name": "sender",
          "type": "address"
        }
      ],
      "name": "RoleGranted",
      "type": "event"
    },
    {
      "anonymous": false,
      "inputs": [
        {
          "indexed": true,
          "internalType": "bytes32",
          "name": "role",
          "type": "bytes32"
        },
        {
          "indexed": true,
          "internalType": "address",
          "name": "account",
          "type": "address"
        },
        {
          "indexed": true,
          "internalType": "address",
          "name": "sender",
          "type": "address"
        }
      ],
      "name": "RoleRevoked",
      "type": "event"
    },
    {
      "anonymous": false,
      "inputs": [
        {
          "indexed": true,
          "internalType": "address",
          "name": "account",
          "type": "address"
        },
        {
          "indexed": true,
          "internalType": "uint256",
          "name": "user",
          "type": "uint256"
        },
        {
          "indexed": false,
          "internalType": "uint256",
          "name": "amount",
          "type": "uint256"
        },
        {
          "indexed": false,
          "internalType": "uint256",
          "name": "timestamp",
          "type": "uint256"
        }
      ],
      "name": "TokensClaimed",
      "type": "event"
    },
    {
      "anonymous": false,
      "inputs": [
        {
          "indexed": true,
          "internalType": "address",
          "name": "account",
          "type": "address"
        },
        {
          "indexed": false,
          "internalType": "uint256",
          "name": "amount",
          "type": "uint256"
        },
        {
          "indexed": false,
          "internalType": "uint256",
          "name": "timestamp",
          "type": "uint256"
        }
      ],
      "name": "TokensMinted",
      "type": "event"
    },
    {
      "inputs": [],
      "name": "ADMIN_ROLE",
      "outputs": [
        {
          "internalType": "bytes32",
          "name": "",
          "type": "bytes32"
        }
      ],
      "stateMutability": "view",
      "type": "function"
    },
    {
      "inputs": [],
      "name": "CALLER_ROLE",
      "outputs": [
        {
          "internalType": "bytes32",
          "name": "",
          "type": "bytes32"
        }
      ],
      "stateMutability": "view",
      "type": "function"
    },
    {
      "inputs": [],
      "name": "DEFAULT_ADMIN_ROLE",
      "outputs": [
        {
          "internalType": "bytes32",
          "name": "",
          "type": "bytes32"
        }
      ],
      "stateMutability": "view",
      "type": "function"
    },
    {
      "inputs": [
        {
          "internalType": "address",
          "name": "",
          "type": "address"
        }
      ],
      "name": "accountTokenClaims",
      "outputs": [
        {
          "internalType": "address",
          "name": "account",
          "type": "address"
        },
        {
          "internalType": "uint256",
          "name": "user",
          "type": "uint256"
        },
        {
          "internalType": "uint256",
          "name": "claimedAmount",
          "type": "uint256"
        },
        {
          "internalType": "uint256",
          "name": "claimedTimestamp",
          "type": "uint256"
        }
      ],
      "stateMutability": "view",
      "type": "function"
    },
    {
      "inputs": [
        {
          "internalType": "address",
          "name": "account",
          "type": "address"
        }
      ],
      "name": "addAdmin",
      "outputs": [],
      "stateMutability": "nonpayable",
      "type": "function"
    },
    {
      "inputs": [
        {
          "internalType": "address",
          "name": "account",
          "type": "address"
        }
      ],
      "name": "addCaller",
      "outputs": [],
      "stateMutability": "nonpayable",
      "type": "function"
    },
    {
      "inputs": [
        {
          "internalType": "address",
          "name": "account",
          "type": "address"
        },
        {
          "internalType": "uint256",
          "name": "user",
          "type": "uint256"
        },
        {
          "internalType": "uint256",
          "name": "amount",
          "type": "uint256"
        }
      ],
      "name": "claimToken",
      "outputs": [
        {
          "internalType": "bool",
          "name": "",
          "type": "bool"
        }
      ],
      "stateMutability": "nonpayable",
      "type": "function"
    },
    {
      "inputs": [],
      "name": "currentSeason",
      "outputs": [
        {
          "internalType": "uint256",
          "name": "",
          "type": "uint256"
        }
      ],
      "stateMutability": "view",
      "type": "function"
    },
    {
      "inputs": [
        {
          "internalType": "bytes32",
          "name": "role",
          "type": "bytes32"
        }
      ],
      "name": "getRoleAdmin",
      "outputs": [
        {
          "internalType": "bytes32",
          "name": "",
          "type": "bytes32"
        }
      ],
      "stateMutability": "view",
      "type": "function"
    },
    {
      "inputs": [
        {
          "internalType": "bytes32",
          "name": "role",
          "type": "bytes32"
        },
        {
          "internalType": "uint256",
          "name": "index",
          "type": "uint256"
        }
      ],
      "name": "getRoleMember",
      "outputs": [
        {
          "internalType": "address",
          "name": "",
          "type": "address"
        }
      ],
      "stateMutability": "view",
      "type": "function"
    },
    {
      "inputs": [
        {
          "internalType": "bytes32",
          "name": "role",
          "type": "bytes32"
        }
      ],
      "name": "getRoleMemberCount",
      "outputs": [
        {
          "internalType": "uint256",
          "name": "",
          "type": "uint256"
        }
      ],
      "stateMutability": "view",
      "type": "function"
    },
    {
      "inputs": [
        {
          "internalType": "bytes32",
          "name": "role",
          "type": "bytes32"
        },
        {
          "internalType": "address",
          "name": "account",
          "type": "address"
        }
      ],
      "name": "grantRole",
      "outputs": [],
      "stateMutability": "nonpayable",
      "type": "function"
    },
    {
      "inputs": [
        {
          "internalType": "address",
          "name": "account",
          "type": "address"
        },
        {
          "internalType": "uint256",
          "name": "user",
          "type": "uint256"
        }
      ],
      "name": "hasClaimed",
      "outputs": [
        {
          "internalType": "bool",
          "name": "",
          "type": "bool"
        }
      ],
      "stateMutability": "view",
      "type": "function"
    },
    {
      "inputs": [
        {
          "internalType": "bytes32",
          "name": "role",
          "type": "bytes32"
        },
        {
          "internalType": "address",
          "name": "account",
          "type": "address"
        }
      ],
      "name": "hasRole",
      "outputs": [
        {
          "internalType": "bool",
          "name": "",
          "type": "bool"
        }
      ],
      "stateMutability": "view",
      "type": "function"
    },
    {
      "inputs": [
        {
          "internalType": "uint256",
          "name": "",
          "type": "uint256"
        }
      ],
      "name": "miningSeasons",
      "outputs": [
        {
          "internalType": "uint256",
          "name": "startTimestamp",
          "type": "uint256"
        },
        {
          "internalType": "uint256",
          "name": "endTimestamp",
          "type": "uint256"
        },
        {
          "internalType": "uint256",
          "name": "maxUserClaim",
          "type": "uint256"
        },
        {
          "internalType": "uint256",
          "name": "maxTotalClaim",
          "type": "uint256"
        },
        {
          "internalType": "uint256",
          "name": "maxTotalMint",
          "type": "uint256"
        },
        {
          "internalType": "uint256",
          "name": "claimedAmount",
          "type": "uint256"
        },
        {
          "internalType": "uint256",
          "name": "mintedAmount",
          "type": "uint256"
        }
      ],
      "stateMutability": "view",
      "type": "function"
    },
    {
      "inputs": [
        {
          "internalType": "address",
          "name": "from",
          "type": "address"
        },
        {
          "internalType": "uint256",
          "name": "amount",
          "type": "uint256"
        }
      ],
      "name": "precogBurn",
      "outputs": [],
      "stateMutability": "nonpayable",
      "type": "function"
    },
    {
      "inputs": [
        {
          "internalType": "address",
          "name": "to",
          "type": "address"
        },
        {
          "internalType": "uint256",
          "name": "amount",
          "type": "uint256"
        }
      ],
      "name": "precogMint",
      "outputs": [],
      "stateMutability": "nonpayable",
      "type": "function"
    },
    {
      "inputs": [
        {
          "internalType": "address",
          "name": "newPrecogMaster",
          "type": "address"
        }
      ],
      "name": "precogTransferOwnership",
      "outputs": [],
      "stateMutability": "nonpayable",
      "type": "function"
    },
    {
      "inputs": [
        {
          "internalType": "address",
          "name": "account",
          "type": "address"
        }
      ],
      "name": "removeAdmin",
      "outputs": [],
      "stateMutability": "nonpayable",
      "type": "function"
    },
    {
      "inputs": [
        {
          "internalType": "address",
          "name": "account",
          "type": "address"
        }
      ],
      "name": "removeCaller",
      "outputs": [],
      "stateMutability": "nonpayable",
      "type": "function"
    },
    {
      "inputs": [
        {
          "internalType": "bytes32",
          "name": "role",
          "type": "bytes32"
        },
        {
          "internalType": "address",
          "name": "account",
          "type": "address"
        }
      ],
      "name": "renounceRole",
      "outputs": [],
      "stateMutability": "nonpayable",
      "type": "function"
    },
    {
      "inputs": [
        {
          "internalType": "bytes32",
          "name": "role",
          "type": "bytes32"
        },
        {
          "internalType": "address",
          "name": "account",
          "type": "address"
        }
      ],
      "name": "revokeRole",
      "outputs": [],
      "stateMutability": "nonpayable",
      "type": "function"
    },
    {
      "inputs": [
        {
          "internalType": "uint256",
          "name": "seasonIndex",
          "type": "uint256"
        },
        {
          "internalType": "uint256",
          "name": "startTimestamp",
          "type": "uint256"
        },
        {
          "internalType": "uint256",
          "name": "endTimestamp",
          "type": "uint256"
        },
        {
          "internalType": "uint256",
          "name": "maxUserClaim",
          "type": "uint256"
        },
        {
          "internalType": "uint256",
          "name": "maxTotalClaim",
          "type": "uint256"
        },
        {
          "internalType": "uint256",
          "name": "maxTotalMint",
          "type": "uint256"
        },
        {
          "internalType": "uint256",
          "name": "claimedAmount",
          "type": "uint256"
        },
        {
          "internalType": "uint256",
          "name": "mintedAmount",
          "type": "uint256"
        }
      ],
      "name": "setMiningSeason",
      "outputs": [],
      "stateMutability": "nonpayable",
      "type": "function"
    },
    {
      "inputs": [],
      "name": "token",
      "outputs": [
        {
          "internalType": "address",
          "name": "",
          "type": "address"
        }
      ],
      "stateMutability": "view",
      "type": "function"
    },
    {
      "inputs": [
        {
          "internalType": "uint256",
          "name": "seasonIndex",
          "type": "uint256"
        }
      ],
      "name": "updateCurrentSeason",
      "outputs": [],
      "stateMutability": "nonpayable",
      "type": "function"
    },
    {
      "inputs": [
        {
          "internalType": "uint256",
          "name": "",
          "type": "uint256"
        }
      ],
      "name": "userTokenClaims",
      "outputs": [
        {
          "internalType": "address",
          "name": "account",
          "type": "address"
        },
        {
          "internalType": "uint256",
          "name": "user",
          "type": "uint256"
        },
        {
          "internalType": "uint256",
          "name": "claimedAmount",
          "type": "uint256"
        },
        {
          "internalType": "uint256",
          "name": "claimedTimestamp",
          "type": "uint256"
        }
      ],
      "stateMutability": "view",
      "type": "function"
    }
  ],
  "transactionHash": "0x72620bea50a641852483dbf84f41b2cf001b38197b805c8d6e0852abd172817d",
  "args": [
    "0x7779ec685Aa0bf5483B3e0c15dAf246d2d978888",
    "0x9475A4C1BF5Fc80aE079303f14B523da19619c16"
  ],
  "numDeployments": 1,
  "solcInputHash": "0f85a651b998ab999b4298acf34c410d",
  "bytecode": "0x60806040523480156200001157600080fd5b5060405162001cfe38038062001cfe83398101604081905262000034916200023d565b62000041600082620000ba565b6200007c7f843c3a00fa95510a35f425371231fd3fe4642e719cb4595160763d6d02594b5060008051602062001cde833981519152620000ca565b600180546001600160a01b0319166001600160a01b038416179055620000b260008051602062001cde83398151915282620000ba565b505062000274565b620000c682826200011c565b5050565b600082815260208190526040808220600201549051839285917fbd79b86ffe0ab8e8776151514217cd7cacd52c909f66475c3af44e129f0b00ff9190a460009182526020829052604090912060020155565b600082815260208181526040909120620001419183906200121962000195821b17901c565b15620000c65762000151620001b5565b6001600160a01b0316816001600160a01b0316837f2f8788117e7eff1d82e926ec794901d17c78024a50270940304540a733656f0d60405160405180910390a45050565b6000620001ac836001600160a01b038416620001b9565b90505b92915050565b3390565b6000620001c7838362000208565b620001ff57508154600181810184556000848152602080822090930184905584548482528286019093526040902091909155620001af565b506000620001af565b60009081526001919091016020526040902054151590565b80516001600160a01b03811681146200023857600080fd5b919050565b6000806040838503121562000250578182fd5b6200025b8362000220565b91506200026b6020840162000220565b90509250929050565b611a5a80620002846000396000f3fe608060405234801561001057600080fd5b50600436106101ae5760003560e01c80639010d07c116100ee578063bcb3962111610097578063d6fb7d7911610071578063d6fb7d791461037e578063de02852a14610391578063eef21cd2146103a4578063fc0c546a146103b7576101ae565b8063bcb3962114610350578063ca15c87314610358578063d547741f1461036b576101ae565b8063a217fddf116100c8578063a217fddf1461030f578063b293109614610317578063b608b8f41461032a576101ae565b80639010d07c146102bc57806391d14854146102dc5780639c6c412e146102fc576101ae565b80632fb1541b1161015b57806370480275116101355780637048027514610286578063747293fb1461029957806375b238fc146102ac578063774237fc146102b4576101ae565b80632fb1541b1461024d57806336568abe146102605780633dc2724a14610273576101ae565b80631785f53c1161018c5780631785f53c14610207578063248a9ca31461021a5780632f2ff15d1461023a576101ae565b8063020917fe146101b3578063127e9cbd146101c857806314ae3ffc146101f4575b600080fd5b6101c66101c136600461158c565b6103bf565b005b6101db6101d636600461158c565b6104b3565b6040516101eb9493929190611700565b60405180910390f35b6101c66102023660046115a6565b6104f3565b6101c661021536600461158c565b6105e1565b61022d610228366004611601565b61066e565b6040516101eb919061173e565b6101c6610248366004611619565b610686565b6101c661025b366004611665565b610707565b6101c661026e366004611619565b6107dd565b6101db610281366004611601565b610872565b6101c661029436600461158c565b6108b2565b6101c66102a736600461158c565b61093c565b61022d6109c6565b61022d6109ea565b6102cf6102ca366004611644565b610a0e565b6040516101eb91906116b9565b6102ef6102ea366004611619565b610a2f565b6040516101eb9190611733565b6102ef61030a3660046115cf565b610a47565b61022d610e4b565b6102ef6103253660046115a6565b610e50565b61033d610338366004611601565b610e9c565b6040516101eb9796959493929190611944565b61022d610ed9565b61022d610366366004611601565b610edf565b6101c6610379366004611619565b610ef6565b6101c661038c366004611601565b610f69565b6101c661039f3660046115a6565b610fce565b6101c66103b236600461158c565b611173565b6102cf6111fd565b6103e97fa49807205ce4d355092ef5a8a18f56e8913cf4a201fbe287825b095693c2177533610a2f565b610428576040517f08c379a000000000000000000000000000000000000000000000000000000000815260040161041f90611823565b60405180910390fd5b6001546040517ff2fde38b00000000000000000000000000000000000000000000000000000000815273ffffffffffffffffffffffffffffffffffffffff9091169063f2fde38b9061047e9084906004016116b9565b600060405180830381600087803b15801561049857600080fd5b505af11580156104ac573d6000803e3d6000fd5b5050505050565b6002602081905260009182526040909120805460018201549282015460039092015473ffffffffffffffffffffffffffffffffffffffff90911692919084565b61051d7fa49807205ce4d355092ef5a8a18f56e8913cf4a201fbe287825b095693c2177533610a2f565b610553576040517f08c379a000000000000000000000000000000000000000000000000000000000815260040161041f90611823565b6001546040517f9dc29fac00000000000000000000000000000000000000000000000000000000815273ffffffffffffffffffffffffffffffffffffffff90911690639dc29fac906105ab90859085906004016116da565b600060405180830381600087803b1580156105c557600080fd5b505af11580156105d9573d6000803e3d6000fd5b505050505050565b61060b7fa49807205ce4d355092ef5a8a18f56e8913cf4a201fbe287825b095693c2177533610a2f565b610641576040517f08c379a000000000000000000000000000000000000000000000000000000000815260040161041f90611823565b61066b7fa49807205ce4d355092ef5a8a18f56e8913cf4a201fbe287825b095693c2177582610ef6565b50565b6000818152602081905260409020600201545b919050565b6000828152602081905260409020600201546106a4906102ea61123b565b6106f9576040517f08c379a000000000000000000000000000000000000000000000000000000000815260040180806020018281038252602f815260200180611997602f913960400191505060405180910390fd5b610703828261123f565b5050565b6107317fa49807205ce4d355092ef5a8a18f56e8913cf4a201fbe287825b095693c2177533610a2f565b610767576040517f08c379a000000000000000000000000000000000000000000000000000000000815260040161041f90611823565b6040805160e0810182529788526020808901978852888201968752606089019586526080890194855260a0890193845260c089019283526000998a526004908190529820965187559451600187015592516002860155905160038501555193830193909355915160058201559051600690910155565b6107e561123b565b73ffffffffffffffffffffffffffffffffffffffff168173ffffffffffffffffffffffffffffffffffffffff1614610868576040517f08c379a000000000000000000000000000000000000000000000000000000000815260040180806020018281038252602f8152602001806119f6602f913960400191505060405180910390fd5b61070382826112c2565b6003602081905260009182526040909120805460018201546002830154929093015473ffffffffffffffffffffffffffffffffffffffff90911692919084565b6108dc7fa49807205ce4d355092ef5a8a18f56e8913cf4a201fbe287825b095693c2177533610a2f565b610912576040517f08c379a000000000000000000000000000000000000000000000000000000000815260040161041f90611823565b61066b7fa49807205ce4d355092ef5a8a18f56e8913cf4a201fbe287825b095693c2177582610686565b6109667fa49807205ce4d355092ef5a8a18f56e8913cf4a201fbe287825b095693c2177533610a2f565b61099c576040517f08c379a000000000000000000000000000000000000000000000000000000000815260040161041f90611823565b61066b7f843c3a00fa95510a35f425371231fd3fe4642e719cb4595160763d6d02594b5082610686565b7fa49807205ce4d355092ef5a8a18f56e8913cf4a201fbe287825b095693c2177581565b7f843c3a00fa95510a35f425371231fd3fe4642e719cb4595160763d6d02594b5081565b6000828152602081905260408120610a269083611345565b90505b92915050565b6000828152602081905260408120610a269083611351565b6000610a737f843c3a00fa95510a35f425371231fd3fe4642e719cb4595160763d6d02594b5033610a2f565b610aa9576040517f08c379a000000000000000000000000000000000000000000000000000000000815260040161041f90611747565b73ffffffffffffffffffffffffffffffffffffffff841660009081526002602052604090206003015415610b09576040517f08c379a000000000000000000000000000000000000000000000000000000000815260040161041f9061185a565b6000838152600360208190526040909120015415610b53576040517f08c379a000000000000000000000000000000000000000000000000000000000815260040161041f906117b5565b6005546000908152600460205260409020805415610ca9578054421015610ba6576040517f08c379a000000000000000000000000000000000000000000000000000000000815260040161041f90611891565b80600101544210610be3576040517f08c379a000000000000000000000000000000000000000000000000000000000815260040161041f906118ff565b8060020154831115610c21576040517f08c379a000000000000000000000000000000000000000000000000000000000815260040161041f906117ec565b8060030154816005015484011115610c65576040517f08c379a000000000000000000000000000000000000000000000000000000000815260040161041f906118c8565b8060040154816006015484011115610ca9576040517f08c379a000000000000000000000000000000000000000000000000000000000815260040161041f9061177e565b6040805160808101825273ffffffffffffffffffffffffffffffffffffffff8088168083526020808401898152848601898152426060870190815260009485526002808552888620885181549089167fffffffffffffffffffffffff0000000000000000000000000000000000000000918216178255855160018084019190915585518385015584516003938401558f895296829052968a902089518154908a1698169790971787559351868601559151918501919091555192019190915560058501805488019055600685018054880190555492517f40c10f19000000000000000000000000000000000000000000000000000000008152919216906340c10f1990610dbc90899088906004016116da565b600060405180830381600087803b158015610dd657600080fd5b505af1158015610dea573d6000803e3d6000fd5b50505050848673ffffffffffffffffffffffffffffffffffffffff167fe49649ad7d04a14b0d2a43dae89f207c0822143ff6f88a6480e88907e4e5c5488642604051610e37929190611936565b60405180910390a350600195945050505050565b600081565b73ffffffffffffffffffffffffffffffffffffffff8216600090815260026020526040812060030154151580610a26575050600090815260036020819052604090912001541515919050565b6004602081905260009182526040909120805460018201546002830154600384015494840154600585015460069095015493959294919390919087565b60055481565b6000818152602081905260408120610a2990611373565b600082815260208190526040902060020154610f14906102ea61123b565b610868576040517f08c379a00000000000000000000000000000000000000000000000000000000081526004018080602001828103825260308152602001806119c66030913960400191505060405180910390fd5b610f937fa49807205ce4d355092ef5a8a18f56e8913cf4a201fbe287825b095693c2177533610a2f565b610fc9576040517f08c379a000000000000000000000000000000000000000000000000000000000815260040161041f90611823565b600555565b610ff87fa49807205ce4d355092ef5a8a18f56e8913cf4a201fbe287825b095693c2177533610a2f565b61102e576040517f08c379a000000000000000000000000000000000000000000000000000000000815260040161041f90611823565b600554600090815260046020526040902080541561108a57806004015481600601548301111561108a576040517f08c379a000000000000000000000000000000000000000000000000000000000815260040161041f9061177e565b600681018054830190556001546040517f40c10f1900000000000000000000000000000000000000000000000000000000815273ffffffffffffffffffffffffffffffffffffffff909116906340c10f19906110ec90869086906004016116da565b600060405180830381600087803b15801561110657600080fd5b505af115801561111a573d6000803e3d6000fd5b505050508273ffffffffffffffffffffffffffffffffffffffff167f2e8ac5177a616f2aec08c3048f5021e4e9743ece034e8d83ba5caf76688bb4758342604051611166929190611936565b60405180910390a2505050565b61119d7fa49807205ce4d355092ef5a8a18f56e8913cf4a201fbe287825b095693c2177533610a2f565b6111d3576040517f08c379a000000000000000000000000000000000000000000000000000000000815260040161041f90611823565b61066b7f843c3a00fa95510a35f425371231fd3fe4642e719cb4595160763d6d02594b5082610ef6565b60015473ffffffffffffffffffffffffffffffffffffffff1681565b6000610a268373ffffffffffffffffffffffffffffffffffffffff841661137e565b3390565b60008281526020819052604090206112579082611219565b156107035761126461123b565b73ffffffffffffffffffffffffffffffffffffffff168173ffffffffffffffffffffffffffffffffffffffff16837f2f8788117e7eff1d82e926ec794901d17c78024a50270940304540a733656f0d60405160405180910390a45050565b60008281526020819052604090206112da90826113c8565b15610703576112e761123b565b73ffffffffffffffffffffffffffffffffffffffff168173ffffffffffffffffffffffffffffffffffffffff16837ff6391f5c32d9c69d2a47ea670b442974b53935d1edc7fd64eb21e047a839171b60405160405180910390a45050565b6000610a2683836113ea565b6000610a268373ffffffffffffffffffffffffffffffffffffffff8416611468565b6000610a2982611480565b600061138a8383611468565b6113c057508154600181810184556000848152602080822090930184905584548482528286019093526040902091909155610a29565b506000610a29565b6000610a268373ffffffffffffffffffffffffffffffffffffffff8416611484565b81546000908210611446576040517f08c379a00000000000000000000000000000000000000000000000000000000081526004018080602001828103825260228152602001806119756022913960400191505060405180910390fd5b82600001828154811061145557fe5b9060005260206000200154905092915050565b60009081526001919091016020526040902054151590565b5490565b6000818152600183016020526040812054801561155e5783547fffffffffffffffffffffffffffffffffffffffffffffffffffffffffffffffff80830191908101906000908790839081106114d557fe5b90600052602060002001549050808760000184815481106114f257fe5b60009182526020808320909101929092558281526001898101909252604090209084019055865487908061152257fe5b60019003818190600052602060002001600090559055866001016000878152602001908152602001600020600090556001945050505050610a29565b6000915050610a29565b803573ffffffffffffffffffffffffffffffffffffffff8116811461068157600080fd5b60006020828403121561159d578081fd5b610a2682611568565b600080604083850312156115b8578081fd5b6115c183611568565b946020939093013593505050565b6000806000606084860312156115e3578081fd5b6115ec84611568565b95602085013595506040909401359392505050565b600060208284031215611612578081fd5b5035919050565b6000806040838503121561162b578182fd5b8235915061163b60208401611568565b90509250929050565b60008060408385031215611656578182fd5b50508035926020909101359150565b600080600080600080600080610100898b031215611681578384fd5b505086359860208801359850604088013597606081013597506080810135965060a0810135955060c0810135945060e0013592509050565b73ffffffffffffffffffffffffffffffffffffffff91909116815260200190565b73ffffffffffffffffffffffffffffffffffffffff929092168252602082015260400190565b73ffffffffffffffffffffffffffffffffffffffff94909416845260208401929092526040830152606082015260800190565b901515815260200190565b90815260200190565b60208082526015908201527f5265737472696374656420746f2063616c6c6572730000000000000000000000604082015260600190565b6020808252601e908201527f536561736f6e206d617820746f6b656e206d696e747320726561636865640000604082015260600190565b60208082526014908201527f5573657220616c726561647920636c61696d6564000000000000000000000000604082015260600190565b60208082526019908201527f496e76616c6964207573657220636c61696d20616d6f756e7400000000000000604082015260600190565b60208082526014908201527f5265737472696374656420746f2061646d696e73000000000000000000000000604082015260600190565b60208082526017908201527f4163636f756e7420616c726561647920636c61696d6564000000000000000000604082015260600190565b60208082526012908201527f536561736f6e206e6f7420737461727465640000000000000000000000000000604082015260600190565b6020808252601f908201527f536561736f6e206d617820746f6b656e20636c61696d73207265616368656400604082015260600190565b60208082526014908201527f536561736f6e20616c726561647920656e646564000000000000000000000000604082015260600190565b918252602082015260400190565b968752602087019590955260408601939093526060850191909152608084015260a083015260c082015260e0019056fe456e756d657261626c655365743a20696e646578206f7574206f6620626f756e6473416363657373436f6e74726f6c3a2073656e646572206d75737420626520616e2061646d696e20746f206772616e74416363657373436f6e74726f6c3a2073656e646572206d75737420626520616e2061646d696e20746f207265766f6b65416363657373436f6e74726f6c3a2063616e206f6e6c792072656e6f756e636520726f6c657320666f722073656c66a264697066735822122014ba327065ffa88eecace1093fe0e368830db8cd34c208bd2deee6019083347964736f6c63430007060033a49807205ce4d355092ef5a8a18f56e8913cf4a201fbe287825b095693c21775",
  "devdoc": {
    "details": "Contract to manage Precog token claims and PredictionMarkets",
    "kind": "dev",
    "methods": {
      "getRoleAdmin(bytes32)": {
        "details": "Returns the admin role that controls `role`. See {grantRole} and {revokeRole}. To change a role's admin, use {_setRoleAdmin}."
      },
      "getRoleMember(bytes32,uint256)": {
        "details": "Returns one of the accounts that have `role`. `index` must be a value between 0 and {getRoleMemberCount}, non-inclusive. Role bearers are not sorted in any particular way, and their ordering may change at any point. WARNING: When using {getRoleMember} and {getRoleMemberCount}, make sure you perform all queries on the same block. See the following https://forum.openzeppelin.com/t/iterating-over-elements-on-enumerableset-in-openzeppelin-contracts/2296[forum post] for more information."
      },
      "getRoleMemberCount(bytes32)": {
        "details": "Returns the number of accounts that have `role`. Can be used together with {getRoleMember} to enumerate all bearers of a role."
      },
      "grantRole(bytes32,address)": {
        "details": "Grants `role` to `account`. If `account` had not been already granted `role`, emits a {RoleGranted} event. Requirements: - the caller must have ``role``'s admin role."
      },
      "hasRole(bytes32,address)": {
        "details": "Returns `true` if `account` has been granted `role`."
      },
      "renounceRole(bytes32,address)": {
        "details": "Revokes `role` from the calling account. Roles are often managed via {grantRole} and {revokeRole}: this function's purpose is to provide a mechanism for accounts to lose their privileges if they are compromised (such as when a trusted device is misplaced). If the calling account had been granted `role`, emits a {RoleRevoked} event. Requirements: - the caller must be `account`."
      },
      "revokeRole(bytes32,address)": {
        "details": "Revokes `role` from `account`. If `account` had been granted `role`, emits a {RoleRevoked} event. Requirements: - the caller must have ``role``'s admin role."
      }
    },
    "title": "PrecogMasterV1",
    "version": 1
  },
  "userdoc": {
    "kind": "user",
    "methods": {},
    "version": 1
  },
  "storageLayout": {
    "storage": [
      {
        "astId": 22,
        "contract": "contracts/PrecogMasterV1.sol:PrecogMasterV1",
        "label": "_roles",
        "offset": 0,
        "slot": "0",
        "type": "t_mapping(t_bytes32,t_struct(RoleData)18_storage)"
      },
      {
        "astId": 6464,
        "contract": "contracts/PrecogMasterV1.sol:PrecogMasterV1",
        "label": "token",
        "offset": 0,
        "slot": "1",
        "type": "t_address"
      },
      {
        "astId": 6492,
        "contract": "contracts/PrecogMasterV1.sol:PrecogMasterV1",
        "label": "accountTokenClaims",
        "offset": 0,
        "slot": "2",
        "type": "t_mapping(t_address,t_struct(TokenClaim)6473_storage)"
      },
      {
        "astId": 6496,
        "contract": "contracts/PrecogMasterV1.sol:PrecogMasterV1",
        "label": "userTokenClaims",
        "offset": 0,
        "slot": "3",
        "type": "t_mapping(t_uint256,t_struct(TokenClaim)6473_storage)"
      },
      {
        "astId": 6500,
        "contract": "contracts/PrecogMasterV1.sol:PrecogMasterV1",
        "label": "miningSeasons",
        "offset": 0,
        "slot": "4",
        "type": "t_mapping(t_uint256,t_struct(MiningSeason)6488_storage)"
      },
      {
        "astId": 6502,
        "contract": "contracts/PrecogMasterV1.sol:PrecogMasterV1",
        "label": "currentSeason",
        "offset": 0,
        "slot": "5",
        "type": "t_uint256"
      }
    ],
    "types": {
      "t_address": {
        "encoding": "inplace",
        "label": "address",
        "numberOfBytes": "20"
      },
      "t_array(t_bytes32)dyn_storage": {
        "base": "t_bytes32",
        "encoding": "dynamic_array",
        "label": "bytes32[]",
        "numberOfBytes": "32"
      },
      "t_bytes32": {
        "encoding": "inplace",
        "label": "bytes32",
        "numberOfBytes": "32"
      },
      "t_mapping(t_address,t_struct(TokenClaim)6473_storage)": {
        "encoding": "mapping",
        "key": "t_address",
        "label": "mapping(address => struct PrecogMasterV1.TokenClaim)",
        "numberOfBytes": "32",
        "value": "t_struct(TokenClaim)6473_storage"
      },
      "t_mapping(t_bytes32,t_struct(RoleData)18_storage)": {
        "encoding": "mapping",
        "key": "t_bytes32",
        "label": "mapping(bytes32 => struct AccessControl.RoleData)",
        "numberOfBytes": "32",
        "value": "t_struct(RoleData)18_storage"
      },
      "t_mapping(t_bytes32,t_uint256)": {
        "encoding": "mapping",
        "key": "t_bytes32",
        "label": "mapping(bytes32 => uint256)",
        "numberOfBytes": "32",
        "value": "t_uint256"
      },
      "t_mapping(t_uint256,t_struct(MiningSeason)6488_storage)": {
        "encoding": "mapping",
        "key": "t_uint256",
        "label": "mapping(uint256 => struct PrecogMasterV1.MiningSeason)",
        "numberOfBytes": "32",
        "value": "t_struct(MiningSeason)6488_storage"
      },
      "t_mapping(t_uint256,t_struct(TokenClaim)6473_storage)": {
        "encoding": "mapping",
        "key": "t_uint256",
        "label": "mapping(uint256 => struct PrecogMasterV1.TokenClaim)",
        "numberOfBytes": "32",
        "value": "t_struct(TokenClaim)6473_storage"
      },
      "t_struct(AddressSet)3450_storage": {
        "encoding": "inplace",
        "label": "struct EnumerableSet.AddressSet",
        "members": [
          {
            "astId": 3449,
            "contract": "contracts/PrecogMasterV1.sol:PrecogMasterV1",
            "label": "_inner",
            "offset": 0,
            "slot": "0",
            "type": "t_struct(Set)3185_storage"
          }
        ],
        "numberOfBytes": "64"
      },
      "t_struct(MiningSeason)6488_storage": {
        "encoding": "inplace",
        "label": "struct PrecogMasterV1.MiningSeason",
        "members": [
          {
            "astId": 6475,
            "contract": "contracts/PrecogMasterV1.sol:PrecogMasterV1",
            "label": "startTimestamp",
            "offset": 0,
            "slot": "0",
            "type": "t_uint256"
          },
          {
            "astId": 6477,
            "contract": "contracts/PrecogMasterV1.sol:PrecogMasterV1",
            "label": "endTimestamp",
            "offset": 0,
            "slot": "1",
            "type": "t_uint256"
          },
          {
            "astId": 6479,
            "contract": "contracts/PrecogMasterV1.sol:PrecogMasterV1",
            "label": "maxUserClaim",
            "offset": 0,
            "slot": "2",
            "type": "t_uint256"
          },
          {
            "astId": 6481,
            "contract": "contracts/PrecogMasterV1.sol:PrecogMasterV1",
            "label": "maxTotalClaim",
            "offset": 0,
            "slot": "3",
            "type": "t_uint256"
          },
          {
            "astId": 6483,
            "contract": "contracts/PrecogMasterV1.sol:PrecogMasterV1",
            "label": "maxTotalMint",
            "offset": 0,
            "slot": "4",
            "type": "t_uint256"
          },
          {
            "astId": 6485,
            "contract": "contracts/PrecogMasterV1.sol:PrecogMasterV1",
            "label": "claimedAmount",
            "offset": 0,
            "slot": "5",
            "type": "t_uint256"
          },
          {
            "astId": 6487,
            "contract": "contracts/PrecogMasterV1.sol:PrecogMasterV1",
            "label": "mintedAmount",
            "offset": 0,
            "slot": "6",
            "type": "t_uint256"
          }
        ],
        "numberOfBytes": "224"
      },
      "t_struct(RoleData)18_storage": {
        "encoding": "inplace",
        "label": "struct AccessControl.RoleData",
        "members": [
          {
            "astId": 15,
            "contract": "contracts/PrecogMasterV1.sol:PrecogMasterV1",
            "label": "members",
            "offset": 0,
            "slot": "0",
            "type": "t_struct(AddressSet)3450_storage"
          },
          {
            "astId": 17,
            "contract": "contracts/PrecogMasterV1.sol:PrecogMasterV1",
            "label": "adminRole",
            "offset": 0,
            "slot": "2",
            "type": "t_bytes32"
          }
        ],
        "numberOfBytes": "96"
      },
      "t_struct(Set)3185_storage": {
        "encoding": "inplace",
        "label": "struct EnumerableSet.Set",
        "members": [
          {
            "astId": 3180,
            "contract": "contracts/PrecogMasterV1.sol:PrecogMasterV1",
            "label": "_values",
            "offset": 0,
            "slot": "0",
            "type": "t_array(t_bytes32)dyn_storage"
          },
          {
            "astId": 3184,
            "contract": "contracts/PrecogMasterV1.sol:PrecogMasterV1",
            "label": "_indexes",
            "offset": 0,
            "slot": "1",
            "type": "t_mapping(t_bytes32,t_uint256)"
          }
        ],
        "numberOfBytes": "64"
      },
      "t_struct(TokenClaim)6473_storage": {
        "encoding": "inplace",
        "label": "struct PrecogMasterV1.TokenClaim",
        "members": [
          {
            "astId": 6466,
            "contract": "contracts/PrecogMasterV1.sol:PrecogMasterV1",
            "label": "account",
            "offset": 0,
            "slot": "0",
            "type": "t_address"
          },
          {
            "astId": 6468,
            "contract": "contracts/PrecogMasterV1.sol:PrecogMasterV1",
            "label": "user",
            "offset": 0,
            "slot": "1",
            "type": "t_uint256"
          },
          {
            "astId": 6470,
            "contract": "contracts/PrecogMasterV1.sol:PrecogMasterV1",
            "label": "claimedAmount",
            "offset": 0,
            "slot": "2",
            "type": "t_uint256"
          },
          {
            "astId": 6472,
            "contract": "contracts/PrecogMasterV1.sol:PrecogMasterV1",
            "label": "claimedTimestamp",
            "offset": 0,
            "slot": "3",
            "type": "t_uint256"
          }
        ],
        "numberOfBytes": "128"
      },
      "t_uint256": {
        "encoding": "inplace",
        "label": "uint256",
        "numberOfBytes": "32"
      }
    }
  }
}