{
  "address": "0x0D512A2176737Fdb5C9973DB92fB100A234cD738",
  "abi": [
    {
      "inputs": [
        {
          "internalType": "address",
          "name": "precogToken",
          "type": "address"
        },
        {
          "internalType": "address",
          "name": "initialAdmin",
          "type": "address"
        }
      ],
      "stateMutability": "nonpayable",
      "type": "constructor"
    },
    {
      "anonymous": false,
      "inputs": [
        {
          "indexed": true,
          "internalType": "bytes32",
          "name": "role",
          "type": "bytes32"
        },
        {
          "indexed": true,
          "internalType": "bytes32",
          "name": "previousAdminRole",
          "type": "bytes32"
        },
        {
          "indexed": true,
          "internalType": "bytes32",
          "name": "newAdminRole",
          "type": "bytes32"
        }
      ],
      "name": "RoleAdminChanged",
      "type": "event"
    },
    {
      "anonymous": false,
      "inputs": [
        {
          "indexed": true,
          "internalType": "bytes32",
          "name": "role",
          "type": "bytes32"
        },
        {
          "indexed": true,
          "internalType": "address",
          "name": "account",
          "type": "address"
        },
        {
          "indexed": true,
          "internalType": "address",
          "name": "sender",
          "type": "address"
        }
      ],
      "name": "RoleGranted",
      "type": "event"
    },
    {
      "anonymous": false,
      "inputs": [
        {
          "indexed": true,
          "internalType": "bytes32",
          "name": "role",
          "type": "bytes32"
        },
        {
          "indexed": true,
          "internalType": "address",
          "name": "account",
          "type": "address"
        },
        {
          "indexed": true,
          "internalType": "address",
          "name": "sender",
          "type": "address"
        }
      ],
      "name": "RoleRevoked",
      "type": "event"
    },
    {
      "anonymous": false,
      "inputs": [
        {
          "indexed": true,
          "internalType": "address",
          "name": "account",
          "type": "address"
        },
        {
          "indexed": true,
          "internalType": "uint256",
          "name": "user",
          "type": "uint256"
        },
        {
          "indexed": false,
          "internalType": "uint256",
          "name": "amount",
          "type": "uint256"
        },
        {
          "indexed": false,
          "internalType": "uint256",
          "name": "timestamp",
          "type": "uint256"
        }
      ],
      "name": "TokensClaimed",
      "type": "event"
    },
    {
      "anonymous": false,
      "inputs": [
        {
          "indexed": true,
          "internalType": "address",
          "name": "account",
          "type": "address"
        },
        {
          "indexed": false,
          "internalType": "uint256",
          "name": "amount",
          "type": "uint256"
        },
        {
          "indexed": false,
          "internalType": "uint256",
          "name": "timestamp",
          "type": "uint256"
        }
      ],
      "name": "TokensMinted",
      "type": "event"
    },
    {
      "inputs": [],
      "name": "ADMIN_ROLE",
      "outputs": [
        {
          "internalType": "bytes32",
          "name": "",
          "type": "bytes32"
        }
      ],
      "stateMutability": "view",
      "type": "function"
    },
    {
      "inputs": [],
      "name": "CALLER_ROLE",
      "outputs": [
        {
          "internalType": "bytes32",
          "name": "",
          "type": "bytes32"
        }
      ],
      "stateMutability": "view",
      "type": "function"
    },
    {
      "inputs": [],
      "name": "DEFAULT_ADMIN_ROLE",
      "outputs": [
        {
          "internalType": "bytes32",
          "name": "",
          "type": "bytes32"
        }
      ],
      "stateMutability": "view",
      "type": "function"
    },
    {
      "inputs": [
        {
          "internalType": "address",
          "name": "",
          "type": "address"
        }
      ],
      "name": "accountTokenClaims",
      "outputs": [
        {
          "internalType": "address",
          "name": "account",
          "type": "address"
        },
        {
          "internalType": "uint256",
          "name": "user",
          "type": "uint256"
        },
        {
          "internalType": "uint256",
          "name": "claimedAmount",
          "type": "uint256"
        },
        {
          "internalType": "uint256",
          "name": "claimedTimestamp",
          "type": "uint256"
        }
      ],
      "stateMutability": "view",
      "type": "function"
    },
    {
      "inputs": [
        {
          "internalType": "address",
          "name": "account",
          "type": "address"
        }
      ],
      "name": "addAdmin",
      "outputs": [],
      "stateMutability": "nonpayable",
      "type": "function"
    },
    {
      "inputs": [
        {
          "internalType": "address",
          "name": "account",
          "type": "address"
        }
      ],
      "name": "addCaller",
      "outputs": [],
      "stateMutability": "nonpayable",
      "type": "function"
    },
    {
      "inputs": [
        {
          "internalType": "address",
          "name": "account",
          "type": "address"
        },
        {
          "internalType": "uint256",
          "name": "user",
          "type": "uint256"
        },
        {
          "internalType": "uint256",
          "name": "amount",
          "type": "uint256"
        }
      ],
      "name": "claimToken",
      "outputs": [
        {
          "internalType": "bool",
          "name": "",
          "type": "bool"
        }
      ],
      "stateMutability": "nonpayable",
      "type": "function"
    },
    {
      "inputs": [
        {
          "internalType": "uint256",
          "name": "funding",
          "type": "uint256"
        },
        {
          "internalType": "uint256",
          "name": "dustFee",
          "type": "uint256"
        },
        {
          "internalType": "uint256",
          "name": "startTimestamp",
          "type": "uint256"
        },
        {
          "internalType": "uint256",
          "name": "endTimestamp",
          "type": "uint256"
        }
      ],
      "name": "createMarket",
      "outputs": [
        {
          "internalType": "uint256",
          "name": "newMarketId",
          "type": "uint256"
        }
      ],
      "stateMutability": "nonpayable",
      "type": "function"
    },
    {
      "inputs": [],
      "name": "createdMarkets",
      "outputs": [
        {
          "internalType": "uint256",
          "name": "",
          "type": "uint256"
        }
      ],
      "stateMutability": "view",
      "type": "function"
    },
    {
      "inputs": [],
      "name": "currentSeason",
      "outputs": [
        {
          "internalType": "uint256",
          "name": "",
          "type": "uint256"
        }
      ],
      "stateMutability": "view",
      "type": "function"
    },
    {
      "inputs": [
        {
          "internalType": "bytes32",
          "name": "role",
          "type": "bytes32"
        }
      ],
      "name": "getRoleAdmin",
      "outputs": [
        {
          "internalType": "bytes32",
          "name": "",
          "type": "bytes32"
        }
      ],
      "stateMutability": "view",
      "type": "function"
    },
    {
      "inputs": [
        {
          "internalType": "bytes32",
          "name": "role",
          "type": "bytes32"
        },
        {
          "internalType": "uint256",
          "name": "index",
          "type": "uint256"
        }
      ],
      "name": "getRoleMember",
      "outputs": [
        {
          "internalType": "address",
          "name": "",
          "type": "address"
        }
      ],
      "stateMutability": "view",
      "type": "function"
    },
    {
      "inputs": [
        {
          "internalType": "bytes32",
          "name": "role",
          "type": "bytes32"
        }
      ],
      "name": "getRoleMemberCount",
      "outputs": [
        {
          "internalType": "uint256",
          "name": "",
          "type": "uint256"
        }
      ],
      "stateMutability": "view",
      "type": "function"
    },
    {
      "inputs": [
        {
          "internalType": "bytes32",
          "name": "role",
          "type": "bytes32"
        },
        {
          "internalType": "address",
          "name": "account",
          "type": "address"
        }
      ],
      "name": "grantRole",
      "outputs": [],
      "stateMutability": "nonpayable",
      "type": "function"
    },
    {
      "inputs": [
        {
          "internalType": "address",
          "name": "account",
          "type": "address"
        },
        {
          "internalType": "uint256",
          "name": "user",
          "type": "uint256"
        }
      ],
      "name": "hasClaimed",
      "outputs": [
        {
          "internalType": "bool",
          "name": "",
          "type": "bool"
        }
      ],
      "stateMutability": "view",
      "type": "function"
    },
    {
      "inputs": [
        {
          "internalType": "bytes32",
          "name": "role",
          "type": "bytes32"
        },
        {
          "internalType": "address",
          "name": "account",
          "type": "address"
        }
      ],
      "name": "hasRole",
      "outputs": [
        {
          "internalType": "bool",
          "name": "",
          "type": "bool"
        }
      ],
      "stateMutability": "view",
      "type": "function"
    },
    {
      "inputs": [
        {
          "internalType": "uint256",
          "name": "marketId",
          "type": "uint256"
        },
        {
          "internalType": "address",
          "name": "account",
          "type": "address"
        }
      ],
      "name": "marketAccountShares",
      "outputs": [
        {
          "internalType": "uint256",
          "name": "buys",
          "type": "uint256"
        },
        {
          "internalType": "uint256",
          "name": "outOne",
          "type": "uint256"
        },
        {
          "internalType": "uint256",
          "name": "outTwo",
          "type": "uint256"
        },
        {
          "internalType": "uint256",
          "name": "deposited",
          "type": "uint256"
        },
        {
          "internalType": "uint256",
          "name": "withdrawn",
          "type": "uint256"
        },
        {
          "internalType": "uint256",
          "name": "claimed",
          "type": "uint256"
        }
      ],
      "stateMutability": "view",
      "type": "function"
    },
    {
      "inputs": [
        {
          "internalType": "uint256",
          "name": "marketId",
          "type": "uint256"
        },
        {
          "internalType": "uint256",
          "name": "outcome",
          "type": "uint256"
        },
        {
          "internalType": "int128",
          "name": "sharesAmount",
          "type": "int128"
        },
        {
          "internalType": "uint256",
          "name": "maxAmountIn",
          "type": "uint256"
        }
      ],
      "name": "marketBuy",
      "outputs": [
        {
          "internalType": "int128",
          "name": "",
          "type": "int128"
        }
      ],
      "stateMutability": "nonpayable",
      "type": "function"
    },
    {
      "inputs": [
        {
          "internalType": "uint256",
          "name": "marketId",
          "type": "uint256"
        },
        {
          "internalType": "uint256",
          "name": "outcome",
          "type": "uint256"
        },
        {
          "internalType": "int128",
          "name": "sharesAmount",
          "type": "int128"
        }
      ],
      "name": "marketPrice",
      "outputs": [
        {
          "internalType": "int128",
          "name": "",
          "type": "int128"
        }
      ],
      "stateMutability": "view",
      "type": "function"
    },
    {
      "inputs": [
        {
          "internalType": "uint256",
          "name": "marketId",
          "type": "uint256"
        }
      ],
      "name": "marketSharesInfo",
      "outputs": [
        {
          "internalType": "int128",
          "name": "totalShares",
          "type": "int128"
        },
        {
          "internalType": "int128",
          "name": "qOne",
          "type": "int128"
        },
        {
          "internalType": "int128",
          "name": "qTwo",
          "type": "int128"
        },
        {
          "internalType": "int128",
          "name": "cost",
          "type": "int128"
        },
        {
          "internalType": "uint256",
          "name": "totalBuys",
          "type": "uint256"
        },
        {
          "internalType": "int128",
          "name": "beta",
          "type": "int128"
        }
      ],
      "stateMutability": "view",
      "type": "function"
    },
    {
      "inputs": [
        {
          "internalType": "uint256",
          "name": "id",
          "type": "uint256"
        }
      ],
      "name": "marketWithdraw",
      "outputs": [],
      "stateMutability": "nonpayable",
      "type": "function"
    },
    {
      "inputs": [
        {
          "internalType": "uint256",
          "name": "",
          "type": "uint256"
        }
      ],
      "name": "markets",
      "outputs": [
        {
          "internalType": "string",
          "name": "name",
          "type": "string"
        },
        {
          "internalType": "string",
          "name": "description",
          "type": "string"
        },
        {
          "internalType": "string",
          "name": "category",
          "type": "string"
        },
        {
          "internalType": "uint256",
          "name": "startTimestamp",
          "type": "uint256"
        },
        {
          "internalType": "uint256",
          "name": "endTimestamp",
          "type": "uint256"
        },
        {
          "internalType": "address",
          "name": "market",
          "type": "address"
        }
      ],
      "stateMutability": "view",
      "type": "function"
    },
    {
      "inputs": [
        {
          "internalType": "uint256",
          "name": "",
          "type": "uint256"
        }
      ],
      "name": "miningSeasons",
      "outputs": [
        {
          "internalType": "uint256",
          "name": "startTimestamp",
          "type": "uint256"
        },
        {
          "internalType": "uint256",
          "name": "endTimestamp",
          "type": "uint256"
        },
        {
          "internalType": "uint256",
          "name": "maxUserClaim",
          "type": "uint256"
        },
        {
          "internalType": "uint256",
          "name": "maxTotalClaim",
          "type": "uint256"
        },
        {
          "internalType": "uint256",
          "name": "maxTotalMint",
          "type": "uint256"
        },
        {
          "internalType": "uint256",
          "name": "claimedAmount",
          "type": "uint256"
        },
        {
          "internalType": "uint256",
          "name": "mintedAmount",
          "type": "uint256"
        }
      ],
      "stateMutability": "view",
      "type": "function"
    },
    {
      "inputs": [
        {
          "internalType": "address",
          "name": "from",
          "type": "address"
        },
        {
          "internalType": "uint256",
          "name": "amount",
          "type": "uint256"
        }
      ],
      "name": "precogBurn",
      "outputs": [],
      "stateMutability": "nonpayable",
      "type": "function"
    },
    {
      "inputs": [
        {
          "internalType": "address",
          "name": "to",
          "type": "address"
        },
        {
          "internalType": "uint256",
          "name": "amount",
          "type": "uint256"
        }
      ],
      "name": "precogMint",
      "outputs": [],
      "stateMutability": "nonpayable",
      "type": "function"
    },
    {
      "inputs": [
        {
          "internalType": "address",
          "name": "newPrecogMaster",
          "type": "address"
        }
      ],
      "name": "precogTransferOwnership",
      "outputs": [],
      "stateMutability": "nonpayable",
      "type": "function"
    },
    {
      "inputs": [
        {
          "internalType": "address",
          "name": "account",
          "type": "address"
        }
      ],
      "name": "removeAdmin",
      "outputs": [],
      "stateMutability": "nonpayable",
      "type": "function"
    },
    {
      "inputs": [
        {
          "internalType": "address",
          "name": "account",
          "type": "address"
        }
      ],
      "name": "removeCaller",
      "outputs": [],
      "stateMutability": "nonpayable",
      "type": "function"
    },
    {
      "inputs": [
        {
          "internalType": "bytes32",
          "name": "role",
          "type": "bytes32"
        },
        {
          "internalType": "address",
          "name": "account",
          "type": "address"
        }
      ],
      "name": "renounceRole",
      "outputs": [],
      "stateMutability": "nonpayable",
      "type": "function"
    },
    {
      "inputs": [
        {
          "internalType": "bytes32",
          "name": "role",
          "type": "bytes32"
        },
        {
          "internalType": "address",
          "name": "account",
          "type": "address"
        }
      ],
      "name": "revokeRole",
      "outputs": [],
      "stateMutability": "nonpayable",
      "type": "function"
    },
    {
      "inputs": [
        {
          "internalType": "address",
          "name": "ct",
          "type": "address"
        }
      ],
      "name": "setConditionalTokens",
      "outputs": [],
      "stateMutability": "nonpayable",
      "type": "function"
    },
    {
      "inputs": [
        {
          "internalType": "uint256",
          "name": "seasonIndex",
          "type": "uint256"
        },
        {
          "internalType": "uint256",
          "name": "startTimestamp",
          "type": "uint256"
        },
        {
          "internalType": "uint256",
          "name": "endTimestamp",
          "type": "uint256"
        },
        {
          "internalType": "uint256",
          "name": "maxUserClaim",
          "type": "uint256"
        },
        {
          "internalType": "uint256",
          "name": "maxTotalClaim",
          "type": "uint256"
        },
        {
          "internalType": "uint256",
          "name": "maxTotalMint",
          "type": "uint256"
        },
        {
          "internalType": "uint256",
          "name": "claimedAmount",
          "type": "uint256"
        },
        {
          "internalType": "uint256",
          "name": "mintedAmount",
          "type": "uint256"
        }
      ],
      "name": "setMiningSeason",
      "outputs": [],
      "stateMutability": "nonpayable",
      "type": "function"
    },
    {
      "inputs": [],
      "name": "token",
      "outputs": [
        {
          "internalType": "address",
          "name": "",
          "type": "address"
        }
      ],
      "stateMutability": "view",
      "type": "function"
    },
    {
      "inputs": [
        {
          "internalType": "uint256",
          "name": "seasonIndex",
          "type": "uint256"
        }
      ],
      "name": "updateCurrentSeason",
      "outputs": [],
      "stateMutability": "nonpayable",
      "type": "function"
    },
    {
      "inputs": [
        {
          "internalType": "uint256",
          "name": "id",
          "type": "uint256"
        },
        {
          "internalType": "string",
          "name": "name",
          "type": "string"
        },
        {
          "internalType": "string",
          "name": "description",
          "type": "string"
        },
        {
          "internalType": "string",
          "name": "category",
          "type": "string"
        },
        {
          "internalType": "uint256",
          "name": "startTimestamp",
          "type": "uint256"
        },
        {
          "internalType": "uint256",
          "name": "endTimestamp",
          "type": "uint256"
        }
      ],
      "name": "updateMarket",
      "outputs": [],
      "stateMutability": "nonpayable",
      "type": "function"
    },
    {
      "inputs": [
        {
          "internalType": "address",
          "name": "account",
          "type": "address"
        },
        {
          "internalType": "uint256",
          "name": "amount",
          "type": "uint256"
        },
        {
          "internalType": "uint256",
          "name": "timestamp",
          "type": "uint256"
        }
      ],
      "name": "updateTokenClaim",
      "outputs": [],
      "stateMutability": "nonpayable",
      "type": "function"
    },
    {
      "inputs": [
        {
          "internalType": "uint256",
          "name": "",
          "type": "uint256"
        }
      ],
      "name": "userTokenClaims",
      "outputs": [
        {
          "internalType": "address",
          "name": "account",
          "type": "address"
        },
        {
          "internalType": "uint256",
          "name": "user",
          "type": "uint256"
        },
        {
          "internalType": "uint256",
          "name": "claimedAmount",
          "type": "uint256"
        },
        {
          "internalType": "uint256",
          "name": "claimedTimestamp",
          "type": "uint256"
        }
      ],
      "stateMutability": "view",
      "type": "function"
    }
  ],
  "transactionHash": "0x996e4e77d5e0a4385538d804d5bc2c7730461e0c44cb5766f9cb55fa5f21eebb",
  "args": [
    "0x7779ec685Aa0bf5483B3e0c15dAf246d2d978888",
    "0x9475A4C1BF5Fc80aE079303f14B523da19619c16"
  ],
  "numDeployments": 1,
  "solcInputHash": "a9af11639b7fe6fca8d0f33a80cc9132",
  "bytecode": "0x60806040523480156200001157600080fd5b506040516200627b3803806200627b83398101604081905262000034916200023d565b62000041600082620000ba565b6200007c7f843c3a00fa95510a35f425371231fd3fe4642e719cb4595160763d6d02594b506000805160206200625b833981519152620000ca565b600180546001600160a01b0319166001600160a01b038416179055620000b26000805160206200625b83398151915282620000ba565b505062000274565b620000c682826200011c565b5050565b600082815260208190526040808220600201549051839285917fbd79b86ffe0ab8e8776151514217cd7cacd52c909f66475c3af44e129f0b00ff9190a460009182526020829052604090912060020155565b6000828152602081815260409091206200014191839062001fc862000195821b17901c565b15620000c65762000151620001b5565b6001600160a01b0316816001600160a01b0316837f2f8788117e7eff1d82e926ec794901d17c78024a50270940304540a733656f0d60405160405180910390a45050565b6000620001ac836001600160a01b038416620001b9565b90505b92915050565b3390565b6000620001c7838362000208565b620001ff57508154600181810184556000848152602080822090930184905584548482528286019093526040902091909155620001af565b506000620001af565b60009081526001919091016020526040902054151590565b80516001600160a01b03811681146200023857600080fd5b919050565b6000806040838503121562000250578182fd5b6200025b8362000220565b91506200026b6020840162000220565b90509250929050565b615fd780620002846000396000f3fe60806040523480156200001157600080fd5b5060043610620002145760003560e01c80639010d07c1162000129578063bcb3962111620000b7578063bcb3962114620004fc578063ca15c8731462000506578063d33bfe4f146200051d578063d547741f1462000534578063d6fb7d79146200054b578063de02852a1462000562578063ed29788c1462000579578063eef21cd21462000590578063f2d2303114620005a7578063fc0c546a14620005be5762000214565b80639010d07c14620003ec57806391d1485414620004125780639c6c412e1462000438578063a217fddf146200044f578063a9683f6e1462000459578063b1283e771462000484578063b293109614620004af578063b590b56f14620004c6578063b608b8f414620004d05762000214565b80633dc2724a11620001a75780633dc2724a14620003145780634836e867146200032b5780634f9451e914620003565780636354eeb3146200036d57806368304cdc14620003845780637048027514620003aa578063747293fb14620003c157806375b238fc14620003d8578063774237fc14620003e25762000214565b8063020917fe1462000219578063057971821462000232578063127e9cbd146200024957806314ae3ffc146200027b5780631785f53c1462000292578063248a9ca314620002a95780632f2ff15d14620002cf5780632fb1541b14620002e657806336568abe14620002fd575b600080fd5b620002306200022a366004620024a8565b620005c8565b005b620002306200024336600462002670565b62000674565b620002606200025a366004620024a8565b6200082e565b6040516200027294939291906200294e565b60405180910390f35b620002306200028c366004620024c5565b6200085f565b62000230620002a3366004620024a8565b62000905565b620002c0620002ba36600462002548565b6200095d565b6040516200027291906200297f565b62000230620002e036600462002561565b62000975565b62000230620002f736600462002812565b620009e3565b620002306200030e36600462002561565b62000a8e565b620002606200032536600462002548565b62000af5565b620003426200033c36600462002561565b62000b26565b604051620002729695949392919062002c7f565b620002c06200036736600462002796565b62000c01565b620002306200037e366004620024f1565b62000fda565b6200039b620003953660046200271a565b6200105a565b60405162000272919062002988565b62000230620003bb366004620024a8565b62001120565b62000230620003d2366004620024a8565b62001175565b620002c0620011ca565b620002c0620011dd565b62000403620003fd3660046200258f565b620011f0565b604051620002729190620028b5565b620004296200042336600462002561565b62001213565b60405162000272919062002974565b6200042962000449366004620024f1565b6200122d565b620002c0620015c3565b620004706200046a36600462002548565b620015c8565b604051620002729695949392919062002996565b6200049b6200049536600462002548565b6200169c565b6040516200027296959493929190620029c8565b62000429620004c0366004620024c5565b62001896565b620002c0620018d5565b620004e7620004e136600462002548565b620018db565b60405162000272979695949392919062002ca7565b620002c062001918565b620002c06200051736600462002548565b6200191e565b6200039b6200052e36600462002755565b62001937565b620002306200054536600462002561565b62001c6a565b620002306200055c36600462002548565b62001cc8565b6200023062000573366004620024c5565b62001d07565b620002306200058a36600462002548565b62001e5a565b62000230620005a1366004620024a8565b62001f08565b62000230620005b8366004620024a8565b62001f5d565b6200040362001fb9565b620005e360008051602062005f538339815191523362001213565b6200060b5760405162461bcd60e51b8152600401620006029062002b4e565b60405180910390fd5b60015460405163f2fde38b60e01b81526001600160a01b039091169063f2fde38b906200063d908490600401620028b5565b600060405180830381600087803b1580156200065857600080fd5b505af11580156200066d573d6000803e3d6000fd5b5050505050565b6200068f60008051602062005f538339815191523362001213565b620006ae5760405162461bcd60e51b8152600401620006029062002b4e565b6003548610620006d25760405162461bcd60e51b8152600401620006029062002b26565b845115620006fd5760008681526008602090815260409091208651620006fb928801906200235d565b505b8351156200072e57600086815260086020908152604090912085516200072c926001909201918701906200235d565b505b8251156200075f57600086815260086020908152604090912084516200075d926002909201918601906200235d565b505b60008215620007805750600086815260086020526040902060030182905560015b81156200079f5750600086815260086020526040902060040181905560015b80156200082557600087815260086020526040908190206005810154600382015460049283015493516339acb21f60e21b81526001600160a01b039092169363e6b2c87c93620007f0930162002c71565b600060405180830381600087803b1580156200080b57600080fd5b505af115801562000820573d6000803e3d6000fd5b505050505b50505050505050565b60056020526000908152604090208054600182015460028301546003909301546001600160a01b0390921692909184565b6200087a60008051602062005f538339815191523362001213565b620008995760405162461bcd60e51b8152600401620006029062002b4e565b600154604051632770a7eb60e21b81526001600160a01b0390911690639dc29fac90620008cd9085908590600401620028ed565b600060405180830381600087803b158015620008e857600080fd5b505af1158015620008fd573d6000803e3d6000fd5b505050505050565b6200092060008051602062005f538339815191523362001213565b6200093f5760405162461bcd60e51b8152600401620006029062002b4e565b6200095a60008051602062005f538339815191528262001c6a565b50565b6000818152602081905260409020600201545b919050565b60008281526020819052604090206002015462000996906200042362001fdf565b620009d35760405162461bcd60e51b815260040180806020018281038252602f81526020018062005ed4602f913960400191505060405180910390fd5b620009df828262001fe3565b5050565b620009fe60008051602062005f538339815191523362001213565b62000a1d5760405162461bcd60e51b8152600401620006029062002b4e565b6040805160e0810182529788526020808901978852888201968752606089019586526080890194855260a0890193845260c089019283526000998a52600790529097209551865593516001860155915160028501555160038401555160048301555160058201559051600690910155565b62000a9862001fdf565b6001600160a01b0316816001600160a01b03161462000ae95760405162461bcd60e51b815260040180806020018281038252602f81526020018062005f73602f913960400191505060405180910390fd5b620009df828262002051565b60066020526000908152604090208054600182015460028301546003909301546001600160a01b0390921692909184565b600080600080600080600354881062000b535760405162461bcd60e51b8152600401620006029062002b26565b600088815260086020526040908190206005015490516352c8b2f960e01b81526001600160a01b039091169081906352c8b2f99062000b97908b90600401620028b5565b60c06040518083038186803b15801562000bb057600080fd5b505afa15801562000bc5573d6000803e3d6000fd5b505050506040513d601f19601f8201168201806040525081019062000beb9190620027c8565b949e939d50919b50995097509095509350505050565b600062000c1e60008051602062005f038339815191523362001213565b62000c3d5760405162461bcd60e51b8152600401620006029062002a5f565b50600354600062000c5e60008051602062005f5383398151915282620011f0565b6002546001546040519293506000926001600160a01b03928316929091169062000c8890620023f2565b62000c9592919062002906565b604051809103906000f08015801562000cb2573d6000803e3d6000fd5b509050806001600160a01b0316638767d64e6040518163ffffffff1660e01b815260040160206040518083038186803b15801562000cef57600080fd5b505afa15801562000d04573d6000803e3d6000fd5b505050506040513d601f19601f8201168201806040525081019062000d2a919062002657565b1562000d4a5760405162461bcd60e51b8152600401620006029062002a2f565b6001546040516340c10f1960e01b815282916001600160a01b0316906340c10f199062000d7e9030908c90600401620028ed565b600060405180830381600087803b15801562000d9957600080fd5b505af115801562000dae573d6000803e3d6000fd5b505060015460405163095ea7b360e01b81526001600160a01b03909116925063095ea7b3915062000de890849060001990600401620028ed565b602060405180830381600087803b15801562000e0357600080fd5b505af115801562000e18573d6000803e3d6000fd5b505050506040513d601f19601f8201168201806040525081019062000e3e919062002526565b506040516347aa795760e11b81526001600160a01b03831690638f54f2ae9062000e7690869088906002908e908e9060040162002920565b600060405180830381600087803b15801562000e9157600080fd5b505af115801562000ea6573d6000803e3d6000fd5b50506040805161010081018252600a60c082019081526913995dc813585c9ad95d60b21b60e0830152815281516020818101845260008083528184019290925283518085018552600681526552414e444f4d60d01b8183015283850152606083018c9052608083018b90526001600160a01b03871660a0840152898252600881529290208151805192955090935062000f449284929101906200235d565b50602082810151805162000f5f92600185019201906200235d565b506040820151805162000f7d9160028401916020909101906200235d565b5060608201516003828101919091556080830151600483015560a090920151600590910180546001600160a01b0319166001600160a01b039092169190911790555462000fcc906001620020bf565b600355505050949350505050565b62000ff560008051602062005f538339815191523362001213565b620010145760405162461bcd60e51b8152600401620006029062002b4e565b6001600160a01b03909216600090815260056020908152604080832060028082018690556003808301889055600190920154855260069093529220908101929092550155565b60006003548410620010805760405162461bcd60e51b8152600401620006029062002b26565b600084815260086020526040908190206005015490516337def63f60e21b81526001600160a01b039091169063df7bd8fc90620010c4908690869060040162002c3e565b60206040518083038186803b158015620010dd57600080fd5b505afa158015620010f2573d6000803e3d6000fd5b505050506040513d601f19601f82011682018060405250810190620011189190620025b1565b949350505050565b6200113b60008051602062005f538339815191523362001213565b6200115a5760405162461bcd60e51b8152600401620006029062002b4e565b6200095a60008051602062005f538339815191528262000975565b6200119060008051602062005f538339815191523362001213565b620011af5760405162461bcd60e51b8152600401620006029062002b4e565b6200095a60008051602062005f038339815191528262000975565b60008051602062005f5383398151915281565b60008051602062005f0383398151915281565b60008281526020819052604081206200120a908362002118565b90505b92915050565b60008281526020819052604081206200120a908362002126565b60006200124a60008051602062005f038339815191523362001213565b620012695760405162461bcd60e51b8152600401620006029062002a5f565b6001600160a01b03841660009081526005602052604090206003015415620012a55760405162461bcd60e51b8152600401620006029062002b7c565b60008381526006602052604090206003015415620012d75760405162461bcd60e51b8152600401620006029062002ac5565b6004546000908152600760205260409020805415620013d1578054421015620013145760405162461bcd60e51b8152600401620006029062002bad565b806001015442106200133a5760405162461bcd60e51b8152600401620006029062002c10565b8060020154831115620013615760405162461bcd60e51b8152600401620006029062002af3565b6003810154600582015462001378908590620020bf565b1115620013995760405162461bcd60e51b8152600401620006029062002bd9565b60048101546006820154620013b0908590620020bf565b1115620013d15760405162461bcd60e51b8152600401620006029062002a8e565b60006040518060800160405280876001600160a01b031681526020018681526020018581526020014281525090508060056000886001600160a01b03166001600160a01b0316815260200190815260200160002060008201518160000160006101000a8154816001600160a01b0302191690836001600160a01b03160217905550602082015181600101556040820151816002015560608201518160030155905050806006600087815260200190815260200160002060008201518160000160006101000a8154816001600160a01b0302191690836001600160a01b03160217905550602082015181600101556040820151816002015560608201518160030155905050620014ee848360050154620020bf90919063ffffffff16565b60058301556006820154620015049085620020bf565b60068301556001546040516340c10f1960e01b81526001600160a01b03909116906340c10f19906200153d9089908890600401620028ed565b600060405180830381600087803b1580156200155857600080fd5b505af11580156200156d573d6000803e3d6000fd5b5050505084866001600160a01b03167fe49649ad7d04a14b0d2a43dae89f207c0822143ff6f88a6480e88907e4e5c5488642604051620015af92919062002c71565b60405180910390a350600195945050505050565b600081565b6000806000806000806003548710620015f55760405162461bcd60e51b8152600401620006029062002b26565b600087815260086020526040908190206005015481516323341a0560e01b815291516001600160a01b039091169182916323341a059160048082019260c092909190829003018186803b1580156200164c57600080fd5b505afa15801562001661573d6000803e3d6000fd5b505050506040513d601f19601f82011682018060405250810190620016879190620025d0565b949d939c50919a509850965090945092505050565b60086020908152600091825260409182902080548351601f60026000196101006001861615020190931692909204918201849004840281018401909452808452909291839190830182828015620017375780601f106200170b5761010080835404028352916020019162001737565b820191906000526020600020905b8154815290600101906020018083116200171957829003601f168201915b505050505090806001018054600181600116156101000203166002900480601f016020809104026020016040519081016040528092919081815260200182805460018160011615610100020316600290048015620017d95780601f10620017ad57610100808354040283529160200191620017d9565b820191906000526020600020905b815481529060010190602001808311620017bb57829003601f168201915b50505060028085018054604080516020601f60001961010060018716150201909416959095049283018590048502810185019091528181529596959450909250908301828280156200186f5780601f1062001843576101008083540402835291602001916200186f565b820191906000526020600020905b8154815290600101906020018083116200185157829003601f168201915b5050505060038301546004840154600590940154929390929091506001600160a01b031686565b6001600160a01b0382166000908152600560205260408120600301541515806200120a5750506000908152600660205260409020600301541515919050565b60035481565b6007602052600090815260409020805460018201546002830154600384015460048501546005860154600690960154949593949293919290919087565b60045481565b60008181526020819052604081206200120d906200213d565b60006200195460008051602062005f038339815191523362001213565b620019735760405162461bcd60e51b8152600401620006029062002a5f565b6003548510620019975760405162461bcd60e51b8152600401620006029062002b26565b60015460405163bb35783b60e01b81526001600160a01b039091169063bb35783b90620019cd90339030908790600401620028c9565b600060405180830381600087803b158015620019e857600080fd5b505af1158015620019fd573d6000803e3d6000fd5b50506001546040516370a0823160e01b8152600093506001600160a01b0390911691506370a082319062001a36903090600401620028b5565b60206040518083038186803b15801562001a4f57600080fd5b505afa15801562001a64573d6000803e3d6000fd5b505050506040513d601f19601f8201168201806040525081019062001a8a919062002657565b600087815260086020526040808220600501549051636571930360e11b815292935090916001600160a01b039091169063cae326069062001ad49089908990339060040162002c4f565b602060405180830381600087803b15801562001aef57600080fd5b505af115801562001b04573d6000803e3d6000fd5b505050506040513d601f19601f8201168201806040525081019062001b2a9190620025b1565b6001546040516370a0823160e01b81529192506000916001600160a01b03909116906370a082319062001b62903090600401620028b5565b60206040518083038186803b15801562001b7b57600080fd5b505afa15801562001b90573d6000803e3d6000fd5b505050506040513d601f19601f8201168201806040525081019062001bb6919062002657565b9050600062001bc684836200214a565b6001549091506001600160a01b031663a9059cbb3362001be789856200214a565b6040518363ffffffff1660e01b815260040162001c06929190620028ed565b602060405180830381600087803b15801562001c2157600080fd5b505af115801562001c36573d6000803e3d6000fd5b505050506040513d601f19601f8201168201806040525081019062001c5c919062002526565b509198975050505050505050565b60008281526020819052604090206002015462001c8b906200042362001fdf565b62000ae95760405162461bcd60e51b815260040180806020018281038252603081526020018062005f236030913960400191505060405180910390fd5b62001ce360008051602062005f538339815191523362001213565b62001d025760405162461bcd60e51b8152600401620006029062002b4e565b600455565b62001d2260008051602062005f538339815191523362001213565b62001d415760405162461bcd60e51b8152600401620006029062002b4e565b600454600090815260076020526040902080541562001d92576004810154600682015462001d71908490620020bf565b111562001d925760405162461bcd60e51b8152600401620006029062002a8e565b600681015462001da39083620020bf565b60068201556001546040516340c10f1960e01b81526001600160a01b03909116906340c10f199062001ddc9086908690600401620028ed565b600060405180830381600087803b15801562001df757600080fd5b505af115801562001e0c573d6000803e3d6000fd5b50505050826001600160a01b03167f2e8ac5177a616f2aec08c3048f5021e4e9743ece034e8d83ba5caf76688bb475834260405162001e4d92919062002c71565b60405180910390a2505050565b62001e7560008051602062005f538339815191523362001213565b62001e945760405162461bcd60e51b8152600401620006029062002b4e565b600354811062001eb85760405162461bcd60e51b8152600401620006029062002b26565b600081815260086020526040808220600501548151633ccfd60b60e01b815291516001600160a01b0390911692633ccfd60b926004808201939182900301818387803b1580156200065857600080fd5b62001f2360008051602062005f538339815191523362001213565b62001f425760405162461bcd60e51b8152600401620006029062002b4e565b6200095a60008051602062005f038339815191528262001c6a565b62001f7860008051602062005f538339815191523362001213565b62001f975760405162461bcd60e51b8152600401620006029062002b4e565b600280546001600160a01b0319166001600160a01b0392909216919091179055565b6001546001600160a01b031681565b60006200120a836001600160a01b038416620021a8565b3390565b600082815260208190526040902062001ffd908262001fc8565b15620009df576200200d62001fdf565b6001600160a01b0316816001600160a01b0316837f2f8788117e7eff1d82e926ec794901d17c78024a50270940304540a733656f0d60405160405180910390a45050565b60008281526020819052604090206200206b9082620021f7565b15620009df576200207b62001fdf565b6001600160a01b0316816001600160a01b0316837ff6391f5c32d9c69d2a47ea670b442974b53935d1edc7fd64eb21e047a839171b60405160405180910390a45050565b6000828201838110156200120a576040805162461bcd60e51b815260206004820152601b60248201527a536166654d6174683a206164646974696f6e206f766572666c6f7760281b604482015290519081900360640190fd5b60006200120a83836200220e565b60006200120a836001600160a01b03841662002275565b60006200120d826200228d565b600082821115620021a2576040805162461bcd60e51b815260206004820152601e60248201527f536166654d6174683a207375627472616374696f6e206f766572666c6f770000604482015290519081900360640190fd5b50900390565b6000620021b6838362002275565b620021ee575081546001818101845560008481526020808220909301849055845484825282860190935260409020919091556200120d565b5060006200120d565b60006200120a836001600160a01b03841662002291565b81546000908210620022525760405162461bcd60e51b815260040180806020018281038252602281526020018062005eb26022913960400191505060405180910390fd5b8260000182815481106200226257fe5b9060005260206000200154905092915050565b60009081526001919091016020526040902054151590565b5490565b60008181526001830160205260408120548015620023525783546000198083019190810190600090879083908110620022c657fe5b9060005260206000200154905080876000018481548110620022e457fe5b6000918252602080832090910192909255828152600189810190925260409020908401905586548790806200231557fe5b600190038181906000526020600020016000905590558660010160008781526020019081526020016000206000905560019450505050506200120d565b60009150506200120d565b828054600181600116156101000203166002900490600052602060002090601f016020900481019282620023955760008555620023e0565b82601f10620023b057805160ff1916838001178555620023e0565b82800160010185558215620023e0579182015b82811115620023e0578251825591602001919060010190620023c3565b50620023ee92915062002400565b5090565b6131ca8062002ce883390190565b5b80821115620023ee576000815560010162002401565b80356001600160a01b03811681146200097057600080fd5b600082601f83011262002440578081fd5b813567ffffffffffffffff808211156200245657fe5b604051601f8301601f1916810160200182811182821017156200247557fe5b6040528281528483016020018610156200248d578384fd5b82602086016020830137918201602001929092529392505050565b600060208284031215620024ba578081fd5b6200120a8262002417565b60008060408385031215620024d8578081fd5b620024e38362002417565b946020939093013593505050565b60008060006060848603121562002506578081fd5b620025118462002417565b95602085013595506040909401359392505050565b60006020828403121562002538578081fd5b815180151581146200120a578182fd5b6000602082840312156200255a578081fd5b5035919050565b6000806040838503121562002574578182fd5b82359150620025866020840162002417565b90509250929050565b60008060408385031215620025a2578182fd5b50508035926020909101359150565b600060208284031215620025c3578081fd5b81516200120a8162002cd7565b60008060008060008060c08789031215620025e9578182fd5b8651620025f68162002cd7565b6020880151909650620026098162002cd7565b60408801519095506200261c8162002cd7565b60608801519094506200262f8162002cd7565b608088015160a08901519194509250620026498162002cd7565b809150509295509295509295565b60006020828403121562002669578081fd5b5051919050565b60008060008060008060c0878903121562002689578182fd5b86359550602087013567ffffffffffffffff80821115620026a8578384fd5b620026b68a838b016200242f565b96506040890135915080821115620026cc578384fd5b620026da8a838b016200242f565b95506060890135915080821115620026f0578384fd5b50620026ff89828a016200242f565b9350506080870135915060a087013590509295509295509295565b6000806000606084860312156200272f578081fd5b833592506020840135915060408401356200274a8162002cd7565b809150509250925092565b600080600080608085870312156200276b578182fd5b84359350602085013592506040850135620027868162002cd7565b9396929550929360600135925050565b60008060008060808587031215620027ac578182fd5b5050823594602084013594506040840135936060013592509050565b60008060008060008060c08789031215620027e1578384fd5b865195506020870151945060408701519350606087015192506080870151915060a087015190509295509295509295565b600080600080600080600080610100898b0312156200282f578586fd5b505086359860208801359850604088013597606081013597506080810135965060a0810135955060c0810135945060e0013592509050565b60008151808452815b818110156200288e5760208185018101518683018201520162002870565b81811115620028a05782602083870101525b50601f01601f19169290920160200192915050565b6001600160a01b0391909116815260200190565b6001600160a01b039384168152919092166020820152604081019190915260600190565b6001600160a01b03929092168252602082015260400190565b6001600160a01b0392831681529116602082015260400190565b6001600160a01b03959095168552602085019390935260408401919091526060830152608082015260a00190565b6001600160a01b0394909416845260208401929092526040830152606082015260800190565b901515815260200190565b90815260200190565b600f9190910b815260200190565b600f96870b815294860b602086015292850b604085015290840b6060840152608083015290910b60a082015260c00190565b600060c08252620029dd60c083018962002867565b8281036020840152620029f1818962002867565b9050828103604084015262002a07818862002867565b6060840196909652505060808101929092526001600160a01b031660a0909101529392505050565b602080825260169082015275125b9d985b1a590818dc99585d1959081b585c9ad95d60521b604082015260600190565b6020808252601590820152745265737472696374656420746f2063616c6c65727360581b604082015260600190565b6020808252601e908201527f536561736f6e206d617820746f6b656e206d696e747320726561636865640000604082015260600190565b602080825260149082015273155cd95c88185b1c9958591e4818db185a5b595960621b604082015260600190565b602080825260199082015278125b9d985b1a59081d5cd95c8818db185a5b48185b5bdd5b9d603a1b604082015260600190565b6020808252600e908201526d125b9d985b1a59081b585c9ad95d60921b604082015260600190565b6020808252601490820152735265737472696374656420746f2061646d696e7360601b604082015260600190565b6020808252601790820152761058d8dbdd5b9d08185b1c9958591e4818db185a5b5959604a1b604082015260600190565b60208082526012908201527114d9585cdbdb881b9bdd081cdd185c9d195960721b604082015260600190565b6020808252601f908201527f536561736f6e206d617820746f6b656e20636c61696d73207265616368656400604082015260600190565b60208082526014908201527314d9585cdbdb88185b1c9958591e48195b99195960621b604082015260600190565b918252600f0b602082015260400190565b928352600f9190910b60208301526001600160a01b0316604082015260600190565b918252602082015260400190565b958652602086019490945260408501929092526060840152608083015260a082015260c00190565b968752602087019590955260408601939093526060850191909152608084015260a083015260c082015260e00190565b80600f0b81146200095a57600080fdfe60806040523480156200001157600080fd5b50604051620031ca380380620031ca833981810160405260408110156200003757600080fd5b50805160209091015160006200004c620000c8565b600080546001600160a01b0319166001600160a01b0383169081178255604051929350917f8be0079c531659141344cd1fd0a4f28419497f9722a3daafe3b4186f6b6457e0908290a350600b80546001600160a01b039384166001600160a01b03199182161790915560048054929093169116179055620000cc565b3390565b6130ee80620000dc6000396000f3fe608060405234801561001057600080fd5b506004361061012d5760003560e01c80638f54f2ae116100b35780638f54f2ae14610313578063a85adeab14610351578063bc197c8114610359578063c50313311461049d578063cae32606146104a5578063df7bd8fc146104da578063e6b2c87c14610500578063e6fd48bc14610523578063f23a6e611461052b578063f2fde38b146105be578063f76da1d9146105e4578063fc0c546a1461060a5761012d565b806301ffc9a71461013257806313faede61461016d57806323341a051461018c57806333194471146101cf5780633ccfd60b146101f357806352c8b2f9146101fd578063715018a6146102565780638062dd931461025e5780638767d64e146102845780638d0a6cff1461029e5780638da5cb5b1461030b575b600080fd5b6101596004803603602081101561014857600080fd5b50356001600160e01b031916610612565b604080519115158252519081900360200190f35b61017561061a565b60408051600f9290920b8252519081900360200190f35b6101946106be565b60408051600f97880b815295870b602087015293860b8585015291850b6060850152608084015290920b60a082015290519081900360c00190f35b6101d7610781565b604080516001600160a01b039092168252519081900360200190f35b6101fb610790565b005b6102236004803603602081101561021357600080fd5b50356001600160a01b0316610aaa565b604080519687526020870195909552858501939093526060850191909152608084015260a0830152519081900360c00190f35b6101fb610adf565b6101756004803603604081101561027457600080fd5b5080359060200135600f0b610b8b565b61028c610d36565b60408051918252519081900360200190f35b6102bb600480360360208110156102b457600080fd5b5035610d3c565b60408051602080825283518183015283519192839290830191858101910280838360005b838110156102f75781810151838201526020016102df565b505050509050019250505060405180910390f35b6101d7610e0c565b6101fb600480360360a081101561032957600080fd5b506001600160a01b038135169060208101359060408101359060608101359060800135610e1b565b61028c6111e9565b610480600480360360a081101561036f57600080fd5b6001600160a01b038235811692602081013590911691810190606081016040820135600160201b8111156103a257600080fd5b8201836020820111156103b457600080fd5b803590602001918460208302840111600160201b831117156103d557600080fd5b919390929091602081019035600160201b8111156103f257600080fd5b82018360208201111561040457600080fd5b803590602001918460208302840111600160201b8311171561042557600080fd5b919390929091602081019035600160201b81111561044257600080fd5b82018360208201111561045457600080fd5b803590602001918460018302840111600160201b8311171561047557600080fd5b5090925090506111ef565b604080516001600160e01b03199092168252519081900360200190f35b61028c611203565b610175600480360360608110156104bb57600080fd5b508035906020810135600f0b90604001356001600160a01b0316611209565b610175600480360360408110156104f057600080fd5b5080359060200135600f0b611a83565b6101fb6004803603604081101561051657600080fd5b5080359060200135611a9e565b61028c611b0b565b610480600480360360a081101561054157600080fd5b6001600160a01b03823581169260208101359091169160408201359160608101359181019060a081016080820135600160201b81111561058057600080fd5b82018360208201111561059257600080fd5b803590602001918460018302840111600160201b831117156105b357600080fd5b509092509050611b11565b6101fb600480360360208110156105d457600080fd5b50356001600160a01b0316611b23565b610175600480360360408110156105fa57600080fd5b5080359060200135600f0b611c25565b6101d7611cff565b60005b919050565b600b54600090600160a01b900460ff16151560011461063857600080fd5b6000805b60065481101561069f576106958261069061068b6007858154811061065d57fe5b6000918252602090912060028204015460085460019092166010026101000a9004600f90810b91900b611d0e565b611d61565b611db4565b915060010161063c565b506008546106b890600f0b6106b383611de7565b611e21565b91505090565b600080600080600080600160078054905010156106ec57506000945084935083925082915081905080610779565b60095460078054600160801b909204600f0b9160009061070857fe5b90600052602060002090600291828204019190066010029054906101000a9004600f0b600760018154811061073957fe5b60009182526020909120600282040154600954600a54600854959b5093995060019092166010026101000a9004600f90810b975090810b95509093500b90505b909192939495565b600b546001600160a01b031690565b600b54600160a01b900460ff1615156001146107ab57600080fd5b6107b3611e57565b6001600160a01b03166107c4610e0c565b6001600160a01b03161461080d576040805162461bcd60e51b81526020600482018190526024820152600080516020613047833981519152604482015290519081900360640190fd5b600b546003546040805163dd34de6760e01b81526004810192909252516001600160a01b039092169163dd34de6791602480820192602092909190829003018186803b15801561085c57600080fd5b505afa158015610870573d6000803e3d6000fd5b505050506040513d602081101561088657600080fd5b50516108d7576040805162461bcd60e51b815260206004820152601b60248201527a13585c9ad95d081b9959591cc81d1bc81899481c995cdbdb1d9959602a1b604482015290519081900360640190fd5b600060065467ffffffffffffffff811180156108f257600080fd5b5060405190808252806020026020018201604052801561091c578160200160208202803683370190505b50905060005b60065481101561095057806001901b82828151811061093d57fe5b6020908102919091010152600101610922565b50600b5460048054600354604051626dc0df60e21b81526001600160a01b039283169381018481526000602483018190526044830184905260806064840190815288516084850152885195909716966301b7037c969591949389939260a490910190602080860191028083838a5b838110156109d65781810151838201526020016109be565b5050505090500195505050505050600060405180830381600087803b1580156109fe57600080fd5b505af1158015610a12573d6000803e3d6000fd5b505060048054604080516370a0823160e01b8152309381019390935251610aa794503393506001600160a01b03909116916370a08231916024808301926020929190829003018186803b158015610a6857600080fd5b505afa158015610a7c573d6000803e3d6000fd5b505050506040513d6020811015610a9257600080fd5b50516004546001600160a01b03169190611e5b565b50565b600560208190526000918252604090912080546001820154600283015460038401546004850154949095015492949193909286565b610ae7611e57565b6001600160a01b0316610af8610e0c565b6001600160a01b031614610b41576040805162461bcd60e51b81526020600482018190526024820152600080516020613047833981519152604482015290519081900360640190fd5b600080546040516001600160a01b03909116907f8be0079c531659141344cd1fd0a4f28419497f9722a3daafe3b4186f6b6457e0908390a3600080546001600160a01b0319169055565b600080600060078054905067ffffffffffffffff81118015610bac57600080fd5b50604051908082528060200260200182016040528015610bd6578160200160208202803683370190505b50600954909150600160801b9004600f0b60005b600654811015610cc2576001811b871615610c6957610c3860078281548110610c0f57fe5b90600052602060002090600291828204019190066010029054906101000a9004600f0b87611db4565b838281518110610c4457fe5b6020026020010190600f0b9081600f0b81525050610c628287611db4565b9150610cba565b60078181548110610c7657fe5b90600052602060002090600291828204019190066010029054906101000a9004600f0b838281518110610ca557fe5b6020026020010190600f0b9081600f0b815250505b600101610bea565b50600854600090610cde908390600160801b9004600f0b611e21565b905060005b600654811015610d1b57610d118561069061068b878581518110610d0357fe5b602002602001015186611d0e565b9450600101610ce3565b50610d29816106b386611de7565b9450505050505b92915050565b60065481565b6006546060906001901b600019018281186000610d5882611eb2565b60010167ffffffffffffffff81118015610d7157600080fd5b50604051908082528060200260200182016040528015610d9b578160200160208202803683370190505b5090506000600190508582600081518110610db257fe5b60200260200101818152505060005b600654811015610e01576001811b841615610df957806001901b838381518110610de757fe5b60209081029190910101526001909101905b600101610dc1565b509095945050505050565b6000546001600160a01b031690565b610e23611e57565b6001600160a01b0316610e34610e0c565b6001600160a01b031614610e7d576040805162461bcd60e51b81526020600482018190526024820152600080516020613047833981519152604482015290519081900360640190fd5b600b54600160a01b900460ff1615610ed2576040805162461bcd60e51b8152602060048201526013602482015272105b1c9958591e481a5b9a5d1a585b1a5e9959606a1b604482015290519081900360640190fd5b60008111610f21576040805162461bcd60e51b815260206004820152601760248201527610d85b9b9bdd081a185d99480c081bdd995c9c9bdd5b99604a1b604482015290519081900360640190fd5b600b546040805163365bb9d560e21b81526001600160a01b03888116600483015260248201889052604482018790529151919092169163d96ee75491606480830192600092919082900301818387803b158015610f7d57600080fd5b505af1158015610f91573d6000803e3d6000fd5b5050600b5460408051634296357160e11b81526001600160a01b038a81166004830152602482018a905260448201899052915191909216935063852c6ae292506064808301926020929190829003018186803b158015610ff057600080fd5b505afa158015611004573d6000803e3d6000fd5b505050506040513d602081101561101a57600080fd5b5051600355600454611037906001600160a01b0316333085611ecc565b6006839055600061104784611f2c565b600454909150600090611063906001600160a01b031685611f4a565b9050600061107384612710611fcd565b905061108b81611086856106b387611de7565b611d0e565b600860106101000a8154816001600160801b030219169083600f0b6001600160801b031602179055506110d36110c18385611e21565b600854600160801b9004600f0b611e21565b60088054600f9290920b6001600160801b03166001600160801b031990921691909117905560005b8681101561116b5760078054600180820183556000929092527fa66cc928b5edb82af9bd49922954155ab7b0942694bea4ce44661d9a8736c688600282040180549183166010026101000a6001600160801b0381810219909316600f88900b9390931602919091179055016110fb565b50600b805460ff60a01b1916600160a01b1790556111898284611e21565b600960106101000a8154816001600160801b030219169083600f0b6001600160801b031602179055506111ba61061a565b60098054600f9290920b6001600160801b03166001600160801b03199092169190911790555050505050505050565b60025481565b63bc197c8160e01b98975050505050505050565b60035481565b6000611213610e0c565b6001600160a01b0316611224611e57565b6001600160a01b0316148061124857503061123d611e57565b6001600160a01b0316145b6112835760405162461bcd60e51b81526004018080602001828103825260288152602001806130676028913960400191505060405180910390fd5b600084116112ca576040805162461bcd60e51b815260206004820152600f60248201526e496e76616c6964206f7574636f6d6560881b604482015290519081900360640190fd5b600b546003546040805163dd34de6760e01b81526004810192909252516001600160a01b039092169163dd34de6791602480820192602092909190829003018186803b15801561131957600080fd5b505afa15801561132d573d6000803e3d6000fd5b505050506040513d602081101561134357600080fd5b505115611391576040805162461bcd60e51b815260206004820152601760248201527613585c9ad95d08185b1c9958591e481c995cdbdb1d9959604a1b604482015290519081900360640190fd5b60005b600654811015611476576001811b85161561146e576113e2600782815481106113b957fe5b90600052602060002090600291828204019190066010029054906101000a9004600f0b85611db4565b600782815481106113ef57fe5b90600052602060002090600291828204019190066010026101000a8154816001600160801b030219169083600f0b6001600160801b03160217905550611444600960109054906101000a9004600f0b85611db4565b600960106101000a8154816001600160801b030219169083600f0b6001600160801b031602179055505b600101611394565b5060095460085461149b91600160801b90819004600f90810b9291909104900b611e21565b60088054600f9290920b6001600160801b03166001600160801b0319909216919091179055600a805460010190556000805b6006548110156114f8576114ee8261069061068b6007858154811061065d57fe5b91506001016114cd565b5060085460009061150f90600f0b6106b384611de7565b600954909150611523908290600f0b612004565b600980546001600160801b0319166001600160801b03600f85900b1617905560045490935060009061155e906001600160a01b031685612037565b60045490915060009061157a906001600160a01b031688612037565b600b54600480546003546040805163856296f760e01b815260009481018590526024810192909252604482018e90525194955091936001600160a01b03938416936339dd753093921691849163856296f791606480820192602092909190829003018186803b1580156115ec57600080fd5b505afa158015611600573d6000803e3d6000fd5b505050506040513d602081101561161657600080fd5b5051604080516001600160e01b031960e086901b1681526001600160a01b0390931660048401526024830191909152516044808301926020929190829003018186803b15801561166557600080fd5b505afa158015611679573d6000803e3d6000fd5b505050506040513d602081101561168f57600080fd5b505160048054604080516323b872dd60e01b8152339381019390935230602484015260448301879052519293506001600160a01b0316916323b872dd916064808201926020929091908290030181600087803b1580156116ee57600080fd5b505af1158015611702573d6000803e3d6000fd5b505050506040513d602081101561171857600080fd5b5051611767576040805162461bcd60e51b81526020600482015260196024820152784572726f72207472616e7366657272696e6720746f6b656e7360381b604482015290519081900360640190fd5b600b5460408051627eeac760e11b815230600482015260248101849052905184926001600160a01b03169162fdd58e916044808301926020929190829003018186803b1580156117b657600080fd5b505afa1580156117ca573d6000803e3d6000fd5b505050506040513d60208110156117e057600080fd5b5051101561195957600454600b546001600160a01b039182169163095ea7b3911661180b838c612037565b6040518363ffffffff1660e01b815260040180836001600160a01b0316815260200182815260200192505050602060405180830381600087803b15801561185157600080fd5b505af1158015611865573d6000803e3d6000fd5b505050506040513d602081101561187b57600080fd5b5050600b546004546003546001600160a01b03928316926372ce42759216906000906118a68e610d3c565b876040518663ffffffff1660e01b815260040180866001600160a01b0316815260200185815260200184815260200180602001838152602001828103825284818151815260200191508051906020019060200280838360005b838110156119175781810151838201526020016118ff565b505050509050019650505050505050600060405180830381600087803b15801561194057600080fd5b505af1158015611954573d6000803e3d6000fd5b505050505b600b5460408051637921219560e11b81523060048201526001600160a01b038a81166024830152604482018590526064820186905260a06084830152600060a48301819052925193169263f242432a9260c48084019391929182900301818387803b1580156119c757600080fd5b505af11580156119db573d6000803e3d6000fd5b505050506001600160a01b038716600090815260056020526040902080546001908101909155891415611a2a576001600160a01b03871660009081526005602052604090206001018054830190555b8860021415611a55576001600160a01b03871660009081526005602052604090206002018054830190555b50506001600160a01b0390941660009081526005602052604090206003018054909401909355509392505050565b600954600090600f0b611a968484610b8b565b039392505050565b611aa6611e57565b6001600160a01b0316611ab7610e0c565b6001600160a01b031614611b00576040805162461bcd60e51b81526020600482018190526024820152600080516020613047833981519152604482015290519081900360640190fd5b600191909155600255565b60015481565b63f23a6e6160e01b9695505050505050565b611b2b611e57565b6001600160a01b0316611b3c610e0c565b6001600160a01b031614611b85576040805162461bcd60e51b81526020600482018190526024820152600080516020613047833981519152604482015290519081900360640190fd5b6001600160a01b038116611bca5760405162461bcd60e51b81526004018080602001828103825260268152602001806130216026913960400191505060405180910390fd5b600080546040516001600160a01b03808516939216917f8be0079c531659141344cd1fd0a4f28419497f9722a3daafe3b4186f6b6457e091a3600080546001600160a01b0319166001600160a01b0392909216919091179055565b600b54600090600160a01b900460ff161515600114611c4357600080fd5b60015415611c9757600154421015611c97576040805162461bcd60e51b815260206004820152601260248201527113585c9ad95d081b9bdd081cdd185c9d195960721b604482015290519081900360640190fd5b60025415611ced57600254421115611ced576040805162461bcd60e51b815260206004820152601460248201527313585c9ad95d08185b1c9958591e48195b99195960621b604482015290519081900360640190fd5b611cf8838333611209565b9392505050565b6004546001600160a01b031681565b600081600f0b60001415611d2157600080fd5b600082600f0b604085600f0b901b81611d3657fe5b05905060016001607f1b03198112801590611d58575060016001607f1b038113155b611cf857600080fd5b6000600160461b82600f0b12611d7657600080fd5b6001600160461b031982600f0b1215611d9157506000610615565b610d30608083600f0b700171547652b82fe1777d0ffda0d23a7d1202901d6120b2565b6000600f83810b9083900b0160016001607f1b03198112801590611d58575060016001607f1b03811315611cf857600080fd5b60008082600f0b13611df857600080fd5b6080611e0383612b20565b600f0b6fb17217f7d1cf79abc9e3b39803f2f6af02901c9050919050565b6000600f83810b9083900b0260401d60016001607f1b03198112801590611d58575060016001607f1b03811315611cf857600080fd5b3390565b604080516001600160a01b038416602482015260448082018490528251808303909101815260649091019091526020810180516001600160e01b031663a9059cbb60e01b179052611ead908490612bef565b505050565b60005b811561061557600019820190911690600101611eb5565b604080516001600160a01b0380861660248301528416604482015260648082018490528251808303909101815260849091019091526020810180516001600160e01b03166323b872dd60e01b179052611f26908590612bef565b50505050565b6000677fffffffffffffff821115611f4357600080fd5b5060401b90565b600080836001600160a01b031663313ce5676040518163ffffffff1660e01b815260040160206040518083038186803b158015611f8657600080fd5b505afa158015611f9a573d6000803e3d6000fd5b505050506040513d6020811015611fb057600080fd5b505160ff169050611fc583600a83900a611fcd565b949350505050565b600081611fd957600080fd5b6000611fe58484612ca0565b905060016001607f1b036001600160801b0382161115611cf857600080fd5b6000600f82810b9084900b0360016001607f1b03198112801590611d58575060016001607f1b03811315611cf857600080fd5b600080836001600160a01b031663313ce5676040518163ffffffff1660e01b815260040160206040518083038186803b15801561207357600080fd5b505afa158015612087573d6000803e3d6000fd5b505050506040513d602081101561209d57600080fd5b505160ff169050611fc583600a83900a612de9565b6000600160461b82600f0b126120c757600080fd5b6001600160461b031982600f0b12156120e257506000610615565b6001607f1b60006001603f1b8416600f0b13156121105770016a09e667f3bcc908b2fb1366ea957d3e0260801c5b6000836001603e1b16600f0b1315612139577001306fe0a31b7152de8d5a46305c85edec0260801c5b6000836001603d1b16600f0b1315612162577001172b83c7d517adcdf7c8c50eb14a791f0260801c5b6000836001603c1b16600f0b131561218b5770010b5586cf9890f6298b92b71842a983630260801c5b6000836001603b1b16600f0b13156121b4577001059b0d31585743ae7c548eb68ca417fd0260801c5b6000836001603a1b16600f0b13156121dd57700102c9a3e778060ee6f7caca4f7a29bde80260801c5b600083600160391b16600f0b13156122065770010163da9fb33356d84a66ae336dcdfa3f0260801c5b600083600160381b16600f0b131561222f57700100b1afa5abcbed6129ab13ec11dc95430260801c5b600083600160371b16600f0b13156122585770010058c86da1c09ea1ff19d294cf2f679b0260801c5b600083600160361b16600f0b1315612281577001002c605e2e8cec506d21bfc89a23a00f0260801c5b600083600160351b16600f0b13156122aa57700100162f3904051fa128bca9c55c31e5df0260801c5b600083600160341b16600f0b13156122d3577001000b175effdc76ba38e31671ca9397250260801c5b600083600160331b16600f0b13156122fc57700100058ba01fb9f96d6cacd4b180917c3d0260801c5b600083600160321b16600f0b13156123255770010002c5cc37da9491d0985c348c68e7b30260801c5b600083600160311b16600f0b131561234e577001000162e525ee054754457d59952920260260801c5b600083600160301b16600f0b13156123775770010000b17255775c040618bf4a4ade83fc0260801c5b6000836001602f1b16600f0b13156123a0577001000058b91b5bc9ae2eed81e9b7d4cfab0260801c5b6000836001602e1b16600f0b13156123c957700100002c5c89d5ec6ca4d7c8acc017b7c90260801c5b6000836001602d1b16600f0b13156123f25770010000162e43f4f831060e02d839a9d16d0260801c5b6000836001602c1b16600f0b131561241b57700100000b1721bcfc99d9f890ea069117630260801c5b6000836001602b1b16600f0b13156124445770010000058b90cf1e6d97f9ca14dbcc16280260801c5b6000836001602a1b16600f0b131561246d577001000002c5c863b73f016468f6bac5ca2b0260801c5b600083600160291b16600f0b131561249657700100000162e430e5a18f6119e3c02282a50260801c5b600083600160281b16600f0b13156124bf577001000000b1721835514b86e6d96efd1bfe0260801c5b60008364800000000016600f0b13156124e957700100000058b90c0b48c6be5df846c5b2ef0260801c5b60008364400000000016600f0b13156125135770010000002c5c8601cc6b9e94213c72737a0260801c5b60008364200000000016600f0b131561253d577001000000162e42fff037df38aa2b219f060260801c5b60008364100000000016600f0b13156125675770010000000b17217fba9c739aa5819f44f90260801c5b60008364080000000016600f0b1315612591577001000000058b90bfcdee5acd3c1cedc8230260801c5b60008364040000000016600f0b13156125bb57700100000002c5c85fe31f35a6a30da1be500260801c5b60008364020000000016600f0b13156125e55770010000000162e42ff0999ce3541b9fffcf0260801c5b600083600160201b16600f0b131561260e57700100000000b17217f80f4ef5aadda455540260801c5b600083638000000016600f0b13156126375770010000000058b90bfbf8479bd5a81b51ad0260801c5b600083634000000016600f0b1315612660577001000000002c5c85fdf84bd62ae30a74cc0260801c5b600083632000000016600f0b131561268957700100000000162e42fefb2fed257559bdaa0260801c5b600083631000000016600f0b13156126b2577001000000000b17217f7d5a7716bba4a9ae0260801c5b600083630800000016600f0b13156126db57700100000000058b90bfbe9ddbac5e109cce0260801c5b600083630400000016600f0b13156127045770010000000002c5c85fdf4b15de6f17eb0d0260801c5b600083630200000016600f0b131561272d577001000000000162e42fefa494f1478fde050260801c5b600083630100000016600f0b13156127565770010000000000b17217f7d20cf927c8e94c0260801c5b6000836280000016600f0b131561277e577001000000000058b90bfbe8f71cb4e4b33d0260801c5b6000836240000016600f0b13156127a657700100000000002c5c85fdf477b662b269450260801c5b6000836220000016600f0b13156127ce5770010000000000162e42fefa3ae53369388c0260801c5b6000836210000016600f0b13156127f657700100000000000b17217f7d1d351a389d400260801c5b6000836208000016600f0b131561281e5770010000000000058b90bfbe8e8b2d3d4ede0260801c5b6000836204000016600f0b1315612846577001000000000002c5c85fdf4741bea6e77e0260801c5b6000836202000016600f0b131561286e57700100000000000162e42fefa39fe95583c20260801c5b6000836201000016600f0b1315612896577001000000000000b17217f7d1cfb72b45e10260801c5b60008361800016600f0b13156128bd57700100000000000058b90bfbe8e7cc35c3f00260801c5b60008361400016600f0b13156128e45770010000000000002c5c85fdf473e242ea380260801c5b60008361200016600f0b131561290b577001000000000000162e42fefa39f02b772c0260801c5b60008361100016600f0b13156129325770010000000000000b17217f7d1cf7d83c1a0260801c5b60008361080016600f0b1315612959577001000000000000058b90bfbe8e7bdcbe2e0260801c5b60008361040016600f0b131561298057700100000000000002c5c85fdf473dea871f0260801c5b60008361020016600f0b13156129a75770010000000000000162e42fefa39ef44d910260801c5b60008361010016600f0b13156129ce57700100000000000000b17217f7d1cf79e9490260801c5b600083608016600f0b13156129f45770010000000000000058b90bfbe8e7bce5440260801c5b600083604016600f0b1315612a1a577001000000000000002c5c85fdf473de6eca0260801c5b600083602016600f0b1315612a4057700100000000000000162e42fefa39ef366f0260801c5b600083601016600f0b1315612a66577001000000000000000b17217f7d1cf79afa0260801c5b600083600816600f0b1315612a8c57700100000000000000058b90bfbe8e7bcd6d0260801c5b600083600416600f0b1315612ab25770010000000000000002c5c85fdf473de6b20260801c5b600083600216600f0b1315612ad8577001000000000000000162e42fefa39ef3580260801c5b600083600116600f0b1315612afe5770010000000000000000b17217f7d1cf79ab0260801c5b600f83810b60401d603f03900b1c60016001607f1b03811115610d3057600080fd5b60008082600f0b13612b3157600080fd5b6000600f83900b600160401b8112612b4b576040918201911d5b600160201b8112612b5e576020918201911d5b620100008112612b70576010918201911d5b6101008112612b81576008918201911d5b60108112612b91576004918201911d5b60048112612ba1576002918201911d5b60028112612bb0576001820191505b603f19820160401b600f85900b607f8490031b6001603f1b5b6000811315610e015790800260ff81901c8281029390930192607f011c9060011d612bc9565b6000612c44826040518060400160405280602081526020017f5361666545524332303a206c6f772d6c6576656c2063616c6c206661696c6564815250856001600160a01b0316612e519092919063ffffffff16565b805190915015611ead57808060200190516020811015612c6357600080fd5b5051611ead5760405162461bcd60e51b815260040180806020018281038252602a81526020018061308f602a913960400191505060405180910390fd5b600081612cac57600080fd5b60006001600160c01b038411612cd15782604085901b81612cc957fe5b049050612dd5565b60c084811c600160201b8110612ce9576020918201911c5b620100008110612cfb576010918201911c5b6101008110612d0c576008918201911c5b60108110612d1c576004918201911c5b60048110612d2c576002918201911c5b60028110612d3b576001820191505b60bf820360018603901c6001018260ff0387901b81612d5657fe5b0492506001600160801b03831115612d6d57600080fd5b608085901c83026001600160801b038616840260c088901c604089901b82811015612d99576001820391505b608084901b92900382811015612db0576001820391505b829003608084901c8214612dc057fe5b888181612dc957fe5b04870196505050505050505b6001600160801b03811115611cf857600080fd5b600081612df857506000610d30565b600083600f0b1215612e0957600080fd5b600f83900b6001600160801b038316810260401c90608084901c026001600160c01b03811115612e3857600080fd5b60401b8119811115612e4957600080fd5b019392505050565b6060611fc5848460008585612e6585612f76565b612eb6576040805162461bcd60e51b815260206004820152601d60248201527f416464726573733a2063616c6c20746f206e6f6e2d636f6e7472616374000000604482015290519081900360640190fd5b600080866001600160a01b031685876040518082805190602001908083835b60208310612ef45780518252601f199092019160209182019101612ed5565b6001836020036101000a03801982511681845116808217855250505050505090500191505060006040518083038185875af1925050503d8060008114612f56576040519150601f19603f3d011682016040523d82523d6000602084013e612f5b565b606091505b5091509150612f6b828286612f7c565b979650505050505050565b3b151590565b60608315612f8b575081611cf8565b825115612f9b5782518084602001fd5b8160405162461bcd60e51b81526004018080602001828103825283818151815260200191508051906020019080838360005b83811015612fe5578181015183820152602001612fcd565b50505050905090810190601f1680156130125780820380516001836020036101000a031916815260200191505b509250505060405180910390fdfe4f776e61626c653a206e6577206f776e657220697320746865207a65726f20616464726573734f776e61626c653a2063616c6c6572206973206e6f7420746865206f776e65724f776e61626c653a2063616c6c6572206973206e6f7420746865206f776e6572206f722073656c665361666545524332303a204552433230206f7065726174696f6e20646964206e6f742073756363656564a2646970667358221220743b7331692cfd83b8e75fb25827790276b7667c435040d6c505e7c33055007164736f6c63430007060033456e756d657261626c655365743a20696e646578206f7574206f6620626f756e6473416363657373436f6e74726f6c3a2073656e646572206d75737420626520616e2061646d696e20746f206772616e74843c3a00fa95510a35f425371231fd3fe4642e719cb4595160763d6d02594b50416363657373436f6e74726f6c3a2073656e646572206d75737420626520616e2061646d696e20746f207265766f6b65a49807205ce4d355092ef5a8a18f56e8913cf4a201fbe287825b095693c21775416363657373436f6e74726f6c3a2063616e206f6e6c792072656e6f756e636520726f6c657320666f722073656c66a26469706673582212204be5e3a3f725ee4a29c70406f4bb36aeb813347cb4a8dc0d01258bd23d0d3d1964736f6c63430007060033a49807205ce4d355092ef5a8a18f56e8913cf4a201fbe287825b095693c21775",
  "devdoc": {
    "details": "Contract to manage Precog token claims and PredictionMarkets",
    "kind": "dev",
    "methods": {
      "getRoleAdmin(bytes32)": {
        "details": "Returns the admin role that controls `role`. See {grantRole} and {revokeRole}. To change a role's admin, use {_setRoleAdmin}."
      },
      "getRoleMember(bytes32,uint256)": {
        "details": "Returns one of the accounts that have `role`. `index` must be a value between 0 and {getRoleMemberCount}, non-inclusive. Role bearers are not sorted in any particular way, and their ordering may change at any point. WARNING: When using {getRoleMember} and {getRoleMemberCount}, make sure you perform all queries on the same block. See the following https://forum.openzeppelin.com/t/iterating-over-elements-on-enumerableset-in-openzeppelin-contracts/2296[forum post] for more information."
      },
      "getRoleMemberCount(bytes32)": {
        "details": "Returns the number of accounts that have `role`. Can be used together with {getRoleMember} to enumerate all bearers of a role."
      },
      "grantRole(bytes32,address)": {
        "details": "Grants `role` to `account`. If `account` had not been already granted `role`, emits a {RoleGranted} event. Requirements: - the caller must have ``role``'s admin role."
      },
      "hasRole(bytes32,address)": {
        "details": "Returns `true` if `account` has been granted `role`."
      },
      "renounceRole(bytes32,address)": {
        "details": "Revokes `role` from the calling account. Roles are often managed via {grantRole} and {revokeRole}: this function's purpose is to provide a mechanism for accounts to lose their privileges if they are compromised (such as when a trusted device is misplaced). If the calling account had been granted `role`, emits a {RoleRevoked} event. Requirements: - the caller must be `account`."
      },
      "revokeRole(bytes32,address)": {
        "details": "Revokes `role` from `account`. If `account` had been granted `role`, emits a {RoleRevoked} event. Requirements: - the caller must have ``role``'s admin role."
      }
    },
    "title": "PrecogMasterV2",
    "version": 1
  },
  "userdoc": {
    "kind": "user",
    "methods": {},
    "version": 1
  },
  "storageLayout": {
    "storage": [
      {
        "astId": 22,
        "contract": "contracts/PrecogMasterV2.sol:PrecogMasterV2",
        "label": "_roles",
        "offset": 0,
        "slot": "0",
        "type": "t_mapping(t_bytes32,t_struct(RoleData)18_storage)"
      },
      {
        "astId": 9701,
        "contract": "contracts/PrecogMasterV2.sol:PrecogMasterV2",
        "label": "token",
        "offset": 0,
        "slot": "1",
        "type": "t_address"
      },
      {
        "astId": 9703,
        "contract": "contracts/PrecogMasterV2.sol:PrecogMasterV2",
        "label": "conditionalTokens",
        "offset": 0,
        "slot": "2",
        "type": "t_address"
      },
      {
        "astId": 9705,
        "contract": "contracts/PrecogMasterV2.sol:PrecogMasterV2",
        "label": "createdMarkets",
        "offset": 0,
        "slot": "3",
        "type": "t_uint256"
      },
      {
        "astId": 9707,
        "contract": "contracts/PrecogMasterV2.sol:PrecogMasterV2",
        "label": "currentSeason",
        "offset": 0,
        "slot": "4",
        "type": "t_uint256"
      },
      {
        "astId": 9711,
        "contract": "contracts/PrecogMasterV2.sol:PrecogMasterV2",
        "label": "accountTokenClaims",
        "offset": 0,
        "slot": "5",
        "type": "t_mapping(t_address,t_struct(TokenClaim)9671_storage)"
      },
      {
        "astId": 9715,
        "contract": "contracts/PrecogMasterV2.sol:PrecogMasterV2",
        "label": "userTokenClaims",
        "offset": 0,
        "slot": "6",
        "type": "t_mapping(t_uint256,t_struct(TokenClaim)9671_storage)"
      },
      {
        "astId": 9719,
        "contract": "contracts/PrecogMasterV2.sol:PrecogMasterV2",
        "label": "miningSeasons",
        "offset": 0,
        "slot": "7",
        "type": "t_mapping(t_uint256,t_struct(MiningSeason)9686_storage)"
      },
      {
        "astId": 9723,
        "contract": "contracts/PrecogMasterV2.sol:PrecogMasterV2",
        "label": "markets",
        "offset": 0,
        "slot": "8",
        "type": "t_mapping(t_uint256,t_struct(PredictionMarket)9699_storage)"
      }
    ],
    "types": {
      "t_address": {
        "encoding": "inplace",
        "label": "address",
        "numberOfBytes": "20"
      },
      "t_array(t_bytes32)dyn_storage": {
        "base": "t_bytes32",
        "encoding": "dynamic_array",
        "label": "bytes32[]",
        "numberOfBytes": "32"
      },
      "t_bytes32": {
        "encoding": "inplace",
        "label": "bytes32",
        "numberOfBytes": "32"
      },
      "t_mapping(t_address,t_struct(TokenClaim)9671_storage)": {
        "encoding": "mapping",
        "key": "t_address",
        "label": "mapping(address => struct PrecogMasterV2.TokenClaim)",
        "numberOfBytes": "32",
        "value": "t_struct(TokenClaim)9671_storage"
      },
      "t_mapping(t_bytes32,t_struct(RoleData)18_storage)": {
        "encoding": "mapping",
        "key": "t_bytes32",
        "label": "mapping(bytes32 => struct AccessControl.RoleData)",
        "numberOfBytes": "32",
        "value": "t_struct(RoleData)18_storage"
      },
      "t_mapping(t_bytes32,t_uint256)": {
        "encoding": "mapping",
        "key": "t_bytes32",
        "label": "mapping(bytes32 => uint256)",
        "numberOfBytes": "32",
        "value": "t_uint256"
      },
      "t_mapping(t_uint256,t_struct(MiningSeason)9686_storage)": {
        "encoding": "mapping",
        "key": "t_uint256",
        "label": "mapping(uint256 => struct PrecogMasterV2.MiningSeason)",
        "numberOfBytes": "32",
        "value": "t_struct(MiningSeason)9686_storage"
      },
      "t_mapping(t_uint256,t_struct(PredictionMarket)9699_storage)": {
        "encoding": "mapping",
        "key": "t_uint256",
        "label": "mapping(uint256 => struct PrecogMasterV2.PredictionMarket)",
        "numberOfBytes": "32",
        "value": "t_struct(PredictionMarket)9699_storage"
      },
      "t_mapping(t_uint256,t_struct(TokenClaim)9671_storage)": {
        "encoding": "mapping",
        "key": "t_uint256",
        "label": "mapping(uint256 => struct PrecogMasterV2.TokenClaim)",
        "numberOfBytes": "32",
        "value": "t_struct(TokenClaim)9671_storage"
      },
      "t_string_storage": {
        "encoding": "bytes",
        "label": "string",
        "numberOfBytes": "32"
      },
      "t_struct(AddressSet)3450_storage": {
        "encoding": "inplace",
        "label": "struct EnumerableSet.AddressSet",
        "members": [
          {
            "astId": 3449,
            "contract": "contracts/PrecogMasterV2.sol:PrecogMasterV2",
            "label": "_inner",
            "offset": 0,
            "slot": "0",
            "type": "t_struct(Set)3185_storage"
          }
        ],
        "numberOfBytes": "64"
      },
      "t_struct(MiningSeason)9686_storage": {
        "encoding": "inplace",
        "label": "struct PrecogMasterV2.MiningSeason",
        "members": [
          {
            "astId": 9673,
            "contract": "contracts/PrecogMasterV2.sol:PrecogMasterV2",
            "label": "startTimestamp",
            "offset": 0,
            "slot": "0",
            "type": "t_uint256"
          },
          {
            "astId": 9675,
            "contract": "contracts/PrecogMasterV2.sol:PrecogMasterV2",
            "label": "endTimestamp",
            "offset": 0,
            "slot": "1",
            "type": "t_uint256"
          },
          {
            "astId": 9677,
            "contract": "contracts/PrecogMasterV2.sol:PrecogMasterV2",
            "label": "maxUserClaim",
            "offset": 0,
            "slot": "2",
            "type": "t_uint256"
          },
          {
            "astId": 9679,
            "contract": "contracts/PrecogMasterV2.sol:PrecogMasterV2",
            "label": "maxTotalClaim",
            "offset": 0,
            "slot": "3",
            "type": "t_uint256"
          },
          {
            "astId": 9681,
            "contract": "contracts/PrecogMasterV2.sol:PrecogMasterV2",
            "label": "maxTotalMint",
            "offset": 0,
            "slot": "4",
            "type": "t_uint256"
          },
          {
            "astId": 9683,
            "contract": "contracts/PrecogMasterV2.sol:PrecogMasterV2",
            "label": "claimedAmount",
            "offset": 0,
            "slot": "5",
            "type": "t_uint256"
          },
          {
            "astId": 9685,
            "contract": "contracts/PrecogMasterV2.sol:PrecogMasterV2",
            "label": "mintedAmount",
            "offset": 0,
            "slot": "6",
            "type": "t_uint256"
          }
        ],
        "numberOfBytes": "224"
      },
      "t_struct(PredictionMarket)9699_storage": {
        "encoding": "inplace",
        "label": "struct PrecogMasterV2.PredictionMarket",
        "members": [
          {
            "astId": 9688,
            "contract": "contracts/PrecogMasterV2.sol:PrecogMasterV2",
            "label": "name",
            "offset": 0,
            "slot": "0",
            "type": "t_string_storage"
          },
          {
            "astId": 9690,
            "contract": "contracts/PrecogMasterV2.sol:PrecogMasterV2",
            "label": "description",
            "offset": 0,
            "slot": "1",
            "type": "t_string_storage"
          },
          {
            "astId": 9692,
            "contract": "contracts/PrecogMasterV2.sol:PrecogMasterV2",
            "label": "category",
            "offset": 0,
            "slot": "2",
            "type": "t_string_storage"
          },
          {
            "astId": 9694,
            "contract": "contracts/PrecogMasterV2.sol:PrecogMasterV2",
            "label": "startTimestamp",
            "offset": 0,
            "slot": "3",
            "type": "t_uint256"
          },
          {
            "astId": 9696,
            "contract": "contracts/PrecogMasterV2.sol:PrecogMasterV2",
            "label": "endTimestamp",
            "offset": 0,
            "slot": "4",
            "type": "t_uint256"
          },
          {
            "astId": 9698,
            "contract": "contracts/PrecogMasterV2.sol:PrecogMasterV2",
            "label": "market",
            "offset": 0,
            "slot": "5",
            "type": "t_address"
          }
        ],
        "numberOfBytes": "192"
      },
      "t_struct(RoleData)18_storage": {
        "encoding": "inplace",
        "label": "struct AccessControl.RoleData",
        "members": [
          {
            "astId": 15,
            "contract": "contracts/PrecogMasterV2.sol:PrecogMasterV2",
            "label": "members",
            "offset": 0,
            "slot": "0",
            "type": "t_struct(AddressSet)3450_storage"
          },
          {
            "astId": 17,
            "contract": "contracts/PrecogMasterV2.sol:PrecogMasterV2",
            "label": "adminRole",
            "offset": 0,
            "slot": "2",
            "type": "t_bytes32"
          }
        ],
        "numberOfBytes": "96"
      },
      "t_struct(Set)3185_storage": {
        "encoding": "inplace",
        "label": "struct EnumerableSet.Set",
        "members": [
          {
            "astId": 3180,
            "contract": "contracts/PrecogMasterV2.sol:PrecogMasterV2",
            "label": "_values",
            "offset": 0,
            "slot": "0",
            "type": "t_array(t_bytes32)dyn_storage"
          },
          {
            "astId": 3184,
            "contract": "contracts/PrecogMasterV2.sol:PrecogMasterV2",
            "label": "_indexes",
            "offset": 0,
            "slot": "1",
            "type": "t_mapping(t_bytes32,t_uint256)"
          }
        ],
        "numberOfBytes": "64"
      },
      "t_struct(TokenClaim)9671_storage": {
        "encoding": "inplace",
        "label": "struct PrecogMasterV2.TokenClaim",
        "members": [
          {
            "astId": 9664,
            "contract": "contracts/PrecogMasterV2.sol:PrecogMasterV2",
            "label": "account",
            "offset": 0,
            "slot": "0",
            "type": "t_address"
          },
          {
            "astId": 9666,
            "contract": "contracts/PrecogMasterV2.sol:PrecogMasterV2",
            "label": "user",
            "offset": 0,
            "slot": "1",
            "type": "t_uint256"
          },
          {
            "astId": 9668,
            "contract": "contracts/PrecogMasterV2.sol:PrecogMasterV2",
            "label": "claimedAmount",
            "offset": 0,
            "slot": "2",
            "type": "t_uint256"
          },
          {
            "astId": 9670,
            "contract": "contracts/PrecogMasterV2.sol:PrecogMasterV2",
            "label": "claimedTimestamp",
            "offset": 0,
            "slot": "3",
            "type": "t_uint256"
          }
        ],
        "numberOfBytes": "128"
      },
      "t_uint256": {
        "encoding": "inplace",
        "label": "uint256",
        "numberOfBytes": "32"
      }
    }
  }
}