{
  "address": "0x77AeDD00A0F057aEb140319920BcD555D8273A62",
  "abi": [
    {
      "anonymous": false,
      "inputs": [
        {
          "indexed": true,
          "internalType": "address",
          "name": "previousOwner",
          "type": "address"
        },
        {
          "indexed": true,
          "internalType": "address",
          "name": "newOwner",
          "type": "address"
        }
      ],
      "name": "OwnershipTransferred",
      "type": "event"
    },
    {
      "inputs": [
        {
          "internalType": "uint256",
          "name": "_outcome",
          "type": "uint256"
        },
        {
          "internalType": "int128",
          "name": "_amount",
          "type": "int128"
        },
        {
          "internalType": "address",
          "name": "_account",
          "type": "address"
        }
      ],
      "name": "_buy",
      "outputs": [
        {
          "internalType": "int128",
          "name": "_price",
          "type": "int128"
        }
      ],
      "stateMutability": "nonpayable",
      "type": "function"
    },
    {
      "inputs": [
        {
          "internalType": "address",
          "name": "",
          "type": "address"
        }
      ],
      "name": "accountShares",
      "outputs": [
        {
          "internalType": "uint256",
          "name": "buys",
          "type": "uint256"
        },
        {
          "internalType": "uint256",
          "name": "outcomeOneBalance",
          "type": "uint256"
        },
        {
          "internalType": "uint256",
          "name": "outcomeTwoBalance",
          "type": "uint256"
        },
        {
          "internalType": "uint256",
          "name": "deposited",
          "type": "uint256"
        },
        {
          "internalType": "uint256",
          "name": "withdrawn",
          "type": "uint256"
        },
        {
          "internalType": "uint256",
          "name": "claimed",
          "type": "uint256"
        }
      ],
      "stateMutability": "view",
      "type": "function"
    },
    {
      "inputs": [
        {
          "internalType": "uint256",
          "name": "_outcome",
          "type": "uint256"
        },
        {
          "internalType": "int128",
          "name": "_amount",
          "type": "int128"
        }
      ],
      "name": "buy",
      "outputs": [
        {
          "internalType": "int128",
          "name": "_price",
          "type": "int128"
        }
      ],
      "stateMutability": "nonpayable",
      "type": "function"
    },
    {
      "inputs": [],
      "name": "condition",
      "outputs": [
        {
          "internalType": "bytes32",
          "name": "",
          "type": "bytes32"
        }
      ],
      "stateMutability": "view",
      "type": "function"
    },
    {
      "inputs": [],
      "name": "cost",
      "outputs": [
        {
          "internalType": "int128",
          "name": "",
          "type": "int128"
        }
      ],
      "stateMutability": "view",
      "type": "function"
    },
    {
      "inputs": [
        {
          "internalType": "uint256",
          "name": "_outcome",
          "type": "uint256"
        },
        {
          "internalType": "int128",
          "name": "_amount",
          "type": "int128"
        }
      ],
      "name": "cost_after_buy",
      "outputs": [
        {
          "internalType": "int128",
          "name": "",
          "type": "int128"
        }
      ],
      "stateMutability": "view",
      "type": "function"
    },
    {
      "inputs": [],
      "name": "endTimestamp",
      "outputs": [
        {
          "internalType": "uint256",
          "name": "",
          "type": "uint256"
        }
      ],
      "stateMutability": "view",
      "type": "function"
    },
    {
      "inputs": [],
      "name": "getConditionalTokens",
      "outputs": [
        {
          "internalType": "address",
          "name": "",
          "type": "address"
        }
      ],
      "stateMutability": "view",
      "type": "function"
    },
    {
      "inputs": [],
      "name": "getMarketInfo",
      "outputs": [
        {
          "internalType": "int128",
          "name": "",
          "type": "int128"
        },
        {
          "internalType": "int128",
          "name": "",
          "type": "int128"
        },
        {
          "internalType": "int128",
          "name": "",
          "type": "int128"
        },
        {
          "internalType": "int128",
          "name": "",
          "type": "int128"
        },
        {
          "internalType": "uint256",
          "name": "",
          "type": "uint256"
        },
        {
          "internalType": "int128",
          "name": "",
          "type": "int128"
        }
      ],
      "stateMutability": "view",
      "type": "function"
    },
    {
      "inputs": [
        {
          "internalType": "uint256",
          "name": "_outcome",
          "type": "uint256"
        }
      ],
      "name": "getPositionAndDustPositions",
      "outputs": [
        {
          "internalType": "uint256[]",
          "name": "",
          "type": "uint256[]"
        }
      ],
      "stateMutability": "view",
      "type": "function"
    },
    {
      "inputs": [
        {
          "internalType": "address",
          "name": "_token",
          "type": "address"
        },
        {
          "internalType": "uint256",
          "name": "_amount",
          "type": "uint256"
        }
      ],
      "name": "getTokenEth",
      "outputs": [
        {
          "internalType": "int128",
          "name": "",
          "type": "int128"
        }
      ],
      "stateMutability": "view",
      "type": "function"
    },
    {
      "inputs": [
        {
          "internalType": "address",
          "name": "_token",
          "type": "address"
        },
        {
          "internalType": "int128",
          "name": "_amount",
          "type": "int128"
        }
      ],
      "name": "getTokenWei",
      "outputs": [
        {
          "internalType": "uint256",
          "name": "",
          "type": "uint256"
        }
      ],
      "stateMutability": "view",
      "type": "function"
    },
    {
      "inputs": [
        {
          "internalType": "address",
          "name": "_ct",
          "type": "address"
        },
        {
          "internalType": "address",
          "name": "_token",
          "type": "address"
        }
      ],
      "name": "initialize",
      "outputs": [],
      "stateMutability": "nonpayable",
      "type": "function"
    },
    {
      "inputs": [],
      "name": "numOutcomes",
      "outputs": [
        {
          "internalType": "uint256",
          "name": "",
          "type": "uint256"
        }
      ],
      "stateMutability": "view",
      "type": "function"
    },
    {
      "inputs": [
        {
          "internalType": "address",
          "name": "operator",
          "type": "address"
        },
        {
          "internalType": "address",
          "name": "from",
          "type": "address"
        },
        {
          "internalType": "uint256[]",
          "name": "ids",
          "type": "uint256[]"
        },
        {
          "internalType": "uint256[]",
          "name": "values",
          "type": "uint256[]"
        },
        {
          "internalType": "bytes",
          "name": "data",
          "type": "bytes"
        }
      ],
      "name": "onERC1155BatchReceived",
      "outputs": [
        {
          "internalType": "bytes4",
          "name": "",
          "type": "bytes4"
        }
      ],
      "stateMutability": "pure",
      "type": "function"
    },
    {
      "inputs": [
        {
          "internalType": "address",
          "name": "operator",
          "type": "address"
        },
        {
          "internalType": "address",
          "name": "from",
          "type": "address"
        },
        {
          "internalType": "uint256",
          "name": "id",
          "type": "uint256"
        },
        {
          "internalType": "uint256",
          "name": "value",
          "type": "uint256"
        },
        {
          "internalType": "bytes",
          "name": "data",
          "type": "bytes"
        }
      ],
      "name": "onERC1155Received",
      "outputs": [
        {
          "internalType": "bytes4",
          "name": "",
          "type": "bytes4"
        }
      ],
      "stateMutability": "pure",
      "type": "function"
    },
    {
      "inputs": [],
      "name": "owner",
      "outputs": [
        {
          "internalType": "address",
          "name": "",
          "type": "address"
        }
      ],
      "stateMutability": "view",
      "type": "function"
    },
    {
      "inputs": [
        {
          "internalType": "uint256",
          "name": "_outcome",
          "type": "uint256"
        },
        {
          "internalType": "int128",
          "name": "_amount",
          "type": "int128"
        }
      ],
      "name": "price",
      "outputs": [
        {
          "internalType": "int128",
          "name": "",
          "type": "int128"
        }
      ],
      "stateMutability": "view",
      "type": "function"
    },
    {
      "inputs": [
        {
          "internalType": "address",
          "name": "_oracle",
          "type": "address"
        },
        {
          "internalType": "bytes32",
          "name": "_questionId",
          "type": "bytes32"
        },
        {
          "internalType": "uint256",
          "name": "_numOutcomes",
          "type": "uint256"
        },
        {
          "internalType": "uint256",
          "name": "_subsidy",
          "type": "uint256"
        },
        {
          "internalType": "uint256",
          "name": "_overround",
          "type": "uint256"
        }
      ],
      "name": "setup",
      "outputs": [],
      "stateMutability": "nonpayable",
      "type": "function"
    },
    {
      "inputs": [],
      "name": "startTimestamp",
      "outputs": [
        {
          "internalType": "uint256",
          "name": "",
          "type": "uint256"
        }
      ],
      "stateMutability": "view",
      "type": "function"
    },
    {
      "inputs": [
        {
          "internalType": "bytes4",
          "name": "interfaceId",
          "type": "bytes4"
        }
      ],
      "name": "supportsInterface",
      "outputs": [
        {
          "internalType": "bool",
          "name": "",
          "type": "bool"
        }
      ],
      "stateMutability": "pure",
      "type": "function"
    },
    {
      "inputs": [],
      "name": "token",
      "outputs": [
        {
          "internalType": "address",
          "name": "",
          "type": "address"
        }
      ],
      "stateMutability": "view",
      "type": "function"
    },
    {
      "inputs": [
        {
          "internalType": "address",
          "name": "newOwner",
          "type": "address"
        }
      ],
      "name": "transferOwnership",
      "outputs": [],
      "stateMutability": "nonpayable",
      "type": "function"
    },
    {
      "inputs": [
        {
          "internalType": "uint256",
          "name": "_startTimestamp",
          "type": "uint256"
        },
        {
          "internalType": "uint256",
          "name": "_endTimestamp",
          "type": "uint256"
        }
      ],
      "name": "updateDates",
      "outputs": [],
      "stateMutability": "nonpayable",
      "type": "function"
    },
    {
      "inputs": [],
      "name": "withdraw",
      "outputs": [],
      "stateMutability": "nonpayable",
      "type": "function"
    }
  ],
  "transactionHash": "0xe7fe5207eeac24d2b345b462d5965c8b1885f0cac1378353f6ddf25d3bebbb69",
  "args": [],
  "numDeployments": 1,
  "solcInputHash": "d7766fb282b6899cf35a32964330c3f8",
  "bytecode": "0x608060405234801561001057600080fd5b50613592806100206000396000f3fe608060405234801561001057600080fd5b50600436106101a35760003560e01c80638da5cb5b116100ee578063df7bd8fc11610097578063f23a6e6111610071578063f23a6e6114610658578063f2fde38b146106ed578063f76da1d914610713578063fc0c546a14610739576101a3565b8063df7bd8fc14610607578063e6b2c87c1461062d578063e6fd48bc14610650576101a3565b8063bc197c81116100c8578063bc197c8114610468578063c5031331146105ca578063cae32606146105d2576101a3565b80638da5cb5b1461041a5780638f54f2ae14610422578063a85adeab14610460576101a3565b806340088ee1116101505780638062dd931161012a5780638062dd931461037f5780638767d64e146103a55780638d0a6cff146103ad576101a3565b806340088ee1146102b7578063485cc955146102f857806352c8b2f914610326576101a3565b806323341a051161018157806323341a051461024657806333194471146102895780633ccfd60b146102ad576101a3565b806301ffc9a7146101a857806310f8625a146101fb57806313faede61461023e575b600080fd5b6101e7600480360360208110156101be57600080fd5b50357fffffffff0000000000000000000000000000000000000000000000000000000016610741565b604080519115158252519081900360200190f35b6102276004803603604081101561021157600080fd5b506001600160a01b038135169060200135610749565b60408051600f9290920b8252519081900360200190f35b6102276107ce565b61024e610872565b60408051600f97880b815295870b602087015293860b8585015291850b6060850152608084015290920b60a082015290519081900360c00190f35b610291610935565b604080516001600160a01b039092168252519081900360200190f35b6102b5610944565b005b6102e6600480360360408110156102cd57600080fd5b506001600160a01b038135169060200135600f0b610c7c565b60408051918252519081900360200190f35b6102b56004803603604081101561030e57600080fd5b506001600160a01b0381358116916020013516610cf7565b61034c6004803603602081101561033c57600080fd5b50356001600160a01b0316610d9e565b604080519687526020870195909552858501939093526060850191909152608084015260a0830152519081900360c00190f35b6102276004803603604081101561039557600080fd5b5080359060200135600f0b610dd3565b6102e6610f7c565b6103ca600480360360208110156103c357600080fd5b5035610f82565b60408051602080825283518183015283519192839290830191858101910280838360005b838110156104065781810151838201526020016103ee565b505050509050019250505060405180910390f35b610291611052565b6102b5600480360360a081101561043857600080fd5b506001600160a01b038135169060208101359060408101359060608101359060800135611061565b6102e6611487565b610595600480360360a081101561047e57600080fd5b6001600160a01b0382358116926020810135909116918101906060810160408201356401000000008111156104b257600080fd5b8201836020820111156104c457600080fd5b803590602001918460208302840111640100000000831117156104e657600080fd5b91939092909160208101903564010000000081111561050457600080fd5b82018360208201111561051657600080fd5b8035906020019184602083028401116401000000008311171561053857600080fd5b91939092909160208101903564010000000081111561055657600080fd5b82018360208201111561056857600080fd5b8035906020019184600183028401116401000000008311171561058a57600080fd5b50909250905061148d565b604080517fffffffff000000000000000000000000000000000000000000000000000000009092168252519081900360200190f35b6102e66114ba565b610227600480360360608110156105e857600080fd5b508035906020810135600f0b90604001356001600160a01b03166114c0565b6102276004803603604081101561061d57600080fd5b5080359060200135600f0b611e74565b6102b56004803603604081101561064357600080fd5b5080359060200135611e95565b6102e6611eec565b610595600480360360a081101561066e57600080fd5b6001600160a01b03823581169260208101359091169160408201359160608101359181019060a0810160808201356401000000008111156106ae57600080fd5b8201836020820111156106c057600080fd5b803590602001918460018302840111640100000000831117156106e257600080fd5b509092509050611ef2565b6102b56004803603602081101561070357600080fd5b50356001600160a01b0316611f1d565b6102276004803603604081101561072957600080fd5b5080359060200135600f0b612017565b6102916120fe565b60005b919050565b600080836001600160a01b031663313ce5676040518163ffffffff1660e01b815260040160206040518083038186803b15801561078557600080fd5b505afa158015610799573d6000803e3d6000fd5b505050506040513d60208110156107af57600080fd5b505160ff1690506107c483600a83900a61210d565b9150505b92915050565b600b54600090600160a01b900460ff1615156001146107ec57600080fd5b6000805b600654811015610853576108498261084461083f6007858154811061081157fe5b6000918252602090912060028204015460085460019092166010026101000a9004600f90810b91900b61214d565b6121b2565b61220c565b91506001016107f0565b5060085461086c90600f0b61086783612251565b61228b565b91505090565b600080600080600080600160078054905010156108a05750600094508493508392508291508190508061092d565b60095460078054600160801b909204600f0b916000906108bc57fe5b90600052602060002090600291828204019190066010029054906101000a9004600f0b60076001815481106108ed57fe5b60009182526020909120600282040154600954600a54600854959b5093995060019092166010026101000a9004600f90810b975090810b95509093500b90505b909192939495565b600b546001600160a01b031690565b600b54600160a01b900460ff16151560011461095f57600080fd5b6004546001600160a01b031633146109ab576040805162461bcd60e51b815260206004820152600a60248201526927b7363c9037bbb732b960b11b604482015290519081900360640190fd5b600b546002546040805163dd34de6760e01b81526004810192909252516001600160a01b039092169163dd34de6791602480820192602092909190829003018186803b1580156109fa57600080fd5b505afa158015610a0e573d6000803e3d6000fd5b505050506040513d6020811015610a2457600080fd5b5051610a77576040805162461bcd60e51b815260206004820152601b60248201527f4d61726b6574206e6565647320746f206265207265736f6c7665640000000000604482015290519081900360640190fd5b600060065467ffffffffffffffff81118015610a9257600080fd5b50604051908082528060200260200182016040528015610abc578160200160208202803683370190505b50905060005b600654811015610af057806001901b828281518110610add57fe5b6020908102919091010152600101610ac2565b50600b546003546002546040517f01b7037c0000000000000000000000000000000000000000000000000000000081526001600160a01b03928316600482018181526000602484018190526044840185905260806064850190815288516084860152885196909716966301b7037c9693959194919389939260a40190602080860191028083838a5b83811015610b90578181015183820152602001610b78565b5050505090500195505050505050600060405180830381600087803b158015610bb857600080fd5b505af1158015610bcc573d6000803e3d6000fd5b5050600354604080517f70a082310000000000000000000000000000000000000000000000000000000081523060048201529051610c7994503393506001600160a01b03909216916370a0823191602480820192602092909190829003018186803b158015610c3a57600080fd5b505afa158015610c4e573d6000803e3d6000fd5b505050506040513d6020811015610c6457600080fd5b50516003546001600160a01b031691906122d3565b50565b600080836001600160a01b031663313ce5676040518163ffffffff1660e01b815260040160206040518083038186803b158015610cb857600080fd5b505afa158015610ccc573d6000803e3d6000fd5b505050506040513d6020811015610ce257600080fd5b505160ff1690506107c483600a83900a612358565b6004546001600160a01b031615610d55576040805162461bcd60e51b815260206004820152601360248201527f416c726561647920696e697469616c697a656400000000000000000000000000604482015290519081900360640190fd5b6004805473ffffffffffffffffffffffffffffffffffffffff199081163317909155600380546001600160a01b03938416908316179055600b8054939092169216919091179055565b600560208190526000918252604090912080546001820154600283015460038401546004850154949095015492949193909286565b600080600060078054905067ffffffffffffffff81118015610df457600080fd5b50604051908082528060200260200182016040528015610e1e578160200160208202803683370190505b50600954909150600160801b9004600f0b60005b600654811015610f0a576001811b871615610eb157610e8060078281548110610e5757fe5b90600052602060002090600291828204019190066010029054906101000a9004600f0b8761220c565b838281518110610e8c57fe5b6020026020010190600f0b9081600f0b81525050610eaa828761220c565b9150610f02565b60078181548110610ebe57fe5b90600052602060002090600291828204019190066010029054906101000a9004600f0b838281518110610eed57fe5b6020026020010190600f0b9081600f0b815250505b600101610e32565b50600854600090610f26908390600160801b9004600f0b61228b565b905060005b600654811015610f6357610f598561084461083f878581518110610f4b57fe5b60200260200101518661214d565b9450600101610f2b565b50610f718161086786612251565b979650505050505050565b60065481565b6006546060906001901b600019018281186000610f9e826123d1565b60010167ffffffffffffffff81118015610fb757600080fd5b50604051908082528060200260200182016040528015610fe1578160200160208202803683370190505b5090506000600190508582600081518110610ff857fe5b60200260200101818152505060005b600654811015611047576001811b84161561103f57806001901b83838151811061102d57fe5b60209081029190910101526001909101905b600101611007565b509095945050505050565b6004546001600160a01b031681565b6004546001600160a01b031633146110ad576040805162461bcd60e51b815260206004820152600a60248201526927b7363c9037bbb732b960b11b604482015290519081900360640190fd5b600b54600160a01b900460ff161561110c576040805162461bcd60e51b815260206004820152601360248201527f416c726561647920696e697469616c697a656400000000000000000000000000604482015290519081900360640190fd5b60008111611161576040805162461bcd60e51b815260206004820152601760248201527f43616e6e6f7420686176652030206f766572726f756e64000000000000000000604482015290519081900360640190fd5b600b54604080517fd96ee7540000000000000000000000000000000000000000000000000000000081526001600160a01b03888116600483015260248201889052604482018790529151919092169163d96ee75491606480830192600092919082900301818387803b1580156111d657600080fd5b505af11580156111ea573d6000803e3d6000fd5b5050600b54604080517f852c6ae20000000000000000000000000000000000000000000000000000000081526001600160a01b038a81166004830152602482018a905260448201899052915191909216935063852c6ae292506064808301926020929190829003018186803b15801561126257600080fd5b505afa158015611276573d6000803e3d6000fd5b505050506040513d602081101561128c57600080fd5b50516002556003546112a9906001600160a01b03163330856123eb565b60068390556003546000906112c7906001600160a01b031684610749565b905060006112d485612460565b905060006112e48461271061210d565b90506112fc816112f78461086786612251565b61214d565b600860106101000a8154816001600160801b030219169083600f0b6001600160801b03160217905550611344611332848461228b565b600854600160801b9004600f0b61228b565b60088054600f9290920b6001600160801b03166fffffffffffffffffffffffffffffffff1990921691909117905560005b868110156113e55760078054600180820183556000929092527fa66cc928b5edb82af9bd49922954155ab7b0942694bea4ce44661d9a8736c688600282040180549183166010026101000a6001600160801b0381810219909316600f89900b939093160291909117905501611375565b50600b80547fffffffffffffffffffffff00ffffffffffffffffffffffffffffffffffffffff16600160a01b17905561141e838361228b565b600960106101000a8154816001600160801b030219169083600f0b6001600160801b0316021790555061144f6107ce565b60098054600f9290920b6001600160801b03166fffffffffffffffffffffffffffffffff199092169190911790555050505050505050565b60015481565b7fbc197c810000000000000000000000000000000000000000000000000000000098975050505050505050565b60025481565b6004546000906001600160a01b03163314806114db57503330145b61152c576040805162461bcd60e51b815260206004820152601660248201527f4f6e6c79206f776e6572206f7220696e7465726e616c00000000000000000000604482015290519081900360640190fd5b60008411611581576040805162461bcd60e51b815260206004820152600f60248201527f496e76616c6964206f7574636f6d650000000000000000000000000000000000604482015290519081900360640190fd5b600b546002546040805163dd34de6760e01b81526004810192909252516001600160a01b039092169163dd34de6791602480820192602092909190829003018186803b1580156115d057600080fd5b505afa1580156115e4573d6000803e3d6000fd5b505050506040513d60208110156115fa57600080fd5b50511561164e576040805162461bcd60e51b815260206004820152601760248201527f4d61726b657420616c7265616479207265736f6c766564000000000000000000604482015290519081900360640190fd5b60005b600654811015611733576001811b85161561172b5761169f6007828154811061167657fe5b90600052602060002090600291828204019190066010029054906101000a9004600f0b8561220c565b600782815481106116ac57fe5b90600052602060002090600291828204019190066010026101000a8154816001600160801b030219169083600f0b6001600160801b03160217905550611701600960109054906101000a9004600f0b8561220c565b600960106101000a8154816001600160801b030219169083600f0b6001600160801b031602179055505b600101611651565b5060095460085461175891600160801b90819004600f90810b9291909104900b61228b565b60088054600f9290920b6001600160801b03166fffffffffffffffffffffffffffffffff199092169190911790556000805b6006548110156117b5576117ab8261084461083f6007858154811061081157fe5b915060010161178a565b506008546000906117cc90600f0b61086784612251565b6009549091506117e0908290600f0b61247e565b600980546fffffffffffffffffffffffffffffffff19166001600160801b03600f85900b16179055600354909350600090611824906001600160a01b031685610c7c565b600354604080516323b872dd60e01b81523360048201523060248201526044810184905290519293506001600160a01b03909116916323b872dd916064808201926020929091908290030181600087803b15801561188157600080fd5b505af1158015611895573d6000803e3d6000fd5b505050506040513d60208110156118ab57600080fd5b50516118fe576040805162461bcd60e51b815260206004820152601960248201527f4572726f72207472616e7366657272696e6720746f6b656e7300000000000000604482015290519081900360640190fd5b600354600090611917906001600160a01b031688610c7c565b600b54600354600254604080517f856296f70000000000000000000000000000000000000000000000000000000081526000600482018190526024820193909352604481018e9052905194955090936001600160a01b03938416936339dd7530931691849163856296f791606480820192602092909190829003018186803b1580156119a257600080fd5b505afa1580156119b6573d6000803e3d6000fd5b505050506040513d60208110156119cc57600080fd5b5051604080517fffffffff0000000000000000000000000000000000000000000000000000000060e086901b1681526001600160a01b0390931660048401526024830191909152516044808301926020929190829003018186803b158015611a3357600080fd5b505afa158015611a47573d6000803e3d6000fd5b505050506040513d6020811015611a5d57600080fd5b5051600b54604080517efdd58e00000000000000000000000000000000000000000000000000000000815230600482015260248101849052905192935084926001600160a01b039092169162fdd58e91604480820192602092909190829003018186803b158015611acd57600080fd5b505afa158015611ae1573d6000803e3d6000fd5b505050506040513d6020811015611af757600080fd5b50511015611c9857600354600b54604080517f095ea7b30000000000000000000000000000000000000000000000000000000081526001600160a01b039283166004820152602481018690529051919092169163095ea7b39160448083019260209291908290030181600087803b158015611b7157600080fd5b505af1158015611b85573d6000803e3d6000fd5b505050506040513d6020811015611b9b57600080fd5b5060009050611ba98a610f82565b600b546003546002546040517f72ce42750000000000000000000000000000000000000000000000000000000081526001600160a01b039283166004820181815260006024840181905260448401859052608484018b905260a060648501908152885160a4860152885198995095909616966372ce427596929592949389938c9392909160c40190602080870191028083838b5b83811015611c55578181015183820152602001611c3d565b505050509050019650505050505050600060405180830381600087803b158015611c7e57600080fd5b505af1158015611c92573d6000803e3d6000fd5b50505050505b600b54604080517ff242432a0000000000000000000000000000000000000000000000000000000081523060048201526001600160a01b038a81166024830152604482018590526064820186905260a06084830152600060a48301819052925193169263f242432a9260c48084019391929182900301818387803b158015611d1f57600080fd5b505af1158015611d33573d6000803e3d6000fd5b5050600a54611d469250905060016124c3565b600a556001600160a01b038716600090815260056020526040902054611d6d9060016124c3565b6001600160a01b0388166000908152600560205260409020556001891415611dd6576001600160a01b038716600090815260056020526040902060010154611db590836124c3565b6001600160a01b038816600090815260056020526040902060010155611e22565b8860021415611e22576001600160a01b038716600090815260056020526040902060020154611e0590836124c3565b6001600160a01b0388166000908152600560205260409020600201555b6001600160a01b038716600090815260056020526040902060030154611e4890846124c3565b6001600160a01b0390971660009081526005602052604090206003019690965550929695505050505050565b6000611e8e611e838484610dd3565b600954600f0b61247e565b9392505050565b6004546001600160a01b03163314611ee1576040805162461bcd60e51b815260206004820152600a60248201526927b7363c9037bbb732b960b11b604482015290519081900360640190fd5b600091909155600155565b60005481565b7ff23a6e61000000000000000000000000000000000000000000000000000000009695505050505050565b6004546001600160a01b03163314611f69576040805162461bcd60e51b815260206004820152600a60248201526927b7363c9037bbb732b960b11b604482015290519081900360640190fd5b6001600160a01b038116611fae5760405162461bcd60e51b81526004018080602001828103825260268152602001806134e76026913960400191505060405180910390fd5b6004546040516001600160a01b038084169216907f8be0079c531659141344cd1fd0a4f28419497f9722a3daafe3b4186f6b6457e090600090a36004805473ffffffffffffffffffffffffffffffffffffffff19166001600160a01b0392909216919091179055565b600b54600090600160a01b900460ff16151560011461203557600080fd5b6000541561209457600054421015612094576040805162461bcd60e51b815260206004820152601260248201527f4d61726b6574206e6f7420737461727465640000000000000000000000000000604482015290519081900360640190fd5b600154156120f3576001544211156120f3576040805162461bcd60e51b815260206004820152601460248201527f4d61726b657420616c726561647920656e646564000000000000000000000000604482015290519081900360640190fd5b611e8e8383336114c0565b6003546001600160a01b031681565b60008161211957600080fd5b6000612125848461251d565b90506f7fffffffffffffffffffffffffffffff6001600160801b0382161115611e8e57600080fd5b600081600f0b6000141561216057600080fd5b600082600f0b604085600f0b901b8161217557fe5b0590506f7fffffffffffffffffffffffffffffff1981128015906121a957506f7fffffffffffffffffffffffffffffff8113155b611e8e57600080fd5b60006840000000000000000082600f0b126121cc57600080fd5b683fffffffffffffffff1982600f0b12156121e957506000610744565b6107c8608083600f0b700171547652b82fe1777d0ffda0d23a7d1202901d612678565b6000600f83810b9083900b016f7fffffffffffffffffffffffffffffff1981128015906121a957506f7fffffffffffffffffffffffffffffff811315611e8e57600080fd5b60008082600f0b1361226257600080fd5b608061226d8361314b565b600f0b6fb17217f7d1cf79abc9e3b39803f2f6af02901c9050919050565b6000600f83810b9083900b0260401d6f7fffffffffffffffffffffffffffffff1981128015906121a957506f7fffffffffffffffffffffffffffffff811315611e8e57600080fd5b604080516001600160a01b038416602482015260448082018490528251808303909101815260649091019091526020810180517bffffffffffffffffffffffffffffffffffffffffffffffffffffffff167fa9059cbb00000000000000000000000000000000000000000000000000000000179052612353908490613224565b505050565b600081612367575060006107c8565b600083600f0b121561237857600080fd5b600f83900b6001600160801b038316810260401c90608084901c0277ffffffffffffffffffffffffffffffffffffffffffffffff8111156123b857600080fd5b60401b81198111156123c957600080fd5b019392505050565b60005b8115610744576000198201909116906001016123d4565b604080516001600160a01b0380861660248301528416604482015260648082018490528251808303909101815260849091019091526020810180517bffffffffffffffffffffffffffffffffffffffffffffffffffffffff166323b872dd60e01b17905261245a908590613224565b50505050565b6000677fffffffffffffff82111561247757600080fd5b5060401b90565b6000600f82810b9084900b036f7fffffffffffffffffffffffffffffff1981128015906121a957506f7fffffffffffffffffffffffffffffff811315611e8e57600080fd5b600082820183811015611e8e576040805162461bcd60e51b815260206004820152601b60248201527f536166654d6174683a206164646974696f6e206f766572666c6f770000000000604482015290519081900360640190fd5b60008161252957600080fd5b600077ffffffffffffffffffffffffffffffffffffffffffffffff841161255f5782604085901b8161255757fe5b049050612664565b60c084811c6401000000008110612578576020918201911c5b62010000811061258a576010918201911c5b610100811061259b576008918201911c5b601081106125ab576004918201911c5b600481106125bb576002918201911c5b600281106125ca576001820191505b60bf820360018603901c6001018260ff0387901b816125e557fe5b0492506001600160801b038311156125fc57600080fd5b608085901c83026001600160801b038616840260c088901c604089901b82811015612628576001820391505b608084901b9290038281101561263f576001820391505b829003608084901c821461264f57fe5b88818161265857fe5b04870196505050505050505b6001600160801b03811115611e8e57600080fd5b60006840000000000000000082600f0b1261269257600080fd5b683fffffffffffffffff1982600f0b12156126af57506000610744565b6f8000000000000000000000000000000060006780000000000000008416600f0b13156126ed5770016a09e667f3bcc908b2fb1366ea957d3e0260801c5b60008367400000000000000016600f0b131561271a577001306fe0a31b7152de8d5a46305c85edec0260801c5b60008367200000000000000016600f0b1315612747577001172b83c7d517adcdf7c8c50eb14a791f0260801c5b60008367100000000000000016600f0b13156127745770010b5586cf9890f6298b92b71842a983630260801c5b60008367080000000000000016600f0b13156127a1577001059b0d31585743ae7c548eb68ca417fd0260801c5b60008367040000000000000016600f0b13156127ce57700102c9a3e778060ee6f7caca4f7a29bde80260801c5b60008367020000000000000016600f0b13156127fb5770010163da9fb33356d84a66ae336dcdfa3f0260801c5b60008367010000000000000016600f0b131561282857700100b1afa5abcbed6129ab13ec11dc95430260801c5b600083668000000000000016600f0b13156128545770010058c86da1c09ea1ff19d294cf2f679b0260801c5b600083664000000000000016600f0b1315612880577001002c605e2e8cec506d21bfc89a23a00f0260801c5b600083662000000000000016600f0b13156128ac57700100162f3904051fa128bca9c55c31e5df0260801c5b600083661000000000000016600f0b13156128d8577001000b175effdc76ba38e31671ca9397250260801c5b600083660800000000000016600f0b131561290457700100058ba01fb9f96d6cacd4b180917c3d0260801c5b600083660400000000000016600f0b13156129305770010002c5cc37da9491d0985c348c68e7b30260801c5b600083660200000000000016600f0b131561295c577001000162e525ee054754457d59952920260260801c5b600083660100000000000016600f0b13156129885770010000b17255775c040618bf4a4ade83fc0260801c5b6000836580000000000016600f0b13156129b3577001000058b91b5bc9ae2eed81e9b7d4cfab0260801c5b6000836540000000000016600f0b13156129de57700100002c5c89d5ec6ca4d7c8acc017b7c90260801c5b6000836520000000000016600f0b1315612a095770010000162e43f4f831060e02d839a9d16d0260801c5b6000836510000000000016600f0b1315612a3457700100000b1721bcfc99d9f890ea069117630260801c5b6000836508000000000016600f0b1315612a5f5770010000058b90cf1e6d97f9ca14dbcc16280260801c5b6000836504000000000016600f0b1315612a8a577001000002c5c863b73f016468f6bac5ca2b0260801c5b6000836502000000000016600f0b1315612ab557700100000162e430e5a18f6119e3c02282a50260801c5b6000836501000000000016600f0b1315612ae0577001000000b1721835514b86e6d96efd1bfe0260801c5b60008364800000000016600f0b1315612b0a57700100000058b90c0b48c6be5df846c5b2ef0260801c5b60008364400000000016600f0b1315612b345770010000002c5c8601cc6b9e94213c72737a0260801c5b60008364200000000016600f0b1315612b5e577001000000162e42fff037df38aa2b219f060260801c5b60008364100000000016600f0b1315612b885770010000000b17217fba9c739aa5819f44f90260801c5b60008364080000000016600f0b1315612bb2577001000000058b90bfcdee5acd3c1cedc8230260801c5b60008364040000000016600f0b1315612bdc57700100000002c5c85fe31f35a6a30da1be500260801c5b60008364020000000016600f0b1315612c065770010000000162e42ff0999ce3541b9fffcf0260801c5b60008364010000000016600f0b1315612c3057700100000000b17217f80f4ef5aadda455540260801c5b600083638000000016600f0b1315612c595770010000000058b90bfbf8479bd5a81b51ad0260801c5b600083634000000016600f0b1315612c82577001000000002c5c85fdf84bd62ae30a74cc0260801c5b600083632000000016600f0b1315612cab57700100000000162e42fefb2fed257559bdaa0260801c5b600083631000000016600f0b1315612cd4577001000000000b17217f7d5a7716bba4a9ae0260801c5b600083630800000016600f0b1315612cfd57700100000000058b90bfbe9ddbac5e109cce0260801c5b600083630400000016600f0b1315612d265770010000000002c5c85fdf4b15de6f17eb0d0260801c5b600083630200000016600f0b1315612d4f577001000000000162e42fefa494f1478fde050260801c5b600083630100000016600f0b1315612d785770010000000000b17217f7d20cf927c8e94c0260801c5b6000836280000016600f0b1315612da0577001000000000058b90bfbe8f71cb4e4b33d0260801c5b6000836240000016600f0b1315612dc857700100000000002c5c85fdf477b662b269450260801c5b6000836220000016600f0b1315612df05770010000000000162e42fefa3ae53369388c0260801c5b6000836210000016600f0b1315612e1857700100000000000b17217f7d1d351a389d400260801c5b6000836208000016600f0b1315612e405770010000000000058b90bfbe8e8b2d3d4ede0260801c5b6000836204000016600f0b1315612e68577001000000000002c5c85fdf4741bea6e77e0260801c5b6000836202000016600f0b1315612e9057700100000000000162e42fefa39fe95583c20260801c5b6000836201000016600f0b1315612eb8577001000000000000b17217f7d1cfb72b45e10260801c5b60008361800016600f0b1315612edf57700100000000000058b90bfbe8e7cc35c3f00260801c5b60008361400016600f0b1315612f065770010000000000002c5c85fdf473e242ea380260801c5b60008361200016600f0b1315612f2d577001000000000000162e42fefa39f02b772c0260801c5b60008361100016600f0b1315612f545770010000000000000b17217f7d1cf7d83c1a0260801c5b60008361080016600f0b1315612f7b577001000000000000058b90bfbe8e7bdcbe2e0260801c5b60008361040016600f0b1315612fa257700100000000000002c5c85fdf473dea871f0260801c5b60008361020016600f0b1315612fc95770010000000000000162e42fefa39ef44d910260801c5b60008361010016600f0b1315612ff057700100000000000000b17217f7d1cf79e9490260801c5b600083608016600f0b13156130165770010000000000000058b90bfbe8e7bce5440260801c5b600083604016600f0b131561303c577001000000000000002c5c85fdf473de6eca0260801c5b600083602016600f0b131561306257700100000000000000162e42fefa39ef366f0260801c5b600083601016600f0b1315613088577001000000000000000b17217f7d1cf79afa0260801c5b600083600816600f0b13156130ae57700100000000000000058b90bfbe8e7bcd6d0260801c5b600083600416600f0b13156130d45770010000000000000002c5c85fdf473de6b20260801c5b600083600216600f0b13156130fa577001000000000000000162e42fefa39ef3580260801c5b600083600116600f0b13156131205770010000000000000000b17217f7d1cf79ab0260801c5b600f83810b60401d603f03900b1c6f7fffffffffffffffffffffffffffffff8111156107c857600080fd5b60008082600f0b1361315c57600080fd5b6000600f83900b68010000000000000000811261317b576040918201911d5b640100000000811261318f576020918201911d5b6201000081126131a1576010918201911d5b61010081126131b2576008918201911d5b601081126131c2576004918201911d5b600481126131d2576002918201911d5b600281126131e1576001820191505b603f19820160401b600f85900b607f8490031b6780000000000000005b60008113156110475790800260ff81901c8281029390930192607f011c9060011d6131fe565b6000613279826040518060400160405280602081526020017f5361666545524332303a206c6f772d6c6576656c2063616c6c206661696c6564815250856001600160a01b03166132d59092919063ffffffff16565b8051909150156123535780806020019051602081101561329857600080fd5b50516123535760405162461bcd60e51b815260040180806020018281038252602a815260200180613533602a913960400191505060405180910390fd5b60606132e484846000856132ec565b949350505050565b60608247101561332d5760405162461bcd60e51b815260040180806020018281038252602681526020018061350d6026913960400191505060405180910390fd5b6133368561343c565b613387576040805162461bcd60e51b815260206004820152601d60248201527f416464726573733a2063616c6c20746f206e6f6e2d636f6e7472616374000000604482015290519081900360640190fd5b600080866001600160a01b031685876040518082805190602001908083835b602083106133c55780518252601f1990920191602091820191016133a6565b6001836020036101000a03801982511681845116808217855250505050505090500191505060006040518083038185875af1925050503d8060008114613427576040519150601f19603f3d011682016040523d82523d6000602084013e61342c565b606091505b5091509150610f71828286613442565b3b151590565b60608315613451575081611e8e565b8251156134615782518084602001fd5b8160405162461bcd60e51b81526004018080602001828103825283818151815260200191508051906020019080838360005b838110156134ab578181015183820152602001613493565b50505050905090810190601f1680156134d85780820380516001836020036101000a031916815260200191505b509250505060405180910390fdfe4f776e61626c653a206e6577206f776e657220697320746865207a65726f2061646472657373416464726573733a20696e73756666696369656e742062616c616e636520666f722063616c6c5361666545524332303a204552433230206f7065726174696f6e20646964206e6f742073756363656564a264697066735822122002eaf71553ee73b17cc0196fa8385d6277cc03bcbf2c6094c48960d74747c11d64736f6c63430007060033",
  "devdoc": {
    "kind": "dev",
    "methods": {
      "buy(uint256,int128)": {
        "params": {
          "_amount": "This is the number of outcome tokens purchased",
          "_outcome": "The outcome(s) which a user is buying tokens for. Note: This is the integer representation for the bit array."
        },
        "returns": {
          "_price": "The cost to purchase _amount number of tokens"
        }
      },
      "initialize(address,address)": {
        "params": {
          "_ct": "The address for the deployed conditional tokens contract",
          "_token": "Which ERC-20 token will be used to purchase and redeem outcome tokens for this condition"
        }
      },
      "onERC1155BatchReceived(address,address,uint256[],uint256[],bytes)": {
        "details": "Handles the receipt of a multiple ERC1155 token types. This function is called at the end of a `safeBatchTransferFrom` after the balances have been updated. To accept the transfer(s), this must return `bytes4(keccak256(\"onERC1155BatchReceived(address,address,uint256[],uint256[],bytes)\"))` (i.e. 0xbc197c81, or its own function selector).",
        "params": {
          "data": "Additional data with no specified format",
          "from": "The address which previously owned the token",
          "ids": "An array containing ids of each token being transferred (order and length must match values array)",
          "operator": "The address which initiated the batch transfer (i.e. msg.sender)",
          "values": "An array containing amounts of each token being transferred (order and length must match ids array)"
        },
        "returns": {
          "_0": "`bytes4(keccak256(\"onERC1155BatchReceived(address,address,uint256[],uint256[],bytes)\"))` if transfer is allowed"
        }
      },
      "onERC1155Received(address,address,uint256,uint256,bytes)": {
        "details": "Handles the receipt of a single ERC1155 token type. This function is called at the end of a `safeTransferFrom` after the balance has been updated. To accept the transfer, this must return `bytes4(keccak256(\"onERC1155Received(address,address,uint256,uint256,bytes)\"))` (i.e. 0xf23a6e61, or its own function selector).",
        "params": {
          "data": "Additional data with no specified format",
          "from": "The address which previously owned the token",
          "id": "The ID of the token being transferred",
          "operator": "The address which initiated the transfer (i.e. msg.sender)",
          "value": "The amount of tokens being transferred"
        },
        "returns": {
          "_0": "`bytes4(keccak256(\"onERC1155Received(address,address,uint256,uint256,bytes)\"))` if transfer is allowed"
        }
      },
      "setup(address,bytes32,uint256,uint256,uint256)": {
        "params": {
          "_numOutcomes": "The number of different outcomes available _subsidyToken Which ERC-20 token will be used to purchase and redeem outcome tokens for this condition",
          "_oracle": "The address for the EOA/contract which will act as the oracle for this condition",
          "_overround": "How much 'profit' does the AMM claim? Note that this is represented in bips. Therefore inputting 300 represents 0.30%",
          "_questionId": "The question ID (needs to be unique)",
          "_subsidy": "How much initial funding is used to seed the market maker."
        }
      },
      "supportsInterface(bytes4)": {
        "details": "Returns true if this contract implements the interface defined by `interfaceId`. See the corresponding https://eips.ethereum.org/EIPS/eip-165#how-interfaces-are-identified[EIP section] to learn more about how these ids are created. This function call must use less than 30 000 gas."
      }
    },
    "version": 1
  },
  "userdoc": {
    "kind": "user",
    "methods": {
      "buy(uint256,int128)": {
        "notice": "This function is used to buy outcome tokens."
      },
      "cost()": {
        "notice": "View function returning the cost function.  This function returns the cost for this inventory state. It will be able  to tell you the total amount of collateral spent within the market maker.  For example, if a pool was seeded with 100 DAI and then a further 20 DAI  has been spent, this function will return 120 DAI."
      },
      "cost_after_buy(uint256,int128)": {
        "notice": "This function will tell you the cost (similar to above) after a proposed transaction."
      },
      "initialize(address,address)": {
        "notice": "Constructor like function for the market maker"
      },
      "price(uint256,int128)": {
        "notice": "This function tells you how much it will cost to make a particular trade.  It does this by calculating the difference between the current cost and the cost after the transaction."
      },
      "setup(address,bytes32,uint256,uint256,uint256)": {
        "notice": "Set up some of the variables for the market maker"
      }
    },
    "version": 1
  },
  "storageLayout": {
    "storage": [
      {
        "astId": 9426,
        "contract": "contracts/PrecogMarketV3.sol:PrecogMarketV3",
        "label": "startTimestamp",
        "offset": 0,
        "slot": "0",
        "type": "t_uint256"
      },
      {
        "astId": 9428,
        "contract": "contracts/PrecogMarketV3.sol:PrecogMarketV3",
        "label": "endTimestamp",
        "offset": 0,
        "slot": "1",
        "type": "t_uint256"
      },
      {
        "astId": 9430,
        "contract": "contracts/PrecogMarketV3.sol:PrecogMarketV3",
        "label": "condition",
        "offset": 0,
        "slot": "2",
        "type": "t_bytes32"
      },
      {
        "astId": 9432,
        "contract": "contracts/PrecogMarketV3.sol:PrecogMarketV3",
        "label": "token",
        "offset": 0,
        "slot": "3",
        "type": "t_address"
      },
      {
        "astId": 9434,
        "contract": "contracts/PrecogMarketV3.sol:PrecogMarketV3",
        "label": "owner",
        "offset": 0,
        "slot": "4",
        "type": "t_address"
      },
      {
        "astId": 9438,
        "contract": "contracts/PrecogMarketV3.sol:PrecogMarketV3",
        "label": "accountShares",
        "offset": 0,
        "slot": "5",
        "type": "t_mapping(t_address,t_struct(ShareInfo)9424_storage)"
      },
      {
        "astId": 9440,
        "contract": "contracts/PrecogMarketV3.sol:PrecogMarketV3",
        "label": "numOutcomes",
        "offset": 0,
        "slot": "6",
        "type": "t_uint256"
      },
      {
        "astId": 9443,
        "contract": "contracts/PrecogMarketV3.sol:PrecogMarketV3",
        "label": "q",
        "offset": 0,
        "slot": "7",
        "type": "t_array(t_int128)dyn_storage"
      },
      {
        "astId": 9445,
        "contract": "contracts/PrecogMarketV3.sol:PrecogMarketV3",
        "label": "b",
        "offset": 0,
        "slot": "8",
        "type": "t_int128"
      },
      {
        "astId": 9447,
        "contract": "contracts/PrecogMarketV3.sol:PrecogMarketV3",
        "label": "alpha",
        "offset": 16,
        "slot": "8",
        "type": "t_int128"
      },
      {
        "astId": 9449,
        "contract": "contracts/PrecogMarketV3.sol:PrecogMarketV3",
        "label": "currentCost",
        "offset": 0,
        "slot": "9",
        "type": "t_int128"
      },
      {
        "astId": 9451,
        "contract": "contracts/PrecogMarketV3.sol:PrecogMarketV3",
        "label": "totalShares",
        "offset": 16,
        "slot": "9",
        "type": "t_int128"
      },
      {
        "astId": 9453,
        "contract": "contracts/PrecogMarketV3.sol:PrecogMarketV3",
        "label": "totalBuys",
        "offset": 0,
        "slot": "10",
        "type": "t_uint256"
      },
      {
        "astId": 9455,
        "contract": "contracts/PrecogMarketV3.sol:PrecogMarketV3",
        "label": "CT",
        "offset": 0,
        "slot": "11",
        "type": "t_contract(ConditionalTokens)7832"
      },
      {
        "astId": 9457,
        "contract": "contracts/PrecogMarketV3.sol:PrecogMarketV3",
        "label": "initialized",
        "offset": 20,
        "slot": "11",
        "type": "t_bool"
      }
    ],
    "types": {
      "t_address": {
        "encoding": "inplace",
        "label": "address",
        "numberOfBytes": "20"
      },
      "t_array(t_int128)dyn_storage": {
        "base": "t_int128",
        "encoding": "dynamic_array",
        "label": "int128[]",
        "numberOfBytes": "32"
      },
      "t_bool": {
        "encoding": "inplace",
        "label": "bool",
        "numberOfBytes": "1"
      },
      "t_bytes32": {
        "encoding": "inplace",
        "label": "bytes32",
        "numberOfBytes": "32"
      },
      "t_contract(ConditionalTokens)7832": {
        "encoding": "inplace",
        "label": "contract ConditionalTokens",
        "numberOfBytes": "20"
      },
      "t_int128": {
        "encoding": "inplace",
        "label": "int128",
        "numberOfBytes": "16"
      },
      "t_mapping(t_address,t_struct(ShareInfo)9424_storage)": {
        "encoding": "mapping",
        "key": "t_address",
        "label": "mapping(address => struct PrecogMarketV3.ShareInfo)",
        "numberOfBytes": "32",
        "value": "t_struct(ShareInfo)9424_storage"
      },
      "t_struct(ShareInfo)9424_storage": {
        "encoding": "inplace",
        "label": "struct PrecogMarketV3.ShareInfo",
        "members": [
          {
            "astId": 9413,
            "contract": "contracts/PrecogMarketV3.sol:PrecogMarketV3",
            "label": "buys",
            "offset": 0,
            "slot": "0",
            "type": "t_uint256"
          },
          {
            "astId": 9415,
            "contract": "contracts/PrecogMarketV3.sol:PrecogMarketV3",
            "label": "outcomeOneBalance",
            "offset": 0,
            "slot": "1",
            "type": "t_uint256"
          },
          {
            "astId": 9417,
            "contract": "contracts/PrecogMarketV3.sol:PrecogMarketV3",
            "label": "outcomeTwoBalance",
            "offset": 0,
            "slot": "2",
            "type": "t_uint256"
          },
          {
            "astId": 9419,
            "contract": "contracts/PrecogMarketV3.sol:PrecogMarketV3",
            "label": "deposited",
            "offset": 0,
            "slot": "3",
            "type": "t_uint256"
          },
          {
            "astId": 9421,
            "contract": "contracts/PrecogMarketV3.sol:PrecogMarketV3",
            "label": "withdrawn",
            "offset": 0,
            "slot": "4",
            "type": "t_uint256"
          },
          {
            "astId": 9423,
            "contract": "contracts/PrecogMarketV3.sol:PrecogMarketV3",
            "label": "claimed",
            "offset": 0,
            "slot": "5",
            "type": "t_uint256"
          }
        ],
        "numberOfBytes": "192"
      },
      "t_uint256": {
        "encoding": "inplace",
        "label": "uint256",
        "numberOfBytes": "32"
      }
    }
  }
}