{
  "address": "0x0984Bed9E120774820D717df6A4ee217268A7b65",
  "abi": [
    {
      "anonymous": false,
      "inputs": [
        {
          "indexed": true,
          "internalType": "address",
          "name": "previousOwner",
          "type": "address"
        },
        {
          "indexed": true,
          "internalType": "address",
          "name": "newOwner",
          "type": "address"
        }
      ],
      "name": "OwnershipTransferred",
      "type": "event"
    },
    {
      "anonymous": false,
      "inputs": [
        {
          "indexed": true,
          "internalType": "address",
          "name": "account",
          "type": "address"
        },
        {
          "indexed": false,
          "internalType": "uint256",
          "name": "amount",
          "type": "uint256"
        },
        {
          "indexed": false,
          "internalType": "uint256",
          "name": "tokenIn",
          "type": "uint256"
        }
      ],
      "name": "SharesBought",
      "type": "event"
    },
    {
      "anonymous": false,
      "inputs": [
        {
          "indexed": true,
          "internalType": "address",
          "name": "account",
          "type": "address"
        },
        {
          "indexed": false,
          "internalType": "uint256",
          "name": "amount",
          "type": "uint256"
        },
        {
          "indexed": false,
          "internalType": "uint256",
          "name": "tokenOut",
          "type": "uint256"
        }
      ],
      "name": "SharesRedeemed",
      "type": "event"
    },
    {
      "anonymous": false,
      "inputs": [
        {
          "indexed": true,
          "internalType": "address",
          "name": "account",
          "type": "address"
        },
        {
          "indexed": false,
          "internalType": "uint256",
          "name": "amount",
          "type": "uint256"
        },
        {
          "indexed": false,
          "internalType": "uint256",
          "name": "tokenOut",
          "type": "uint256"
        }
      ],
      "name": "SharesSold",
      "type": "event"
    },
    {
      "inputs": [
        {
          "internalType": "uint256",
          "name": "_outcome",
          "type": "uint256"
        },
        {
          "internalType": "int128",
          "name": "_amount",
          "type": "int128"
        },
        {
          "internalType": "address",
          "name": "_account",
          "type": "address"
        }
      ],
      "name": "_buy",
      "outputs": [
        {
          "internalType": "uint256",
          "name": "_cost",
          "type": "uint256"
        }
      ],
      "stateMutability": "nonpayable",
      "type": "function"
    },
    {
      "inputs": [
        {
          "internalType": "address",
          "name": "_account",
          "type": "address"
        }
      ],
      "name": "_redeem",
      "outputs": [
        {
          "internalType": "uint256",
          "name": "redeemedShares",
          "type": "uint256"
        }
      ],
      "stateMutability": "nonpayable",
      "type": "function"
    },
    {
      "inputs": [
        {
          "internalType": "uint256",
          "name": "_outcome",
          "type": "uint256"
        },
        {
          "internalType": "int128",
          "name": "_amount",
          "type": "int128"
        },
        {
          "internalType": "address",
          "name": "_account",
          "type": "address"
        }
      ],
      "name": "_sell",
      "outputs": [
        {
          "internalType": "uint256",
          "name": "",
          "type": "uint256"
        }
      ],
      "stateMutability": "nonpayable",
      "type": "function"
    },
    {
      "inputs": [
        {
          "internalType": "address",
          "name": "",
          "type": "address"
        }
      ],
      "name": "accountShares",
      "outputs": [
        {
          "internalType": "uint256",
          "name": "buys",
          "type": "uint256"
        },
        {
          "internalType": "uint256",
          "name": "sells",
          "type": "uint256"
        },
        {
          "internalType": "uint256",
          "name": "deposited",
          "type": "uint256"
        },
        {
          "internalType": "uint256",
          "name": "withdrew",
          "type": "uint256"
        },
        {
          "internalType": "uint256",
          "name": "redeemed",
          "type": "uint256"
        }
      ],
      "stateMutability": "view",
      "type": "function"
    },
    {
      "inputs": [
        {
          "internalType": "uint256",
          "name": "_outcome",
          "type": "uint256"
        },
        {
          "internalType": "int128",
          "name": "_amount",
          "type": "int128"
        }
      ],
      "name": "buy",
      "outputs": [
        {
          "internalType": "uint256",
          "name": "_cost",
          "type": "uint256"
        }
      ],
      "stateMutability": "nonpayable",
      "type": "function"
    },
    {
      "inputs": [
        {
          "internalType": "uint256",
          "name": "_outcome",
          "type": "uint256"
        },
        {
          "internalType": "int128",
          "name": "_amount",
          "type": "int128"
        }
      ],
      "name": "buyPrice",
      "outputs": [
        {
          "internalType": "int128",
          "name": "",
          "type": "int128"
        }
      ],
      "stateMutability": "view",
      "type": "function"
    },
    {
      "inputs": [],
      "name": "closeTimestamp",
      "outputs": [
        {
          "internalType": "uint256",
          "name": "",
          "type": "uint256"
        }
      ],
      "stateMutability": "view",
      "type": "function"
    },
    {
      "inputs": [],
      "name": "cost",
      "outputs": [
        {
          "internalType": "int128",
          "name": "",
          "type": "int128"
        }
      ],
      "stateMutability": "view",
      "type": "function"
    },
    {
      "inputs": [],
      "name": "endTimestamp",
      "outputs": [
        {
          "internalType": "uint256",
          "name": "",
          "type": "uint256"
        }
      ],
      "stateMutability": "view",
      "type": "function"
    },
    {
      "inputs": [
        {
          "internalType": "address",
          "name": "_account",
          "type": "address"
        }
      ],
      "name": "getAccountOutcomeBalances",
      "outputs": [
        {
          "internalType": "uint256[]",
          "name": "",
          "type": "uint256[]"
        }
      ],
      "stateMutability": "view",
      "type": "function"
    },
    {
      "inputs": [],
      "name": "getMarketInfo",
      "outputs": [
        {
          "internalType": "int128",
          "name": "",
          "type": "int128"
        },
        {
          "internalType": "int128[]",
          "name": "",
          "type": "int128[]"
        },
        {
          "internalType": "int128",
          "name": "",
          "type": "int128"
        },
        {
          "internalType": "uint256",
          "name": "",
          "type": "uint256"
        },
        {
          "internalType": "uint256",
          "name": "",
          "type": "uint256"
        }
      ],
      "stateMutability": "view",
      "type": "function"
    },
    {
      "inputs": [],
      "name": "id",
      "outputs": [
        {
          "internalType": "uint256",
          "name": "",
          "type": "uint256"
        }
      ],
      "stateMutability": "view",
      "type": "function"
    },
    {
      "inputs": [
        {
          "internalType": "address",
          "name": "_token",
          "type": "address"
        }
      ],
      "name": "initialize",
      "outputs": [],
      "stateMutability": "nonpayable",
      "type": "function"
    },
    {
      "inputs": [],
      "name": "oracle",
      "outputs": [
        {
          "internalType": "address",
          "name": "",
          "type": "address"
        }
      ],
      "stateMutability": "view",
      "type": "function"
    },
    {
      "inputs": [],
      "name": "owner",
      "outputs": [
        {
          "internalType": "address",
          "name": "",
          "type": "address"
        }
      ],
      "stateMutability": "view",
      "type": "function"
    },
    {
      "inputs": [
        {
          "internalType": "address[]",
          "name": "_accounts",
          "type": "address[]"
        }
      ],
      "name": "redeemBatch",
      "outputs": [
        {
          "internalType": "uint256",
          "name": "redeems",
          "type": "uint256"
        }
      ],
      "stateMutability": "nonpayable",
      "type": "function"
    },
    {
      "inputs": [],
      "name": "redeemShares",
      "outputs": [
        {
          "internalType": "uint256",
          "name": "redeemedShares",
          "type": "uint256"
        }
      ],
      "stateMutability": "nonpayable",
      "type": "function"
    },
    {
      "inputs": [
        {
          "internalType": "uint256",
          "name": "_id",
          "type": "uint256"
        },
        {
          "internalType": "uint256",
          "name": "_outcome",
          "type": "uint256"
        }
      ],
      "name": "reportResult",
      "outputs": [],
      "stateMutability": "nonpayable",
      "type": "function"
    },
    {
      "inputs": [],
      "name": "result",
      "outputs": [
        {
          "internalType": "uint256",
          "name": "",
          "type": "uint256"
        }
      ],
      "stateMutability": "view",
      "type": "function"
    },
    {
      "inputs": [
        {
          "internalType": "uint256",
          "name": "_outcome",
          "type": "uint256"
        },
        {
          "internalType": "int128",
          "name": "_amount",
          "type": "int128"
        }
      ],
      "name": "sell",
      "outputs": [
        {
          "internalType": "uint256",
          "name": "_returned",
          "type": "uint256"
        }
      ],
      "stateMutability": "nonpayable",
      "type": "function"
    },
    {
      "inputs": [
        {
          "internalType": "uint256",
          "name": "_outcome",
          "type": "uint256"
        },
        {
          "internalType": "int128",
          "name": "_amount",
          "type": "int128"
        }
      ],
      "name": "sellPrice",
      "outputs": [
        {
          "internalType": "int128",
          "name": "",
          "type": "int128"
        }
      ],
      "stateMutability": "view",
      "type": "function"
    },
    {
      "inputs": [
        {
          "internalType": "uint256",
          "name": "_id",
          "type": "uint256"
        },
        {
          "internalType": "address",
          "name": "_oracle",
          "type": "address"
        },
        {
          "internalType": "uint256",
          "name": "_totalOutcomes",
          "type": "uint256"
        },
        {
          "internalType": "uint256",
          "name": "_subsidy",
          "type": "uint256"
        },
        {
          "internalType": "uint256",
          "name": "_overround",
          "type": "uint256"
        }
      ],
      "name": "setup",
      "outputs": [],
      "stateMutability": "nonpayable",
      "type": "function"
    },
    {
      "inputs": [],
      "name": "startTimestamp",
      "outputs": [
        {
          "internalType": "uint256",
          "name": "",
          "type": "uint256"
        }
      ],
      "stateMutability": "view",
      "type": "function"
    },
    {
      "inputs": [],
      "name": "token",
      "outputs": [
        {
          "internalType": "address",
          "name": "",
          "type": "address"
        }
      ],
      "stateMutability": "view",
      "type": "function"
    },
    {
      "inputs": [
        {
          "internalType": "address",
          "name": "_newOwner",
          "type": "address"
        }
      ],
      "name": "transferOwnership",
      "outputs": [],
      "stateMutability": "nonpayable",
      "type": "function"
    },
    {
      "inputs": [
        {
          "internalType": "uint256",
          "name": "_startTimestamp",
          "type": "uint256"
        },
        {
          "internalType": "uint256",
          "name": "_endTimestamp",
          "type": "uint256"
        }
      ],
      "name": "updateDates",
      "outputs": [],
      "stateMutability": "nonpayable",
      "type": "function"
    },
    {
      "inputs": [
        {
          "internalType": "address",
          "name": "_newOracle",
          "type": "address"
        }
      ],
      "name": "updateOracle",
      "outputs": [],
      "stateMutability": "nonpayable",
      "type": "function"
    },
    {
      "inputs": [
        {
          "internalType": "address",
          "name": "_token",
          "type": "address"
        }
      ],
      "name": "withdraw",
      "outputs": [],
      "stateMutability": "nonpayable",
      "type": "function"
    }
  ],
  "transactionHash": "0x9ae7fb2aee24f015f4944cbb6c4e831d4d693552cc9c53ab81c7d009e51f13ab",
  "args": [],
  "numDeployments": 1,
  "solcInputHash": "a4493724fe63669d87fbf8d3b1831904",
  "bytecode": "0x608060405234801561001057600080fd5b50613cf1806100206000396000f3fe608060405234801561001057600080fd5b50600436106101c45760003560e01c80638da5cb5b116100f9578063c4d66de811610097578063e6fd48bc11610071578063e6fd48bc14610630578063f2fde38b14610638578063f76da1d91461065e578063fc0c546a14610684576101c4565b8063c4d66de8146105b2578063cae32606146105d8578063e6b2c87c1461060d576101c4565b8063ae92a93d116100d3578063ae92a93d146104d9578063af640d0f146104ff578063b460481d14610507578063bc0e610a1461050f576101c4565b80638da5cb5b146104a6578063a85adeab146104ae578063ad094f3d146104b6576101c4565b806351cff8d9116101665780635467a751116101405780635467a7511461040757806365372147146104455780637dc0d1d01461044d578063898b51a714610471576101c4565b806351cff8d91461036a57806352c8b2f914610390578063535f02ee146103e1576101c4565b80631cb44dfc116101a25780631cb44dfc1461027857806323341a05146102a05780633dcb8b811461031e5780633f7361eb14610344576101c4565b8063052d7c00146101c957806305b4b371146101e357806313faede614610259575b600080fd5b6101d161068c565b60408051918252519081900360200190f35b610209600480360360208110156101f957600080fd5b50356001600160a01b0316610692565b60408051602080825283518183015283519192839290830191858101910280838360005b8381101561024557818101518382015260200161022d565b505050509050019250505060405180910390f35b61026161074c565b60408051600f9290920b8252519081900360200190f35b61029e6004803603602081101561028e57600080fd5b50356001600160a01b031661081d565b005b6102a86108f3565b6040518086600f0b81526020018060200185600f0b8152602001848152602001838152602001828103825286818151815260200191508051906020019060200280838360005b838110156103065781810151838201526020016102ee565b50505050905001965050505050505060405180910390f35b6102616004803603604081101561033457600080fd5b5080359060200135600f0b610a0a565b6101d16004803603602081101561035a57600080fd5b50356001600160a01b0316610a5d565b61029e6004803603602081101561038057600080fd5b50356001600160a01b0316610c86565b6103b6600480360360208110156103a657600080fd5b50356001600160a01b0316610e02565b6040805195865260208601949094528484019290925260608401526080830152519081900360a00190f35b610261600480360360408110156103f757600080fd5b5080359060200135600f0b610e31565b61029e600480360360a081101561041d57600080fd5b508035906001600160a01b036020820135169060408101359060608101359060800135610e59565b6101d16111ce565b6104556111d4565b604080516001600160a01b039092168252519081900360200190f35b6101d16004803603606081101561048757600080fd5b508035906020810135600f0b90604001356001600160a01b03166111e3565b6104556117e0565b6101d16117ef565b61029e600480360360408110156104cc57600080fd5b50803590602001356117f5565b6101d1600480360360408110156104ef57600080fd5b5080359060200135600f0b6119a2565b6101d1611a07565b6101d1611a0d565b6101d16004803603602081101561052557600080fd5b81019060208101813564010000000081111561054057600080fd5b82018360208201111561055257600080fd5b8035906020019184602083028401116401000000008311171561057457600080fd5b919080806020026020016040519081016040528093929190818152602001838360200280828437600092019190915250929550611a75945050505050565b61029e600480360360208110156105c857600080fd5b50356001600160a01b0316611bd4565b6101d1600480360360608110156105ee57600080fd5b508035906020810135600f0b90604001356001600160a01b0316611c84565b61029e6004803603604081101561062357600080fd5b50803590602001356121dd565b6101d1612234565b61029e6004803603602081101561064e57600080fd5b50356001600160a01b031661223a565b6101d16004803603604081101561067457600080fd5b5080359060200135600f0b612349565b6104556123ae565b60065481565b606060006106ac60016009546123bd90919063ffffffff16565b67ffffffffffffffff811180156106c257600080fd5b506040519080825280602002602001820160405280156106ec578160200160208202803683370190505b50905060015b6009548111610743576001600160a01b0384166000908152600860209081526040808320848452600501909152902054825183908390811061073057fe5b60209081029190910101526001016106f2565b5090505b919050565b60105460009060ff161515600114610797576040805162461bcd60e51b815260206004820152600960248201526804e6f742073657475760bc1b604482015290519081900360640190fd5b600060015b60095481116107fe576107f4826107ef6107ea600a85815481106107bc57fe5b60009182526020909120600282040154600b5460019092166010026101000a9004600f90810b91900b612417565b61247c565b6124d6565b915060010161079c565b50600b5461081790600f0b6108128361251b565b612555565b91505090565b6000546001600160a01b03163314610869576040805162461bcd60e51b815260206004820152600a60248201526927b7363c9037bbb732b960b11b604482015290519081900360640190fd5b6001600160a01b0381166108c4576040805162461bcd60e51b815260206004820152601260248201527f496e76616c6964206e6577206f7261636c650000000000000000000000000000604482015290519081900360640190fd5b6003805473ffffffffffffffffffffffffffffffffffffffff19166001600160a01b0392909216919091179055565b6000606060008060008061091360016009546123bd90919063ffffffff16565b67ffffffffffffffff8111801561092957600080fd5b50604051908082528060200260200182016040528015610953578160200160208202803683370190505b5060105490915060ff1661097557600095509350849250829150819050610a03565b60015b60095481116109da57600a818154811061098e57fe5b90600052602060002090600291828204019190066010029054906101000a9004600f0b8282815181106109bd57fe5b600f92830b90920b60209283029190910190910152600101610978565b50600d54600c54600e54600f805493810b9950939750600160801b90910490920b945090925090505b9091929394565b600c546000908190610a2f90600160801b9004600f0b610a2a868661259d565b61273a565b600c54909150600090610a46908390600f0b612417565b9050610a52828261273a565b925050505b92915050565b600080546001600160a01b0316331480610a7e5750601054610100900460ff165b610ac4576040805162461bcd60e51b815260206004820152601260248201527127b7363c9037bbb732b91037b91039b2b63360711b604482015290519081900360640190fd5b600060065411610b1b576040805162461bcd60e51b815260206004820152601160248201527f4d61726b6574206e6f7420636c6f736564000000000000000000000000000000604482015290519081900360640190fd5b6001600160a01b03821660009081526008602052604090206004015415610b89576040805162461bcd60e51b815260206004820152601760248201527f53686172657320616c72656164792072656465656d6564000000000000000000604482015290519081900360640190fd5b506001600160a01b0381166000908152600860209081526040808320600754845260050190915290205480610c05576040805162461bcd60e51b815260206004820152601160248201527f4e6f7468696e6720746f2072656465656d000000000000000000000000000000604482015290519081900360640190fd5b6001600160a01b038083166000908152600860205260409020600401829055600154610c339116838361277f565b604080518281526020810183905281516001600160a01b038516927ff18a1e0eb1d585d2194cdc081f34e04df407e94de5238f45531482467e31705f928290030190a26010805461ff0019169055919050565b60105460ff161515600114610cce576040805162461bcd60e51b815260206004820152600960248201526804e6f742073657475760bc1b604482015290519081900360640190fd5b6000546001600160a01b03163314610d1a576040805162461bcd60e51b815260206004820152600a60248201526927b7363c9037bbb732b960b11b604482015290519081900360640190fd5b600060065411610d71576040805162461bcd60e51b815260206004820152601160248201527f4d61726b6574206e6f7420636c6f736564000000000000000000000000000000604482015290519081900360640190fd5b610dff33826001600160a01b03166370a08231306040518263ffffffff1660e01b815260040180826001600160a01b0316815260200191505060206040518083038186803b158015610dc257600080fd5b505afa158015610dd6573d6000803e3d6000fd5b505050506040513d6020811015610dec57600080fd5b50516001600160a01b038416919061277f565b50565b600860205260009081526040902080546001820154600283015460038401546004909401549293919290919085565b6000610e52610e408484612804565b600c54600160801b9004600f0b61273a565b9392505050565b6000546001600160a01b03163314610ea5576040805162461bcd60e51b815260206004820152600a60248201526927b7363c9037bbb732b960b11b604482015290519081900360640190fd5b60105460ff1615610efd576040805162461bcd60e51b815260206004820152600d60248201527f416c726561647920736574757000000000000000000000000000000000000000604482015290519081900360640190fd5b60008111610f52576040805162461bcd60e51b815260206004820152601560248201527f556e737570706f72746564206f766572726f756e640000000000000000000000604482015290519081900360640190fd5b600154610f6a906001600160a01b031633308561297a565b60028590556003805473ffffffffffffffffffffffffffffffffffffffff19166001600160a01b03868116919091179091556009849055600154600091610fb2911684612a08565b90506000610fbf85612a8b565b90506000610fcf84612710612aa9565b9050610fe781610fe2846108128661251b565b612417565b600b60106101000a8154816001600160801b030219169083600f0b6001600160801b0316021790555061102f61101d8484612555565b600b54600160801b9004600f0b612555565b600b8054600f9290920b6001600160801b03166001600160801b03199092169190911790556009546110629060016123bd565b67ffffffffffffffff8111801561107857600080fd5b506040519080825280602002602001820160405280156110a2578160200160208202803683370190505b5080516110b791600a91602090910190613bc1565b5060015b60095481116111545783600a82815481106110d257fe5b90600052602060002090600291828204019190066010026101000a8154816001600160801b030219169083600f0b6001600160801b03160217905550611127600d60009054906101000a9004600f0b856124d6565b600d8054600f9290920b6001600160801b03166001600160801b03199092169190911790556001016110bb565b50611161620186a0612a8b565b600c8054600f9290920b6001600160801b03166001600160801b03199092169190911790556010805460ff1916600117905561119b61074c565b600c60106101000a8154816001600160801b030219169083600f0b6001600160801b031602179055505050505050505050565b60075481565b6003546001600160a01b031681565b600080546001600160a01b03163314806112045750601054610100900460ff165b61124a576040805162461bcd60e51b815260206004820152601260248201527127b7363c9037bbb732b91037b91039b2b63360711b604482015290519081900360640190fd5b60008411801561125c57506009548411155b61129f576040805162461bcd60e51b815260206004820152600f60248201526e496e76616c6964206f7574636f6d6560881b604482015290519081900360640190fd5b600083600f0b136112f7576040805162461bcd60e51b815260206004820152600e60248201527f496e76616c696420616d6f756e74000000000000000000000000000000000000604482015290519081900360640190fd5b60045442101561134e576040805162461bcd60e51b815260206004820152601260248201527f4d61726b6574206e6f7420737461727465640000000000000000000000000000604482015290519081900360640190fd5b600554158061135f57506005544211155b6113b0576040805162461bcd60e51b815260206004820152601460248201527f4d61726b657420616c726561647920656e646564000000000000000000000000604482015290519081900360640190fd5b60065415611405576040805162461bcd60e51b815260206004820152601560248201527f4d61726b657420616c726561647920636c6f7365640000000000000000000000604482015290519081900360640190fd5b61143e600a858154811061141557fe5b90600052602060002090600291828204019190066010029054906101000a9004600f0b8461273a565b600a858154811061144b57fe5b90600052602060002090600291828204019190066010026101000a8154816001600160801b030219169083600f0b6001600160801b031602179055506114a0600d60009054906101000a9004600f0b8461273a565b600d80546001600160801b0319166001600160801b03600f93840b161790819055600b546114db9291820b91600160801b909104900b612555565b600b8054600f9290920b6001600160801b03166001600160801b0319909216919091179055600060015b600954811161152f57611525826107ef6107ea600a85815481106107bc57fe5b9150600101611505565b50600b5460009061154690600f0b6108128461251b565b600c5490915060009061156390600160801b9004600f0b8361273a565b600c5490915060009061157a908390600f0b612417565b600c8054600f86900b6001600160801b03908116600160801b0291161790556001549091506000906115be906001600160a01b03166115b9858561273a565b612ae9565b905060008111611615576040805162461bcd60e51b815260206004820152600e60248201527f496e76616c69642072657475726e000000000000000000000000000000000000604482015290519081900360640190fd5b60015460009061162e906001600160a01b03168a612ae9565b6001600160a01b03891660009081526008602090815260408083208e84526005019091529020549091508111156116ac576040805162461bcd60e51b815260206004820152601460248201527f496e73756666696369656e742062616c616e6365000000000000000000000000604482015290519081900360640190fd5b600f546116ba9060016123bd565b600f556001600160a01b03881660009081526008602052604090206001908101546116e4916123bd565b6001600160a01b038916600090815260086020526040902060018101919091556003015461171290836123bd565b6001600160a01b038916600090815260086020908152604080832060038101949094558d835260059093019052205461174b9082612b64565b6001600160a01b03808a1660009081526008602090815260408083208f84526005019091529020919091556001546117859116898461277f565b604080518281526020810184905281516001600160a01b038b16927f15d424bdac3ab52a065da0bac1452a0aa9453a23554ce765d3fbe0df6f5eb9ce928290030190a2506010805461ff001916905598975050505050505050565b6000546001600160a01b031681565b60055481565b6003546001600160a01b03163314611842576040805162461bcd60e51b815260206004820152600b60248201526a4f6e6c79206f7261636c6560a81b604482015290519081900360640190fd5b6002548214611898576040805162461bcd60e51b815260206004820152600e60248201527f496e76616c6964206d61726b6574000000000000000000000000000000000000604482015290519081900360640190fd5b6000811180156118aa57506009548111155b6118ed576040805162461bcd60e51b815260206004820152600f60248201526e496e76616c6964206f7574636f6d6560881b604482015290519081900360640190fd5b6005544211611943576040805162461bcd60e51b815260206004820152601060248201527f4d61726b6574206e6f7420656e64656400000000000000000000000000000000604482015290519081900360640190fd5b60065415611998576040805162461bcd60e51b815260206004820152601560248201527f4d61726b657420616c726561647920636c6f7365640000000000000000000000604482015290519081900360640190fd5b6007555042600655565b60105460009060ff1615156001146119ed576040805162461bcd60e51b815260206004820152600960248201526804e6f742073657475760bc1b604482015290519081900360640190fd5b6010805461ff001916610100179055610e528383336111e3565b60025481565b60105460009060ff161515600114611a58576040805162461bcd60e51b815260206004820152600960248201526804e6f742073657475760bc1b604482015290519081900360640190fd5b6010805461ff001916610100179055611a7033610a5d565b905090565b60105460009060ff161515600114611ac0576040805162461bcd60e51b815260206004820152600960248201526804e6f742073657475760bc1b604482015290519081900360640190fd5b6003546001600160a01b03163314611b0d576040805162461bcd60e51b815260206004820152600b60248201526a4f6e6c79206f7261636c6560a81b604482015290519081900360640190fd5b6010805461ff00191661010017905560005b8251811015611bce57306001600160a01b0316633f7361eb848381518110611b4357fe5b60200260200101516040518263ffffffff1660e01b815260040180826001600160a01b03168152602001915050602060405180830381600087803b158015611b8a57600080fd5b505af1925050508015611baf57506040513d6020811015611baa57600080fd5b505160015b611bb857611bc6565b50611bc48260016123bd565b505b600101611b1f565b50919050565b6000546001600160a01b0316158015611bf657506001546001600160a01b0316155b611c47576040805162461bcd60e51b815260206004820152601360248201527f416c726561647920696e697469616c697a656400000000000000000000000000604482015290519081900360640190fd5b600080543373ffffffffffffffffffffffffffffffffffffffff1991821617909155600180549091166001600160a01b0392909216919091179055565b600080546001600160a01b0316331480611ca55750601054610100900460ff165b611ceb576040805162461bcd60e51b815260206004820152601260248201527127b7363c9037bbb732b91037b91039b2b63360711b604482015290519081900360640190fd5b600084118015611cfd57506009548411155b611d40576040805162461bcd60e51b815260206004820152600f60248201526e496e76616c6964206f7574636f6d6560881b604482015290519081900360640190fd5b600083600f0b13611d98576040805162461bcd60e51b815260206004820152600e60248201527f496e76616c696420616d6f756e74000000000000000000000000000000000000604482015290519081900360640190fd5b600454421015611def576040805162461bcd60e51b815260206004820152601260248201527f4d61726b6574206e6f7420737461727465640000000000000000000000000000604482015290519081900360640190fd5b6005541580611e0057506005544211155b611e51576040805162461bcd60e51b815260206004820152601460248201527f4d61726b657420616c726561647920656e646564000000000000000000000000604482015290519081900360640190fd5b60065415611ea6576040805162461bcd60e51b815260206004820152601560248201527f4d61726b657420616c726561647920636c6f7365640000000000000000000000604482015290519081900360640190fd5b611edf600a8581548110611eb657fe5b90600052602060002090600291828204019190066010029054906101000a9004600f0b846124d6565b600a8581548110611eec57fe5b90600052602060002090600291828204019190066010026101000a8154816001600160801b030219169083600f0b6001600160801b03160217905550611f41600d60009054906101000a9004600f0b846124d6565b600d80546001600160801b0319166001600160801b03600f93840b161790819055600b54611f7c9291820b91600160801b909104900b612555565b600b8054600f9290920b6001600160801b03166001600160801b0319909216919091179055600060015b6009548111611fd057611fc6826107ef6107ea600a85815481106107bc57fe5b9150600101611fa6565b50600b54600090611fe790600f0b6108128461251b565b9050600061200482600c60109054906101000a9004600f0b61273a565b600c8054600f85900b6001600160801b03908116600160801b02911617905560015490915060009061203f906001600160a01b031683612ae9565b905060008111612096576040805162461bcd60e51b815260206004820152600c60248201527f496e76616c696420636f73740000000000000000000000000000000000000000604482015290519081900360640190fd5b6001546120ae906001600160a01b031633308461297a565b6001546000906120c7906001600160a01b031689612ae9565b600e549091506120d89060016123bd565b600e556001600160a01b0387166000908152600860205260409020546120ff9060016123bd565b6001600160a01b03881660009081526008602052604090209081556002015461212890836123bd565b6001600160a01b038816600090815260086020908152604080832060028101949094558c835260059093019052205461216190826123bd565b6001600160a01b03881660008181526008602090815260408083208e8452600501825291829020939093558051848152928301859052805191927f2ac0c7a344c07faca0c8fb818361b688d571a347db8c184800fce2207531dd1e929081900390910190a2506010805461ff0019169055979650505050505050565b6000546001600160a01b03163314612229576040805162461bcd60e51b815260206004820152600a60248201526927b7363c9037bbb732b960b11b604482015290519081900360640190fd5b600491909155600555565b60045481565b6000546001600160a01b03163314612286576040805162461bcd60e51b815260206004820152600a60248201526927b7363c9037bbb732b960b11b604482015290519081900360640190fd5b6001600160a01b0381166122e1576040805162461bcd60e51b815260206004820152601160248201527f496e76616c6964206e6577206f776e6572000000000000000000000000000000604482015290519081900360640190fd5b600080546040516001600160a01b03808516939216917f8be0079c531659141344cd1fd0a4f28419497f9722a3daafe3b4186f6b6457e091a36000805473ffffffffffffffffffffffffffffffffffffffff19166001600160a01b0392909216919091179055565b60105460009060ff161515600114612394576040805162461bcd60e51b815260206004820152600960248201526804e6f742073657475760bc1b604482015290519081900360640190fd5b6010805461ff001916610100179055610e52838333611c84565b6001546001600160a01b031681565b600082820183811015610e52576040805162461bcd60e51b815260206004820152601b60248201527f536166654d6174683a206164646974696f6e206f766572666c6f770000000000604482015290519081900360640190fd5b600081600f0b6000141561242a57600080fd5b600082600f0b604085600f0b901b8161243f57fe5b0590506f7fffffffffffffffffffffffffffffff19811280159061247357506f7fffffffffffffffffffffffffffffff8113155b610e5257600080fd5b60006840000000000000000082600f0b1261249657600080fd5b683fffffffffffffffff1982600f0b12156124b357506000610747565b610a57608083600f0b700171547652b82fe1777d0ffda0d23a7d1202901d612bc1565b6000600f83810b9083900b016f7fffffffffffffffffffffffffffffff19811280159061247357506f7fffffffffffffffffffffffffffffff811315610e5257600080fd5b60008082600f0b1361252c57600080fd5b608061253783613694565b600f0b6fb17217f7d1cf79abc9e3b39803f2f6af02901c9050919050565b6000600f83810b9083900b0260401d6f7fffffffffffffffffffffffffffffff19811280159061247357506f7fffffffffffffffffffffffffffffff811315610e5257600080fd5b6000806000600a8054905067ffffffffffffffff811180156125be57600080fd5b506040519080825280602002602001820160405280156125e8578160200160208202803683370190505b50600d54909150600f0b60015b60095481116126c957868114156126705761263f600a828154811061261657fe5b90600052602060002090600291828204019190066010029054906101000a9004600f0b8761273a565b83828151811061264b57fe5b6020026020010190600f0b9081600f0b81525050612669828761273a565b91506126c1565b600a818154811061267d57fe5b90600052602060002090600291828204019190066010029054906101000a9004600f0b8382815181106126ac57fe5b6020026020010190600f0b9081600f0b815250505b6001016125f5565b50600b546000906126e5908390600160801b9004600f0b612555565b905060015b600954811161272157612717856107ef6107ea87858151811061270957fe5b602002602001015186612417565b94506001016126ea565b5061272f816108128661251b565b979650505050505050565b6000600f82810b9084900b036f7fffffffffffffffffffffffffffffff19811280159061247357506f7fffffffffffffffffffffffffffffff811315610e5257600080fd5b604080516001600160a01b038416602482015260448082018490528251808303909101815260649091019091526020810180517bffffffffffffffffffffffffffffffffffffffffffffffffffffffff167fa9059cbb000000000000000000000000000000000000000000000000000000001790526127ff908490613778565b505050565b6000806000600a8054905067ffffffffffffffff8111801561282557600080fd5b5060405190808252806020026020018201604052801561284f578160200160208202803683370190505b50600d54909150600f0b60015b600954811161293057868114156128d7576128a6600a828154811061287d57fe5b90600052602060002090600291828204019190066010029054906101000a9004600f0b876124d6565b8382815181106128b257fe5b6020026020010190600f0b9081600f0b815250506128d082876124d6565b9150612928565b600a81815481106128e457fe5b90600052602060002090600291828204019190066010029054906101000a9004600f0b83828151811061291357fe5b6020026020010190600f0b9081600f0b815250505b60010161285c565b50600b5460009061294c908390600160801b9004600f0b612555565b905060015b600954811161272157612970856107ef6107ea87858151811061270957fe5b9450600101612951565b604080516001600160a01b0380861660248301528416604482015260648082018490528251808303909101815260849091019091526020810180517bffffffffffffffffffffffffffffffffffffffffffffffffffffffff167f23b872dd00000000000000000000000000000000000000000000000000000000179052612a02908590613778565b50505050565b600080836001600160a01b031663313ce5676040518163ffffffff1660e01b815260040160206040518083038186803b158015612a4457600080fd5b505afa158015612a58573d6000803e3d6000fd5b505050506040513d6020811015612a6e57600080fd5b505160ff169050612a8383600a83900a612aa9565b949350505050565b6000677fffffffffffffff821115612aa257600080fd5b5060401b90565b600081612ab557600080fd5b6000612ac18484613829565b90506f7fffffffffffffffffffffffffffffff6001600160801b0382161115610e5257600080fd5b600080836001600160a01b031663313ce5676040518163ffffffff1660e01b815260040160206040518083038186803b158015612b2557600080fd5b505afa158015612b39573d6000803e3d6000fd5b505050506040513d6020811015612b4f57600080fd5b505160ff169050612a8383600a83900a613984565b600082821115612bbb576040805162461bcd60e51b815260206004820152601e60248201527f536166654d6174683a207375627472616374696f6e206f766572666c6f770000604482015290519081900360640190fd5b50900390565b60006840000000000000000082600f0b12612bdb57600080fd5b683fffffffffffffffff1982600f0b1215612bf857506000610747565b6f8000000000000000000000000000000060006780000000000000008416600f0b1315612c365770016a09e667f3bcc908b2fb1366ea957d3e0260801c5b60008367400000000000000016600f0b1315612c63577001306fe0a31b7152de8d5a46305c85edec0260801c5b60008367200000000000000016600f0b1315612c90577001172b83c7d517adcdf7c8c50eb14a791f0260801c5b60008367100000000000000016600f0b1315612cbd5770010b5586cf9890f6298b92b71842a983630260801c5b60008367080000000000000016600f0b1315612cea577001059b0d31585743ae7c548eb68ca417fd0260801c5b60008367040000000000000016600f0b1315612d1757700102c9a3e778060ee6f7caca4f7a29bde80260801c5b60008367020000000000000016600f0b1315612d445770010163da9fb33356d84a66ae336dcdfa3f0260801c5b60008367010000000000000016600f0b1315612d7157700100b1afa5abcbed6129ab13ec11dc95430260801c5b600083668000000000000016600f0b1315612d9d5770010058c86da1c09ea1ff19d294cf2f679b0260801c5b600083664000000000000016600f0b1315612dc9577001002c605e2e8cec506d21bfc89a23a00f0260801c5b600083662000000000000016600f0b1315612df557700100162f3904051fa128bca9c55c31e5df0260801c5b600083661000000000000016600f0b1315612e21577001000b175effdc76ba38e31671ca9397250260801c5b600083660800000000000016600f0b1315612e4d57700100058ba01fb9f96d6cacd4b180917c3d0260801c5b600083660400000000000016600f0b1315612e795770010002c5cc37da9491d0985c348c68e7b30260801c5b600083660200000000000016600f0b1315612ea5577001000162e525ee054754457d59952920260260801c5b600083660100000000000016600f0b1315612ed15770010000b17255775c040618bf4a4ade83fc0260801c5b6000836580000000000016600f0b1315612efc577001000058b91b5bc9ae2eed81e9b7d4cfab0260801c5b6000836540000000000016600f0b1315612f2757700100002c5c89d5ec6ca4d7c8acc017b7c90260801c5b6000836520000000000016600f0b1315612f525770010000162e43f4f831060e02d839a9d16d0260801c5b6000836510000000000016600f0b1315612f7d57700100000b1721bcfc99d9f890ea069117630260801c5b6000836508000000000016600f0b1315612fa85770010000058b90cf1e6d97f9ca14dbcc16280260801c5b6000836504000000000016600f0b1315612fd3577001000002c5c863b73f016468f6bac5ca2b0260801c5b6000836502000000000016600f0b1315612ffe57700100000162e430e5a18f6119e3c02282a50260801c5b6000836501000000000016600f0b1315613029577001000000b1721835514b86e6d96efd1bfe0260801c5b60008364800000000016600f0b131561305357700100000058b90c0b48c6be5df846c5b2ef0260801c5b60008364400000000016600f0b131561307d5770010000002c5c8601cc6b9e94213c72737a0260801c5b60008364200000000016600f0b13156130a7577001000000162e42fff037df38aa2b219f060260801c5b60008364100000000016600f0b13156130d15770010000000b17217fba9c739aa5819f44f90260801c5b60008364080000000016600f0b13156130fb577001000000058b90bfcdee5acd3c1cedc8230260801c5b60008364040000000016600f0b131561312557700100000002c5c85fe31f35a6a30da1be500260801c5b60008364020000000016600f0b131561314f5770010000000162e42ff0999ce3541b9fffcf0260801c5b60008364010000000016600f0b131561317957700100000000b17217f80f4ef5aadda455540260801c5b600083638000000016600f0b13156131a25770010000000058b90bfbf8479bd5a81b51ad0260801c5b600083634000000016600f0b13156131cb577001000000002c5c85fdf84bd62ae30a74cc0260801c5b600083632000000016600f0b13156131f457700100000000162e42fefb2fed257559bdaa0260801c5b600083631000000016600f0b131561321d577001000000000b17217f7d5a7716bba4a9ae0260801c5b600083630800000016600f0b131561324657700100000000058b90bfbe9ddbac5e109cce0260801c5b600083630400000016600f0b131561326f5770010000000002c5c85fdf4b15de6f17eb0d0260801c5b600083630200000016600f0b1315613298577001000000000162e42fefa494f1478fde050260801c5b600083630100000016600f0b13156132c15770010000000000b17217f7d20cf927c8e94c0260801c5b6000836280000016600f0b13156132e9577001000000000058b90bfbe8f71cb4e4b33d0260801c5b6000836240000016600f0b131561331157700100000000002c5c85fdf477b662b269450260801c5b6000836220000016600f0b13156133395770010000000000162e42fefa3ae53369388c0260801c5b6000836210000016600f0b131561336157700100000000000b17217f7d1d351a389d400260801c5b6000836208000016600f0b13156133895770010000000000058b90bfbe8e8b2d3d4ede0260801c5b6000836204000016600f0b13156133b1577001000000000002c5c85fdf4741bea6e77e0260801c5b6000836202000016600f0b13156133d957700100000000000162e42fefa39fe95583c20260801c5b6000836201000016600f0b1315613401577001000000000000b17217f7d1cfb72b45e10260801c5b60008361800016600f0b131561342857700100000000000058b90bfbe8e7cc35c3f00260801c5b60008361400016600f0b131561344f5770010000000000002c5c85fdf473e242ea380260801c5b60008361200016600f0b1315613476577001000000000000162e42fefa39f02b772c0260801c5b60008361100016600f0b131561349d5770010000000000000b17217f7d1cf7d83c1a0260801c5b60008361080016600f0b13156134c4577001000000000000058b90bfbe8e7bdcbe2e0260801c5b60008361040016600f0b13156134eb57700100000000000002c5c85fdf473dea871f0260801c5b60008361020016600f0b13156135125770010000000000000162e42fefa39ef44d910260801c5b60008361010016600f0b131561353957700100000000000000b17217f7d1cf79e9490260801c5b600083608016600f0b131561355f5770010000000000000058b90bfbe8e7bce5440260801c5b600083604016600f0b1315613585577001000000000000002c5c85fdf473de6eca0260801c5b600083602016600f0b13156135ab57700100000000000000162e42fefa39ef366f0260801c5b600083601016600f0b13156135d1577001000000000000000b17217f7d1cf79afa0260801c5b600083600816600f0b13156135f757700100000000000000058b90bfbe8e7bcd6d0260801c5b600083600416600f0b131561361d5770010000000000000002c5c85fdf473de6b20260801c5b600083600216600f0b1315613643577001000000000000000162e42fefa39ef3580260801c5b600083600116600f0b13156136695770010000000000000000b17217f7d1cf79ab0260801c5b600f83810b60401d603f03900b1c6f7fffffffffffffffffffffffffffffff811115610a5757600080fd5b60008082600f0b136136a557600080fd5b6000600f83900b6801000000000000000081126136c4576040918201911d5b64010000000081126136d8576020918201911d5b6201000081126136ea576010918201911d5b61010081126136fb576008918201911d5b6010811261370b576004918201911d5b6004811261371b576002918201911d5b6002811261372a576001820191505b603f19820160401b600f85900b607f8490031b6780000000000000005b600081131561376d5790800260ff81901c8281029390930192607f011c9060011d613747565b509095945050505050565b60006137cd826040518060400160405280602081526020017f5361666545524332303a206c6f772d6c6576656c2063616c6c206661696c6564815250856001600160a01b03166139fd9092919063ffffffff16565b8051909150156127ff578080602001905160208110156137ec57600080fd5b50516127ff5760405162461bcd60e51b815260040180806020018281038252602a815260200180613c92602a913960400191505060405180910390fd5b60008161383557600080fd5b600077ffffffffffffffffffffffffffffffffffffffffffffffff841161386b5782604085901b8161386357fe5b049050613970565b60c084811c6401000000008110613884576020918201911c5b620100008110613896576010918201911c5b61010081106138a7576008918201911c5b601081106138b7576004918201911c5b600481106138c7576002918201911c5b600281106138d6576001820191505b60bf820360018603901c6001018260ff0387901b816138f157fe5b0492506001600160801b0383111561390857600080fd5b608085901c83026001600160801b038616840260c088901c604089901b82811015613934576001820391505b608084901b9290038281101561394b576001820391505b829003608084901c821461395b57fe5b88818161396457fe5b04870196505050505050505b6001600160801b03811115610e5257600080fd5b60008161399357506000610a57565b600083600f0b12156139a457600080fd5b600f83900b6001600160801b038316810260401c90608084901c0277ffffffffffffffffffffffffffffffffffffffffffffffff8111156139e457600080fd5b60401b81198111156139f557600080fd5b019392505050565b6060612a83848460008585613a1185613b17565b613a62576040805162461bcd60e51b815260206004820152601d60248201527f416464726573733a2063616c6c20746f206e6f6e2d636f6e7472616374000000604482015290519081900360640190fd5b600080866001600160a01b031685876040518082805190602001908083835b60208310613aa05780518252601f199092019160209182019101613a81565b6001836020036101000a03801982511681845116808217855250505050505090500191505060006040518083038185875af1925050503d8060008114613b02576040519150601f19603f3d011682016040523d82523d6000602084013e613b07565b606091505b509150915061272f828286613b1d565b3b151590565b60608315613b2c575081610e52565b825115613b3c5782518084602001fd5b8160405162461bcd60e51b81526004018080602001828103825283818151815260200191508051906020019080838360005b83811015613b86578181015183820152602001613b6e565b50505050905090810190601f168015613bb35780820380516001836020036101000a031916815260200191505b509250505060405180910390fd5b82805482825590600052602060002090600101600290048101928215613c6c5791602002820160005b83821115613c3757835183826101000a8154816001600160801b030219169083600f0b6001600160801b031602179055509260200192601001602081600f01049283019260010302613bea565b8015613c6a5782816101000a8154906001600160801b030219169055601001602081600f01049283019260010302613c37565b505b50613c78929150613c7c565b5090565b5b80821115613c785760008155600101613c7d56fe5361666545524332303a204552433230206f7065726174696f6e20646964206e6f742073756363656564a26469706673582212206a75501087ef2017b4162d83b9ab4f463c74ba0ee975b96e30ae6e163732155264736f6c63430007060033",
  "devdoc": {
    "author": "Marto (built based on Abdulla Al-Kamil implementation)",
    "details": "Feel free to make any adjustments to the code",
    "kind": "dev",
    "methods": {
      "buy(uint256,int128)": {
        "params": {
          "_amount": "This is the number of outcome tokens purchased (signed 64.64-bit fixed point number)",
          "_outcome": "The outcome(s) which a user is buying tokens for (1 for YES, 2 for NO)"
        },
        "returns": {
          "_cost": "The total amount of tokens received from selling the _amount of shares"
        }
      },
      "initialize(address)": {
        "params": {
          "_token": "ERC-20 token will be used to purchase and redeem rewards for this Market"
        }
      },
      "redeemBatch(address[])": {
        "details": "The list of accounts could be calculated using the \"SharesBought\" event"
      },
      "redeemShares()": {
        "details": "The redeem account will be the current msg sender of the tx"
      },
      "reportResult(uint256,uint256)": {
        "params": {
          "_id": "Unique identifier received on market setup",
          "_outcome": "The resulted outcome of the market"
        }
      },
      "sell(uint256,int128)": {
        "params": {
          "_amount": "This is the number of outcome tokens purchased (signed 64.64-bit fixed point number)",
          "_outcome": "The outcome(s) which a user is buying tokens for (e.g.: 1 for YES, 2 for NO)"
        },
        "returns": {
          "_returned": "The total amount of tokens received from selling the _amount of shares"
        }
      },
      "setup(uint256,address,uint256,uint256,uint256)": {
        "params": {
          "_id": "The market id should be unique for each master",
          "_oracle": "The address for the EOA or contract which will report the result for this Market",
          "_overround": "AMM profit margin in bps (Note that 200 represents 2% of the subsidy)",
          "_subsidy": "How much initial funding is used to seed the market (denominated on initialized token)",
          "_totalOutcomes": "The number of different outcomes possible for this market (currently fixed at 2)"
        }
      },
      "updateDates(uint256,uint256)": {
        "params": {
          "_endTimestamp": "Block timestamp when the market ends trading and enable report results",
          "_startTimestamp": "Block timestamp when the market start allowing shares trading"
        }
      },
      "updateOracle(address)": {
        "params": {
          "_newOracle": "address of an EOA or contract that can close the market"
        }
      }
    },
    "title": "PrecogMasterV6: An implementation for liquidity-sensitive LMSR market maker in Solidity",
    "version": 1
  },
  "userdoc": {
    "kind": "user",
    "methods": {
      "_buy(uint256,int128,address)": {
        "notice": "Internal Buy function used by the public Buy function and PrecogMaster (to facilitate token approvals)"
      },
      "_redeem(address)": {
        "notice": "Internal Redeem function used by single share redeeming and redeem in batch"
      },
      "_sell(uint256,int128,address)": {
        "notice": "Internal Sell function used by the public Sell function and PrecogMaster (to facilitate token approvals)"
      },
      "buy(uint256,int128)": {
        "notice": "This function is used to buy outcome tokens."
      },
      "buyPrice(uint256,int128)": {
        "notice": "This function tells you how much it will cost to make a particular BUY trade.  It does this by calculating the difference between the current cost and the cost after the trade."
      },
      "cost()": {
        "notice": "Total amount of collateral spent in this Market  For example, if a market was seeded with 2000 PRE and then a further 20 PRE has been spent,  this function will return 2020 PRE."
      },
      "getAccountOutcomeBalances(address)": {
        "notice": "Get amount of shares that an account owns for all outcomes (index 0 should will always be empty)"
      },
      "getMarketInfo()": {
        "notice": "Get current market state information:  total shares (all outcomes), shares balances (by outcome), current liquidity, buys counter, sells counter"
      },
      "initialize(address)": {
        "notice": "Constructor like function for the market maker"
      },
      "redeemBatch(address[])": {
        "notice": "Used to redeem token gains in batch (could only be used by the oracle)"
      },
      "redeemShares()": {
        "notice": "Used to redeem token gains (only the market is already closed)"
      },
      "reportResult(uint256,uint256)": {
        "notice": "Used to report results of the market (only for defined oracle)"
      },
      "sell(uint256,int128)": {
        "notice": "This function is used to sell outcome tokens already bought."
      },
      "sellPrice(uint256,int128)": {
        "notice": "This function tells you how much it will return making a particular SELL trade.  It does this by calculating the difference between the current cost and the cost after the trade."
      },
      "setup(uint256,address,uint256,uint256,uint256)": {
        "notice": "Set up some of the variables for the market maker"
      },
      "transferOwnership(address)": {
        "notice": "Admin function to transfer the ownership of this contract"
      },
      "updateDates(uint256,uint256)": {
        "notice": "Used to update open market periods"
      },
      "updateOracle(address)": {
        "notice": "Used to update oracle address"
      },
      "withdraw(address)": {
        "notice": "Used to retrieve any liquidity left on the market (allowed only when market is closed)"
      }
    },
    "version": 1
  },
  "storageLayout": {
    "storage": [
      {
        "astId": 14473,
        "contract": "contracts/PrecogMarketV6.sol:PrecogMarketV6",
        "label": "owner",
        "offset": 0,
        "slot": "0",
        "type": "t_address"
      },
      {
        "astId": 14475,
        "contract": "contracts/PrecogMarketV6.sol:PrecogMarketV6",
        "label": "token",
        "offset": 0,
        "slot": "1",
        "type": "t_address"
      },
      {
        "astId": 14477,
        "contract": "contracts/PrecogMarketV6.sol:PrecogMarketV6",
        "label": "id",
        "offset": 0,
        "slot": "2",
        "type": "t_uint256"
      },
      {
        "astId": 14479,
        "contract": "contracts/PrecogMarketV6.sol:PrecogMarketV6",
        "label": "oracle",
        "offset": 0,
        "slot": "3",
        "type": "t_address"
      },
      {
        "astId": 14481,
        "contract": "contracts/PrecogMarketV6.sol:PrecogMarketV6",
        "label": "startTimestamp",
        "offset": 0,
        "slot": "4",
        "type": "t_uint256"
      },
      {
        "astId": 14483,
        "contract": "contracts/PrecogMarketV6.sol:PrecogMarketV6",
        "label": "endTimestamp",
        "offset": 0,
        "slot": "5",
        "type": "t_uint256"
      },
      {
        "astId": 14485,
        "contract": "contracts/PrecogMarketV6.sol:PrecogMarketV6",
        "label": "closeTimestamp",
        "offset": 0,
        "slot": "6",
        "type": "t_uint256"
      },
      {
        "astId": 14487,
        "contract": "contracts/PrecogMarketV6.sol:PrecogMarketV6",
        "label": "result",
        "offset": 0,
        "slot": "7",
        "type": "t_uint256"
      },
      {
        "astId": 14491,
        "contract": "contracts/PrecogMarketV6.sol:PrecogMarketV6",
        "label": "accountShares",
        "offset": 0,
        "slot": "8",
        "type": "t_mapping(t_address,t_struct(SharesInfo)14471_storage)"
      },
      {
        "astId": 14493,
        "contract": "contracts/PrecogMarketV6.sol:PrecogMarketV6",
        "label": "totalOutcomes",
        "offset": 0,
        "slot": "9",
        "type": "t_uint256"
      },
      {
        "astId": 14496,
        "contract": "contracts/PrecogMarketV6.sol:PrecogMarketV6",
        "label": "shares",
        "offset": 0,
        "slot": "10",
        "type": "t_array(t_int128)dyn_storage"
      },
      {
        "astId": 14498,
        "contract": "contracts/PrecogMarketV6.sol:PrecogMarketV6",
        "label": "beta",
        "offset": 0,
        "slot": "11",
        "type": "t_int128"
      },
      {
        "astId": 14500,
        "contract": "contracts/PrecogMarketV6.sol:PrecogMarketV6",
        "label": "alpha",
        "offset": 16,
        "slot": "11",
        "type": "t_int128"
      },
      {
        "astId": 14502,
        "contract": "contracts/PrecogMarketV6.sol:PrecogMarketV6",
        "label": "dust",
        "offset": 0,
        "slot": "12",
        "type": "t_int128"
      },
      {
        "astId": 14504,
        "contract": "contracts/PrecogMarketV6.sol:PrecogMarketV6",
        "label": "currentCost",
        "offset": 16,
        "slot": "12",
        "type": "t_int128"
      },
      {
        "astId": 14506,
        "contract": "contracts/PrecogMarketV6.sol:PrecogMarketV6",
        "label": "totalShares",
        "offset": 0,
        "slot": "13",
        "type": "t_int128"
      },
      {
        "astId": 14508,
        "contract": "contracts/PrecogMarketV6.sol:PrecogMarketV6",
        "label": "totalBuys",
        "offset": 0,
        "slot": "14",
        "type": "t_uint256"
      },
      {
        "astId": 14510,
        "contract": "contracts/PrecogMarketV6.sol:PrecogMarketV6",
        "label": "totalSells",
        "offset": 0,
        "slot": "15",
        "type": "t_uint256"
      },
      {
        "astId": 14512,
        "contract": "contracts/PrecogMarketV6.sol:PrecogMarketV6",
        "label": "marketSetup",
        "offset": 0,
        "slot": "16",
        "type": "t_bool"
      },
      {
        "astId": 14514,
        "contract": "contracts/PrecogMarketV6.sol:PrecogMarketV6",
        "label": "internalCall",
        "offset": 1,
        "slot": "16",
        "type": "t_bool"
      }
    ],
    "types": {
      "t_address": {
        "encoding": "inplace",
        "label": "address",
        "numberOfBytes": "20"
      },
      "t_array(t_int128)dyn_storage": {
        "base": "t_int128",
        "encoding": "dynamic_array",
        "label": "int128[]",
        "numberOfBytes": "32"
      },
      "t_bool": {
        "encoding": "inplace",
        "label": "bool",
        "numberOfBytes": "1"
      },
      "t_int128": {
        "encoding": "inplace",
        "label": "int128",
        "numberOfBytes": "16"
      },
      "t_mapping(t_address,t_struct(SharesInfo)14471_storage)": {
        "encoding": "mapping",
        "key": "t_address",
        "label": "mapping(address => struct PrecogMarketV6.SharesInfo)",
        "numberOfBytes": "32",
        "value": "t_struct(SharesInfo)14471_storage"
      },
      "t_mapping(t_uint256,t_uint256)": {
        "encoding": "mapping",
        "key": "t_uint256",
        "label": "mapping(uint256 => uint256)",
        "numberOfBytes": "32",
        "value": "t_uint256"
      },
      "t_struct(SharesInfo)14471_storage": {
        "encoding": "inplace",
        "label": "struct PrecogMarketV6.SharesInfo",
        "members": [
          {
            "astId": 14458,
            "contract": "contracts/PrecogMarketV6.sol:PrecogMarketV6",
            "label": "buys",
            "offset": 0,
            "slot": "0",
            "type": "t_uint256"
          },
          {
            "astId": 14460,
            "contract": "contracts/PrecogMarketV6.sol:PrecogMarketV6",
            "label": "sells",
            "offset": 0,
            "slot": "1",
            "type": "t_uint256"
          },
          {
            "astId": 14462,
            "contract": "contracts/PrecogMarketV6.sol:PrecogMarketV6",
            "label": "deposited",
            "offset": 0,
            "slot": "2",
            "type": "t_uint256"
          },
          {
            "astId": 14464,
            "contract": "contracts/PrecogMarketV6.sol:PrecogMarketV6",
            "label": "withdrew",
            "offset": 0,
            "slot": "3",
            "type": "t_uint256"
          },
          {
            "astId": 14466,
            "contract": "contracts/PrecogMarketV6.sol:PrecogMarketV6",
            "label": "redeemed",
            "offset": 0,
            "slot": "4",
            "type": "t_uint256"
          },
          {
            "astId": 14470,
            "contract": "contracts/PrecogMarketV6.sol:PrecogMarketV6",
            "label": "balances",
            "offset": 0,
            "slot": "5",
            "type": "t_mapping(t_uint256,t_uint256)"
          }
        ],
        "numberOfBytes": "192"
      },
      "t_uint256": {
        "encoding": "inplace",
        "label": "uint256",
        "numberOfBytes": "32"
      }
    }
  }
}