{
  "address": "0x1eB088E48341F22385c14E2bD25D7Eccc6BB496B",
  "abi": [
    {
      "inputs": [
        {
          "internalType": "address",
          "name": "precogToken",
          "type": "address"
        },
        {
          "internalType": "address",
          "name": "initialAdmin",
          "type": "address"
        }
      ],
      "stateMutability": "nonpayable",
      "type": "constructor"
    },
    {
      "anonymous": false,
      "inputs": [
        {
          "indexed": true,
          "internalType": "bytes32",
          "name": "role",
          "type": "bytes32"
        },
        {
          "indexed": true,
          "internalType": "bytes32",
          "name": "previousAdminRole",
          "type": "bytes32"
        },
        {
          "indexed": true,
          "internalType": "bytes32",
          "name": "newAdminRole",
          "type": "bytes32"
        }
      ],
      "name": "RoleAdminChanged",
      "type": "event"
    },
    {
      "anonymous": false,
      "inputs": [
        {
          "indexed": true,
          "internalType": "bytes32",
          "name": "role",
          "type": "bytes32"
        },
        {
          "indexed": true,
          "internalType": "address",
          "name": "account",
          "type": "address"
        },
        {
          "indexed": true,
          "internalType": "address",
          "name": "sender",
          "type": "address"
        }
      ],
      "name": "RoleGranted",
      "type": "event"
    },
    {
      "anonymous": false,
      "inputs": [
        {
          "indexed": true,
          "internalType": "bytes32",
          "name": "role",
          "type": "bytes32"
        },
        {
          "indexed": true,
          "internalType": "address",
          "name": "account",
          "type": "address"
        },
        {
          "indexed": true,
          "internalType": "address",
          "name": "sender",
          "type": "address"
        }
      ],
      "name": "RoleRevoked",
      "type": "event"
    },
    {
      "anonymous": false,
      "inputs": [
        {
          "indexed": true,
          "internalType": "address",
          "name": "account",
          "type": "address"
        },
        {
          "indexed": true,
          "internalType": "uint256",
          "name": "user",
          "type": "uint256"
        },
        {
          "indexed": false,
          "internalType": "uint256",
          "name": "amount",
          "type": "uint256"
        },
        {
          "indexed": false,
          "internalType": "uint256",
          "name": "timestamp",
          "type": "uint256"
        }
      ],
      "name": "TokensClaimed",
      "type": "event"
    },
    {
      "anonymous": false,
      "inputs": [
        {
          "indexed": true,
          "internalType": "address",
          "name": "account",
          "type": "address"
        },
        {
          "indexed": false,
          "internalType": "uint256",
          "name": "amount",
          "type": "uint256"
        },
        {
          "indexed": false,
          "internalType": "uint256",
          "name": "timestamp",
          "type": "uint256"
        }
      ],
      "name": "TokensMinted",
      "type": "event"
    },
    {
      "inputs": [],
      "name": "ADMIN_ROLE",
      "outputs": [
        {
          "internalType": "bytes32",
          "name": "",
          "type": "bytes32"
        }
      ],
      "stateMutability": "view",
      "type": "function"
    },
    {
      "inputs": [],
      "name": "CALLER_ROLE",
      "outputs": [
        {
          "internalType": "bytes32",
          "name": "",
          "type": "bytes32"
        }
      ],
      "stateMutability": "view",
      "type": "function"
    },
    {
      "inputs": [],
      "name": "DEFAULT_ADMIN_ROLE",
      "outputs": [
        {
          "internalType": "bytes32",
          "name": "",
          "type": "bytes32"
        }
      ],
      "stateMutability": "view",
      "type": "function"
    },
    {
      "inputs": [
        {
          "internalType": "address",
          "name": "",
          "type": "address"
        }
      ],
      "name": "accountTokenClaims",
      "outputs": [
        {
          "internalType": "address",
          "name": "account",
          "type": "address"
        },
        {
          "internalType": "uint256",
          "name": "user",
          "type": "uint256"
        },
        {
          "internalType": "uint256",
          "name": "claimedAmount",
          "type": "uint256"
        },
        {
          "internalType": "uint256",
          "name": "claimedTimestamp",
          "type": "uint256"
        }
      ],
      "stateMutability": "view",
      "type": "function"
    },
    {
      "inputs": [
        {
          "internalType": "address",
          "name": "account",
          "type": "address"
        }
      ],
      "name": "addAdmin",
      "outputs": [],
      "stateMutability": "nonpayable",
      "type": "function"
    },
    {
      "inputs": [
        {
          "internalType": "address",
          "name": "account",
          "type": "address"
        }
      ],
      "name": "addCaller",
      "outputs": [],
      "stateMutability": "nonpayable",
      "type": "function"
    },
    {
      "inputs": [
        {
          "internalType": "address",
          "name": "account",
          "type": "address"
        },
        {
          "internalType": "uint256",
          "name": "user",
          "type": "uint256"
        },
        {
          "internalType": "uint256",
          "name": "amount",
          "type": "uint256"
        }
      ],
      "name": "claimToken",
      "outputs": [
        {
          "internalType": "bool",
          "name": "",
          "type": "bool"
        }
      ],
      "stateMutability": "nonpayable",
      "type": "function"
    },
    {
      "inputs": [
        {
          "internalType": "string",
          "name": "name",
          "type": "string"
        },
        {
          "internalType": "string",
          "name": "description",
          "type": "string"
        },
        {
          "internalType": "string",
          "name": "category",
          "type": "string"
        },
        {
          "internalType": "uint256",
          "name": "startTimestamp",
          "type": "uint256"
        },
        {
          "internalType": "uint256",
          "name": "endTimestamp",
          "type": "uint256"
        },
        {
          "internalType": "uint256",
          "name": "funding",
          "type": "uint256"
        },
        {
          "internalType": "uint256",
          "name": "dustFee",
          "type": "uint256"
        },
        {
          "internalType": "address",
          "name": "creator",
          "type": "address"
        }
      ],
      "name": "createMarket",
      "outputs": [
        {
          "internalType": "uint256",
          "name": "newMarketId",
          "type": "uint256"
        }
      ],
      "stateMutability": "nonpayable",
      "type": "function"
    },
    {
      "inputs": [],
      "name": "createdMarkets",
      "outputs": [
        {
          "internalType": "uint256",
          "name": "",
          "type": "uint256"
        }
      ],
      "stateMutability": "view",
      "type": "function"
    },
    {
      "inputs": [],
      "name": "currentSeason",
      "outputs": [
        {
          "internalType": "uint256",
          "name": "",
          "type": "uint256"
        }
      ],
      "stateMutability": "view",
      "type": "function"
    },
    {
      "inputs": [
        {
          "internalType": "bytes32",
          "name": "role",
          "type": "bytes32"
        }
      ],
      "name": "getRoleAdmin",
      "outputs": [
        {
          "internalType": "bytes32",
          "name": "",
          "type": "bytes32"
        }
      ],
      "stateMutability": "view",
      "type": "function"
    },
    {
      "inputs": [
        {
          "internalType": "bytes32",
          "name": "role",
          "type": "bytes32"
        },
        {
          "internalType": "uint256",
          "name": "index",
          "type": "uint256"
        }
      ],
      "name": "getRoleMember",
      "outputs": [
        {
          "internalType": "address",
          "name": "",
          "type": "address"
        }
      ],
      "stateMutability": "view",
      "type": "function"
    },
    {
      "inputs": [
        {
          "internalType": "bytes32",
          "name": "role",
          "type": "bytes32"
        }
      ],
      "name": "getRoleMemberCount",
      "outputs": [
        {
          "internalType": "uint256",
          "name": "",
          "type": "uint256"
        }
      ],
      "stateMutability": "view",
      "type": "function"
    },
    {
      "inputs": [
        {
          "internalType": "bytes32",
          "name": "role",
          "type": "bytes32"
        },
        {
          "internalType": "address",
          "name": "account",
          "type": "address"
        }
      ],
      "name": "grantRole",
      "outputs": [],
      "stateMutability": "nonpayable",
      "type": "function"
    },
    {
      "inputs": [
        {
          "internalType": "address",
          "name": "account",
          "type": "address"
        },
        {
          "internalType": "uint256",
          "name": "user",
          "type": "uint256"
        }
      ],
      "name": "hadClaimed",
      "outputs": [
        {
          "internalType": "bool",
          "name": "",
          "type": "bool"
        }
      ],
      "stateMutability": "view",
      "type": "function"
    },
    {
      "inputs": [
        {
          "internalType": "uint256",
          "name": "marketId",
          "type": "uint256"
        },
        {
          "internalType": "address",
          "name": "account",
          "type": "address"
        }
      ],
      "name": "hasRedeemedShares",
      "outputs": [
        {
          "internalType": "bool",
          "name": "",
          "type": "bool"
        }
      ],
      "stateMutability": "view",
      "type": "function"
    },
    {
      "inputs": [
        {
          "internalType": "bytes32",
          "name": "role",
          "type": "bytes32"
        },
        {
          "internalType": "address",
          "name": "account",
          "type": "address"
        }
      ],
      "name": "hasRole",
      "outputs": [
        {
          "internalType": "bool",
          "name": "",
          "type": "bool"
        }
      ],
      "stateMutability": "view",
      "type": "function"
    },
    {
      "inputs": [
        {
          "internalType": "uint256",
          "name": "marketId",
          "type": "uint256"
        },
        {
          "internalType": "address",
          "name": "account",
          "type": "address"
        }
      ],
      "name": "marketAccountShares",
      "outputs": [
        {
          "internalType": "uint256",
          "name": "buys",
          "type": "uint256"
        },
        {
          "internalType": "uint256",
          "name": "sells",
          "type": "uint256"
        },
        {
          "internalType": "uint256",
          "name": "outOne",
          "type": "uint256"
        },
        {
          "internalType": "uint256",
          "name": "outTwo",
          "type": "uint256"
        },
        {
          "internalType": "uint256",
          "name": "deposited",
          "type": "uint256"
        },
        {
          "internalType": "uint256",
          "name": "withdrew",
          "type": "uint256"
        },
        {
          "internalType": "uint256",
          "name": "redeemed",
          "type": "uint256"
        }
      ],
      "stateMutability": "view",
      "type": "function"
    },
    {
      "inputs": [
        {
          "internalType": "uint256",
          "name": "marketId",
          "type": "uint256"
        },
        {
          "internalType": "uint256",
          "name": "outcome",
          "type": "uint256"
        },
        {
          "internalType": "int128",
          "name": "sharesAmount",
          "type": "int128"
        },
        {
          "internalType": "uint256",
          "name": "maxAmountIn",
          "type": "uint256"
        }
      ],
      "name": "marketBuy",
      "outputs": [
        {
          "internalType": "uint256",
          "name": "amountIn",
          "type": "uint256"
        }
      ],
      "stateMutability": "nonpayable",
      "type": "function"
    },
    {
      "inputs": [
        {
          "internalType": "uint256",
          "name": "marketId",
          "type": "uint256"
        },
        {
          "internalType": "uint256",
          "name": "outcome",
          "type": "uint256"
        },
        {
          "internalType": "int128",
          "name": "sharesAmount",
          "type": "int128"
        }
      ],
      "name": "marketBuyPrice",
      "outputs": [
        {
          "internalType": "int128",
          "name": "",
          "type": "int128"
        }
      ],
      "stateMutability": "view",
      "type": "function"
    },
    {
      "inputs": [
        {
          "internalType": "uint256",
          "name": "marketId",
          "type": "uint256"
        }
      ],
      "name": "marketRedeemShares",
      "outputs": [
        {
          "internalType": "uint256",
          "name": "shares",
          "type": "uint256"
        }
      ],
      "stateMutability": "nonpayable",
      "type": "function"
    },
    {
      "inputs": [
        {
          "internalType": "uint256",
          "name": "marketId",
          "type": "uint256"
        },
        {
          "internalType": "uint256",
          "name": "outcome",
          "type": "uint256"
        },
        {
          "internalType": "int128",
          "name": "sharesAmount",
          "type": "int128"
        },
        {
          "internalType": "uint256",
          "name": "minAmountOut",
          "type": "uint256"
        }
      ],
      "name": "marketSell",
      "outputs": [
        {
          "internalType": "uint256",
          "name": "amountOut",
          "type": "uint256"
        }
      ],
      "stateMutability": "nonpayable",
      "type": "function"
    },
    {
      "inputs": [
        {
          "internalType": "uint256",
          "name": "marketId",
          "type": "uint256"
        },
        {
          "internalType": "uint256",
          "name": "outcome",
          "type": "uint256"
        },
        {
          "internalType": "int128",
          "name": "sharesAmount",
          "type": "int128"
        }
      ],
      "name": "marketSellPrice",
      "outputs": [
        {
          "internalType": "int128",
          "name": "",
          "type": "int128"
        }
      ],
      "stateMutability": "view",
      "type": "function"
    },
    {
      "inputs": [
        {
          "internalType": "uint256",
          "name": "marketId",
          "type": "uint256"
        }
      ],
      "name": "marketSharesInfo",
      "outputs": [
        {
          "internalType": "int128",
          "name": "totalShares",
          "type": "int128"
        },
        {
          "internalType": "int128",
          "name": "qOne",
          "type": "int128"
        },
        {
          "internalType": "int128",
          "name": "qTwo",
          "type": "int128"
        },
        {
          "internalType": "int128",
          "name": "cost",
          "type": "int128"
        },
        {
          "internalType": "uint256",
          "name": "totalBuys",
          "type": "uint256"
        },
        {
          "internalType": "uint256",
          "name": "totalSells",
          "type": "uint256"
        }
      ],
      "stateMutability": "view",
      "type": "function"
    },
    {
      "inputs": [
        {
          "internalType": "uint256",
          "name": "marketId",
          "type": "uint256"
        },
        {
          "internalType": "address",
          "name": "marketToken",
          "type": "address"
        }
      ],
      "name": "marketWithdraw",
      "outputs": [],
      "stateMutability": "nonpayable",
      "type": "function"
    },
    {
      "inputs": [
        {
          "internalType": "uint256",
          "name": "",
          "type": "uint256"
        }
      ],
      "name": "markets",
      "outputs": [
        {
          "internalType": "string",
          "name": "name",
          "type": "string"
        },
        {
          "internalType": "string",
          "name": "description",
          "type": "string"
        },
        {
          "internalType": "string",
          "name": "category",
          "type": "string"
        },
        {
          "internalType": "uint256",
          "name": "startTimestamp",
          "type": "uint256"
        },
        {
          "internalType": "uint256",
          "name": "endTimestamp",
          "type": "uint256"
        },
        {
          "internalType": "address",
          "name": "market",
          "type": "address"
        },
        {
          "internalType": "address",
          "name": "creator",
          "type": "address"
        }
      ],
      "stateMutability": "view",
      "type": "function"
    },
    {
      "inputs": [
        {
          "internalType": "uint256",
          "name": "",
          "type": "uint256"
        }
      ],
      "name": "miningSeasons",
      "outputs": [
        {
          "internalType": "uint256",
          "name": "startTimestamp",
          "type": "uint256"
        },
        {
          "internalType": "uint256",
          "name": "endTimestamp",
          "type": "uint256"
        },
        {
          "internalType": "uint256",
          "name": "maxUserClaim",
          "type": "uint256"
        },
        {
          "internalType": "uint256",
          "name": "maxTotalClaim",
          "type": "uint256"
        },
        {
          "internalType": "uint256",
          "name": "maxTotalMint",
          "type": "uint256"
        },
        {
          "internalType": "uint256",
          "name": "claimedAmount",
          "type": "uint256"
        },
        {
          "internalType": "uint256",
          "name": "mintedAmount",
          "type": "uint256"
        }
      ],
      "stateMutability": "view",
      "type": "function"
    },
    {
      "inputs": [
        {
          "internalType": "address",
          "name": "from",
          "type": "address"
        },
        {
          "internalType": "uint256",
          "name": "amount",
          "type": "uint256"
        }
      ],
      "name": "precogBurn",
      "outputs": [],
      "stateMutability": "nonpayable",
      "type": "function"
    },
    {
      "inputs": [
        {
          "internalType": "address",
          "name": "to",
          "type": "address"
        },
        {
          "internalType": "uint256",
          "name": "amount",
          "type": "uint256"
        }
      ],
      "name": "precogMint",
      "outputs": [],
      "stateMutability": "nonpayable",
      "type": "function"
    },
    {
      "inputs": [
        {
          "internalType": "address",
          "name": "newPrecogMaster",
          "type": "address"
        }
      ],
      "name": "precogTransferOwnership",
      "outputs": [],
      "stateMutability": "nonpayable",
      "type": "function"
    },
    {
      "inputs": [
        {
          "internalType": "address",
          "name": "account",
          "type": "address"
        }
      ],
      "name": "removeAdmin",
      "outputs": [],
      "stateMutability": "nonpayable",
      "type": "function"
    },
    {
      "inputs": [
        {
          "internalType": "address",
          "name": "account",
          "type": "address"
        }
      ],
      "name": "removeCaller",
      "outputs": [],
      "stateMutability": "nonpayable",
      "type": "function"
    },
    {
      "inputs": [
        {
          "internalType": "bytes32",
          "name": "role",
          "type": "bytes32"
        },
        {
          "internalType": "address",
          "name": "account",
          "type": "address"
        }
      ],
      "name": "renounceRole",
      "outputs": [],
      "stateMutability": "nonpayable",
      "type": "function"
    },
    {
      "inputs": [
        {
          "internalType": "bytes32",
          "name": "role",
          "type": "bytes32"
        },
        {
          "internalType": "address",
          "name": "account",
          "type": "address"
        }
      ],
      "name": "revokeRole",
      "outputs": [],
      "stateMutability": "nonpayable",
      "type": "function"
    },
    {
      "inputs": [
        {
          "internalType": "address",
          "name": "_market",
          "type": "address"
        }
      ],
      "name": "setBaseMarket",
      "outputs": [],
      "stateMutability": "nonpayable",
      "type": "function"
    },
    {
      "inputs": [
        {
          "internalType": "address",
          "name": "_oracle",
          "type": "address"
        }
      ],
      "name": "setBaseOracle",
      "outputs": [],
      "stateMutability": "nonpayable",
      "type": "function"
    },
    {
      "inputs": [
        {
          "internalType": "uint256",
          "name": "seasonIndex",
          "type": "uint256"
        },
        {
          "internalType": "uint256",
          "name": "startTimestamp",
          "type": "uint256"
        },
        {
          "internalType": "uint256",
          "name": "endTimestamp",
          "type": "uint256"
        },
        {
          "internalType": "uint256",
          "name": "maxUserClaim",
          "type": "uint256"
        },
        {
          "internalType": "uint256",
          "name": "maxTotalClaim",
          "type": "uint256"
        },
        {
          "internalType": "uint256",
          "name": "maxTotalMint",
          "type": "uint256"
        },
        {
          "internalType": "uint256",
          "name": "claimedAmount",
          "type": "uint256"
        },
        {
          "internalType": "uint256",
          "name": "mintedAmount",
          "type": "uint256"
        }
      ],
      "name": "setMiningSeason",
      "outputs": [],
      "stateMutability": "nonpayable",
      "type": "function"
    },
    {
      "inputs": [],
      "name": "token",
      "outputs": [
        {
          "internalType": "address",
          "name": "",
          "type": "address"
        }
      ],
      "stateMutability": "view",
      "type": "function"
    },
    {
      "inputs": [
        {
          "internalType": "uint256",
          "name": "seasonIndex",
          "type": "uint256"
        }
      ],
      "name": "updateCurrentSeason",
      "outputs": [],
      "stateMutability": "nonpayable",
      "type": "function"
    },
    {
      "inputs": [
        {
          "internalType": "uint256",
          "name": "id",
          "type": "uint256"
        },
        {
          "internalType": "string",
          "name": "name",
          "type": "string"
        },
        {
          "internalType": "string",
          "name": "description",
          "type": "string"
        },
        {
          "internalType": "string",
          "name": "category",
          "type": "string"
        },
        {
          "internalType": "uint256",
          "name": "startTimestamp",
          "type": "uint256"
        },
        {
          "internalType": "uint256",
          "name": "endTimestamp",
          "type": "uint256"
        },
        {
          "internalType": "address",
          "name": "creator",
          "type": "address"
        }
      ],
      "name": "updateMarket",
      "outputs": [],
      "stateMutability": "nonpayable",
      "type": "function"
    },
    {
      "inputs": [
        {
          "internalType": "address",
          "name": "account",
          "type": "address"
        },
        {
          "internalType": "uint256",
          "name": "amount",
          "type": "uint256"
        },
        {
          "internalType": "uint256",
          "name": "timestamp",
          "type": "uint256"
        }
      ],
      "name": "updateTokenClaim",
      "outputs": [],
      "stateMutability": "nonpayable",
      "type": "function"
    },
    {
      "inputs": [
        {
          "internalType": "uint256",
          "name": "",
          "type": "uint256"
        }
      ],
      "name": "userTokenClaims",
      "outputs": [
        {
          "internalType": "address",
          "name": "account",
          "type": "address"
        },
        {
          "internalType": "uint256",
          "name": "user",
          "type": "uint256"
        },
        {
          "internalType": "uint256",
          "name": "claimedAmount",
          "type": "uint256"
        },
        {
          "internalType": "uint256",
          "name": "claimedTimestamp",
          "type": "uint256"
        }
      ],
      "stateMutability": "view",
      "type": "function"
    },
    {
      "inputs": [
        {
          "internalType": "address",
          "name": "_token",
          "type": "address"
        }
      ],
      "name": "withdraw",
      "outputs": [],
      "stateMutability": "nonpayable",
      "type": "function"
    }
  ],
  "transactionHash": "0xc0b4cec6c60d1d68d30674bc7f931b6c899081611e61833d604e249914dd5ff5",
  "args": [
    "0x7779ec685Aa0bf5483B3e0c15dAf246d2d978888",
    "0x9475A4C1BF5Fc80aE079303f14B523da19619c16"
  ],
  "numDeployments": 1,
  "solcInputHash": "5a77a6b1c83242e22670c8f88601db36",
  "bytecode": "0x60806040523480156200001157600080fd5b506040516200393e3803806200393e833981810160405260408110156200003757600080fd5b5080516020909101516200004d600082620000c6565b620000887f843c3a00fa95510a35f425371231fd3fe4642e719cb4595160763d6d02594b506000805160206200391e833981519152620000d6565b600180546001600160a01b0319166001600160a01b038416179055620000be6000805160206200391e83398151915282620000c6565b50506200022c565b620000d2828262000128565b5050565b600082815260208190526040808220600201549051839285917fbd79b86ffe0ab8e8776151514217cd7cacd52c909f66475c3af44e129f0b00ff9190a460009182526020829052604090912060020155565b6000828152602081815260409091206200014d9183906200310d620001a1821b17901c565b15620000d2576200015d620001c1565b6001600160a01b0316816001600160a01b0316837f2f8788117e7eff1d82e926ec794901d17c78024a50270940304540a733656f0d60405160405180910390a45050565b6000620001b8836001600160a01b038416620001c5565b90505b92915050565b3390565b6000620001d3838362000214565b6200020b57508154600181810184556000848152602080822090930184905584548482528286019093526040902091909155620001bb565b506000620001bb565b60009081526001919091016020526040902054151590565b6136e2806200023c6000396000f3fe608060405234801561001057600080fd5b50600436106102e95760003560e01c80639010d07c11610191578063bcb39621116100e3578063d6fb7d7911610097578063f2fd594311610071578063f2fd594314610dc7578063f944a5ff14610de4578063fc0c546a14610e10576102e9565b8063d6fb7d7914610d58578063de02852a14610d75578063eef21cd214610da1576102e9565b8063cdf646d6116100c8578063cdf646d614610bc4578063d33bfe4f14610cfa578063d547741f14610d2c576102e9565b8063bcb3962114610b9f578063ca15c87314610ba7576102e9565b8063a9683f6e11610145578063b608b8f41161011f578063b608b8f414610b19578063bb31675a14610b36578063bc05b80614610b5c576102e9565b8063a9683f6e14610926578063b1283e7714610982578063b590b56f14610b11576102e9565b80639971537c116101765780639971537c146108c05780639c6c412e146108ec578063a217fddf1461091e576102e9565b80639010d07c1461085557806391d1485414610894576102e9565b806336568abe1161024a5780636354eeb3116101fe578063747293fb116101d8578063747293fb1461081f57806375b238fc14610845578063774237fc1461084d576102e9565b80636354eeb3146107a157806370480275146107d357806370f4a7ae146107f9576102e9565b80634836e8671161022f5780634836e86714610548578063512eee11146105ac57806351cff8d91461077b576102e9565b806336568abe146104ff5780633dc2724a1461052b576102e9565b806319fa3140116102a15780632f2ff15d116102865780632f2ff15d1461045f5780632fb1541b1461048b57806330829a20146104d3576102e9565b806319fa314014610402578063248a9ca314610442576102e9565b8063129c7ce4116102d2578063129c7ce41461036c57806314ae3ffc146103b05780631785f53c146103dc576102e9565b8063020917fe146102ee578063127e9cbd14610316575b600080fd5b6103146004803603602081101561030457600080fd5b50356001600160a01b0316610e18565b005b61033c6004803603602081101561032c57600080fd5b50356001600160a01b0316610ef1565b604080516001600160a01b0390951685526020850193909352838301919091526060830152519081900360800190f35b61039e6004803603608081101561038257600080fd5b508035906020810135906040810135600f0b9060600135610f22565b60408051918252519081900360200190f35b610314600480360360408110156103c657600080fd5b506001600160a01b0381351690602001356110fe565b610314600480360360208110156103f257600080fd5b50356001600160a01b03166111df565b61042e6004803603604081101561041857600080fd5b506001600160a01b038135169060200135611251565b604080519115158252519081900360200190f35b61039e6004803603602081101561045857600080fd5b5035611293565b6103146004803603604081101561047557600080fd5b50803590602001356001600160a01b03166112ab565b61031460048036036101008110156104a257600080fd5b5080359060208101359060408101359060608101359060808101359060a08101359060c08101359060e00135611317565b610314600480360360408110156104e957600080fd5b50803590602001356001600160a01b03166113df565b6103146004803603604081101561051557600080fd5b50803590602001356001600160a01b03166114a6565b61033c6004803603602081101561054157600080fd5b5035611507565b6105746004803603604081101561055e57600080fd5b50803590602001356001600160a01b0316611538565b604080519788526020880196909652868601949094526060860192909252608085015260a084015260c0830152519081900360e00190f35b610314600480360360e08110156105c257600080fd5b813591908101906040810160208201356401000000008111156105e457600080fd5b8201836020820111156105f657600080fd5b8035906020019184600183028401116401000000008311171561061857600080fd5b91908080601f016020809104026020016040519081016040528093929190818152602001838380828437600092019190915250929594936020810193503591505064010000000081111561066b57600080fd5b82018360208201111561067d57600080fd5b8035906020019184600183028401116401000000008311171561069f57600080fd5b91908080601f01602080910402602001604051908101604052809392919081815260200183838082843760009201919091525092959493602081019350359150506401000000008111156106f257600080fd5b82018360208201111561070457600080fd5b8035906020019184600183028401116401000000008311171561072657600080fd5b91908080601f01602080910402602001604051908101604052809392919081815260200183838082843760009201919091525092955050823593505050602081013590604001356001600160a01b031661163f565b6103146004803603602081101561079157600080fd5b50356001600160a01b031661183a565b610314600480360360608110156107b757600080fd5b506001600160a01b0381351690602081013590604001356119b0565b610314600480360360208110156107e957600080fd5b50356001600160a01b0316611a4d565b6103146004803603602081101561080f57600080fd5b50356001600160a01b0316611abc565b6103146004803603602081101561083557600080fd5b50356001600160a01b0316611b35565b61039e611bb6565b61039e611bc8565b6108786004803603604081101561086b57600080fd5b5080359060200135611bec565b604080516001600160a01b039092168252519081900360200190f35b61042e600480360360408110156108aa57600080fd5b50803590602001356001600160a01b0316611c04565b61042e600480360360408110156108d657600080fd5b50803590602001356001600160a01b0316611c1c565b61042e6004803603606081101561090257600080fd5b506001600160a01b038135169060208101359060400135611cb2565b61039e612168565b6109436004803603602081101561093c57600080fd5b503561216d565b60408051600f97880b815295870b602087015293860b858501529190940b6060840152608083019390935260a082019290925290519081900360c00190f35b61099f6004803603602081101561099857600080fd5b503561223e565b60405180806020018060200180602001888152602001878152602001866001600160a01b03168152602001856001600160a01b0316815260200184810384528b818151815260200191508051906020019080838360005b83811015610a0e5781810151838201526020016109f6565b50505050905090810190601f168015610a3b5780820380516001836020036101000a031916815260200191505b5084810383528a5181528a516020918201918c019080838360005b83811015610a6e578181015183820152602001610a56565b50505050905090810190601f168015610a9b5780820380516001836020036101000a031916815260200191505b5084810382528951815289516020918201918b019080838360005b83811015610ace578181015183820152602001610ab6565b50505050905090810190601f168015610afb5780820380516001836020036101000a031916815260200191505b509a505050505050505050505060405180910390f35b61039e612435565b61057460048036036020811015610b2f57600080fd5b503561243b565b61031460048036036020811015610b4c57600080fd5b50356001600160a01b0316612478565b610b8860048036036060811015610b7257600080fd5b5080359060208101359060400135600f0b6124f1565b60408051600f9290920b8252519081900360200190f35b61039e61259f565b61039e60048036036020811015610bbd57600080fd5b50356125a5565b61039e6004803603610100811015610bdb57600080fd5b810190602081018135640100000000811115610bf657600080fd5b820183602082011115610c0857600080fd5b80359060200191846001830284011164010000000083111715610c2a57600080fd5b919390929091602081019035640100000000811115610c4857600080fd5b820183602082011115610c5a57600080fd5b80359060200191846001830284011164010000000083111715610c7c57600080fd5b919390929091602081019035640100000000811115610c9a57600080fd5b820183602082011115610cac57600080fd5b80359060200191846001830284011164010000000083111715610cce57600080fd5b9193509150803590602081013590604081013590606081013590608001356001600160a01b03166125bc565b61039e60048036036080811015610d1057600080fd5b508035906020810135906040810135600f0b9060600135612a11565b61031460048036036040811015610d4257600080fd5b50803590602001356001600160a01b0316612d0a565b61031460048036036020811015610d6e57600080fd5b5035612d63565b61031460048036036040811015610d8b57600080fd5b506001600160a01b038135169060200135612dbf565b61031460048036036020811015610db757600080fd5b50356001600160a01b0316612f61565b61039e60048036036020811015610ddd57600080fd5b5035612fe2565b610b8860048036036060811015610dfa57600080fd5b5080359060208101359060400135600f0b613084565b6108786130fe565b610e3060008051602061365e83398151915233611c04565b610e6f576040805162461bcd60e51b815260206004820152600b60248201526a4f6e6c792041646d696e7360a81b604482015290519081900360640190fd5b600154604080517ff2fde38b0000000000000000000000000000000000000000000000000000000081526001600160a01b0384811660048301529151919092169163f2fde38b91602480830192600092919082900301818387803b158015610ed657600080fd5b505af1158015610eea573d6000803e3d6000fd5b5050505050565b60066020526000908152604090208054600182015460028301546003909301546001600160a01b0390921692909184565b600084815260096020526040812060030154421015610f88576040805162461bcd60e51b815260206004820152601260248201527f4d61726b6574206e6f7420737461727465640000000000000000000000000000604482015290519081900360640190fd5b600085815260096020526040902060040154421115610fee576040805162461bcd60e51b815260206004820152601460248201527f4d61726b657420616c726561647920656e646564000000000000000000000000604482015290519081900360640190fd5b60008581526009602090815260408083206005015481517f898b51a700000000000000000000000000000000000000000000000000000000815260048101899052600f88900b602482015233604482015291516001600160a01b039091169363898b51a793606480850194919392918390030190829087803b15801561107357600080fd5b505af1158015611087573d6000803e3d6000fd5b505050506040513d602081101561109d57600080fd5b50519050818110156110f6576040805162461bcd60e51b815260206004820152601160248201527f4d696e20616d6f756e7420726561636821000000000000000000000000000000604482015290519081900360640190fd5b949350505050565b61111660008051602061365e83398151915233611c04565b611155576040805162461bcd60e51b815260206004820152600b60248201526a4f6e6c792041646d696e7360a81b604482015290519081900360640190fd5b600154604080517f9dc29fac0000000000000000000000000000000000000000000000000000000081526001600160a01b0385811660048301526024820185905291519190921691639dc29fac91604480830192600092919082900301818387803b1580156111c357600080fd5b505af11580156111d7573d6000803e3d6000fd5b505050505050565b6111f760008051602061365e83398151915233611c04565b611236576040805162461bcd60e51b815260206004820152600b60248201526a4f6e6c792041646d696e7360a81b604482015290519081900360640190fd5b61124e60008051602061365e83398151915282612d0a565b50565b6001600160a01b03821660009081526006602052604081206003015415158061128a575060008281526007602052604090206003015415155b90505b92915050565b6000818152602081905260409020600201545b919050565b6000828152602081905260409020600201546112ce906112c9613122565b611c04565b6113095760405162461bcd60e51b815260040180806020018281038252602f8152602001806135ff602f913960400191505060405180910390fd5b6113138282613126565b5050565b61132f60008051602061365e83398151915233611c04565b61136e576040805162461bcd60e51b815260206004820152600b60248201526a4f6e6c792041646d696e7360a81b604482015290519081900360640190fd5b6040805160e0810182529788526020808901978852888201968752606089019586526080890194855260a0890193845260c089019283526000998a52600890529097209551865593516001860155915160028501555160038401555160048301555160058201559051600690910155565b6113f760008051602061365e83398151915233611c04565b611436576040805162461bcd60e51b815260206004820152600b60248201526a4f6e6c792041646d696e7360a81b604482015290519081900360640190fd5b6000828152600960205260408082206005015481517f51cff8d90000000000000000000000000000000000000000000000000000000081526001600160a01b038581166004830152925192909116926351cff8d99260248084019382900301818387803b1580156111c357600080fd5b6114ae613122565b6001600160a01b0316816001600160a01b0316146114fd5760405162461bcd60e51b815260040180806020018281038252602f81526020018061367e602f913960400191505060405180910390fd5b611313828261318f565b60076020526000908152604090208054600182015460028301546003909301546001600160a01b0390921692909184565b6000828152600960205260408082206005015481516352c8b2f960e01b81526001600160a01b0385811660048301529251849384938493849384938493169182916352c8b2f99160248082019260e092909190829003018186803b15801561159f57600080fd5b505afa1580156115b3573d6000803e3d6000fd5b505050506040513d60e08110156115c957600080fd5b8101908080519060200190929190805190602001909291908051906020019092919080519060200190929190805190602001909291908051906020019092919080519060200190929190505050809850819950829a50839b50849c50859d50869e50505050505050505092959891949750929550565b61165760008051602061365e83398151915233611c04565b611696576040805162461bcd60e51b815260206004820152600b60248201526a4f6e6c792041646d696e7360a81b604482015290519081900360640190fd5b8551156116be57600087815260096020908152604090912087516116bc9289019061353b565b505b8451156116ec57600087815260096020908152604090912086516116ea9260019092019188019061353b565b505b83511561171a57600087815260096020908152604090912085516117189260029092019187019061353b565b505b6001600160a01b0381161561175457600087815260096020526040902060060180546001600160a01b0319166001600160a01b0383161790555b600083156117745750600087815260096020526040902060030183905560015b82156117925750600087815260096020526040902060040182905560015b8015611830576000888152600960205260408082206005810154600382015460049283015484517fe6b2c87c00000000000000000000000000000000000000000000000000000000815293840191909152602483015291516001600160a01b039092169263e6b2c87c9260448084019382900301818387803b15801561181757600080fd5b505af115801561182b573d6000803e3d6000fd5b505050505b5050505050505050565b61185260008051602061365e83398151915233611c04565b611891576040805162461bcd60e51b815260206004820152600b60248201526a4f6e6c792041646d696e7360a81b604482015290519081900360640190fd5b806001600160a01b031663a9059cbb33836001600160a01b03166370a08231306040518263ffffffff1660e01b815260040180826001600160a01b0316815260200191505060206040518083038186803b1580156118ee57600080fd5b505afa158015611902573d6000803e3d6000fd5b505050506040513d602081101561191857600080fd5b5051604080517fffffffff0000000000000000000000000000000000000000000000000000000060e086901b1681526001600160a01b03909316600484015260248301919091525160448083019260209291908290030181600087803b15801561198157600080fd5b505af1158015611995573d6000803e3d6000fd5b505050506040513d60208110156119ab57600080fd5b505050565b6119c860008051602061365e83398151915233611c04565b611a07576040805162461bcd60e51b815260206004820152600b60248201526a4f6e6c792041646d696e7360a81b604482015290519081900360640190fd5b6001600160a01b03909216600090815260066020908152604080832060028082018690556003808301889055600190920154855260079093529220908101929092550155565b611a6560008051602061365e83398151915233611c04565b611aa4576040805162461bcd60e51b815260206004820152600b60248201526a4f6e6c792041646d696e7360a81b604482015290519081900360640190fd5b61124e60008051602061365e833981519152826112ab565b611ad460008051602061365e83398151915233611c04565b611b13576040805162461bcd60e51b815260206004820152600b60248201526a4f6e6c792041646d696e7360a81b604482015290519081900360640190fd5b600480546001600160a01b0319166001600160a01b0392909216919091179055565b611b4d60008051602061365e83398151915233611c04565b611b8c576040805162461bcd60e51b815260206004820152600b60248201526a4f6e6c792041646d696e7360a81b604482015290519081900360640190fd5b61124e7f843c3a00fa95510a35f425371231fd3fe4642e719cb4595160763d6d02594b50826112ab565b60008051602061365e83398151915281565b7f843c3a00fa95510a35f425371231fd3fe4642e719cb4595160763d6d02594b5081565b600082815260208190526040812061128a90836131f8565b600082815260208190526040812061128a9083613204565b6000828152600960205260408082206005015481516352c8b2f960e01b81526001600160a01b03858116600483015292518493909216916352c8b2f99160248082019260e092909190829003018186803b158015611c7957600080fd5b505afa158015611c8d573d6000803e3d6000fd5b505050506040513d60e0811015611ca357600080fd5b5060c001511515949350505050565b6000611cde7f843c3a00fa95510a35f425371231fd3fe4642e719cb4595160763d6d02594b5033611c04565b611d1e576040805162461bcd60e51b815260206004820152600c60248201526b4f6e6c792043616c6c65727360a01b604482015290519081900360640190fd5b6001600160a01b03841660009081526006602052604090206003015415611d8c576040805162461bcd60e51b815260206004820152601760248201527f4163636f756e7420616c726561647920636c61696d6564000000000000000000604482015290519081900360640190fd5b60008381526007602052604090206003015415611df0576040805162461bcd60e51b815260206004820152601460248201527f5573657220616c726561647920636c61696d6564000000000000000000000000604482015290519081900360640190fd5b6003546000908152600860205260409020805415611fdf578054421015611e5e576040805162461bcd60e51b815260206004820152601260248201527f536561736f6e206e6f7420737461727465640000000000000000000000000000604482015290519081900360640190fd5b80600101544210611eb6576040805162461bcd60e51b815260206004820152601460248201527f536561736f6e20616c726561647920656e646564000000000000000000000000604482015290519081900360640190fd5b8060020154831115611f0f576040805162461bcd60e51b815260206004820152601960248201527f496e76616c6964207573657220636c61696d20616d6f756e7400000000000000604482015290519081900360640190fd5b60038101546005820154611f24908590613219565b1115611f77576040805162461bcd60e51b815260206004820152601760248201527f536561736f6e206d617820746f6b656e20636c61696d73000000000000000000604482015290519081900360640190fd5b60048101546006820154611f8c908590613219565b1115611fdf576040805162461bcd60e51b815260206004820152601660248201527f536561736f6e206d617820746f6b656e206d696e747300000000000000000000604482015290519081900360640190fd5b604080516080810182526001600160a01b0380881680835260208084018981528486018981524260608701908152600094855260068452878520875181549088166001600160a01b03199182161782558451600180840191909155845160028085019190915584516003948501558f8952600790975299909620885181549816979096169690961785559151968401969096559451908201559251920191909155600582015461208f9085613219565b600583015560068201546120a39085613219565b6006830155600154604080516340c10f1960e01b81526001600160a01b03898116600483015260248201889052915191909216916340c10f1991604480830192600092919082900301818387803b1580156120fd57600080fd5b505af1158015612111573d6000803e3d6000fd5b50506040805187815242602082015281518994506001600160a01b038b1693507fe49649ad7d04a14b0d2a43dae89f207c0822143ff6f88a6480e88907e4e5c548929181900390910190a350600195945050505050565b600081565b6000818152600960205260408082206005015481517f23341a050000000000000000000000000000000000000000000000000000000081529151839283928392839283926001600160a01b03169182916323341a059160048083019260c0929190829003018186803b1580156121e257600080fd5b505afa1580156121f6573d6000803e3d6000fd5b505050506040513d60c081101561220c57600080fd5b508051602082015160408301516060840151608085015160a090950151939d929c50909a509850919650945092505050565b60096020908152600091825260409182902080548351601f600260001961010060018616150201909316929092049182018490048402810184019094528084529092918391908301828280156122d55780601f106122aa576101008083540402835291602001916122d5565b820191906000526020600020905b8154815290600101906020018083116122b857829003601f168201915b505050505090806001018054600181600116156101000203166002900480601f0160208091040260200160405190810160405280929190818152602001828054600181600116156101000203166002900480156123735780601f1061234857610100808354040283529160200191612373565b820191906000526020600020905b81548152906001019060200180831161235657829003601f168201915b50505060028085018054604080516020601f60001961010060018716150201909416959095049283018590048502810185019091528181529596959450909250908301828280156124055780601f106123da57610100808354040283529160200191612405565b820191906000526020600020905b8154815290600101906020018083116123e857829003601f168201915b505050600384015460048501546005860154600690960154949591949093506001600160a01b0391821692501687565b60025481565b6008602052600090815260409020805460018201546002830154600384015460048501546005860154600690960154949593949293919290919087565b61249060008051602061365e83398151915233611c04565b6124cf576040805162461bcd60e51b815260206004820152600b60248201526a4f6e6c792041646d696e7360a81b604482015290519081900360640190fd5b600580546001600160a01b0319166001600160a01b0392909216919091179055565b60008381526009602090815260408083206005015481517f535f02ee00000000000000000000000000000000000000000000000000000000815260048101879052600f86900b602482015291516001600160a01b039091169263535f02ee9260448082019391829003018186803b15801561256b57600080fd5b505afa15801561257f573d6000803e3d6000fd5b505050506040513d602081101561259557600080fd5b5051949350505050565b60035481565b600081815260208190526040812061128d90613273565b60006125e87f843c3a00fa95510a35f425371231fd3fe4642e719cb4595160763d6d02594b5033611c04565b612628576040805162461bcd60e51b815260206004820152600c60248201526b4f6e6c792043616c6c65727360a01b604482015290519081900360640190fd5b50600254600454600090612644906001600160a01b031661327e565b600154604080517fc4d66de80000000000000000000000000000000000000000000000000000000081526001600160a01b03928316600482015290519293509083169163c4d66de89160248082019260009290919082900301818387803b1580156126ae57600080fd5b505af11580156126c2573d6000803e3d6000fd5b5050600154604080516340c10f1960e01b8152306004820152602481018a905290516001600160a01b0390921693506340c10f19925060448082019260009290919082900301818387803b15801561271957600080fd5b505af115801561272d573d6000803e3d6000fd5b5050600154604080517f095ea7b30000000000000000000000000000000000000000000000000000000081526001600160a01b0386811660048301526000196024830152915191909216935063095ea7b3925060448083019260209291908290030181600087803b1580156127a157600080fd5b505af11580156127b5573d6000803e3d6000fd5b505050506040513d60208110156127cb57600080fd5b5050600554604080517f5467a751000000000000000000000000000000000000000000000000000000008152600481018590526001600160a01b039283166024820152600260448201526064810188905260848101879052905191831691635467a7519160a48082019260009290919082900301818387803b15801561285057600080fd5b505af1158015612864573d6000803e3d6000fd5b505050506040518060e001604052808e8e8080601f016020809104026020016040519081016040528093929190818152602001838380828437600092019190915250505090825250604080516020601f8f018190048102820181019092528d815291810191908e908e9081908401838280828437600092019190915250505090825250604080516020601f8d018190048102820181019092528b815291810191908c908c9081908401838280828437600092018290525093855250505060208083018b905260408084018b90526001600160a01b03808716606086015288166080909401939093528582526009815291902082518051919261296b9284929091019061353b565b506020828101518051612984926001850192019061353b565b50604082015180516129a091600284019160209091019061353b565b50606082015160038201556080820151600482015560a08201516005820180546001600160a01b03199081166001600160a01b039384161790915560c0909301516006909201805490931691161790556002546129fe906001613219565b600255509b9a5050505050505050505050565b600084815260096020526040812060030154421015612a77576040805162461bcd60e51b815260206004820152601260248201527f4d61726b6574206e6f7420737461727465640000000000000000000000000000604482015290519081900360640190fd5b600085815260096020526040902060040154421115612add576040805162461bcd60e51b815260206004820152601460248201527f4d61726b657420616c726561647920656e646564000000000000000000000000604482015290519081900360640190fd5b600154604080517fbb35783b0000000000000000000000000000000000000000000000000000000081523360048201523060248201526044810185905290516001600160a01b039092169163bb35783b9160648082019260009290919082900301818387803b158015612b4f57600080fd5b505af1158015612b63573d6000803e3d6000fd5b50505060008681526009602090815260408083206005015481517fcae32606000000000000000000000000000000000000000000000000000000008152600481018a9052600f89900b602482015233604482015291516001600160a01b03909116945063cae3260693606480840194938390030190829087803b158015612be957600080fd5b505af1158015612bfd573d6000803e3d6000fd5b505050506040513d6020811015612c1357600080fd5b5051905081811115612c6c576040805162461bcd60e51b815260206004820152601160248201527f4d617820616d6f756e7420726561636821000000000000000000000000000000604482015290519081900360640190fd5b818110156110f6576001546001600160a01b031663a9059cbb33612c908585613339565b6040518363ffffffff1660e01b815260040180836001600160a01b0316815260200182815260200192505050602060405180830381600087803b158015612cd657600080fd5b505af1158015612cea573d6000803e3d6000fd5b505050506040513d6020811015612d0057600080fd5b5050949350505050565b600082815260208190526040902060020154612d28906112c9613122565b6114fd5760405162461bcd60e51b815260040180806020018281038252603081526020018061362e6030913960400191505060405180910390fd5b612d7b60008051602061365e83398151915233611c04565b612dba576040805162461bcd60e51b815260206004820152600b60248201526a4f6e6c792041646d696e7360a81b604482015290519081900360640190fd5b600355565b612dd760008051602061365e83398151915233611c04565b612e16576040805162461bcd60e51b815260206004820152600b60248201526a4f6e6c792041646d696e7360a81b604482015290519081900360640190fd5b6003546000908152600860205260409020805415612e965760048101546006820154612e43908490613219565b1115612e96576040805162461bcd60e51b815260206004820152601660248201527f536561736f6e206d617820746f6b656e206d696e747300000000000000000000604482015290519081900360640190fd5b6006810154612ea59083613219565b6006820155600154604080516340c10f1960e01b81526001600160a01b03868116600483015260248201869052915191909216916340c10f1991604480830192600092919082900301818387803b158015612eff57600080fd5b505af1158015612f13573d6000803e3d6000fd5b50506040805185815242602082015281516001600160a01b03881694507f2e8ac5177a616f2aec08c3048f5021e4e9743ece034e8d83ba5caf76688bb47593509081900390910190a2505050565b612f7960008051602061365e83398151915233611c04565b612fb8576040805162461bcd60e51b815260206004820152600b60248201526a4f6e6c792041646d696e7360a81b604482015290519081900360640190fd5b61124e7f843c3a00fa95510a35f425371231fd3fe4642e719cb4595160763d6d02594b5082612d0a565b60008181526009602090815260408083206005015481517f3f7361eb00000000000000000000000000000000000000000000000000000000815233600482015291516001600160a01b0390911692633f7361eb926024808201939182900301818787803b15801561305257600080fd5b505af1158015613066573d6000803e3d6000fd5b505050506040513d602081101561307c57600080fd5b505192915050565b60008381526009602090815260408083206005015481517f3dcb8b8100000000000000000000000000000000000000000000000000000000815260048101879052600f86900b602482015291516001600160a01b0390911692633dcb8b819260448082019391829003018186803b15801561256b57600080fd5b6001546001600160a01b031681565b600061128a836001600160a01b038416613396565b3390565b600082815260208190526040902061313e908261310d565b156113135761314b613122565b6001600160a01b0316816001600160a01b0316837f2f8788117e7eff1d82e926ec794901d17c78024a50270940304540a733656f0d60405160405180910390a45050565b60008281526020819052604090206131a790826133e0565b15611313576131b4613122565b6001600160a01b0316816001600160a01b0316837ff6391f5c32d9c69d2a47ea670b442974b53935d1edc7fd64eb21e047a839171b60405160405180910390a45050565b600061128a83836133f5565b600061128a836001600160a01b038416613459565b60008282018381101561128a576040805162461bcd60e51b815260206004820152601b60248201527f536166654d6174683a206164646974696f6e206f766572666c6f770000000000604482015290519081900360640190fd5b600061128d82613471565b60006040517f3d602d80600a3d3981f3363d3d373d3d3d363d7300000000000000000000000081528260601b60148201527f5af43d82803e903d91602b57fd5bf3000000000000000000000000000000000060288201526037816000f09150506001600160a01b0381166112a6576040805162461bcd60e51b815260206004820152601660248201527f455243313136373a20637265617465206661696c656400000000000000000000604482015290519081900360640190fd5b600082821115613390576040805162461bcd60e51b815260206004820152601e60248201527f536166654d6174683a207375627472616374696f6e206f766572666c6f770000604482015290519081900360640190fd5b50900390565b60006133a28383613459565b6133d85750815460018181018455600084815260208082209093018490558454848252828601909352604090209190915561128d565b50600061128d565b600061128a836001600160a01b038416613475565b815460009082106134375760405162461bcd60e51b81526004018080602001828103825260228152602001806135dd6022913960400191505060405180910390fd5b82600001828154811061344657fe5b9060005260206000200154905092915050565b60009081526001919091016020526040902054151590565b5490565b6000818152600183016020526040812054801561353157835460001980830191908101906000908790839081106134a857fe5b90600052602060002001549050808760000184815481106134c557fe5b6000918252602080832090910192909255828152600189810190925260409020908401905586548790806134f557fe5b6001900381819060005260206000200160009055905586600101600087815260200190815260200160002060009055600194505050505061128d565b600091505061128d565b828054600181600116156101000203166002900490600052602060002090601f01602090048101928261357157600085556135b7565b82601f1061358a57805160ff19168380011785556135b7565b828001600101855582156135b7579182015b828111156135b757825182559160200191906001019061359c565b506135c39291506135c7565b5090565b5b808211156135c357600081556001016135c856fe456e756d657261626c655365743a20696e646578206f7574206f6620626f756e6473416363657373436f6e74726f6c3a2073656e646572206d75737420626520616e2061646d696e20746f206772616e74416363657373436f6e74726f6c3a2073656e646572206d75737420626520616e2061646d696e20746f207265766f6b65a49807205ce4d355092ef5a8a18f56e8913cf4a201fbe287825b095693c21775416363657373436f6e74726f6c3a2063616e206f6e6c792072656e6f756e636520726f6c657320666f722073656c66a2646970667358221220c2f6bab7c4aa39b16239ef90343f4447502b4cf561c2dcb6ddfa5797811b569f64736f6c63430007060033a49807205ce4d355092ef5a8a18f56e8913cf4a201fbe287825b095693c21775",
  "devdoc": {
    "details": "Contract to manage Precog token claims and PredictionMarkets",
    "kind": "dev",
    "methods": {
      "getRoleAdmin(bytes32)": {
        "details": "Returns the admin role that controls `role`. See {grantRole} and {revokeRole}. To change a role's admin, use {_setRoleAdmin}."
      },
      "getRoleMember(bytes32,uint256)": {
        "details": "Returns one of the accounts that have `role`. `index` must be a value between 0 and {getRoleMemberCount}, non-inclusive. Role bearers are not sorted in any particular way, and their ordering may change at any point. WARNING: When using {getRoleMember} and {getRoleMemberCount}, make sure you perform all queries on the same block. See the following https://forum.openzeppelin.com/t/iterating-over-elements-on-enumerableset-in-openzeppelin-contracts/2296[forum post] for more information."
      },
      "getRoleMemberCount(bytes32)": {
        "details": "Returns the number of accounts that have `role`. Can be used together with {getRoleMember} to enumerate all bearers of a role."
      },
      "grantRole(bytes32,address)": {
        "details": "Grants `role` to `account`. If `account` had not been already granted `role`, emits a {RoleGranted} event. Requirements: - the caller must have ``role``'s admin role."
      },
      "hasRole(bytes32,address)": {
        "details": "Returns `true` if `account` has been granted `role`."
      },
      "renounceRole(bytes32,address)": {
        "details": "Revokes `role` from the calling account. Roles are often managed via {grantRole} and {revokeRole}: this function's purpose is to provide a mechanism for accounts to lose their privileges if they are compromised (such as when a trusted device is misplaced). If the calling account had been granted `role`, emits a {RoleRevoked} event. Requirements: - the caller must be `account`."
      },
      "revokeRole(bytes32,address)": {
        "details": "Revokes `role` from `account`. If `account` had been granted `role`, emits a {RoleRevoked} event. Requirements: - the caller must have ``role``'s admin role."
      }
    },
    "title": "PrecogMasterV4",
    "version": 1
  },
  "userdoc": {
    "kind": "user",
    "methods": {},
    "version": 1
  },
  "storageLayout": {
    "storage": [
      {
        "astId": 22,
        "contract": "contracts/PrecogMasterV4.sol:PrecogMasterV4",
        "label": "_roles",
        "offset": 0,
        "slot": "0",
        "type": "t_mapping(t_bytes32,t_struct(RoleData)18_storage)"
      },
      {
        "astId": 15166,
        "contract": "contracts/PrecogMasterV4.sol:PrecogMasterV4",
        "label": "token",
        "offset": 0,
        "slot": "1",
        "type": "t_address"
      },
      {
        "astId": 15168,
        "contract": "contracts/PrecogMasterV4.sol:PrecogMasterV4",
        "label": "createdMarkets",
        "offset": 0,
        "slot": "2",
        "type": "t_uint256"
      },
      {
        "astId": 15170,
        "contract": "contracts/PrecogMasterV4.sol:PrecogMasterV4",
        "label": "currentSeason",
        "offset": 0,
        "slot": "3",
        "type": "t_uint256"
      },
      {
        "astId": 15172,
        "contract": "contracts/PrecogMasterV4.sol:PrecogMasterV4",
        "label": "market",
        "offset": 0,
        "slot": "4",
        "type": "t_address"
      },
      {
        "astId": 15174,
        "contract": "contracts/PrecogMasterV4.sol:PrecogMasterV4",
        "label": "oracle",
        "offset": 0,
        "slot": "5",
        "type": "t_address"
      },
      {
        "astId": 15178,
        "contract": "contracts/PrecogMasterV4.sol:PrecogMasterV4",
        "label": "accountTokenClaims",
        "offset": 0,
        "slot": "6",
        "type": "t_mapping(t_address,t_struct(TokenClaim)15134_storage)"
      },
      {
        "astId": 15182,
        "contract": "contracts/PrecogMasterV4.sol:PrecogMasterV4",
        "label": "userTokenClaims",
        "offset": 0,
        "slot": "7",
        "type": "t_mapping(t_uint256,t_struct(TokenClaim)15134_storage)"
      },
      {
        "astId": 15186,
        "contract": "contracts/PrecogMasterV4.sol:PrecogMasterV4",
        "label": "miningSeasons",
        "offset": 0,
        "slot": "8",
        "type": "t_mapping(t_uint256,t_struct(MiningSeason)15149_storage)"
      },
      {
        "astId": 15190,
        "contract": "contracts/PrecogMasterV4.sol:PrecogMasterV4",
        "label": "markets",
        "offset": 0,
        "slot": "9",
        "type": "t_mapping(t_uint256,t_struct(PredictionMarket)15164_storage)"
      }
    ],
    "types": {
      "t_address": {
        "encoding": "inplace",
        "label": "address",
        "numberOfBytes": "20"
      },
      "t_array(t_bytes32)dyn_storage": {
        "base": "t_bytes32",
        "encoding": "dynamic_array",
        "label": "bytes32[]",
        "numberOfBytes": "32"
      },
      "t_bytes32": {
        "encoding": "inplace",
        "label": "bytes32",
        "numberOfBytes": "32"
      },
      "t_mapping(t_address,t_struct(TokenClaim)15134_storage)": {
        "encoding": "mapping",
        "key": "t_address",
        "label": "mapping(address => struct PrecogMasterV4.TokenClaim)",
        "numberOfBytes": "32",
        "value": "t_struct(TokenClaim)15134_storage"
      },
      "t_mapping(t_bytes32,t_struct(RoleData)18_storage)": {
        "encoding": "mapping",
        "key": "t_bytes32",
        "label": "mapping(bytes32 => struct AccessControl.RoleData)",
        "numberOfBytes": "32",
        "value": "t_struct(RoleData)18_storage"
      },
      "t_mapping(t_bytes32,t_uint256)": {
        "encoding": "mapping",
        "key": "t_bytes32",
        "label": "mapping(bytes32 => uint256)",
        "numberOfBytes": "32",
        "value": "t_uint256"
      },
      "t_mapping(t_uint256,t_struct(MiningSeason)15149_storage)": {
        "encoding": "mapping",
        "key": "t_uint256",
        "label": "mapping(uint256 => struct PrecogMasterV4.MiningSeason)",
        "numberOfBytes": "32",
        "value": "t_struct(MiningSeason)15149_storage"
      },
      "t_mapping(t_uint256,t_struct(PredictionMarket)15164_storage)": {
        "encoding": "mapping",
        "key": "t_uint256",
        "label": "mapping(uint256 => struct PrecogMasterV4.PredictionMarket)",
        "numberOfBytes": "32",
        "value": "t_struct(PredictionMarket)15164_storage"
      },
      "t_mapping(t_uint256,t_struct(TokenClaim)15134_storage)": {
        "encoding": "mapping",
        "key": "t_uint256",
        "label": "mapping(uint256 => struct PrecogMasterV4.TokenClaim)",
        "numberOfBytes": "32",
        "value": "t_struct(TokenClaim)15134_storage"
      },
      "t_string_storage": {
        "encoding": "bytes",
        "label": "string",
        "numberOfBytes": "32"
      },
      "t_struct(AddressSet)3530_storage": {
        "encoding": "inplace",
        "label": "struct EnumerableSet.AddressSet",
        "members": [
          {
            "astId": 3529,
            "contract": "contracts/PrecogMasterV4.sol:PrecogMasterV4",
            "label": "_inner",
            "offset": 0,
            "slot": "0",
            "type": "t_struct(Set)3265_storage"
          }
        ],
        "numberOfBytes": "64"
      },
      "t_struct(MiningSeason)15149_storage": {
        "encoding": "inplace",
        "label": "struct PrecogMasterV4.MiningSeason",
        "members": [
          {
            "astId": 15136,
            "contract": "contracts/PrecogMasterV4.sol:PrecogMasterV4",
            "label": "startTimestamp",
            "offset": 0,
            "slot": "0",
            "type": "t_uint256"
          },
          {
            "astId": 15138,
            "contract": "contracts/PrecogMasterV4.sol:PrecogMasterV4",
            "label": "endTimestamp",
            "offset": 0,
            "slot": "1",
            "type": "t_uint256"
          },
          {
            "astId": 15140,
            "contract": "contracts/PrecogMasterV4.sol:PrecogMasterV4",
            "label": "maxUserClaim",
            "offset": 0,
            "slot": "2",
            "type": "t_uint256"
          },
          {
            "astId": 15142,
            "contract": "contracts/PrecogMasterV4.sol:PrecogMasterV4",
            "label": "maxTotalClaim",
            "offset": 0,
            "slot": "3",
            "type": "t_uint256"
          },
          {
            "astId": 15144,
            "contract": "contracts/PrecogMasterV4.sol:PrecogMasterV4",
            "label": "maxTotalMint",
            "offset": 0,
            "slot": "4",
            "type": "t_uint256"
          },
          {
            "astId": 15146,
            "contract": "contracts/PrecogMasterV4.sol:PrecogMasterV4",
            "label": "claimedAmount",
            "offset": 0,
            "slot": "5",
            "type": "t_uint256"
          },
          {
            "astId": 15148,
            "contract": "contracts/PrecogMasterV4.sol:PrecogMasterV4",
            "label": "mintedAmount",
            "offset": 0,
            "slot": "6",
            "type": "t_uint256"
          }
        ],
        "numberOfBytes": "224"
      },
      "t_struct(PredictionMarket)15164_storage": {
        "encoding": "inplace",
        "label": "struct PrecogMasterV4.PredictionMarket",
        "members": [
          {
            "astId": 15151,
            "contract": "contracts/PrecogMasterV4.sol:PrecogMasterV4",
            "label": "name",
            "offset": 0,
            "slot": "0",
            "type": "t_string_storage"
          },
          {
            "astId": 15153,
            "contract": "contracts/PrecogMasterV4.sol:PrecogMasterV4",
            "label": "description",
            "offset": 0,
            "slot": "1",
            "type": "t_string_storage"
          },
          {
            "astId": 15155,
            "contract": "contracts/PrecogMasterV4.sol:PrecogMasterV4",
            "label": "category",
            "offset": 0,
            "slot": "2",
            "type": "t_string_storage"
          },
          {
            "astId": 15157,
            "contract": "contracts/PrecogMasterV4.sol:PrecogMasterV4",
            "label": "startTimestamp",
            "offset": 0,
            "slot": "3",
            "type": "t_uint256"
          },
          {
            "astId": 15159,
            "contract": "contracts/PrecogMasterV4.sol:PrecogMasterV4",
            "label": "endTimestamp",
            "offset": 0,
            "slot": "4",
            "type": "t_uint256"
          },
          {
            "astId": 15161,
            "contract": "contracts/PrecogMasterV4.sol:PrecogMasterV4",
            "label": "market",
            "offset": 0,
            "slot": "5",
            "type": "t_address"
          },
          {
            "astId": 15163,
            "contract": "contracts/PrecogMasterV4.sol:PrecogMasterV4",
            "label": "creator",
            "offset": 0,
            "slot": "6",
            "type": "t_address"
          }
        ],
        "numberOfBytes": "224"
      },
      "t_struct(RoleData)18_storage": {
        "encoding": "inplace",
        "label": "struct AccessControl.RoleData",
        "members": [
          {
            "astId": 15,
            "contract": "contracts/PrecogMasterV4.sol:PrecogMasterV4",
            "label": "members",
            "offset": 0,
            "slot": "0",
            "type": "t_struct(AddressSet)3530_storage"
          },
          {
            "astId": 17,
            "contract": "contracts/PrecogMasterV4.sol:PrecogMasterV4",
            "label": "adminRole",
            "offset": 0,
            "slot": "2",
            "type": "t_bytes32"
          }
        ],
        "numberOfBytes": "96"
      },
      "t_struct(Set)3265_storage": {
        "encoding": "inplace",
        "label": "struct EnumerableSet.Set",
        "members": [
          {
            "astId": 3260,
            "contract": "contracts/PrecogMasterV4.sol:PrecogMasterV4",
            "label": "_values",
            "offset": 0,
            "slot": "0",
            "type": "t_array(t_bytes32)dyn_storage"
          },
          {
            "astId": 3264,
            "contract": "contracts/PrecogMasterV4.sol:PrecogMasterV4",
            "label": "_indexes",
            "offset": 0,
            "slot": "1",
            "type": "t_mapping(t_bytes32,t_uint256)"
          }
        ],
        "numberOfBytes": "64"
      },
      "t_struct(TokenClaim)15134_storage": {
        "encoding": "inplace",
        "label": "struct PrecogMasterV4.TokenClaim",
        "members": [
          {
            "astId": 15127,
            "contract": "contracts/PrecogMasterV4.sol:PrecogMasterV4",
            "label": "account",
            "offset": 0,
            "slot": "0",
            "type": "t_address"
          },
          {
            "astId": 15129,
            "contract": "contracts/PrecogMasterV4.sol:PrecogMasterV4",
            "label": "user",
            "offset": 0,
            "slot": "1",
            "type": "t_uint256"
          },
          {
            "astId": 15131,
            "contract": "contracts/PrecogMasterV4.sol:PrecogMasterV4",
            "label": "claimedAmount",
            "offset": 0,
            "slot": "2",
            "type": "t_uint256"
          },
          {
            "astId": 15133,
            "contract": "contracts/PrecogMasterV4.sol:PrecogMasterV4",
            "label": "claimedTimestamp",
            "offset": 0,
            "slot": "3",
            "type": "t_uint256"
          }
        ],
        "numberOfBytes": "128"
      },
      "t_uint256": {
        "encoding": "inplace",
        "label": "uint256",
        "numberOfBytes": "32"
      }
    }
  }
}