{
  "address": "0x4F8c5006171641Ee7Ad2DBC26e4e9e0e6008979f",
  "abi": [
    {
      "anonymous": false,
      "inputs": [
        {
          "indexed": true,
          "internalType": "address",
          "name": "previousOwner",
          "type": "address"
        },
        {
          "indexed": true,
          "internalType": "address",
          "name": "newOwner",
          "type": "address"
        }
      ],
      "name": "OwnershipTransferred",
      "type": "event"
    },
    {
      "anonymous": false,
      "inputs": [
        {
          "indexed": true,
          "internalType": "address",
          "name": "account",
          "type": "address"
        },
        {
          "indexed": true,
          "internalType": "uint256",
          "name": "outcome",
          "type": "uint256"
        },
        {
          "indexed": false,
          "internalType": "uint256",
          "name": "amount",
          "type": "uint256"
        },
        {
          "indexed": false,
          "internalType": "uint256",
          "name": "tokenIn",
          "type": "uint256"
        }
      ],
      "name": "SharesBought",
      "type": "event"
    },
    {
      "anonymous": false,
      "inputs": [
        {
          "indexed": true,
          "internalType": "address",
          "name": "account",
          "type": "address"
        },
        {
          "indexed": true,
          "internalType": "uint256",
          "name": "outcome",
          "type": "uint256"
        },
        {
          "indexed": false,
          "internalType": "uint256",
          "name": "amount",
          "type": "uint256"
        },
        {
          "indexed": false,
          "internalType": "uint256",
          "name": "tokenOut",
          "type": "uint256"
        }
      ],
      "name": "SharesRedeemed",
      "type": "event"
    },
    {
      "anonymous": false,
      "inputs": [
        {
          "indexed": true,
          "internalType": "address",
          "name": "account",
          "type": "address"
        },
        {
          "indexed": true,
          "internalType": "uint256",
          "name": "outcome",
          "type": "uint256"
        },
        {
          "indexed": false,
          "internalType": "uint256",
          "name": "amount",
          "type": "uint256"
        },
        {
          "indexed": false,
          "internalType": "uint256",
          "name": "tokenOut",
          "type": "uint256"
        }
      ],
      "name": "SharesSold",
      "type": "event"
    },
    {
      "inputs": [
        {
          "internalType": "uint256",
          "name": "_outcome",
          "type": "uint256"
        },
        {
          "internalType": "int128",
          "name": "_amount",
          "type": "int128"
        },
        {
          "internalType": "address",
          "name": "_account",
          "type": "address"
        }
      ],
      "name": "_buy",
      "outputs": [
        {
          "internalType": "uint256",
          "name": "tokenCost",
          "type": "uint256"
        }
      ],
      "stateMutability": "nonpayable",
      "type": "function"
    },
    {
      "inputs": [
        {
          "internalType": "address",
          "name": "_account",
          "type": "address"
        }
      ],
      "name": "_redeem",
      "outputs": [
        {
          "internalType": "uint256",
          "name": "redeemedShares",
          "type": "uint256"
        }
      ],
      "stateMutability": "nonpayable",
      "type": "function"
    },
    {
      "inputs": [
        {
          "internalType": "uint256",
          "name": "_outcome",
          "type": "uint256"
        },
        {
          "internalType": "int128",
          "name": "_amount",
          "type": "int128"
        },
        {
          "internalType": "address",
          "name": "_account",
          "type": "address"
        }
      ],
      "name": "_sell",
      "outputs": [
        {
          "internalType": "uint256",
          "name": "tokenReturn",
          "type": "uint256"
        }
      ],
      "stateMutability": "nonpayable",
      "type": "function"
    },
    {
      "inputs": [
        {
          "internalType": "address",
          "name": "",
          "type": "address"
        }
      ],
      "name": "accountShares",
      "outputs": [
        {
          "internalType": "uint256",
          "name": "buys",
          "type": "uint256"
        },
        {
          "internalType": "uint256",
          "name": "sells",
          "type": "uint256"
        },
        {
          "internalType": "uint256",
          "name": "deposited",
          "type": "uint256"
        },
        {
          "internalType": "uint256",
          "name": "withdrew",
          "type": "uint256"
        },
        {
          "internalType": "uint256",
          "name": "redeemed",
          "type": "uint256"
        }
      ],
      "stateMutability": "view",
      "type": "function"
    },
    {
      "inputs": [
        {
          "internalType": "uint256",
          "name": "_outcome",
          "type": "uint256"
        },
        {
          "internalType": "int128",
          "name": "_amount",
          "type": "int128"
        }
      ],
      "name": "buy",
      "outputs": [
        {
          "internalType": "uint256",
          "name": "tokenCost",
          "type": "uint256"
        }
      ],
      "stateMutability": "nonpayable",
      "type": "function"
    },
    {
      "inputs": [
        {
          "internalType": "uint256",
          "name": "_outcome",
          "type": "uint256"
        },
        {
          "internalType": "int128",
          "name": "_amount",
          "type": "int128"
        }
      ],
      "name": "buyPrice",
      "outputs": [
        {
          "internalType": "int128",
          "name": "tokenCost",
          "type": "int128"
        }
      ],
      "stateMutability": "view",
      "type": "function"
    },
    {
      "inputs": [],
      "name": "closeTimestamp",
      "outputs": [
        {
          "internalType": "uint256",
          "name": "",
          "type": "uint256"
        }
      ],
      "stateMutability": "view",
      "type": "function"
    },
    {
      "inputs": [],
      "name": "cost",
      "outputs": [
        {
          "internalType": "int128",
          "name": "totalCost",
          "type": "int128"
        }
      ],
      "stateMutability": "view",
      "type": "function"
    },
    {
      "inputs": [],
      "name": "endTimestamp",
      "outputs": [
        {
          "internalType": "uint256",
          "name": "",
          "type": "uint256"
        }
      ],
      "stateMutability": "view",
      "type": "function"
    },
    {
      "inputs": [
        {
          "internalType": "address",
          "name": "_account",
          "type": "address"
        }
      ],
      "name": "getAccountOutcomeBalances",
      "outputs": [
        {
          "internalType": "uint256[]",
          "name": "balances",
          "type": "uint256[]"
        }
      ],
      "stateMutability": "view",
      "type": "function"
    },
    {
      "inputs": [],
      "name": "getMarketInfo",
      "outputs": [
        {
          "internalType": "int128",
          "name": "",
          "type": "int128"
        },
        {
          "internalType": "int128[]",
          "name": "",
          "type": "int128[]"
        },
        {
          "internalType": "int128",
          "name": "",
          "type": "int128"
        },
        {
          "internalType": "uint256",
          "name": "",
          "type": "uint256"
        },
        {
          "internalType": "uint256",
          "name": "",
          "type": "uint256"
        }
      ],
      "stateMutability": "view",
      "type": "function"
    },
    {
      "inputs": [],
      "name": "getPrices",
      "outputs": [
        {
          "internalType": "uint256[]",
          "name": "buyPrices",
          "type": "uint256[]"
        },
        {
          "internalType": "uint256[]",
          "name": "sellPrices",
          "type": "uint256[]"
        }
      ],
      "stateMutability": "view",
      "type": "function"
    },
    {
      "inputs": [],
      "name": "id",
      "outputs": [
        {
          "internalType": "uint256",
          "name": "",
          "type": "uint256"
        }
      ],
      "stateMutability": "view",
      "type": "function"
    },
    {
      "inputs": [
        {
          "internalType": "address",
          "name": "_token",
          "type": "address"
        }
      ],
      "name": "initialize",
      "outputs": [],
      "stateMutability": "nonpayable",
      "type": "function"
    },
    {
      "inputs": [],
      "name": "oracle",
      "outputs": [
        {
          "internalType": "address",
          "name": "",
          "type": "address"
        }
      ],
      "stateMutability": "view",
      "type": "function"
    },
    {
      "inputs": [],
      "name": "owner",
      "outputs": [
        {
          "internalType": "address",
          "name": "",
          "type": "address"
        }
      ],
      "stateMutability": "view",
      "type": "function"
    },
    {
      "inputs": [
        {
          "internalType": "address[]",
          "name": "_accounts",
          "type": "address[]"
        }
      ],
      "name": "redeemBatch",
      "outputs": [
        {
          "internalType": "uint256",
          "name": "redeems",
          "type": "uint256"
        }
      ],
      "stateMutability": "nonpayable",
      "type": "function"
    },
    {
      "inputs": [],
      "name": "redeemShares",
      "outputs": [
        {
          "internalType": "uint256",
          "name": "redeemedShares",
          "type": "uint256"
        }
      ],
      "stateMutability": "nonpayable",
      "type": "function"
    },
    {
      "inputs": [
        {
          "internalType": "uint256",
          "name": "_id",
          "type": "uint256"
        },
        {
          "internalType": "uint256",
          "name": "_outcome",
          "type": "uint256"
        }
      ],
      "name": "reportResult",
      "outputs": [],
      "stateMutability": "nonpayable",
      "type": "function"
    },
    {
      "inputs": [],
      "name": "result",
      "outputs": [
        {
          "internalType": "uint256",
          "name": "",
          "type": "uint256"
        }
      ],
      "stateMutability": "view",
      "type": "function"
    },
    {
      "inputs": [
        {
          "internalType": "uint256",
          "name": "_outcome",
          "type": "uint256"
        },
        {
          "internalType": "int128",
          "name": "_amount",
          "type": "int128"
        }
      ],
      "name": "sell",
      "outputs": [
        {
          "internalType": "uint256",
          "name": "tokenReturn",
          "type": "uint256"
        }
      ],
      "stateMutability": "nonpayable",
      "type": "function"
    },
    {
      "inputs": [
        {
          "internalType": "uint256",
          "name": "_outcome",
          "type": "uint256"
        },
        {
          "internalType": "int128",
          "name": "_amount",
          "type": "int128"
        }
      ],
      "name": "sellPrice",
      "outputs": [
        {
          "internalType": "int128",
          "name": "tokenReturn",
          "type": "int128"
        }
      ],
      "stateMutability": "view",
      "type": "function"
    },
    {
      "inputs": [
        {
          "internalType": "uint256",
          "name": "_id",
          "type": "uint256"
        },
        {
          "internalType": "address",
          "name": "_oracle",
          "type": "address"
        },
        {
          "internalType": "uint256",
          "name": "_totalOutcomes",
          "type": "uint256"
        },
        {
          "internalType": "uint256",
          "name": "_subsidy",
          "type": "uint256"
        },
        {
          "internalType": "uint256",
          "name": "_overround",
          "type": "uint256"
        }
      ],
      "name": "setup",
      "outputs": [],
      "stateMutability": "nonpayable",
      "type": "function"
    },
    {
      "inputs": [],
      "name": "startTimestamp",
      "outputs": [
        {
          "internalType": "uint256",
          "name": "",
          "type": "uint256"
        }
      ],
      "stateMutability": "view",
      "type": "function"
    },
    {
      "inputs": [],
      "name": "token",
      "outputs": [
        {
          "internalType": "address",
          "name": "",
          "type": "address"
        }
      ],
      "stateMutability": "view",
      "type": "function"
    },
    {
      "inputs": [],
      "name": "totalOutcomes",
      "outputs": [
        {
          "internalType": "uint256",
          "name": "",
          "type": "uint256"
        }
      ],
      "stateMutability": "view",
      "type": "function"
    },
    {
      "inputs": [
        {
          "internalType": "address",
          "name": "_newOwner",
          "type": "address"
        }
      ],
      "name": "transferOwnership",
      "outputs": [],
      "stateMutability": "nonpayable",
      "type": "function"
    },
    {
      "inputs": [
        {
          "internalType": "uint256",
          "name": "_startTimestamp",
          "type": "uint256"
        },
        {
          "internalType": "uint256",
          "name": "_endTimestamp",
          "type": "uint256"
        }
      ],
      "name": "updateDates",
      "outputs": [],
      "stateMutability": "nonpayable",
      "type": "function"
    },
    {
      "inputs": [
        {
          "internalType": "address",
          "name": "_newOracle",
          "type": "address"
        }
      ],
      "name": "updateOracle",
      "outputs": [],
      "stateMutability": "nonpayable",
      "type": "function"
    },
    {
      "inputs": [
        {
          "internalType": "address",
          "name": "_token",
          "type": "address"
        }
      ],
      "name": "withdraw",
      "outputs": [],
      "stateMutability": "nonpayable",
      "type": "function"
    }
  ],
  "transactionHash": "0x5486b711bb9d75c0b61251edc46d69651a26063accc618309bd9f6a830ea5a50",
  "args": [],
  "numDeployments": 1,
  "solcInputHash": "d510ea54f6b6d23058c352788725cf7e",
  "bytecode": "0x608060405234801561001057600080fd5b50613f35806100206000396000f3fe608060405234801561001057600080fd5b50600436106101da5760003560e01c80638da5cb5b11610104578063bd9a548b116100a2578063e6fd48bc11610071578063e6fd48bc146106ef578063f2fde38b146106f7578063f76da1d91461071d578063fc0c546a14610743576101da565b8063bd9a548b146105d0578063c4d66de814610671578063cae3260614610697578063e6b2c87c146106cc576101da565b8063ae92a93d116100de578063ae92a93d146104f7578063af640d0f1461051d578063b460481d14610525578063bc0e610a1461052d576101da565b80638da5cb5b146104c4578063a85adeab146104cc578063ad094f3d146104d4576101da565b806351cff8d91161017c578063653721471161014b578063653721471461045b57806377142c08146104635780637dc0d1d01461046b578063898b51a71461048f576101da565b806351cff8d91461038057806352c8b2f9146103a6578063535f02ee146103f75780635467a7511461041d576101da565b80631cb44dfc116101b85780631cb44dfc1461028e57806323341a05146102b65780633dcb8b81146103345780633f7361eb1461035a576101da565b8063052d7c00146101df57806305b4b371146101f957806313faede61461026f575b600080fd5b6101e761074b565b60408051918252519081900360200190f35b61021f6004803603602081101561020f57600080fd5b50356001600160a01b0316610751565b60408051602080825283518183015283519192839290830191858101910280838360005b8381101561025b578181015183820152602001610243565b505050509050019250505060405180910390f35b610277610800565b60408051600f9290920b8252519081900360200190f35b6102b4600480360360208110156102a457600080fd5b50356001600160a01b03166108d1565b005b6102be6109a7565b6040518086600f0b81526020018060200185600f0b8152602001848152602001838152602001828103825286818151815260200191508051906020019060200280838360005b8381101561031c578181015183820152602001610304565b50505050905001965050505050505060405180910390f35b6102776004803603604081101561034a57600080fd5b5080359060200135600f0b610abe565b6101e76004803603602081101561037057600080fd5b50356001600160a01b0316610b11565b6102b46004803603602081101561039657600080fd5b50356001600160a01b0316610d3d565b6103cc600480360360208110156103bc57600080fd5b50356001600160a01b0316610eb9565b6040805195865260208601949094528484019290925260608401526080830152519081900360a00190f35b6102776004803603604081101561040d57600080fd5b5080359060200135600f0b610ee8565b6102b4600480360360a081101561043357600080fd5b508035906001600160a01b036020820135169060408101359060608101359060800135610f10565b6101e76112da565b6101e76112e0565b6104736112e6565b604080516001600160a01b039092168252519081900360200190f35b6101e7600480360360608110156104a557600080fd5b508035906020810135600f0b90604001356001600160a01b03166112f5565b6104736118f5565b6101e7611904565b6102b4600480360360408110156104ea57600080fd5b508035906020013561190a565b6101e76004803603604081101561050d57600080fd5b5080359060200135600f0b611ab7565b6101e7611b1c565b6101e7611b22565b6101e76004803603602081101561054357600080fd5b81019060208101813564010000000081111561055e57600080fd5b82018360208201111561057057600080fd5b8035906020019184602083028401116401000000008311171561059257600080fd5b919080806020026020016040519081016040528093929190818152602001838360200280828437600092019190915250929550611b8a945050505050565b6105d8611ce9565b604051808060200180602001838103835285818151815260200191508051906020019060200280838360005b8381101561061c578181015183820152602001610604565b50505050905001838103825284818151815260200191508051906020019060200280838360005b8381101561065b578181015183820152602001610643565b5050505090500194505050505060405180910390f35b6102b46004803603602081101561068757600080fd5b50356001600160a01b0316611e1e565b6101e7600480360360608110156106ad57600080fd5b508035906020810135600f0b90604001356001600160a01b0316611ece565b6102b4600480360360408110156106e257600080fd5b5080359060200135612421565b6101e7612478565b6102b46004803603602081101561070d57600080fd5b50356001600160a01b031661247e565b6101e76004803603604081101561073357600080fd5b5080359060200135600f0b61258d565b6104736125f2565b60075481565b600354606090610762906001612601565b67ffffffffffffffff8111801561077857600080fd5b506040519080825280602002602001820160405280156107a2578160200160208202803683370190505b50905060015b60035481116107f9576001600160a01b038316600090815260096020908152604080832084845260050190915290205482518390839081106107e657fe5b60209081029190910101526001016107a8565b505b919050565b60105460009060ff16151560011461084b576040805162461bcd60e51b815260206004820152600960248201526804e6f742073657475760bc1b604482015290519081900360640190fd5b600060015b60035481116108b2576108a8826108a361089e600a858154811061087057fe5b60009182526020909120600282040154600b5460019092166010026101000a9004600f90810b91900b61265b565b6126c0565b61271a565b9150600101610850565b50600b546108cb90600f0b6108c68361275f565b612799565b91505090565b6000546001600160a01b0316331461091d576040805162461bcd60e51b815260206004820152600a60248201526927b7363c9037bbb732b960b11b604482015290519081900360640190fd5b6001600160a01b038116610978576040805162461bcd60e51b815260206004820152601260248201527f496e76616c6964206e6577206f7261636c650000000000000000000000000000604482015290519081900360640190fd5b6004805473ffffffffffffffffffffffffffffffffffffffff19166001600160a01b0392909216919091179055565b600060606000806000806109c7600160035461260190919063ffffffff16565b67ffffffffffffffff811180156109dd57600080fd5b50604051908082528060200260200182016040528015610a07578160200160208202803683370190505b5060105490915060ff16610a2957600095509350849250829150819050610ab7565b60015b6003548111610a8e57600a8181548110610a4257fe5b90600052602060002090600291828204019190066010029054906101000a9004600f0b828281518110610a7157fe5b600f92830b90920b60209283029190910190910152600101610a2c565b50600d54600c54600e54600f805493810b9950939750600160801b90910490920b945090925090505b9091929394565b600c546000908190610ae390600160801b9004600f0b610ade86866127e1565b61297e565b600c54909150600090610afa908390600f0b61265b565b9050610b06828261297e565b925050505b92915050565b600080546001600160a01b0316331480610b325750601054610100900460ff165b610b78576040805162461bcd60e51b815260206004820152601260248201527127b7363c9037bbb732b91037b91039b2b63360711b604482015290519081900360640190fd5b600060075411610bcf576040805162461bcd60e51b815260206004820152601160248201527f4d61726b6574206e6f7420636c6f736564000000000000000000000000000000604482015290519081900360640190fd5b6001600160a01b03821660009081526009602052604090206004015415610c3d576040805162461bcd60e51b815260206004820152601760248201527f53686172657320616c72656164792072656465656d6564000000000000000000604482015290519081900360640190fd5b506001600160a01b0381166000908152600960209081526040808320600854845260050190915290205480610cb9576040805162461bcd60e51b815260206004820152601160248201527f4e6f7468696e6720746f2072656465656d000000000000000000000000000000604482015290519081900360640190fd5b6001600160a01b038083166000908152600960205260409020600401829055600154610ce7911683836129c3565b600854604080518381526020810184905281516001600160a01b038616927fc2c19174f35fcb7370641b55802c8f596e4827983eefbb49c33373ac0cad5a1d928290030190a36010805461ff0019169055919050565b60105460ff161515600114610d85576040805162461bcd60e51b815260206004820152600960248201526804e6f742073657475760bc1b604482015290519081900360640190fd5b6000546001600160a01b03163314610dd1576040805162461bcd60e51b815260206004820152600a60248201526927b7363c9037bbb732b960b11b604482015290519081900360640190fd5b600060075411610e28576040805162461bcd60e51b815260206004820152601160248201527f4d61726b6574206e6f7420636c6f736564000000000000000000000000000000604482015290519081900360640190fd5b610eb633826001600160a01b03166370a08231306040518263ffffffff1660e01b815260040180826001600160a01b0316815260200191505060206040518083038186803b158015610e7957600080fd5b505afa158015610e8d573d6000803e3d6000fd5b505050506040513d6020811015610ea357600080fd5b50516001600160a01b03841691906129c3565b50565b600960205260009081526040902080546001820154600283015460038401546004909401549293919290919085565b6000610f09610ef78484612a48565b600c54600160801b9004600f0b61297e565b9392505050565b6000546001600160a01b03163314610f5c576040805162461bcd60e51b815260206004820152600a60248201526927b7363c9037bbb732b960b11b604482015290519081900360640190fd5b60105460ff1615610fb4576040805162461bcd60e51b815260206004820152600d60248201527f416c726561647920736574757000000000000000000000000000000000000000604482015290519081900360640190fd5b60008111611009576040805162461bcd60e51b815260206004820152601560248201527f556e737570706f72746564206f766572726f756e640000000000000000000000604482015290519081900360640190fd5b6000831161105e576040805162461bcd60e51b815260206004820152601460248201527f556e737570706f72746564206f7574636f6d6573000000000000000000000000604482015290519081900360640190fd5b600154611076906001600160a01b0316333085612bbe565b60028590556004805473ffffffffffffffffffffffffffffffffffffffff19166001600160a01b038681169190911790915560038490556001546000916110be911684612c4c565b905060006110cb85612ccf565b905060006110db84612710612ced565b90506110f3816110ee846108c68661275f565b61265b565b600b60106101000a8154816001600160801b030219169083600f0b6001600160801b0316021790555061113b6111298484612799565b600b54600160801b9004600f0b612799565b600b8054600f9290920b6001600160801b03166001600160801b031990921691909117905560035461116e906001612601565b67ffffffffffffffff8111801561118457600080fd5b506040519080825280602002602001820160405280156111ae578160200160208202803683370190505b5080516111c391600a91602090910190613e05565b5060015b60035481116112605783600a82815481106111de57fe5b90600052602060002090600291828204019190066010026101000a8154816001600160801b030219169083600f0b6001600160801b03160217905550611233600d60009054906101000a9004600f0b8561271a565b600d8054600f9290920b6001600160801b03166001600160801b03199092169190911790556001016111c7565b5061126d620186a0612ccf565b600c8054600f9290920b6001600160801b03166001600160801b03199092169190911790556010805460ff191660011790556112a7610800565b600c60106101000a8154816001600160801b030219169083600f0b6001600160801b031602179055505050505050505050565b60085481565b60035481565b6004546001600160a01b031681565b600080546001600160a01b03163314806113165750601054610100900460ff165b61135c576040805162461bcd60e51b815260206004820152601260248201527127b7363c9037bbb732b91037b91039b2b63360711b604482015290519081900360640190fd5b60008411801561136e57506003548411155b6113b1576040805162461bcd60e51b815260206004820152600f60248201526e496e76616c6964206f7574636f6d6560881b604482015290519081900360640190fd5b600083600f0b13611409576040805162461bcd60e51b815260206004820152600e60248201527f496e76616c696420616d6f756e74000000000000000000000000000000000000604482015290519081900360640190fd5b600554421015611460576040805162461bcd60e51b815260206004820152601260248201527f4d61726b6574206e6f7420737461727465640000000000000000000000000000604482015290519081900360640190fd5b600654158061147157506006544211155b6114c2576040805162461bcd60e51b815260206004820152601460248201527f4d61726b657420616c726561647920656e646564000000000000000000000000604482015290519081900360640190fd5b60075415611517576040805162461bcd60e51b815260206004820152601560248201527f4d61726b657420616c726561647920636c6f7365640000000000000000000000604482015290519081900360640190fd5b611550600a858154811061152757fe5b90600052602060002090600291828204019190066010029054906101000a9004600f0b8461297e565b600a858154811061155d57fe5b90600052602060002090600291828204019190066010026101000a8154816001600160801b030219169083600f0b6001600160801b031602179055506115b2600d60009054906101000a9004600f0b8461297e565b600d80546001600160801b0319166001600160801b03600f93840b161790819055600b546115ed9291820b91600160801b909104900b612799565b600b8054600f9290920b6001600160801b03166001600160801b0319909216919091179055600060015b600354811161164157611637826108a361089e600a858154811061087057fe5b9150600101611617565b50600b5460009061165890600f0b6108c68461275f565b600c5490915060009061167590600160801b9004600f0b8361297e565b600c5490915060009061168c908390600f0b61265b565b600c8054600f86900b6001600160801b03908116600160801b0291161790556001549091506116cd906001600160a01b03166116c8848461297e565b612d2d565b945060008511611724576040805162461bcd60e51b815260206004820152600e60248201527f496e76616c69642072657475726e000000000000000000000000000000000000604482015290519081900360640190fd5b60015460009061173d906001600160a01b031689612d2d565b6001600160a01b03881660009081526009602090815260408083208d84526005019091529020549091508111156117bb576040805162461bcd60e51b815260206004820152601460248201527f496e73756666696369656e742062616c616e6365000000000000000000000000604482015290519081900360640190fd5b600f546117c9906001612601565b600f556001600160a01b03871660009081526009602052604090206001908101546117f391612601565b6001600160a01b03881660009081526009602052604090206001810191909155600301546118219087612601565b6001600160a01b038816600090815260096020908152604080832060038101949094558c835260059093019052205461185a9082612da8565b6001600160a01b0380891660009081526009602090815260408083208e8452600501909152902091909155600154611894911688886129c3565b88876001600160a01b03167f019eed797248695407e185a0977fa0dba8bbaaba6c2f6f4a8bdf6fb32e62ba238389604051808381526020018281526020019250505060405180910390a350505050506010805461ff00191690559392505050565b6000546001600160a01b031681565b60065481565b6004546001600160a01b03163314611957576040805162461bcd60e51b815260206004820152600b60248201526a4f6e6c79206f7261636c6560a81b604482015290519081900360640190fd5b60025482146119ad576040805162461bcd60e51b815260206004820152600e60248201527f496e76616c6964206d61726b6574000000000000000000000000000000000000604482015290519081900360640190fd5b6000811180156119bf57506003548111155b611a02576040805162461bcd60e51b815260206004820152600f60248201526e496e76616c6964206f7574636f6d6560881b604482015290519081900360640190fd5b6006544211611a58576040805162461bcd60e51b815260206004820152601060248201527f4d61726b6574206e6f7420656e64656400000000000000000000000000000000604482015290519081900360640190fd5b60075415611aad576040805162461bcd60e51b815260206004820152601560248201527f4d61726b657420616c726561647920636c6f7365640000000000000000000000604482015290519081900360640190fd5b6008555042600755565b60105460009060ff161515600114611b02576040805162461bcd60e51b815260206004820152600960248201526804e6f742073657475760bc1b604482015290519081900360640190fd5b6010805461ff001916610100179055610f098383336112f5565b60025481565b60105460009060ff161515600114611b6d576040805162461bcd60e51b815260206004820152600960248201526804e6f742073657475760bc1b604482015290519081900360640190fd5b6010805461ff001916610100179055611b8533610b11565b905090565b60105460009060ff161515600114611bd5576040805162461bcd60e51b815260206004820152600960248201526804e6f742073657475760bc1b604482015290519081900360640190fd5b6004546001600160a01b03163314611c22576040805162461bcd60e51b815260206004820152600b60248201526a4f6e6c79206f7261636c6560a81b604482015290519081900360640190fd5b60005b82518110156107f9576010805461ff00191661010017905582513090633f7361eb90859084908110611c5357fe5b60200260200101516040518263ffffffff1660e01b815260040180826001600160a01b03168152602001915050602060405180830381600087803b158015611c9a57600080fd5b505af1925050508015611cbf57506040513d6020811015611cba57600080fd5b505160015b611cd3576010805461ff0019169055611ce1565b50611cdf826001612601565b505b600101611c25565b606080611d02600160035461260190919063ffffffff16565b67ffffffffffffffff81118015611d1857600080fd5b50604051908082528060200260200182016040528015611d42578160200160208202803683370190505b50600354909250611d54906001612601565b67ffffffffffffffff81118015611d6a57600080fd5b50604051908082528060200260200182016040528015611d94578160200160208202803683370190505b50905060015b6003548111611e19576001546801000000000000000090611dc8906001600160a01b03166116c88484610ee8565b848381518110611dd457fe5b6020908102919091010152600154611df9906001600160a01b03166116c88484610abe565b838381518110611e0557fe5b602090810291909101015250600101611d9a565b509091565b6000546001600160a01b0316158015611e4057506001546001600160a01b0316155b611e91576040805162461bcd60e51b815260206004820152601360248201527f416c726561647920696e697469616c697a656400000000000000000000000000604482015290519081900360640190fd5b600080543373ffffffffffffffffffffffffffffffffffffffff1991821617909155600180549091166001600160a01b0392909216919091179055565b600080546001600160a01b0316331480611eef5750601054610100900460ff165b611f35576040805162461bcd60e51b815260206004820152601260248201527127b7363c9037bbb732b91037b91039b2b63360711b604482015290519081900360640190fd5b600084118015611f4757506003548411155b611f8a576040805162461bcd60e51b815260206004820152600f60248201526e496e76616c6964206f7574636f6d6560881b604482015290519081900360640190fd5b600083600f0b13611fe2576040805162461bcd60e51b815260206004820152600e60248201527f496e76616c696420616d6f756e74000000000000000000000000000000000000604482015290519081900360640190fd5b600554421015612039576040805162461bcd60e51b815260206004820152601260248201527f4d61726b6574206e6f7420737461727465640000000000000000000000000000604482015290519081900360640190fd5b600654158061204a57506006544211155b61209b576040805162461bcd60e51b815260206004820152601460248201527f4d61726b657420616c726561647920656e646564000000000000000000000000604482015290519081900360640190fd5b600754156120f0576040805162461bcd60e51b815260206004820152601560248201527f4d61726b657420616c726561647920636c6f7365640000000000000000000000604482015290519081900360640190fd5b612129600a858154811061210057fe5b90600052602060002090600291828204019190066010029054906101000a9004600f0b8461271a565b600a858154811061213657fe5b90600052602060002090600291828204019190066010026101000a8154816001600160801b030219169083600f0b6001600160801b0316021790555061218b600d60009054906101000a9004600f0b8461271a565b600d80546001600160801b0319166001600160801b03600f93840b161790819055600b546121c69291820b91600160801b909104900b612799565b600b8054600f9290920b6001600160801b03166001600160801b0319909216919091179055600060015b600354811161221a57612210826108a361089e600a858154811061087057fe5b91506001016121f0565b50600b5460009061223190600f0b6108c68461275f565b9050600061224e82600c60109054906101000a9004600f0b61297e565b600c8054600f85900b6001600160801b03908116600160801b029116179055600154909150612286906001600160a01b031682612d2d565b9350600084116122dd576040805162461bcd60e51b815260206004820152600c60248201527f496e76616c696420636f73740000000000000000000000000000000000000000604482015290519081900360640190fd5b6001546122f5906001600160a01b0316333087612bbe565b60015460009061230e906001600160a01b031688612d2d565b600e5490915061231f906001612601565b600e556001600160a01b038616600090815260096020526040902054612346906001612601565b6001600160a01b03871660009081526009602052604090209081556002015461236f9086612601565b6001600160a01b038716600090815260096020908152604080832060028101949094558b83526005909301905220546123a89082612601565b6001600160a01b03871660008181526009602090815260408083208d845260050182529182902093909355805184815292830188905280518b937f849165c18b9d0fb161bcb145e4ab523d350e5c98f1dbbb1960331e7ee3ca676792908290030190a3505050506010805461ff00191690559392505050565b6000546001600160a01b0316331461246d576040805162461bcd60e51b815260206004820152600a60248201526927b7363c9037bbb732b960b11b604482015290519081900360640190fd5b600591909155600655565b60055481565b6000546001600160a01b031633146124ca576040805162461bcd60e51b815260206004820152600a60248201526927b7363c9037bbb732b960b11b604482015290519081900360640190fd5b6001600160a01b038116612525576040805162461bcd60e51b815260206004820152601160248201527f496e76616c6964206e6577206f776e6572000000000000000000000000000000604482015290519081900360640190fd5b600080546040516001600160a01b03808516939216917f8be0079c531659141344cd1fd0a4f28419497f9722a3daafe3b4186f6b6457e091a36000805473ffffffffffffffffffffffffffffffffffffffff19166001600160a01b0392909216919091179055565b60105460009060ff1615156001146125d8576040805162461bcd60e51b815260206004820152600960248201526804e6f742073657475760bc1b604482015290519081900360640190fd5b6010805461ff001916610100179055610f09838333611ece565b6001546001600160a01b031681565b600082820183811015610f09576040805162461bcd60e51b815260206004820152601b60248201527f536166654d6174683a206164646974696f6e206f766572666c6f770000000000604482015290519081900360640190fd5b600081600f0b6000141561266e57600080fd5b600082600f0b604085600f0b901b8161268357fe5b0590506f7fffffffffffffffffffffffffffffff1981128015906126b757506f7fffffffffffffffffffffffffffffff8113155b610f0957600080fd5b60006840000000000000000082600f0b126126da57600080fd5b683fffffffffffffffff1982600f0b12156126f7575060006107fb565b610b0b608083600f0b700171547652b82fe1777d0ffda0d23a7d1202901d612e05565b6000600f83810b9083900b016f7fffffffffffffffffffffffffffffff1981128015906126b757506f7fffffffffffffffffffffffffffffff811315610f0957600080fd5b60008082600f0b1361277057600080fd5b608061277b836138d8565b600f0b6fb17217f7d1cf79abc9e3b39803f2f6af02901c9050919050565b6000600f83810b9083900b0260401d6f7fffffffffffffffffffffffffffffff1981128015906126b757506f7fffffffffffffffffffffffffffffff811315610f0957600080fd5b6000806000600a8054905067ffffffffffffffff8111801561280257600080fd5b5060405190808252806020026020018201604052801561282c578160200160208202803683370190505b50600d54909150600f0b60015b600354811161290d57868114156128b457612883600a828154811061285a57fe5b90600052602060002090600291828204019190066010029054906101000a9004600f0b8761297e565b83828151811061288f57fe5b6020026020010190600f0b9081600f0b815250506128ad828761297e565b9150612905565b600a81815481106128c157fe5b90600052602060002090600291828204019190066010029054906101000a9004600f0b8382815181106128f057fe5b6020026020010190600f0b9081600f0b815250505b600101612839565b50600b54600090612929908390600160801b9004600f0b612799565b905060015b60035481116129655761295b856108a361089e87858151811061294d57fe5b60200260200101518661265b565b945060010161292e565b50612973816108c68661275f565b979650505050505050565b6000600f82810b9084900b036f7fffffffffffffffffffffffffffffff1981128015906126b757506f7fffffffffffffffffffffffffffffff811315610f0957600080fd5b604080516001600160a01b038416602482015260448082018490528251808303909101815260649091019091526020810180517bffffffffffffffffffffffffffffffffffffffffffffffffffffffff167fa9059cbb00000000000000000000000000000000000000000000000000000000179052612a439084906139bc565b505050565b6000806000600a8054905067ffffffffffffffff81118015612a6957600080fd5b50604051908082528060200260200182016040528015612a93578160200160208202803683370190505b50600d54909150600f0b60015b6003548111612b745786811415612b1b57612aea600a8281548110612ac157fe5b90600052602060002090600291828204019190066010029054906101000a9004600f0b8761271a565b838281518110612af657fe5b6020026020010190600f0b9081600f0b81525050612b14828761271a565b9150612b6c565b600a8181548110612b2857fe5b90600052602060002090600291828204019190066010029054906101000a9004600f0b838281518110612b5757fe5b6020026020010190600f0b9081600f0b815250505b600101612aa0565b50600b54600090612b90908390600160801b9004600f0b612799565b905060015b600354811161296557612bb4856108a361089e87858151811061294d57fe5b9450600101612b95565b604080516001600160a01b0380861660248301528416604482015260648082018490528251808303909101815260849091019091526020810180517bffffffffffffffffffffffffffffffffffffffffffffffffffffffff167f23b872dd00000000000000000000000000000000000000000000000000000000179052612c469085906139bc565b50505050565b600080836001600160a01b031663313ce5676040518163ffffffff1660e01b815260040160206040518083038186803b158015612c8857600080fd5b505afa158015612c9c573d6000803e3d6000fd5b505050506040513d6020811015612cb257600080fd5b505160ff169050612cc783600a83900a612ced565b949350505050565b6000677fffffffffffffff821115612ce657600080fd5b5060401b90565b600081612cf957600080fd5b6000612d058484613a6d565b90506f7fffffffffffffffffffffffffffffff6001600160801b0382161115610f0957600080fd5b600080836001600160a01b031663313ce5676040518163ffffffff1660e01b815260040160206040518083038186803b158015612d6957600080fd5b505afa158015612d7d573d6000803e3d6000fd5b505050506040513d6020811015612d9357600080fd5b505160ff169050612cc783600a83900a613bc8565b600082821115612dff576040805162461bcd60e51b815260206004820152601e60248201527f536166654d6174683a207375627472616374696f6e206f766572666c6f770000604482015290519081900360640190fd5b50900390565b60006840000000000000000082600f0b12612e1f57600080fd5b683fffffffffffffffff1982600f0b1215612e3c575060006107fb565b6f8000000000000000000000000000000060006780000000000000008416600f0b1315612e7a5770016a09e667f3bcc908b2fb1366ea957d3e0260801c5b60008367400000000000000016600f0b1315612ea7577001306fe0a31b7152de8d5a46305c85edec0260801c5b60008367200000000000000016600f0b1315612ed4577001172b83c7d517adcdf7c8c50eb14a791f0260801c5b60008367100000000000000016600f0b1315612f015770010b5586cf9890f6298b92b71842a983630260801c5b60008367080000000000000016600f0b1315612f2e577001059b0d31585743ae7c548eb68ca417fd0260801c5b60008367040000000000000016600f0b1315612f5b57700102c9a3e778060ee6f7caca4f7a29bde80260801c5b60008367020000000000000016600f0b1315612f885770010163da9fb33356d84a66ae336dcdfa3f0260801c5b60008367010000000000000016600f0b1315612fb557700100b1afa5abcbed6129ab13ec11dc95430260801c5b600083668000000000000016600f0b1315612fe15770010058c86da1c09ea1ff19d294cf2f679b0260801c5b600083664000000000000016600f0b131561300d577001002c605e2e8cec506d21bfc89a23a00f0260801c5b600083662000000000000016600f0b131561303957700100162f3904051fa128bca9c55c31e5df0260801c5b600083661000000000000016600f0b1315613065577001000b175effdc76ba38e31671ca9397250260801c5b600083660800000000000016600f0b131561309157700100058ba01fb9f96d6cacd4b180917c3d0260801c5b600083660400000000000016600f0b13156130bd5770010002c5cc37da9491d0985c348c68e7b30260801c5b600083660200000000000016600f0b13156130e9577001000162e525ee054754457d59952920260260801c5b600083660100000000000016600f0b13156131155770010000b17255775c040618bf4a4ade83fc0260801c5b6000836580000000000016600f0b1315613140577001000058b91b5bc9ae2eed81e9b7d4cfab0260801c5b6000836540000000000016600f0b131561316b57700100002c5c89d5ec6ca4d7c8acc017b7c90260801c5b6000836520000000000016600f0b13156131965770010000162e43f4f831060e02d839a9d16d0260801c5b6000836510000000000016600f0b13156131c157700100000b1721bcfc99d9f890ea069117630260801c5b6000836508000000000016600f0b13156131ec5770010000058b90cf1e6d97f9ca14dbcc16280260801c5b6000836504000000000016600f0b1315613217577001000002c5c863b73f016468f6bac5ca2b0260801c5b6000836502000000000016600f0b131561324257700100000162e430e5a18f6119e3c02282a50260801c5b6000836501000000000016600f0b131561326d577001000000b1721835514b86e6d96efd1bfe0260801c5b60008364800000000016600f0b131561329757700100000058b90c0b48c6be5df846c5b2ef0260801c5b60008364400000000016600f0b13156132c15770010000002c5c8601cc6b9e94213c72737a0260801c5b60008364200000000016600f0b13156132eb577001000000162e42fff037df38aa2b219f060260801c5b60008364100000000016600f0b13156133155770010000000b17217fba9c739aa5819f44f90260801c5b60008364080000000016600f0b131561333f577001000000058b90bfcdee5acd3c1cedc8230260801c5b60008364040000000016600f0b131561336957700100000002c5c85fe31f35a6a30da1be500260801c5b60008364020000000016600f0b13156133935770010000000162e42ff0999ce3541b9fffcf0260801c5b60008364010000000016600f0b13156133bd57700100000000b17217f80f4ef5aadda455540260801c5b600083638000000016600f0b13156133e65770010000000058b90bfbf8479bd5a81b51ad0260801c5b600083634000000016600f0b131561340f577001000000002c5c85fdf84bd62ae30a74cc0260801c5b600083632000000016600f0b131561343857700100000000162e42fefb2fed257559bdaa0260801c5b600083631000000016600f0b1315613461577001000000000b17217f7d5a7716bba4a9ae0260801c5b600083630800000016600f0b131561348a57700100000000058b90bfbe9ddbac5e109cce0260801c5b600083630400000016600f0b13156134b35770010000000002c5c85fdf4b15de6f17eb0d0260801c5b600083630200000016600f0b13156134dc577001000000000162e42fefa494f1478fde050260801c5b600083630100000016600f0b13156135055770010000000000b17217f7d20cf927c8e94c0260801c5b6000836280000016600f0b131561352d577001000000000058b90bfbe8f71cb4e4b33d0260801c5b6000836240000016600f0b131561355557700100000000002c5c85fdf477b662b269450260801c5b6000836220000016600f0b131561357d5770010000000000162e42fefa3ae53369388c0260801c5b6000836210000016600f0b13156135a557700100000000000b17217f7d1d351a389d400260801c5b6000836208000016600f0b13156135cd5770010000000000058b90bfbe8e8b2d3d4ede0260801c5b6000836204000016600f0b13156135f5577001000000000002c5c85fdf4741bea6e77e0260801c5b6000836202000016600f0b131561361d57700100000000000162e42fefa39fe95583c20260801c5b6000836201000016600f0b1315613645577001000000000000b17217f7d1cfb72b45e10260801c5b60008361800016600f0b131561366c57700100000000000058b90bfbe8e7cc35c3f00260801c5b60008361400016600f0b13156136935770010000000000002c5c85fdf473e242ea380260801c5b60008361200016600f0b13156136ba577001000000000000162e42fefa39f02b772c0260801c5b60008361100016600f0b13156136e15770010000000000000b17217f7d1cf7d83c1a0260801c5b60008361080016600f0b1315613708577001000000000000058b90bfbe8e7bdcbe2e0260801c5b60008361040016600f0b131561372f57700100000000000002c5c85fdf473dea871f0260801c5b60008361020016600f0b13156137565770010000000000000162e42fefa39ef44d910260801c5b60008361010016600f0b131561377d57700100000000000000b17217f7d1cf79e9490260801c5b600083608016600f0b13156137a35770010000000000000058b90bfbe8e7bce5440260801c5b600083604016600f0b13156137c9577001000000000000002c5c85fdf473de6eca0260801c5b600083602016600f0b13156137ef57700100000000000000162e42fefa39ef366f0260801c5b600083601016600f0b1315613815577001000000000000000b17217f7d1cf79afa0260801c5b600083600816600f0b131561383b57700100000000000000058b90bfbe8e7bcd6d0260801c5b600083600416600f0b13156138615770010000000000000002c5c85fdf473de6b20260801c5b600083600216600f0b1315613887577001000000000000000162e42fefa39ef3580260801c5b600083600116600f0b13156138ad5770010000000000000000b17217f7d1cf79ab0260801c5b600f83810b60401d603f03900b1c6f7fffffffffffffffffffffffffffffff811115610b0b57600080fd5b60008082600f0b136138e957600080fd5b6000600f83900b680100000000000000008112613908576040918201911d5b640100000000811261391c576020918201911d5b62010000811261392e576010918201911d5b610100811261393f576008918201911d5b6010811261394f576004918201911d5b6004811261395f576002918201911d5b6002811261396e576001820191505b603f19820160401b600f85900b607f8490031b6780000000000000005b60008113156139b15790800260ff81901c8281029390930192607f011c9060011d61398b565b509095945050505050565b6000613a11826040518060400160405280602081526020017f5361666545524332303a206c6f772d6c6576656c2063616c6c206661696c6564815250856001600160a01b0316613c419092919063ffffffff16565b805190915015612a4357808060200190516020811015613a3057600080fd5b5051612a435760405162461bcd60e51b815260040180806020018281038252602a815260200180613ed6602a913960400191505060405180910390fd5b600081613a7957600080fd5b600077ffffffffffffffffffffffffffffffffffffffffffffffff8411613aaf5782604085901b81613aa757fe5b049050613bb4565b60c084811c6401000000008110613ac8576020918201911c5b620100008110613ada576010918201911c5b6101008110613aeb576008918201911c5b60108110613afb576004918201911c5b60048110613b0b576002918201911c5b60028110613b1a576001820191505b60bf820360018603901c6001018260ff0387901b81613b3557fe5b0492506001600160801b03831115613b4c57600080fd5b608085901c83026001600160801b038616840260c088901c604089901b82811015613b78576001820391505b608084901b92900382811015613b8f576001820391505b829003608084901c8214613b9f57fe5b888181613ba857fe5b04870196505050505050505b6001600160801b03811115610f0957600080fd5b600081613bd757506000610b0b565b600083600f0b1215613be857600080fd5b600f83900b6001600160801b038316810260401c90608084901c0277ffffffffffffffffffffffffffffffffffffffffffffffff811115613c2857600080fd5b60401b8119811115613c3957600080fd5b019392505050565b6060612cc7848460008585613c5585613d5b565b613ca6576040805162461bcd60e51b815260206004820152601d60248201527f416464726573733a2063616c6c20746f206e6f6e2d636f6e7472616374000000604482015290519081900360640190fd5b600080866001600160a01b031685876040518082805190602001908083835b60208310613ce45780518252601f199092019160209182019101613cc5565b6001836020036101000a03801982511681845116808217855250505050505090500191505060006040518083038185875af1925050503d8060008114613d46576040519150601f19603f3d011682016040523d82523d6000602084013e613d4b565b606091505b5091509150612973828286613d61565b3b151590565b60608315613d70575081610f09565b825115613d805782518084602001fd5b8160405162461bcd60e51b81526004018080602001828103825283818151815260200191508051906020019080838360005b83811015613dca578181015183820152602001613db2565b50505050905090810190601f168015613df75780820380516001836020036101000a031916815260200191505b509250505060405180910390fd5b82805482825590600052602060002090600101600290048101928215613eb05791602002820160005b83821115613e7b57835183826101000a8154816001600160801b030219169083600f0b6001600160801b031602179055509260200192601001602081600f01049283019260010302613e2e565b8015613eae5782816101000a8154906001600160801b030219169055601001602081600f01049283019260010302613e7b565b505b50613ebc929150613ec0565b5090565b5b80821115613ebc5760008155600101613ec156fe5361666545524332303a204552433230206f7065726174696f6e20646964206e6f742073756363656564a2646970667358221220b34b432a8236d8e27b903341d9d6730bc46532e1e0221a145ea447a032a420ec64736f6c63430007060033",
  "devdoc": {
    "author": "Marto (https://github.com/0xMarto)",
    "details": "Feel free to make any adjustments to the code (DMs are open @0xMarto)",
    "kind": "dev",
    "methods": {
      "_buy(uint256,int128,address)": {
        "params": {
          "_account": "The address of the buyer",
          "_amount": "The number of outcome shares to buy (as a signed 64.64-bit fixed point number)",
          "_outcome": "The outcome of which shares are being bought (e.g.: 1 for YES, 2 for NO)"
        },
        "returns": {
          "tokenCost": "The total token amount used for buying the specified amount of outcome shares"
        }
      },
      "_redeem(address)": {
        "params": {
          "_account": "The address of the account with shares of the market"
        },
        "returns": {
          "redeemedShares": "The number of shares redeemed"
        }
      },
      "_sell(uint256,int128,address)": {
        "params": {
          "_account": "The address of the seller",
          "_amount": "The number of outcome shares to sell (as a signed 64.64-bit fixed point number)",
          "_outcome": "The outcome for which shares are being sold (e.g.: 1 for YES, 2 for NO)"
        },
        "returns": {
          "tokenReturn": "The total amount of tokens received from selling the outcome shares"
        }
      },
      "buy(uint256,int128)": {
        "params": {
          "_amount": "The number of outcome shares to buy (as a signed 64.64-bit fixed point number)",
          "_outcome": "The outcome of which shares are being bought (e.g.: 1 for YES, 2 for NO)"
        },
        "returns": {
          "tokenCost": "The total token amount used for buying the specified amount of outcome shares"
        }
      },
      "buyPrice(uint256,int128)": {
        "params": {
          "_amount": "The number of outcome shares to buy (as signed 64.64-bit fixed point number)",
          "_outcome": "The outcome for which shares are being bought"
        },
        "returns": {
          "tokenCost": "The token cost amount (as a signed 64.64-bit fixed point number)"
        }
      },
      "cost()": {
        "returns": {
          "totalCost": "The total cost in the form of a signed 64.64-bit fixed point number"
        }
      },
      "getAccountOutcomeBalances(address)": {
        "params": {
          "_account": "The address of the account with shares of the market"
        },
        "returns": {
          "balances": "The balances of shares for all outcomes (indexed by outcome)"
        }
      },
      "getMarketInfo()": {
        "returns": {
          "_0": "totalShares The current total shares minted for all outcomes of the market",
          "_1": "sharesBalances All shares balances (indexed by outcome)",
          "_2": "currentCost The current liquidity of the market",
          "_3": "totalBuys Buys counter of the market",
          "_4": "totalSells Sells counter of the market"
        }
      },
      "getPrices()": {
        "details": "Helper function to fast calculate market prediction and spreads",
        "returns": {
          "buyPrices": "buy price of 1 share for all outcomes (indexed by outcome)",
          "sellPrices": "sell price of 1 share for all outcomes (indexed by outcome)"
        }
      },
      "initialize(address)": {
        "params": {
          "_token": "ERC-20 token will be used to purchase and redeem rewards for this Market"
        }
      },
      "redeemBatch(address[])": {
        "details": "The list of accounts could be calculated using the \"SharesBought\" event",
        "params": {
          "_accounts": "The list of accounts to redeem shares for"
        },
        "returns": {
          "redeems": "The number of successful redeems"
        }
      },
      "redeemShares()": {
        "returns": {
          "redeemedShares": "The number of shares redeemed"
        }
      },
      "reportResult(uint256,uint256)": {
        "params": {
          "_id": "The unique identifier of the market",
          "_outcome": "The outcome that is reported as the result of the market"
        }
      },
      "sell(uint256,int128)": {
        "params": {
          "_amount": "The number of outcome shares to sell (as a signed 64.64-bit fixed point number)",
          "_outcome": "The outcome of which shares are being sold (e.g.: 1 for YES, 2 for NO)"
        },
        "returns": {
          "tokenReturn": "The total amount of tokens received from selling the outcome shares"
        }
      },
      "sellPrice(uint256,int128)": {
        "params": {
          "_amount": "The number of outcome shares to sell (as signed 64.64-bit fixed point number)",
          "_outcome": "The outcome for which shares are being sold"
        },
        "returns": {
          "tokenReturn": "The token return amount (as a signed 64.64-bit fixed point number)"
        }
      },
      "setup(uint256,address,uint256,uint256,uint256)": {
        "params": {
          "_id": "The unique identifier for the market",
          "_oracle": "The address of the oracle that will report results",
          "_overround": "The AMM profit margin in basis points (bps) [recommended: (100 * _totalOutcomes)]",
          "_subsidy": "The initial funding used to seed the market (defined on initialized token)",
          "_totalOutcomes": "The number of possible outcomes for the market"
        }
      },
      "transferOwnership(address)": {
        "params": {
          "_newOwner": "The address of the new owner"
        }
      },
      "updateDates(uint256,uint256)": {
        "params": {
          "_endTimestamp": "The timestamp when the market stops allowing trading",
          "_startTimestamp": "The timestamp when the market starts allowing trading"
        }
      },
      "updateOracle(address)": {
        "params": {
          "_newOracle": "The address of the EOA or contract that can close the market"
        }
      },
      "withdraw(address)": {
        "params": {
          "_token": "The address of the ERC-20 token to withdraw"
        }
      }
    },
    "title": "PrecogMarketV7: An implementation for liquidity-sensitive LMSR market maker in Solidity",
    "version": 1
  },
  "userdoc": {
    "kind": "user",
    "methods": {
      "_buy(uint256,int128,address)": {
        "notice": "Allows buying market shares for a specified account (limited to only Self or Owner)"
      },
      "_redeem(address)": {
        "notice": "Redeems the received account shares for the result of the market (limited to only Self or Owner)"
      },
      "_sell(uint256,int128,address)": {
        "notice": "Allows selling market shares from a specified account (limited to only Self or Owner)"
      },
      "buy(uint256,int128)": {
        "notice": "Buys outcome shares for the specified outcome"
      },
      "buyPrice(uint256,int128)": {
        "notice": "Gets the cost of buying the specified amount of outcome shares"
      },
      "cost()": {
        "notice": "Gets the total collateral spent in the market"
      },
      "getAccountOutcomeBalances(address)": {
        "notice": "Gets the amount of shares that an account owns for all outcomes"
      },
      "getMarketInfo()": {
        "notice": "Gets the current market state information"
      },
      "getPrices()": {
        "notice": "Gets current market buy and sell prices for all outcomes"
      },
      "initialize(address)": {
        "notice": "Constructor like function for the market maker"
      },
      "redeemBatch(address[])": {
        "notice": "Redeems shares in batch for multiple accounts  (limited to only Oracle)"
      },
      "redeemShares()": {
        "notice": "Redeems the current sender shares for the result of the market"
      },
      "reportResult(uint256,uint256)": {
        "notice": "Reports the result of the market (limited to only Oracle)"
      },
      "sell(uint256,int128)": {
        "notice": "Sells outcome shares for the specified outcome"
      },
      "sellPrice(uint256,int128)": {
        "notice": "Gets the return from selling the specified amount of outcome shares"
      },
      "setup(uint256,address,uint256,uint256,uint256)": {
        "notice": "Sets up the market with the specified parameters"
      },
      "transferOwnership(address)": {
        "notice": "Transfers the ownership of the contract to a new owner (limited to only current owner)"
      },
      "updateDates(uint256,uint256)": {
        "notice": "Updates the start and end timestamps for the market (limited to only owner)"
      },
      "updateOracle(address)": {
        "notice": "Update the oracle address of the market (limited to only owner)"
      },
      "withdraw(address)": {
        "notice": "Withdraws any remaining liquidity from the market (limited to only owner)"
      }
    },
    "version": 1
  },
  "storageLayout": {
    "storage": [
      {
        "astId": 5677,
        "contract": "contracts/PrecogMarketV7.sol:PrecogMarketV7",
        "label": "owner",
        "offset": 0,
        "slot": "0",
        "type": "t_address"
      },
      {
        "astId": 5679,
        "contract": "contracts/PrecogMarketV7.sol:PrecogMarketV7",
        "label": "token",
        "offset": 0,
        "slot": "1",
        "type": "t_address"
      },
      {
        "astId": 5681,
        "contract": "contracts/PrecogMarketV7.sol:PrecogMarketV7",
        "label": "id",
        "offset": 0,
        "slot": "2",
        "type": "t_uint256"
      },
      {
        "astId": 5683,
        "contract": "contracts/PrecogMarketV7.sol:PrecogMarketV7",
        "label": "totalOutcomes",
        "offset": 0,
        "slot": "3",
        "type": "t_uint256"
      },
      {
        "astId": 5685,
        "contract": "contracts/PrecogMarketV7.sol:PrecogMarketV7",
        "label": "oracle",
        "offset": 0,
        "slot": "4",
        "type": "t_address"
      },
      {
        "astId": 5687,
        "contract": "contracts/PrecogMarketV7.sol:PrecogMarketV7",
        "label": "startTimestamp",
        "offset": 0,
        "slot": "5",
        "type": "t_uint256"
      },
      {
        "astId": 5689,
        "contract": "contracts/PrecogMarketV7.sol:PrecogMarketV7",
        "label": "endTimestamp",
        "offset": 0,
        "slot": "6",
        "type": "t_uint256"
      },
      {
        "astId": 5691,
        "contract": "contracts/PrecogMarketV7.sol:PrecogMarketV7",
        "label": "closeTimestamp",
        "offset": 0,
        "slot": "7",
        "type": "t_uint256"
      },
      {
        "astId": 5693,
        "contract": "contracts/PrecogMarketV7.sol:PrecogMarketV7",
        "label": "result",
        "offset": 0,
        "slot": "8",
        "type": "t_uint256"
      },
      {
        "astId": 5697,
        "contract": "contracts/PrecogMarketV7.sol:PrecogMarketV7",
        "label": "accountShares",
        "offset": 0,
        "slot": "9",
        "type": "t_mapping(t_address,t_struct(SharesInfo)5675_storage)"
      },
      {
        "astId": 5700,
        "contract": "contracts/PrecogMarketV7.sol:PrecogMarketV7",
        "label": "shares",
        "offset": 0,
        "slot": "10",
        "type": "t_array(t_int128)dyn_storage"
      },
      {
        "astId": 5702,
        "contract": "contracts/PrecogMarketV7.sol:PrecogMarketV7",
        "label": "beta",
        "offset": 0,
        "slot": "11",
        "type": "t_int128"
      },
      {
        "astId": 5704,
        "contract": "contracts/PrecogMarketV7.sol:PrecogMarketV7",
        "label": "alpha",
        "offset": 16,
        "slot": "11",
        "type": "t_int128"
      },
      {
        "astId": 5706,
        "contract": "contracts/PrecogMarketV7.sol:PrecogMarketV7",
        "label": "dust",
        "offset": 0,
        "slot": "12",
        "type": "t_int128"
      },
      {
        "astId": 5708,
        "contract": "contracts/PrecogMarketV7.sol:PrecogMarketV7",
        "label": "currentCost",
        "offset": 16,
        "slot": "12",
        "type": "t_int128"
      },
      {
        "astId": 5710,
        "contract": "contracts/PrecogMarketV7.sol:PrecogMarketV7",
        "label": "totalShares",
        "offset": 0,
        "slot": "13",
        "type": "t_int128"
      },
      {
        "astId": 5712,
        "contract": "contracts/PrecogMarketV7.sol:PrecogMarketV7",
        "label": "totalBuys",
        "offset": 0,
        "slot": "14",
        "type": "t_uint256"
      },
      {
        "astId": 5714,
        "contract": "contracts/PrecogMarketV7.sol:PrecogMarketV7",
        "label": "totalSells",
        "offset": 0,
        "slot": "15",
        "type": "t_uint256"
      },
      {
        "astId": 5716,
        "contract": "contracts/PrecogMarketV7.sol:PrecogMarketV7",
        "label": "marketSetup",
        "offset": 0,
        "slot": "16",
        "type": "t_bool"
      },
      {
        "astId": 5718,
        "contract": "contracts/PrecogMarketV7.sol:PrecogMarketV7",
        "label": "internalCall",
        "offset": 1,
        "slot": "16",
        "type": "t_bool"
      }
    ],
    "types": {
      "t_address": {
        "encoding": "inplace",
        "label": "address",
        "numberOfBytes": "20"
      },
      "t_array(t_int128)dyn_storage": {
        "base": "t_int128",
        "encoding": "dynamic_array",
        "label": "int128[]",
        "numberOfBytes": "32"
      },
      "t_bool": {
        "encoding": "inplace",
        "label": "bool",
        "numberOfBytes": "1"
      },
      "t_int128": {
        "encoding": "inplace",
        "label": "int128",
        "numberOfBytes": "16"
      },
      "t_mapping(t_address,t_struct(SharesInfo)5675_storage)": {
        "encoding": "mapping",
        "key": "t_address",
        "label": "mapping(address => struct PrecogMarketV7.SharesInfo)",
        "numberOfBytes": "32",
        "value": "t_struct(SharesInfo)5675_storage"
      },
      "t_mapping(t_uint256,t_uint256)": {
        "encoding": "mapping",
        "key": "t_uint256",
        "label": "mapping(uint256 => uint256)",
        "numberOfBytes": "32",
        "value": "t_uint256"
      },
      "t_struct(SharesInfo)5675_storage": {
        "encoding": "inplace",
        "label": "struct PrecogMarketV7.SharesInfo",
        "members": [
          {
            "astId": 5662,
            "contract": "contracts/PrecogMarketV7.sol:PrecogMarketV7",
            "label": "buys",
            "offset": 0,
            "slot": "0",
            "type": "t_uint256"
          },
          {
            "astId": 5664,
            "contract": "contracts/PrecogMarketV7.sol:PrecogMarketV7",
            "label": "sells",
            "offset": 0,
            "slot": "1",
            "type": "t_uint256"
          },
          {
            "astId": 5666,
            "contract": "contracts/PrecogMarketV7.sol:PrecogMarketV7",
            "label": "deposited",
            "offset": 0,
            "slot": "2",
            "type": "t_uint256"
          },
          {
            "astId": 5668,
            "contract": "contracts/PrecogMarketV7.sol:PrecogMarketV7",
            "label": "withdrew",
            "offset": 0,
            "slot": "3",
            "type": "t_uint256"
          },
          {
            "astId": 5670,
            "contract": "contracts/PrecogMarketV7.sol:PrecogMarketV7",
            "label": "redeemed",
            "offset": 0,
            "slot": "4",
            "type": "t_uint256"
          },
          {
            "astId": 5674,
            "contract": "contracts/PrecogMarketV7.sol:PrecogMarketV7",
            "label": "balances",
            "offset": 0,
            "slot": "5",
            "type": "t_mapping(t_uint256,t_uint256)"
          }
        ],
        "numberOfBytes": "192"
      },
      "t_uint256": {
        "encoding": "inplace",
        "label": "uint256",
        "numberOfBytes": "32"
      }
    }
  }
}