{
  "address": "0xE31b4C49FA1732b2f7d4165A36Eb133d6ed39661",
  "abi": [
    {
      "inputs": [
        {
          "internalType": "address",
          "name": "precogToken",
          "type": "address"
        },
        {
          "internalType": "address",
          "name": "initialAdmin",
          "type": "address"
        }
      ],
      "stateMutability": "nonpayable",
      "type": "constructor"
    },
    {
      "anonymous": false,
      "inputs": [
        {
          "indexed": true,
          "internalType": "address",
          "name": "creator",
          "type": "address"
        },
        {
          "indexed": false,
          "internalType": "uint256",
          "name": "id",
          "type": "uint256"
        },
        {
          "indexed": false,
          "internalType": "address",
          "name": "market",
          "type": "address"
        }
      ],
      "name": "MarketCreated",
      "type": "event"
    },
    {
      "anonymous": false,
      "inputs": [
        {
          "indexed": true,
          "internalType": "bytes32",
          "name": "role",
          "type": "bytes32"
        },
        {
          "indexed": true,
          "internalType": "bytes32",
          "name": "previousAdminRole",
          "type": "bytes32"
        },
        {
          "indexed": true,
          "internalType": "bytes32",
          "name": "newAdminRole",
          "type": "bytes32"
        }
      ],
      "name": "RoleAdminChanged",
      "type": "event"
    },
    {
      "anonymous": false,
      "inputs": [
        {
          "indexed": true,
          "internalType": "bytes32",
          "name": "role",
          "type": "bytes32"
        },
        {
          "indexed": true,
          "internalType": "address",
          "name": "account",
          "type": "address"
        },
        {
          "indexed": true,
          "internalType": "address",
          "name": "sender",
          "type": "address"
        }
      ],
      "name": "RoleGranted",
      "type": "event"
    },
    {
      "anonymous": false,
      "inputs": [
        {
          "indexed": true,
          "internalType": "bytes32",
          "name": "role",
          "type": "bytes32"
        },
        {
          "indexed": true,
          "internalType": "address",
          "name": "account",
          "type": "address"
        },
        {
          "indexed": true,
          "internalType": "address",
          "name": "sender",
          "type": "address"
        }
      ],
      "name": "RoleRevoked",
      "type": "event"
    },
    {
      "anonymous": false,
      "inputs": [
        {
          "indexed": true,
          "internalType": "address",
          "name": "account",
          "type": "address"
        },
        {
          "indexed": true,
          "internalType": "uint256",
          "name": "user",
          "type": "uint256"
        },
        {
          "indexed": false,
          "internalType": "uint256",
          "name": "amount",
          "type": "uint256"
        },
        {
          "indexed": false,
          "internalType": "uint256",
          "name": "timestamp",
          "type": "uint256"
        }
      ],
      "name": "TokensClaimed",
      "type": "event"
    },
    {
      "anonymous": false,
      "inputs": [
        {
          "indexed": true,
          "internalType": "address",
          "name": "account",
          "type": "address"
        },
        {
          "indexed": false,
          "internalType": "uint256",
          "name": "amount",
          "type": "uint256"
        },
        {
          "indexed": false,
          "internalType": "uint256",
          "name": "timestamp",
          "type": "uint256"
        }
      ],
      "name": "TokensMinted",
      "type": "event"
    },
    {
      "inputs": [],
      "name": "ADMIN_ROLE",
      "outputs": [
        {
          "internalType": "bytes32",
          "name": "",
          "type": "bytes32"
        }
      ],
      "stateMutability": "view",
      "type": "function"
    },
    {
      "inputs": [],
      "name": "CALLER_ROLE",
      "outputs": [
        {
          "internalType": "bytes32",
          "name": "",
          "type": "bytes32"
        }
      ],
      "stateMutability": "view",
      "type": "function"
    },
    {
      "inputs": [],
      "name": "DEFAULT_ADMIN_ROLE",
      "outputs": [
        {
          "internalType": "bytes32",
          "name": "",
          "type": "bytes32"
        }
      ],
      "stateMutability": "view",
      "type": "function"
    },
    {
      "inputs": [],
      "name": "MARKET_CREATOR_ROLE",
      "outputs": [
        {
          "internalType": "bytes32",
          "name": "",
          "type": "bytes32"
        }
      ],
      "stateMutability": "view",
      "type": "function"
    },
    {
      "inputs": [
        {
          "internalType": "address",
          "name": "",
          "type": "address"
        }
      ],
      "name": "accountTokenClaims",
      "outputs": [
        {
          "internalType": "address",
          "name": "account",
          "type": "address"
        },
        {
          "internalType": "uint256",
          "name": "user",
          "type": "uint256"
        },
        {
          "internalType": "uint256",
          "name": "claimedAmount",
          "type": "uint256"
        },
        {
          "internalType": "uint256",
          "name": "claimedTimestamp",
          "type": "uint256"
        }
      ],
      "stateMutability": "view",
      "type": "function"
    },
    {
      "inputs": [
        {
          "internalType": "address",
          "name": "account",
          "type": "address"
        }
      ],
      "name": "addAdmin",
      "outputs": [],
      "stateMutability": "nonpayable",
      "type": "function"
    },
    {
      "inputs": [
        {
          "internalType": "address",
          "name": "account",
          "type": "address"
        }
      ],
      "name": "addCaller",
      "outputs": [],
      "stateMutability": "nonpayable",
      "type": "function"
    },
    {
      "inputs": [
        {
          "internalType": "address",
          "name": "account",
          "type": "address"
        }
      ],
      "name": "addMarketCreator",
      "outputs": [],
      "stateMutability": "nonpayable",
      "type": "function"
    },
    {
      "inputs": [
        {
          "internalType": "address",
          "name": "account",
          "type": "address"
        },
        {
          "internalType": "uint256",
          "name": "user",
          "type": "uint256"
        },
        {
          "internalType": "uint256",
          "name": "amount",
          "type": "uint256"
        }
      ],
      "name": "claimToken",
      "outputs": [
        {
          "internalType": "bool",
          "name": "",
          "type": "bool"
        }
      ],
      "stateMutability": "nonpayable",
      "type": "function"
    },
    {
      "inputs": [
        {
          "internalType": "string",
          "name": "name",
          "type": "string"
        },
        {
          "internalType": "string",
          "name": "description",
          "type": "string"
        },
        {
          "internalType": "string",
          "name": "category",
          "type": "string"
        },
        {
          "internalType": "string[]",
          "name": "outcomes",
          "type": "string[]"
        },
        {
          "internalType": "uint256",
          "name": "startTimestamp",
          "type": "uint256"
        },
        {
          "internalType": "uint256",
          "name": "endTimestamp",
          "type": "uint256"
        },
        {
          "internalType": "address",
          "name": "creator",
          "type": "address"
        },
        {
          "internalType": "uint256",
          "name": "funding",
          "type": "uint256"
        },
        {
          "internalType": "uint256",
          "name": "overround",
          "type": "uint256"
        },
        {
          "internalType": "address",
          "name": "collateralToken",
          "type": "address"
        },
        {
          "internalType": "address",
          "name": "collateralFunder",
          "type": "address"
        },
        {
          "internalType": "address",
          "name": "marketOracle",
          "type": "address"
        }
      ],
      "name": "createCustomMarket",
      "outputs": [
        {
          "internalType": "uint256",
          "name": "newMarketId",
          "type": "uint256"
        }
      ],
      "stateMutability": "nonpayable",
      "type": "function"
    },
    {
      "inputs": [
        {
          "internalType": "string",
          "name": "name",
          "type": "string"
        },
        {
          "internalType": "string",
          "name": "description",
          "type": "string"
        },
        {
          "internalType": "string",
          "name": "category",
          "type": "string"
        },
        {
          "internalType": "string[]",
          "name": "outcomes",
          "type": "string[]"
        },
        {
          "internalType": "uint256",
          "name": "startTimestamp",
          "type": "uint256"
        },
        {
          "internalType": "uint256",
          "name": "endTimestamp",
          "type": "uint256"
        },
        {
          "internalType": "address",
          "name": "creator",
          "type": "address"
        },
        {
          "internalType": "uint256",
          "name": "funding",
          "type": "uint256"
        },
        {
          "internalType": "uint256",
          "name": "overround",
          "type": "uint256"
        }
      ],
      "name": "createMarket",
      "outputs": [
        {
          "internalType": "uint256",
          "name": "newMarketId",
          "type": "uint256"
        }
      ],
      "stateMutability": "nonpayable",
      "type": "function"
    },
    {
      "inputs": [],
      "name": "createdMarkets",
      "outputs": [
        {
          "internalType": "uint256",
          "name": "",
          "type": "uint256"
        }
      ],
      "stateMutability": "view",
      "type": "function"
    },
    {
      "inputs": [],
      "name": "currentSeason",
      "outputs": [
        {
          "internalType": "uint256",
          "name": "",
          "type": "uint256"
        }
      ],
      "stateMutability": "view",
      "type": "function"
    },
    {
      "inputs": [
        {
          "internalType": "bytes32",
          "name": "role",
          "type": "bytes32"
        }
      ],
      "name": "getRoleAdmin",
      "outputs": [
        {
          "internalType": "bytes32",
          "name": "",
          "type": "bytes32"
        }
      ],
      "stateMutability": "view",
      "type": "function"
    },
    {
      "inputs": [
        {
          "internalType": "bytes32",
          "name": "role",
          "type": "bytes32"
        },
        {
          "internalType": "uint256",
          "name": "index",
          "type": "uint256"
        }
      ],
      "name": "getRoleMember",
      "outputs": [
        {
          "internalType": "address",
          "name": "",
          "type": "address"
        }
      ],
      "stateMutability": "view",
      "type": "function"
    },
    {
      "inputs": [
        {
          "internalType": "bytes32",
          "name": "role",
          "type": "bytes32"
        }
      ],
      "name": "getRoleMemberCount",
      "outputs": [
        {
          "internalType": "uint256",
          "name": "",
          "type": "uint256"
        }
      ],
      "stateMutability": "view",
      "type": "function"
    },
    {
      "inputs": [
        {
          "internalType": "bytes32",
          "name": "role",
          "type": "bytes32"
        },
        {
          "internalType": "address",
          "name": "account",
          "type": "address"
        }
      ],
      "name": "grantRole",
      "outputs": [],
      "stateMutability": "nonpayable",
      "type": "function"
    },
    {
      "inputs": [
        {
          "internalType": "address",
          "name": "account",
          "type": "address"
        },
        {
          "internalType": "uint256",
          "name": "user",
          "type": "uint256"
        }
      ],
      "name": "hasClaimed",
      "outputs": [
        {
          "internalType": "bool",
          "name": "",
          "type": "bool"
        }
      ],
      "stateMutability": "view",
      "type": "function"
    },
    {
      "inputs": [
        {
          "internalType": "uint256",
          "name": "marketId",
          "type": "uint256"
        },
        {
          "internalType": "address",
          "name": "account",
          "type": "address"
        }
      ],
      "name": "hasRedeemedShares",
      "outputs": [
        {
          "internalType": "bool",
          "name": "",
          "type": "bool"
        }
      ],
      "stateMutability": "view",
      "type": "function"
    },
    {
      "inputs": [
        {
          "internalType": "bytes32",
          "name": "role",
          "type": "bytes32"
        },
        {
          "internalType": "address",
          "name": "account",
          "type": "address"
        }
      ],
      "name": "hasRole",
      "outputs": [
        {
          "internalType": "bool",
          "name": "",
          "type": "bool"
        }
      ],
      "stateMutability": "view",
      "type": "function"
    },
    {
      "inputs": [
        {
          "internalType": "uint256",
          "name": "marketId",
          "type": "uint256"
        }
      ],
      "name": "isClosedMarket",
      "outputs": [
        {
          "internalType": "bool",
          "name": "",
          "type": "bool"
        }
      ],
      "stateMutability": "view",
      "type": "function"
    },
    {
      "inputs": [
        {
          "internalType": "uint256",
          "name": "marketId",
          "type": "uint256"
        },
        {
          "internalType": "address",
          "name": "account",
          "type": "address"
        }
      ],
      "name": "marketAccountShares",
      "outputs": [
        {
          "internalType": "uint256",
          "name": "buys",
          "type": "uint256"
        },
        {
          "internalType": "uint256",
          "name": "sells",
          "type": "uint256"
        },
        {
          "internalType": "uint256",
          "name": "deposited",
          "type": "uint256"
        },
        {
          "internalType": "uint256",
          "name": "withdrew",
          "type": "uint256"
        },
        {
          "internalType": "uint256",
          "name": "redeemed",
          "type": "uint256"
        },
        {
          "internalType": "uint256[]",
          "name": "balances",
          "type": "uint256[]"
        }
      ],
      "stateMutability": "view",
      "type": "function"
    },
    {
      "inputs": [
        {
          "internalType": "uint256",
          "name": "marketId",
          "type": "uint256"
        },
        {
          "internalType": "uint256",
          "name": "outcome",
          "type": "uint256"
        },
        {
          "internalType": "int128",
          "name": "sharesAmount",
          "type": "int128"
        },
        {
          "internalType": "uint256",
          "name": "maxAmountIn",
          "type": "uint256"
        }
      ],
      "name": "marketBuy",
      "outputs": [
        {
          "internalType": "uint256",
          "name": "amountIn",
          "type": "uint256"
        }
      ],
      "stateMutability": "nonpayable",
      "type": "function"
    },
    {
      "inputs": [
        {
          "internalType": "uint256",
          "name": "marketId",
          "type": "uint256"
        },
        {
          "internalType": "uint256",
          "name": "outcome",
          "type": "uint256"
        },
        {
          "internalType": "int128",
          "name": "sharesAmount",
          "type": "int128"
        }
      ],
      "name": "marketBuyPrice",
      "outputs": [
        {
          "internalType": "int128",
          "name": "tokenCost",
          "type": "int128"
        }
      ],
      "stateMutability": "view",
      "type": "function"
    },
    {
      "inputs": [
        {
          "internalType": "uint256",
          "name": "marketId",
          "type": "uint256"
        }
      ],
      "name": "marketPrices",
      "outputs": [
        {
          "internalType": "uint256[]",
          "name": "buyPrices",
          "type": "uint256[]"
        },
        {
          "internalType": "uint256[]",
          "name": "sellPrices",
          "type": "uint256[]"
        }
      ],
      "stateMutability": "view",
      "type": "function"
    },
    {
      "inputs": [
        {
          "internalType": "uint256",
          "name": "marketId",
          "type": "uint256"
        }
      ],
      "name": "marketRedeemShares",
      "outputs": [
        {
          "internalType": "uint256",
          "name": "shares",
          "type": "uint256"
        }
      ],
      "stateMutability": "nonpayable",
      "type": "function"
    },
    {
      "inputs": [
        {
          "internalType": "uint256",
          "name": "marketId",
          "type": "uint256"
        }
      ],
      "name": "marketResultInfo",
      "outputs": [
        {
          "internalType": "uint256",
          "name": "result",
          "type": "uint256"
        },
        {
          "internalType": "uint256",
          "name": "closed",
          "type": "uint256"
        },
        {
          "internalType": "address",
          "name": "reporter",
          "type": "address"
        }
      ],
      "stateMutability": "view",
      "type": "function"
    },
    {
      "inputs": [
        {
          "internalType": "uint256",
          "name": "marketId",
          "type": "uint256"
        },
        {
          "internalType": "uint256",
          "name": "outcome",
          "type": "uint256"
        },
        {
          "internalType": "int128",
          "name": "sharesAmount",
          "type": "int128"
        },
        {
          "internalType": "uint256",
          "name": "minAmountOut",
          "type": "uint256"
        }
      ],
      "name": "marketSell",
      "outputs": [
        {
          "internalType": "uint256",
          "name": "amountOut",
          "type": "uint256"
        }
      ],
      "stateMutability": "nonpayable",
      "type": "function"
    },
    {
      "inputs": [
        {
          "internalType": "uint256",
          "name": "marketId",
          "type": "uint256"
        },
        {
          "internalType": "uint256",
          "name": "outcome",
          "type": "uint256"
        },
        {
          "internalType": "int128",
          "name": "sharesAmount",
          "type": "int128"
        }
      ],
      "name": "marketSellPrice",
      "outputs": [
        {
          "internalType": "int128",
          "name": "tokenReturn",
          "type": "int128"
        }
      ],
      "stateMutability": "view",
      "type": "function"
    },
    {
      "inputs": [
        {
          "internalType": "uint256",
          "name": "marketId",
          "type": "uint256"
        }
      ],
      "name": "marketSharesInfo",
      "outputs": [
        {
          "internalType": "int128",
          "name": "totalShares",
          "type": "int128"
        },
        {
          "internalType": "int128[]",
          "name": "sharesBalances",
          "type": "int128[]"
        },
        {
          "internalType": "int128",
          "name": "cost",
          "type": "int128"
        },
        {
          "internalType": "uint256",
          "name": "totalBuys",
          "type": "uint256"
        },
        {
          "internalType": "uint256",
          "name": "totalSells",
          "type": "uint256"
        }
      ],
      "stateMutability": "view",
      "type": "function"
    },
    {
      "inputs": [
        {
          "internalType": "uint256",
          "name": "marketId",
          "type": "uint256"
        },
        {
          "internalType": "address",
          "name": "newOwner",
          "type": "address"
        }
      ],
      "name": "marketTransferOwnership",
      "outputs": [],
      "stateMutability": "nonpayable",
      "type": "function"
    },
    {
      "inputs": [
        {
          "internalType": "uint256",
          "name": "marketId",
          "type": "uint256"
        },
        {
          "internalType": "address",
          "name": "marketToken",
          "type": "address"
        }
      ],
      "name": "marketWithdraw",
      "outputs": [],
      "stateMutability": "nonpayable",
      "type": "function"
    },
    {
      "inputs": [
        {
          "internalType": "uint256",
          "name": "",
          "type": "uint256"
        }
      ],
      "name": "markets",
      "outputs": [
        {
          "internalType": "string",
          "name": "name",
          "type": "string"
        },
        {
          "internalType": "string",
          "name": "description",
          "type": "string"
        },
        {
          "internalType": "string",
          "name": "category",
          "type": "string"
        },
        {
          "internalType": "string",
          "name": "outcomes",
          "type": "string"
        },
        {
          "internalType": "uint256",
          "name": "startTimestamp",
          "type": "uint256"
        },
        {
          "internalType": "uint256",
          "name": "endTimestamp",
          "type": "uint256"
        },
        {
          "internalType": "address",
          "name": "creator",
          "type": "address"
        },
        {
          "internalType": "address",
          "name": "market",
          "type": "address"
        }
      ],
      "stateMutability": "view",
      "type": "function"
    },
    {
      "inputs": [
        {
          "internalType": "uint256",
          "name": "",
          "type": "uint256"
        }
      ],
      "name": "miningSeasons",
      "outputs": [
        {
          "internalType": "uint256",
          "name": "startTimestamp",
          "type": "uint256"
        },
        {
          "internalType": "uint256",
          "name": "endTimestamp",
          "type": "uint256"
        },
        {
          "internalType": "uint256",
          "name": "maxUserClaim",
          "type": "uint256"
        },
        {
          "internalType": "uint256",
          "name": "maxTotalClaim",
          "type": "uint256"
        },
        {
          "internalType": "uint256",
          "name": "maxTotalMint",
          "type": "uint256"
        },
        {
          "internalType": "uint256",
          "name": "claimedAmount",
          "type": "uint256"
        },
        {
          "internalType": "uint256",
          "name": "mintedAmount",
          "type": "uint256"
        }
      ],
      "stateMutability": "view",
      "type": "function"
    },
    {
      "inputs": [
        {
          "internalType": "address",
          "name": "from",
          "type": "address"
        },
        {
          "internalType": "uint256",
          "name": "amount",
          "type": "uint256"
        }
      ],
      "name": "precogBurn",
      "outputs": [],
      "stateMutability": "nonpayable",
      "type": "function"
    },
    {
      "inputs": [
        {
          "internalType": "address",
          "name": "to",
          "type": "address"
        },
        {
          "internalType": "uint256",
          "name": "amount",
          "type": "uint256"
        }
      ],
      "name": "precogMint",
      "outputs": [],
      "stateMutability": "nonpayable",
      "type": "function"
    },
    {
      "inputs": [
        {
          "internalType": "address",
          "name": "newPrecogMaster",
          "type": "address"
        }
      ],
      "name": "precogTransferOwnership",
      "outputs": [],
      "stateMutability": "nonpayable",
      "type": "function"
    },
    {
      "inputs": [
        {
          "internalType": "address",
          "name": "account",
          "type": "address"
        }
      ],
      "name": "removeAdmin",
      "outputs": [],
      "stateMutability": "nonpayable",
      "type": "function"
    },
    {
      "inputs": [
        {
          "internalType": "address",
          "name": "account",
          "type": "address"
        }
      ],
      "name": "removeCaller",
      "outputs": [],
      "stateMutability": "nonpayable",
      "type": "function"
    },
    {
      "inputs": [
        {
          "internalType": "address",
          "name": "account",
          "type": "address"
        }
      ],
      "name": "removeMarketCreator",
      "outputs": [],
      "stateMutability": "nonpayable",
      "type": "function"
    },
    {
      "inputs": [
        {
          "internalType": "bytes32",
          "name": "role",
          "type": "bytes32"
        },
        {
          "internalType": "address",
          "name": "account",
          "type": "address"
        }
      ],
      "name": "renounceRole",
      "outputs": [],
      "stateMutability": "nonpayable",
      "type": "function"
    },
    {
      "inputs": [
        {
          "internalType": "bytes32",
          "name": "role",
          "type": "bytes32"
        },
        {
          "internalType": "address",
          "name": "account",
          "type": "address"
        }
      ],
      "name": "revokeRole",
      "outputs": [],
      "stateMutability": "nonpayable",
      "type": "function"
    },
    {
      "inputs": [
        {
          "internalType": "address",
          "name": "_market",
          "type": "address"
        }
      ],
      "name": "setBaseMarket",
      "outputs": [],
      "stateMutability": "nonpayable",
      "type": "function"
    },
    {
      "inputs": [
        {
          "internalType": "address",
          "name": "_oracle",
          "type": "address"
        }
      ],
      "name": "setBaseOracle",
      "outputs": [],
      "stateMutability": "nonpayable",
      "type": "function"
    },
    {
      "inputs": [
        {
          "internalType": "uint256",
          "name": "seasonIndex",
          "type": "uint256"
        },
        {
          "internalType": "uint256",
          "name": "startTimestamp",
          "type": "uint256"
        },
        {
          "internalType": "uint256",
          "name": "endTimestamp",
          "type": "uint256"
        },
        {
          "internalType": "uint256",
          "name": "maxUserClaim",
          "type": "uint256"
        },
        {
          "internalType": "uint256",
          "name": "maxTotalClaim",
          "type": "uint256"
        },
        {
          "internalType": "uint256",
          "name": "maxTotalMint",
          "type": "uint256"
        },
        {
          "internalType": "uint256",
          "name": "claimedAmount",
          "type": "uint256"
        },
        {
          "internalType": "uint256",
          "name": "mintedAmount",
          "type": "uint256"
        }
      ],
      "name": "setMiningSeason",
      "outputs": [],
      "stateMutability": "nonpayable",
      "type": "function"
    },
    {
      "inputs": [],
      "name": "token",
      "outputs": [
        {
          "internalType": "address",
          "name": "",
          "type": "address"
        }
      ],
      "stateMutability": "view",
      "type": "function"
    },
    {
      "inputs": [
        {
          "internalType": "uint256",
          "name": "seasonIndex",
          "type": "uint256"
        }
      ],
      "name": "updateCurrentSeason",
      "outputs": [],
      "stateMutability": "nonpayable",
      "type": "function"
    },
    {
      "inputs": [
        {
          "internalType": "uint256",
          "name": "id",
          "type": "uint256"
        },
        {
          "internalType": "string",
          "name": "name",
          "type": "string"
        },
        {
          "internalType": "string",
          "name": "description",
          "type": "string"
        },
        {
          "internalType": "string",
          "name": "category",
          "type": "string"
        },
        {
          "internalType": "string[]",
          "name": "outcomes",
          "type": "string[]"
        },
        {
          "internalType": "uint256",
          "name": "startTimestamp",
          "type": "uint256"
        },
        {
          "internalType": "uint256",
          "name": "endTimestamp",
          "type": "uint256"
        },
        {
          "internalType": "address",
          "name": "marketCreator",
          "type": "address"
        },
        {
          "internalType": "address",
          "name": "marketOracle",
          "type": "address"
        }
      ],
      "name": "updateMarket",
      "outputs": [],
      "stateMutability": "nonpayable",
      "type": "function"
    },
    {
      "inputs": [
        {
          "internalType": "address",
          "name": "account",
          "type": "address"
        },
        {
          "internalType": "uint256",
          "name": "amount",
          "type": "uint256"
        },
        {
          "internalType": "uint256",
          "name": "timestamp",
          "type": "uint256"
        }
      ],
      "name": "updateTokenClaim",
      "outputs": [],
      "stateMutability": "nonpayable",
      "type": "function"
    },
    {
      "inputs": [
        {
          "internalType": "uint256",
          "name": "",
          "type": "uint256"
        }
      ],
      "name": "userTokenClaims",
      "outputs": [
        {
          "internalType": "address",
          "name": "account",
          "type": "address"
        },
        {
          "internalType": "uint256",
          "name": "user",
          "type": "uint256"
        },
        {
          "internalType": "uint256",
          "name": "claimedAmount",
          "type": "uint256"
        },
        {
          "internalType": "uint256",
          "name": "claimedTimestamp",
          "type": "uint256"
        }
      ],
      "stateMutability": "view",
      "type": "function"
    },
    {
      "inputs": [
        {
          "internalType": "address",
          "name": "_token",
          "type": "address"
        }
      ],
      "name": "withdraw",
      "outputs": [],
      "stateMutability": "nonpayable",
      "type": "function"
    }
  ],
  "transactionHash": "0x7c03101076f3033d7bf68fe1ed480e4ce13e1ad70be5a7ab832de70aa2f8d20b",
  "args": [
    "0x369003E80753191330CaD59dD61b4C518730B402",
    "0x9475A4C1BF5Fc80aE079303f14B523da19619c16"
  ],
  "numDeployments": 1,
  "solcInputHash": "d510ea54f6b6d23058c352788725cf7e",
  "bytecode": "0x60806040523480156200001157600080fd5b50604051620048273803806200482783398101604081905262000034916200023d565b62000041600082620000ba565b6200007c7f843c3a00fa95510a35f425371231fd3fe4642e719cb4595160763d6d02594b5060008051602062004807833981519152620000ca565b600180546001600160a01b0319166001600160a01b038416179055620000b26000805160206200480783398151915282620000ba565b505062000274565b620000c682826200011c565b5050565b600082815260208190526040808220600201549051839285917fbd79b86ffe0ab8e8776151514217cd7cacd52c909f66475c3af44e129f0b00ff9190a460009182526020829052604090912060020155565b60008281526020818152604090912062000141918390620028d062000195821b17901c565b15620000c65762000151620001b5565b6001600160a01b0316816001600160a01b0316837f2f8788117e7eff1d82e926ec794901d17c78024a50270940304540a733656f0d60405160405180910390a45050565b6000620001ac836001600160a01b038416620001b9565b90505b92915050565b3390565b6000620001c7838362000208565b620001ff57508154600181810184556000848152602080822090930184905584548482528286019093526040902091909155620001af565b506000620001af565b60009081526001919091016020526040902054151590565b80516001600160a01b03811681146200023857600080fd5b919050565b6000806040838503121562000250578182fd5b6200025b8362000220565b91506200026b6020840162000220565b90509250929050565b61458380620002846000396000f3fe608060405234801561001057600080fd5b50600436106103415760003560e01c8063774237fc116101bd578063ba2e3684116100f9578063d547741f116100a2578063eef21cd21161007c578063eef21cd214610737578063f2fd59431461074a578063f944a5ff1461075d578063fc0c546a1461077057610341565b8063d547741f146106fe578063d6fb7d7914610711578063de02852a1461072457610341565b8063bcb39621116100d3578063bcb39621146106d0578063ca15c873146106d8578063d33bfe4f146106eb57610341565b8063ba2e36841461068a578063bb31675a1461069d578063bc05b806146106b057610341565b8063a217fddf11610166578063b1283e7711610140578063b1283e7714610622578063b293109614610649578063b590b56f1461065c578063b608b8f41461066457610341565b8063a217fddf146105ee578063a9683f6e146105f6578063ae42820c1461061a57610341565b80639971537c116101975780639971537c146105b55780639c6c412e146105c8578063a15fd10f146105db57610341565b8063774237fc1461057a5780639010d07c1461058257806391d14854146105a257610341565b806330829a201161028c57806351cff8d911610235578063704802751161020f578063704802751461053957806370f4a7ae1461054c578063747293fb1461055f57806375b238fc1461057257610341565b806351cff8d91461050057806352438beb146105135780636354eeb31461052657610341565b806336568abe1161026657806336568abe146104b55780633dc2724a146104c85780634836e867146104db57610341565b806330829a201461046d5780633204fff714610480578063355987cd146104a257610341565b806314aebade116102ee57806325ceaea6116102c857806325ceaea6146104275780632f2ff15d146104475780632fb1541b1461045a57610341565b806314aebade146103e05780631785f53c14610401578063248a9ca31461041457610341565b8063127e9cbd1161031f578063127e9cbd14610397578063129c7ce4146103ba57806314ae3ffc146103cd57610341565b8063020917fe146103465780630c87235e1461035b57806312357c7014610384575b600080fd5b610359610354366004613673565b610778565b005b61036e610369366004613915565b61081a565b60405161037b9190613eaf565b60405180910390f35b61036e6103923660046139f5565b610971565b6103aa6103a5366004613673565b610a7c565b60405161037b9493929190613e50565b61036e6103c8366004613c58565b610aad565b6103596103db3660046136ab565b610be8565b6103f36103ee3660046137be565b610c9d565b60405161037b929190613e76565b61035961040f366004613673565b610d4e565b61036e6104223660046137be565b610d9d565b61043a6104353660046137be565b610db5565b60405161037b9190613ea4565b6103596104553660046137d6565b610e60565b610359610468366004613cd5565b610ec7565b61035961047b3660046137d6565b610f6c565b61049361048e3660046137be565b610ff9565b60405161037b93929190614335565b6103596104b0366004613673565b611191565b6103596104c33660046137d6565b6111ef565b6103aa6104d63660046137be565b611250565b6104ee6104e93660046137d6565b611281565b60405161037b96959493929190614354565b61035961050e366004613673565b6113ce565b610359610521366004613b39565b6114d3565b6103596105343660046136d6565b611769565b610359610547366004613673565b6117e3565b61035961055a366004613673565b61182f565b61035961056d366004613673565b611885565b61036e6118e3565b61036e6118f5565b610595610590366004613805565b611919565b60405161037b9190613dff565b61043a6105b03660046137d6565b61193a565b61043a6105c33660046137d6565b611952565b61043a6105d63660046136d6565b6119ef565b6103596105e9366004613673565b611d04565b61036e611d62565b6106096106043660046137be565b611d67565b60405161037b959493929190613ec6565b61036e611e2c565b6106356106303660046137be565b611e50565b60405161037b989796959493929190613f2e565b61043a6106573660046136ab565b6120d7565b61036e612115565b6106776106723660046137be565b61211b565b60405161037b9796959493929190614391565b6103596106983660046137d6565b612158565b6103596106ab366004613673565b6121cc565b6106c36106be366004613c20565b612222565b60405161037b9190613eb8565b61036e6122cc565b61036e6106e63660046137be565b6122d2565b61036e6106f9366004613c58565b6122e9565b61035961070c3660046137d6565b61258e565b61035961071f3660046137be565b6125e7565b6103596107323660046136ab565b612620565b610359610745366004613673565b61275f565b61036e6107583660046137be565b6127bd565b6106c361076b366004613c20565b612867565b6105956128c1565b6107906000805160206144d58339815191523361193a565b6107b55760405162461bcd60e51b81526004016107ac9061420c565b60405180910390fd5b60015460405163f2fde38b60e01b81526001600160a01b039091169063f2fde38b906107e5908490600401613dff565b600060405180830381600087803b1580156107ff57600080fd5b505af1158015610813573d6000803e3d6000fd5b5050505050565b60006108467f843c3a00fa95510a35f425371231fd3fe4642e719cb4595160763d6d02594b503361193a565b6108625760405162461bcd60e51b81526004016107ac906140f9565b6001546040516340c10f1960e01b81526001600160a01b03909116906340c10f19906108949030908790600401613e37565b600060405180830381600087803b1580156108ae57600080fd5b505af11580156108c2573d6000803e3d6000fd5b5050505060006040518061010001604052808c81526020018b81526020018a81526020016108ef8a6128e5565b815260208082018a905260408083018a90526001600160a01b03808a166060808601919091526000608095860152825160c0810184528e5181529384018a9052918301889052600154811691830191909152309282019290925260025490911660a08201529091506109618282612969565b9c9b505050505050505050505050565b600061099d7fd3065a24ad9e7725d223007135762d2902038999e3e5829146654498a58d97953361193a565b6109b95760405162461bcd60e51b81526004016107ac906140c2565b60006040518061010001604052808f81526020018e81526020018d81526020016109e28d6128e5565b81526020018b81526020018a8152602001896001600160a01b0316815260200160006001600160a01b0316815250905060006040518060c001604052808d518152602001898152602001888152602001876001600160a01b03168152602001866001600160a01b03168152602001856001600160a01b03168152509050610a698282612969565b9f9e505050505050505050505050505050565b60066020526000908152604090208054600182015460028301546003909301546001600160a01b0390921692909184565b600084815260096020526040812060040154421015610ade5760405162461bcd60e51b81526004016107ac9061408b565b600085815260096020526040902060050154421115610b0f5760405162461bcd60e51b81526004016107ac90613fe6565b600085815260096020526040908190206007015490517f898b51a70000000000000000000000000000000000000000000000000000000081526001600160a01b039091169063898b51a790610b6c90879087903390600401614305565b602060405180830381600087803b158015610b8657600080fd5b505af1158015610b9a573d6000803e3d6000fd5b505050506040513d601f19601f82011682018060405250810190610bbe9190613b21565b905081811015610be05760405162461bcd60e51b81526004016107ac9061401d565b949350505050565b610c006000805160206144d58339815191523361193a565b610c1c5760405162461bcd60e51b81526004016107ac9061420c565b6001546040517f9dc29fac0000000000000000000000000000000000000000000000000000000081526001600160a01b0390911690639dc29fac90610c679085908590600401613e37565b600060405180830381600087803b158015610c8157600080fd5b505af1158015610c95573d6000803e3d6000fd5b505050505050565b6000818152600960205260408082206007015481517fbd9a548b000000000000000000000000000000000000000000000000000000008152915160609384936001600160a01b039093169263bd9a548b9260048083019392829003018186803b158015610d0957600080fd5b505afa158015610d1d573d6000803e3d6000fd5b505050506040513d6000823e601f3d908101601f19168201604052610d45919081019061373d565b91509150915091565b610d666000805160206144d58339815191523361193a565b610d825760405162461bcd60e51b81526004016107ac9061420c565b610d9a6000805160206144d58339815191528261258e565b50565b6000818152602081905260409020600201545b919050565b60008181526009602090815260408083206007015481517f052d7c00000000000000000000000000000000000000000000000000000000008152915142936001600160a01b039092169263052d7c00926004808301939192829003018186803b158015610e2157600080fd5b505afa158015610e35573d6000803e3d6000fd5b505050506040513d601f19601f82011682018060405250810190610e599190613b21565b1192915050565b600082815260208190526040902060020154610e7e906105b0612cea565b610eb95760405162461bcd60e51b815260040180806020018281038252602f815260200180614476602f913960400191505060405180910390fd5b610ec38282612cee565b5050565b610edf6000805160206144d58339815191523361193a565b610efb5760405162461bcd60e51b81526004016107ac9061420c565b6040805160e0810182529788526020808901978852888201968752606089019586526080890194855260a0890193845260c089019283526000998a52600890529097209551865593516001860155915160028501555160038401555160048301555160058201559051600690910155565b610f846000805160206144d58339815191523361193a565b610fa05760405162461bcd60e51b81526004016107ac9061420c565b600082815260096020526040908190206007015490517f51cff8d90000000000000000000000000000000000000000000000000000000081526001600160a01b03909116906351cff8d990610c67908490600401613dff565b60008181526009602090815260408083206007015481517f653721470000000000000000000000000000000000000000000000000000000081529151849384936001600160a01b03909316928392636537214792600480840193919291829003018186803b15801561106a57600080fd5b505afa15801561107e573d6000803e3d6000fd5b505050506040513d601f19601f820116820180604052508101906110a29190613b21565b9350806001600160a01b031663052d7c006040518163ffffffff1660e01b815260040160206040518083038186803b1580156110dd57600080fd5b505afa1580156110f1573d6000803e3d6000fd5b505050506040513d601f19601f820116820180604052508101906111159190613b21565b9250806001600160a01b0316637dc0d1d06040518163ffffffff1660e01b815260040160206040518083038186803b15801561115057600080fd5b505afa158015611164573d6000803e3d6000fd5b505050506040513d601f19601f82011682018060405250810190611188919061368f565b93959294505050565b6111a96000805160206144d58339815191523361193a565b6111c55760405162461bcd60e51b81526004016107ac9061420c565b610d9a7fd3065a24ad9e7725d223007135762d2902038999e3e5829146654498a58d979582610e60565b6111f7612cea565b6001600160a01b0316816001600160a01b0316146112465760405162461bcd60e51b815260040180806020018281038252602f81526020018061451f602f913960400191505060405180910390fd5b610ec38282612d57565b60076020526000908152604090208054600182015460028301546003909301546001600160a01b0390921692909184565b6000828152600960205260408082206007015490516352c8b2f960e01b815282918291829182916060916001600160a01b03169081906352c8b2f9906112cb908b90600401613dff565b60a06040518083038186803b1580156112e357600080fd5b505afa1580156112f7573d6000803e3d6000fd5b505050506040513d601f19601f8201168201806040525081019061131b9190613c96565b6040517f05b4b371000000000000000000000000000000000000000000000000000000008152949b50929950909750955093506001600160a01b038216906305b4b3719061136d908b90600401613dff565b60006040518083038186803b15801561138557600080fd5b505afa158015611399573d6000803e3d6000fd5b505050506040513d6000823e601f3d908101601f191682016040526113c1919081019061370a565b9150509295509295509295565b6113e66000805160206144d58339815191523361193a565b6114025760405162461bcd60e51b81526004016107ac9061420c565b6001600160a01b0381166114425760405133904780156108fc02916000818181858888f1935050505015801561143c573d6000803e3d6000fd5b50610d9a565b610d9a33826001600160a01b03166370a08231306040518263ffffffff1660e01b81526004016114729190613dff565b60206040518083038186803b15801561148a57600080fd5b505afa15801561149e573d6000803e3d6000fd5b505050506040513d601f19601f820116820180604052508101906114c29190613b21565b6001600160a01b0384169190612dc0565b6114eb6000805160206144d58339815191523361193a565b6115075760405162461bcd60e51b81526004016107ac9061420c565b87511561152f576000898152600960209081526040909120895161152d928b0190613496565b505b86511561155d576000898152600960209081526040909120885161155b926001909201918a0190613496565b505b85511561158b576000898152600960209081526040909120875161158992600290920191890190613496565b505b8451156115c65761159b856128e5565b600960008b815260200190815260200160002060030190805190602001906115c4929190613496565b505b6001600160a01b0382161561160057600089815260096020526040902060060180546001600160a01b0319166001600160a01b0384161790555b6001600160a01b0381161561169b57600089815260096020526040908190206007015490517f1cb44dfc0000000000000000000000000000000000000000000000000000000081526001600160a01b0390911690631cb44dfc90611668908490600401613dff565b600060405180830381600087803b15801561168257600080fd5b505af1158015611696573d6000803e3d6000fd5b505050505b600084156116bb5750600089815260096020526040902060040184905560015b83156116d95750600089815260096020526040902060050183905560015b801561175d5760008a81526009602052604090819020600781015460048083015460059093015493516339acb21f60e21b81526001600160a01b039092169363e6b2c87c9361172a93909201614327565b600060405180830381600087803b15801561174457600080fd5b505af1158015611758573d6000803e3d6000fd5b505050505b50505050505050505050565b6117816000805160206144d58339815191523361193a565b61179d5760405162461bcd60e51b81526004016107ac9061420c565b6001600160a01b03909216600090815260066020908152604080832060028082018690556003808301889055600190920154855260079093529220908101929092550155565b6117fb6000805160206144d58339815191523361193a565b6118175760405162461bcd60e51b81526004016107ac9061420c565b610d9a6000805160206144d583398151915282610e60565b6118476000805160206144d58339815191523361193a565b6118635760405162461bcd60e51b81526004016107ac9061420c565b600380546001600160a01b0319166001600160a01b0392909216919091179055565b61189d6000805160206144d58339815191523361193a565b6118b95760405162461bcd60e51b81526004016107ac9061420c565b610d9a7f843c3a00fa95510a35f425371231fd3fe4642e719cb4595160763d6d02594b5082610e60565b6000805160206144d583398151915281565b7f843c3a00fa95510a35f425371231fd3fe4642e719cb4595160763d6d02594b5081565b60008281526020819052604081206119319083612e45565b90505b92915050565b60008281526020819052604081206119319083612e51565b6000828152600960205260408082206007015490516352c8b2f960e01b815282916001600160a01b0316906352c8b2f990611991908690600401613dff565b60a06040518083038186803b1580156119a957600080fd5b505afa1580156119bd573d6000803e3d6000fd5b505050506040513d601f19601f820116820180604052508101906119e19190613c96565b151598975050505050505050565b6000611a1b7f843c3a00fa95510a35f425371231fd3fe4642e719cb4595160763d6d02594b503361193a565b611a375760405162461bcd60e51b81526004016107ac906140f9565b6001600160a01b03841660009081526006602052604090206003015415611a705760405162461bcd60e51b81526004016107ac90614130565b60008381526007602052604090206003015415611a9f5760405162461bcd60e51b81526004016107ac90613faf565b6005546000908152600860205260409020805415611b85578054421015611ad85760405162461bcd60e51b81526004016107ac906141d5565b80600101544210611afb5760405162461bcd60e51b81526004016107ac9061427a565b8060020154831115611b1f5760405162461bcd60e51b81526004016107ac90614054565b60038101546005820154611b34908590612e66565b1115611b525760405162461bcd60e51b81526004016107ac90614243565b60048101546006820154611b67908590612e66565b1115611b855760405162461bcd60e51b81526004016107ac90614167565b604080516080810182526001600160a01b0380881680835260208084018981528486018981524260608701908152600094855260068452878520875181549088166001600160a01b03199182161782558451600180840191909155845160028085019190915584516003948501558f89526007909752999096208851815498169790961696909617855591519684019690965594519082015592519201919091556005820154611c359085612e66565b60058301556006820154611c499085612e66565b60068301556001546040516340c10f1960e01b81526001600160a01b03909116906340c10f1990611c809089908890600401613e37565b600060405180830381600087803b158015611c9a57600080fd5b505af1158015611cae573d6000803e3d6000fd5b5050505084866001600160a01b03167fe49649ad7d04a14b0d2a43dae89f207c0822143ff6f88a6480e88907e4e5c5488642604051611cee929190614327565b60405180910390a36001925050505b9392505050565b611d1c6000805160206144d58339815191523361193a565b611d385760405162461bcd60e51b81526004016107ac9061420c565b610d9a7fd3065a24ad9e7725d223007135762d2902038999e3e5829146654498a58d97958261258e565b600081565b6000818152600960205260408082206007015481517f23341a0500000000000000000000000000000000000000000000000000000000815291516060928492839283926001600160a01b039092169182916323341a05916004808201928792909190829003018186803b158015611ddd57600080fd5b505afa158015611df1573d6000803e3d6000fd5b505050506040513d6000823e601f3d908101601f19168201604052611e199190810190613842565b939b929a50909850965090945092505050565b7fd3065a24ad9e7725d223007135762d2902038999e3e5829146654498a58d979581565b60096020908152600091825260409182902080548351601f60026000196101006001861615020190931692909204918201849004840281018401909452808452909291839190830182828015611ee75780601f10611ebc57610100808354040283529160200191611ee7565b820191906000526020600020905b815481529060010190602001808311611eca57829003601f168201915b505050505090806001018054600181600116156101000203166002900480601f016020809104026020016040519081016040528092919081815260200182805460018160011615610100020316600290048015611f855780601f10611f5a57610100808354040283529160200191611f85565b820191906000526020600020905b815481529060010190602001808311611f6857829003601f168201915b50505060028085018054604080516020601f60001961010060018716150201909416959095049283018590048502810185019091528181529596959450909250908301828280156120175780601f10611fec57610100808354040283529160200191612017565b820191906000526020600020905b815481529060010190602001808311611ffa57829003601f168201915b5050505060038301805460408051602060026001851615610100026000190190941693909304601f81018490048402820184019092528181529495949350908301828280156120a75780601f1061207c576101008083540402835291602001916120a7565b820191906000526020600020905b81548152906001019060200180831161208a57829003601f168201915b505050600484015460058501546006860154600790960154949591949093506001600160a01b0391821692501688565b6001600160a01b0382166000908152600660205260408120600301541515806119315750506000908152600760205260409020600301541515919050565b60045481565b6008602052600090815260409020805460018201546002830154600384015460048501546005860154600690960154949593949293919290919087565b6121706000805160206144d58339815191523361193a565b61218c5760405162461bcd60e51b81526004016107ac9061420c565b6000828152600960205260409081902060070154905163f2fde38b60e01b81526001600160a01b039091169063f2fde38b90610c67908490600401613dff565b6121e46000805160206144d58339815191523361193a565b6122005760405162461bcd60e51b81526004016107ac9061420c565b600280546001600160a01b0319166001600160a01b0392909216919091179055565b6000838152600960205260408082206007015490517f535f02ee0000000000000000000000000000000000000000000000000000000081526001600160a01b039091169063535f02ee9061227c90869086906004016142f4565b60206040518083038186803b15801561229457600080fd5b505afa1580156122a8573d6000803e3d6000fd5b505050506040513d601f19601f82011682018060405250810190610be09190613826565b60055481565b600081815260208190526040812061193490612ec0565b60008481526009602052604081206004015442101561231a5760405162461bcd60e51b81526004016107ac9061408b565b60008581526009602052604090206005015442111561234b5760405162461bcd60e51b81526004016107ac90613fe6565b60008581526009602090815260408083206007015481517ffc0c546a00000000000000000000000000000000000000000000000000000000815291516001600160a01b039091169263fc0c546a9260048082019391829003018186803b1580156123b457600080fd5b505afa1580156123c8573d6000803e3d6000fd5b505050506040513d601f19601f820116820180604052508101906123ec919061368f565b6001549091506001600160a01b0380831691161415612489576001546040517fbb35783b0000000000000000000000000000000000000000000000000000000081526001600160a01b039091169063bb35783b9061245290339030908890600401613e13565b600060405180830381600087803b15801561246c57600080fd5b505af1158015612480573d6000803e3d6000fd5b5050505061249e565b61249e6001600160a01b038216333086612ecb565b600086815260096020526040908190206007015490517fcae326060000000000000000000000000000000000000000000000000000000081526001600160a01b039091169063cae32606906124fb90889088903390600401614305565b602060405180830381600087803b15801561251557600080fd5b505af1158015612529573d6000803e3d6000fd5b505050506040513d601f19601f8201168201806040525081019061254d9190613b21565b91508282111561256f5760405162461bcd60e51b81526004016107ac9061419e565b8282101561258557612585336114c28585612f59565b50949350505050565b6000828152602081905260409020600201546125ac906105b0612cea565b6112465760405162461bcd60e51b81526004018080602001828103825260308152602001806144a56030913960400191505060405180910390fd5b6125ff6000805160206144d58339815191523361193a565b61261b5760405162461bcd60e51b81526004016107ac9061420c565b600555565b6126386000805160206144d58339815191523361193a565b6126545760405162461bcd60e51b81526004016107ac9061420c565b600554600090815260086020526040902080541561269f5760048101546006820154612681908490612e66565b111561269f5760405162461bcd60e51b81526004016107ac90614167565b60068101546126ae9083612e66565b60068201556001546040516340c10f1960e01b81526001600160a01b03909116906340c10f19906126e59086908690600401613e37565b600060405180830381600087803b1580156126ff57600080fd5b505af1158015612713573d6000803e3d6000fd5b50505050826001600160a01b03167f2e8ac5177a616f2aec08c3048f5021e4e9743ece034e8d83ba5caf76688bb4758342604051612752929190614327565b60405180910390a2505050565b6127776000805160206144d58339815191523361193a565b6127935760405162461bcd60e51b81526004016107ac9061420c565b610d9a7f843c3a00fa95510a35f425371231fd3fe4642e719cb4595160763d6d02594b508261258e565b6000818152600960205260408082206007015490517f3f7361eb0000000000000000000000000000000000000000000000000000000081526001600160a01b0390911690633f7361eb90612815903390600401613dff565b602060405180830381600087803b15801561282f57600080fd5b505af1158015612843573d6000803e3d6000fd5b505050506040513d601f19601f820116820180604052508101906119349190613b21565b6000838152600960205260408082206007015490517f3dcb8b810000000000000000000000000000000000000000000000000000000081526001600160a01b0390911690633dcb8b819061227c90869086906004016142f4565b6001546001600160a01b031681565b6000611931836001600160a01b038416612fb6565b60608060005b8351811015612962578184828151811061290157fe5b602002602001015160405160200161291a929190613d8f565b6040516020818303038152906040529150600184510381101561295a57816040516020016129489190613dbe565b60405160208183030381529060405291505b6001016128eb565b5092915050565b6003546000908190612983906001600160a01b0316613000565b60608401516040517fc4d66de800000000000000000000000000000000000000000000000000000000815291925082916001600160a01b0383169163c4d66de8916129d19190600401613dff565b600060405180830381600087803b1580156129eb57600080fd5b505af11580156129ff573d6000803e3d6000fd5b50505060808501516001600160a01b031630149050612a4457612a44846080015130866020015187606001516001600160a01b0316612ecb909392919063ffffffff16565b83606001516001600160a01b031663095ea7b3836000196040518363ffffffff1660e01b8152600401612a78929190613e37565b602060405180830381600087803b158015612a9257600080fd5b505af1158015612aa6573d6000803e3d6000fd5b505050506040513d601f19601f82011682018060405250810190612aca919061379e565b506004549250806001600160a01b0316635467a751848660a001518760000151886020015189604001516040518663ffffffff1660e01b8152600401612b149594939291906142c8565b600060405180830381600087803b158015612b2e57600080fd5b505af1158015612b42573d6000803e3d6000fd5b50505050608085015160a08601516040516339acb21f60e21b81526001600160a01b0384169263e6b2c87c92612b7a92600401614327565b600060405180830381600087803b158015612b9457600080fd5b505af1158015612ba8573d6000803e3d6000fd5b5050506001600160a01b03831660e0870152506000838152600960209081526040909120865180518893612be0928492910190613496565b506020828101518051612bf99260018501920190613496565b5060408201518051612c15916002840191602090910190613496565b5060608201518051612c31916003840191602090910190613496565b50608082015160048281019190915560a0830151600583015560c08301516006830180546001600160a01b03199081166001600160a01b039384161790915560e0909401516007909301805490941692169190911790915554612c95906001612e66565b6004819055508460c001516001600160a01b03167f8263f983d31825e2fcfa4ff69822ca37ec7846c9c6a84da9b59ae29d8e43ddab8484604051612cda9291906142b1565b60405180910390a2505092915050565b3390565b6000828152602081905260409020612d0690826128d0565b15610ec357612d13612cea565b6001600160a01b0316816001600160a01b0316837f2f8788117e7eff1d82e926ec794901d17c78024a50270940304540a733656f0d60405160405180910390a45050565b6000828152602081905260409020612d6f90826130bb565b15610ec357612d7c612cea565b6001600160a01b0316816001600160a01b0316837ff6391f5c32d9c69d2a47ea670b442974b53935d1edc7fd64eb21e047a839171b60405160405180910390a45050565b604080516001600160a01b038416602482015260448082018490528251808303909101815260649091019091526020810180517bffffffffffffffffffffffffffffffffffffffffffffffffffffffff167fa9059cbb00000000000000000000000000000000000000000000000000000000179052612e409084906130d0565b505050565b60006119318383613181565b6000611931836001600160a01b0384166131e5565b600082820183811015611931576040805162461bcd60e51b815260206004820152601b60248201527f536166654d6174683a206164646974696f6e206f766572666c6f770000000000604482015290519081900360640190fd5b6000611934826131fd565b604080516001600160a01b0380861660248301528416604482015260648082018490528251808303909101815260849091019091526020810180517bffffffffffffffffffffffffffffffffffffffffffffffffffffffff167f23b872dd00000000000000000000000000000000000000000000000000000000179052612f539085906130d0565b50505050565b600082821115612fb0576040805162461bcd60e51b815260206004820152601e60248201527f536166654d6174683a207375627472616374696f6e206f766572666c6f770000604482015290519081900360640190fd5b50900390565b6000612fc283836131e5565b612ff857508154600181810184556000848152602080822090930184905584548482528286019093526040902091909155611934565b506000611934565b60006040517f3d602d80600a3d3981f3363d3d373d3d3d363d7300000000000000000000000081528260601b60148201527f5af43d82803e903d91602b57fd5bf3000000000000000000000000000000000060288201526037816000f09150506001600160a01b038116610db0576040805162461bcd60e51b815260206004820152601660248201527f455243313136373a20637265617465206661696c656400000000000000000000604482015290519081900360640190fd5b6000611931836001600160a01b038416613201565b6000613125826040518060400160405280602081526020017f5361666545524332303a206c6f772d6c6576656c2063616c6c206661696c6564815250856001600160a01b03166132c79092919063ffffffff16565b805190915015612e405780806020019051602081101561314457600080fd5b5051612e405760405162461bcd60e51b815260040180806020018281038252602a8152602001806144f5602a913960400191505060405180910390fd5b815460009082106131c35760405162461bcd60e51b81526004018080602001828103825260228152602001806144546022913960400191505060405180910390fd5b8260000182815481106131d257fe5b9060005260206000200154905092915050565b60009081526001919091016020526040902054151590565b5490565b600081815260018301602052604081205480156132bd578354600019808301919081019060009087908390811061323457fe5b906000526020600020015490508087600001848154811061325157fe5b60009182526020808320909101929092558281526001898101909252604090209084019055865487908061328157fe5b60019003818190600052602060002001600090559055866001016000878152602001908152602001600020600090556001945050505050611934565b6000915050611934565b6060610be08484600085856132db856133ec565b61332c576040805162461bcd60e51b815260206004820152601d60248201527f416464726573733a2063616c6c20746f206e6f6e2d636f6e7472616374000000604482015290519081900360640190fd5b600080866001600160a01b031685876040518082805190602001908083835b6020831061336a5780518252601f19909201916020918201910161334b565b6001836020036101000a03801982511681845116808217855250505050505090500191505060006040518083038185875af1925050503d80600081146133cc576040519150601f19603f3d011682016040523d82523d6000602084013e6133d1565b606091505b50915091506133e18282866133f2565b979650505050505050565b3b151590565b60608315613401575081611cfd565b8251156134115782518084602001fd5b8160405162461bcd60e51b81526004018080602001828103825283818151815260200191508051906020019080838360005b8381101561345b578181015183820152602001613443565b50505050905090810190601f1680156134885780820380516001836020036101000a031916815260200191505b509250505060405180910390fd5b828054600181600116156101000203166002900490600052602060002090601f0160209004810192826134cc5760008555613512565b82601f106134e557805160ff1916838001178555613512565b82800160010185558215613512579182015b828111156135125782518255916020019190600101906134f7565b5061351e929150613522565b5090565b5b8082111561351e5760008155600101613523565b8035610db08161442f565b600082601f830112613552578081fd5b81356020613567613562836143e5565b6143c1565b82815281810190858301855b8581101561359c5761358a898684358b010161360e565b84529284019290840190600101613573565b5090979650505050505050565b600082601f8301126135b9578081fd5b815160206135c9613562836143e5565b82815281810190858301838502870184018810156135e5578586fd5b855b8581101561359c578151845292840192908401906001016135e7565b8051610db081614444565b600082601f83011261361e578081fd5b813567ffffffffffffffff81111561363257fe5b613645601f8201601f19166020016143c1565b818152846020838601011115613659578283fd5b816020850160208301379081016020019190915292915050565b600060208284031215613684578081fd5b81356119318161442f565b6000602082840312156136a0578081fd5b81516119318161442f565b600080604083850312156136bd578081fd5b82356136c88161442f565b946020939093013593505050565b6000806000606084860312156136ea578081fd5b83356136f58161442f565b95602085013595506040909401359392505050565b60006020828403121561371b578081fd5b815167ffffffffffffffff811115613731578182fd5b610be0848285016135a9565b6000806040838503121561374f578182fd5b825167ffffffffffffffff80821115613766578384fd5b613772868387016135a9565b93506020850151915080821115613787578283fd5b50613794858286016135a9565b9150509250929050565b6000602082840312156137af578081fd5b81518015158114611931578182fd5b6000602082840312156137cf578081fd5b5035919050565b600080604083850312156137e8578182fd5b8235915060208301356137fa8161442f565b809150509250929050565b60008060408385031215613817578182fd5b50508035926020909101359150565b600060208284031215613837578081fd5b815161193181614444565b600080600080600060a08688031215613859578283fd5b855161386481614444565b8095505060208087015167ffffffffffffffff811115613882578485fd5b8701601f81018913613892578485fd5b80516138a0613562826143e5565b81815283810190838501858402850186018d10156138bc578889fd5b8894505b838510156138e75780516138d381614444565b8352600194909401939185019185016138c0565b5080985050505050506138fc60408701613603565b6060870151608090970151959894975095949392505050565b60008060008060008060008060006101208a8c031215613933578687fd5b893567ffffffffffffffff8082111561394a578889fd5b6139568d838e0161360e565b9a5060208c013591508082111561396b578889fd5b6139778d838e0161360e565b995060408c013591508082111561398c578889fd5b6139988d838e0161360e565b985060608c01359150808211156139ad578586fd5b506139ba8c828d01613542565b96505060808a0135945060a08a013593506139d760c08b01613537565b925060e08a013591506101008a013590509295985092959850929598565b6000806000806000806000806000806000806101808d8f031215613a17578586fd5b67ffffffffffffffff8d351115613a2c578586fd5b613a398e8e358f0161360e565b9b5067ffffffffffffffff60208e01351115613a53578586fd5b613a638e60208f01358f0161360e565b9a5067ffffffffffffffff60408e01351115613a7d578586fd5b613a8d8e60408f01358f0161360e565b995067ffffffffffffffff60608e01351115613aa7578586fd5b613ab78e60608f01358f01613542565b985060808d0135975060a08d01359650613ad360c08e01613537565b955060e08d013594506101008d01359350613af16101208e01613537565b9250613b006101408e01613537565b9150613b0f6101608e01613537565b90509295989b509295989b509295989b565b600060208284031215613b32578081fd5b5051919050565b60008060008060008060008060006101208a8c031215613b57578283fd5b8935985060208a013567ffffffffffffffff80821115613b75578485fd5b613b818d838e0161360e565b995060408c0135915080821115613b96578485fd5b613ba28d838e0161360e565b985060608c0135915080821115613bb7578485fd5b613bc38d838e0161360e565b975060808c0135915080821115613bd8578485fd5b50613be58c828d01613542565b95505060a08a0135935060c08a01359250613c0260e08b01613537565b9150613c116101008b01613537565b90509295985092959850929598565b600080600060608486031215613c34578081fd5b83359250602084013591506040840135613c4d81614444565b809150509250925092565b60008060008060808587031215613c6d578182fd5b84359350602085013592506040850135613c8681614444565b9396929550929360600135925050565b600080600080600060a08688031215613cad578283fd5b5050835160208501516040860151606087015160809097015192989197509594509092509050565b600080600080600080600080610100898b031215613cf1578182fd5b505086359860208801359850604088013597606081013597506080810135965060a0810135955060c0810135945060e0013592509050565b6000815180845260208085019450808401835b83811015613d5857815187529582019590820190600101613d3c565b509495945050505050565b60008151808452613d7b816020860160208601614403565b601f01601f19169290920160200192915050565b60008351613da1818460208801614403565b835190830190613db5818360208801614403565b01949350505050565b60008251613dd0818460208701614403565b7f2c00000000000000000000000000000000000000000000000000000000000000920191825250600101919050565b6001600160a01b0391909116815260200190565b6001600160a01b039384168152919092166020820152604081019190915260600190565b6001600160a01b03929092168252602082015260400190565b6001600160a01b0394909416845260208401929092526040830152606082015260800190565b600060408252613e896040830185613d29565b8281036020840152613e9b8185613d29565b95945050505050565b901515815260200190565b90815260200190565b600f9190910b815260200190565b600060a08201600f88810b8452602060a08186015282895180855260c087019150828b019450855b81811015613f0c578551850b83529483019491830191600101613eee565b50509790910b6040850152505050606081019290925260809091015292915050565b6000610100808352613f428184018c613d63565b90508281036020840152613f56818b613d63565b90508281036040840152613f6a818a613d63565b90508281036060840152613f7e8189613d63565b6080840197909752505060a08101939093526001600160a01b0391821660c08401521660e090910152949350505050565b60208082526014908201527f5573657220616c726561647920636c61696d6564000000000000000000000000604082015260600190565b60208082526014908201527f4d61726b657420616c726561647920656e646564000000000000000000000000604082015260600190565b60208082526011908201527f4d696e20616d6f756e7420726561636821000000000000000000000000000000604082015260600190565b60208082526019908201527f496e76616c6964207573657220636c61696d20616d6f756e7400000000000000604082015260600190565b60208082526012908201527f4d61726b6574206e6f7420737461727465640000000000000000000000000000604082015260600190565b60208082526013908201527f4f6e6c79204d61726b65742043726561746f7200000000000000000000000000604082015260600190565b6020808252600b908201527f4f6e6c792043616c6c6572000000000000000000000000000000000000000000604082015260600190565b60208082526017908201527f4163636f756e7420616c726561647920636c61696d6564000000000000000000604082015260600190565b60208082526016908201527f536561736f6e206d617820746f6b656e206d696e747300000000000000000000604082015260600190565b60208082526011908201527f4d617820616d6f756e7420726561636821000000000000000000000000000000604082015260600190565b60208082526012908201527f536561736f6e206e6f7420737461727465640000000000000000000000000000604082015260600190565b6020808252600a908201527f4f6e6c792041646d696e00000000000000000000000000000000000000000000604082015260600190565b60208082526017908201527f536561736f6e206d617820746f6b656e20636c61696d73000000000000000000604082015260600190565b60208082526014908201527f536561736f6e20616c726561647920656e646564000000000000000000000000604082015260600190565b9182526001600160a01b0316602082015260400190565b9485526001600160a01b0393909316602085015260408401919091526060830152608082015260a00190565b918252600f0b602082015260400190565b928352600f9190910b60208301526001600160a01b0316604082015260600190565b918252602082015260400190565b92835260208301919091526001600160a01b0316604082015260600190565b600087825286602083015285604083015284606083015283608083015260c060a083015261438560c0830184613d29565b98975050505050505050565b968752602087019590955260408601939093526060850191909152608084015260a083015260c082015260e00190565b60405181810167ffffffffffffffff811182821017156143dd57fe5b604052919050565b600067ffffffffffffffff8211156143f957fe5b5060209081020190565b60005b8381101561441e578181015183820152602001614406565b83811115612f535750506000910152565b6001600160a01b0381168114610d9a57600080fd5b80600f0b8114610d9a57600080fdfe456e756d657261626c655365743a20696e646578206f7574206f6620626f756e6473416363657373436f6e74726f6c3a2073656e646572206d75737420626520616e2061646d696e20746f206772616e74416363657373436f6e74726f6c3a2073656e646572206d75737420626520616e2061646d696e20746f207265766f6b65a49807205ce4d355092ef5a8a18f56e8913cf4a201fbe287825b095693c217755361666545524332303a204552433230206f7065726174696f6e20646964206e6f742073756363656564416363657373436f6e74726f6c3a2063616e206f6e6c792072656e6f756e636520726f6c657320666f722073656c66a2646970667358221220c608313b64552bb200bb9e953809a02778957ba1f01973bd5623642496cb2cf864736f6c63430007060033a49807205ce4d355092ef5a8a18f56e8913cf4a201fbe287825b095693c21775",
  "devdoc": {
    "author": "Marto (https://github.com/0xMarto)",
    "details": "Feel free to make any adjustments to the code (DMs are open @0xMarto)",
    "kind": "dev",
    "methods": {
      "getRoleAdmin(bytes32)": {
        "details": "Returns the admin role that controls `role`. See {grantRole} and {revokeRole}. To change a role's admin, use {_setRoleAdmin}."
      },
      "getRoleMember(bytes32,uint256)": {
        "details": "Returns one of the accounts that have `role`. `index` must be a value between 0 and {getRoleMemberCount}, non-inclusive. Role bearers are not sorted in any particular way, and their ordering may change at any point. WARNING: When using {getRoleMember} and {getRoleMemberCount}, make sure you perform all queries on the same block. See the following https://forum.openzeppelin.com/t/iterating-over-elements-on-enumerableset-in-openzeppelin-contracts/2296[forum post] for more information."
      },
      "getRoleMemberCount(bytes32)": {
        "details": "Returns the number of accounts that have `role`. Can be used together with {getRoleMember} to enumerate all bearers of a role."
      },
      "grantRole(bytes32,address)": {
        "details": "Grants `role` to `account`. If `account` had not been already granted `role`, emits a {RoleGranted} event. Requirements: - the caller must have ``role``'s admin role."
      },
      "hasRole(bytes32,address)": {
        "details": "Returns `true` if `account` has been granted `role`."
      },
      "marketAccountShares(uint256,address)": {
        "details": "Helper function to show market info about an specific account",
        "params": {
          "account": "The address of the account with shares of the market",
          "marketId": "unique market identifier to trade"
        },
        "returns": {
          "balances": "Account shares balances by outcome",
          "buys": "Total amount of Buys in the market",
          "deposited": "Total amount of collateral deposited in the market",
          "redeemed": "Total amount of collateral redeemed from the market",
          "sells": "Total amount of Sells in the market",
          "withdrew": "Total amount of collateral withdrew from the market"
        }
      },
      "marketBuy(uint256,uint256,int128,uint256)": {
        "params": {
          "marketId": "unique market identifier to trade",
          "maxAmountIn": "Max amount of tokens able to spend in this trade (front-run mitigation)",
          "outcome": "The outcome of which shares are being bought (e.g.: 1 for YES, 2 for NO)",
          "sharesAmount": "Number of outcome shares to buy (as a signed 64.64-bit fixed point number)"
        },
        "returns": {
          "amountIn": "Token amount used for buying the specified amount of shares"
        }
      },
      "marketBuyPrice(uint256,uint256,int128)": {
        "params": {
          "marketId": "unique market identifier to trade",
          "outcome": "The outcome for which tokens are being bought",
          "sharesAmount": "Number of outcome shares to buy (as signed 64.64-bit fixed point number)"
        },
        "returns": {
          "tokenCost": "The token cost amount (as a signed 64.64-bit fixed point number)"
        }
      },
      "marketPrices(uint256)": {
        "details": "Helper function to fast calculate market prediction and spreads",
        "params": {
          "marketId": "unique market identifier to trade"
        },
        "returns": {
          "buyPrices": "buy price of 1 share for all outcomes (indexed by outcome)",
          "sellPrices": "sell price of 1 share for all outcomes (indexed by outcome)"
        }
      },
      "marketRedeemShares(uint256)": {
        "params": {
          "marketId": "unique market identifier to trade"
        },
        "returns": {
          "shares": "Number of shares redeemed"
        }
      },
      "marketResultInfo(uint256)": {
        "details": "Helper function to show closed market info",
        "params": {
          "marketId": "unique market identifier to trade"
        },
        "returns": {
          "closed": "Timestamp when the market result was reported",
          "reporter": "Address of the market result reporter (market oracle)",
          "result": "Reported market result outcome"
        }
      },
      "marketSell(uint256,uint256,int128,uint256)": {
        "params": {
          "marketId": "unique market identifier to trade",
          "minAmountOut": "Min amount of tokens to obtain in this trade (front-run mitigation)",
          "outcome": "The outcome of which shares are being sold (e.g.: 1 for YES, 2 for NO)",
          "sharesAmount": "Number of outcome shares to sell (as a signed 64.64-bit fixed point number)"
        },
        "returns": {
          "amountOut": "Token amount obtain from selling the specified amount of shares"
        }
      },
      "marketSellPrice(uint256,uint256,int128)": {
        "params": {
          "marketId": "unique market identifier to trade",
          "outcome": "The outcome for which shares are being sold",
          "sharesAmount": "The number of outcome shares to sell (as signed 64.64-bit fixed point number)"
        },
        "returns": {
          "tokenReturn": "The token return amount (as a signed 64.64-bit fixed point number)"
        }
      },
      "marketSharesInfo(uint256)": {
        "details": "Helper function to show general market shares info",
        "params": {
          "marketId": "unique market identifier to trade"
        },
        "returns": {
          "cost": "Current liquidity of the market",
          "sharesBalances": "All shares balances (indexed by outcome)",
          "totalBuys": "Buys counter of the market",
          "totalSells": "Sells counter of the market",
          "totalShares": "Current total shares minted for all outcomes of the market"
        }
      },
      "renounceRole(bytes32,address)": {
        "details": "Revokes `role` from the calling account. Roles are often managed via {grantRole} and {revokeRole}: this function's purpose is to provide a mechanism for accounts to lose their privileges if they are compromised (such as when a trusted device is misplaced). If the calling account had been granted `role`, emits a {RoleRevoked} event. Requirements: - the caller must be `account`."
      },
      "revokeRole(bytes32,address)": {
        "details": "Revokes `role` from `account`. If `account` had been granted `role`, emits a {RoleRevoked} event. Requirements: - the caller must have ``role``'s admin role."
      }
    },
    "title": "PrecogMaster: Manager of prediction markets and Precog token claims",
    "version": 1
  },
  "userdoc": {
    "kind": "user",
    "methods": {
      "hasClaimed(address,uint256)": {
        "notice": "Helper function to check if some account has already claim current season tokens"
      },
      "hasRedeemedShares(uint256,address)": {
        "notice": "Helper function to check if some account has already redeemed market shares"
      },
      "isClosedMarket(uint256)": {
        "notice": "Helper function to check market close state"
      },
      "marketAccountShares(uint256,address)": {
        "notice": "Gets market account shares summary of the desired market"
      },
      "marketBuy(uint256,uint256,int128,uint256)": {
        "notice": "Buys shares for the specified outcome in the desired market"
      },
      "marketBuyPrice(uint256,uint256,int128)": {
        "notice": "Gets the cost of buying the specified amount of outcome shares in the desired market"
      },
      "marketPrices(uint256)": {
        "notice": "Gets market buy and sell prices for all outcomes in the desired market"
      },
      "marketRedeemShares(uint256)": {
        "notice": "Redeems the total sender shares in the desired market"
      },
      "marketResultInfo(uint256)": {
        "notice": "Gets market result summary of the desired market"
      },
      "marketSell(uint256,uint256,int128,uint256)": {
        "notice": "Sells shares for the specified outcome in the desired market"
      },
      "marketSellPrice(uint256,uint256,int128)": {
        "notice": "Gets the return from selling the specified amount of outcome shares in the desired market"
      },
      "marketSharesInfo(uint256)": {
        "notice": "Gets the current market state info"
      }
    },
    "version": 1
  },
  "storageLayout": {
    "storage": [
      {
        "astId": 22,
        "contract": "contracts/PrecogMasterV7.sol:PrecogMasterV7",
        "label": "_roles",
        "offset": 0,
        "slot": "0",
        "type": "t_mapping(t_bytes32,t_struct(RoleData)18_storage)"
      },
      {
        "astId": 9036,
        "contract": "contracts/PrecogMasterV7.sol:PrecogMasterV7",
        "label": "token",
        "offset": 0,
        "slot": "1",
        "type": "t_address"
      },
      {
        "astId": 9038,
        "contract": "contracts/PrecogMasterV7.sol:PrecogMasterV7",
        "label": "oracle",
        "offset": 0,
        "slot": "2",
        "type": "t_address"
      },
      {
        "astId": 9040,
        "contract": "contracts/PrecogMasterV7.sol:PrecogMasterV7",
        "label": "market",
        "offset": 0,
        "slot": "3",
        "type": "t_address"
      },
      {
        "astId": 9042,
        "contract": "contracts/PrecogMasterV7.sol:PrecogMasterV7",
        "label": "createdMarkets",
        "offset": 0,
        "slot": "4",
        "type": "t_uint256"
      },
      {
        "astId": 9044,
        "contract": "contracts/PrecogMasterV7.sol:PrecogMasterV7",
        "label": "currentSeason",
        "offset": 0,
        "slot": "5",
        "type": "t_uint256"
      },
      {
        "astId": 9048,
        "contract": "contracts/PrecogMasterV7.sol:PrecogMasterV7",
        "label": "accountTokenClaims",
        "offset": 0,
        "slot": "6",
        "type": "t_mapping(t_address,t_struct(TokenClaim)8989_storage)"
      },
      {
        "astId": 9052,
        "contract": "contracts/PrecogMasterV7.sol:PrecogMasterV7",
        "label": "userTokenClaims",
        "offset": 0,
        "slot": "7",
        "type": "t_mapping(t_uint256,t_struct(TokenClaim)8989_storage)"
      },
      {
        "astId": 9056,
        "contract": "contracts/PrecogMasterV7.sol:PrecogMasterV7",
        "label": "miningSeasons",
        "offset": 0,
        "slot": "8",
        "type": "t_mapping(t_uint256,t_struct(MiningSeason)9004_storage)"
      },
      {
        "astId": 9060,
        "contract": "contracts/PrecogMasterV7.sol:PrecogMasterV7",
        "label": "markets",
        "offset": 0,
        "slot": "9",
        "type": "t_mapping(t_uint256,t_struct(MarketInfo)9021_storage)"
      }
    ],
    "types": {
      "t_address": {
        "encoding": "inplace",
        "label": "address",
        "numberOfBytes": "20"
      },
      "t_array(t_bytes32)dyn_storage": {
        "base": "t_bytes32",
        "encoding": "dynamic_array",
        "label": "bytes32[]",
        "numberOfBytes": "32"
      },
      "t_bytes32": {
        "encoding": "inplace",
        "label": "bytes32",
        "numberOfBytes": "32"
      },
      "t_mapping(t_address,t_struct(TokenClaim)8989_storage)": {
        "encoding": "mapping",
        "key": "t_address",
        "label": "mapping(address => struct PrecogMasterV7.TokenClaim)",
        "numberOfBytes": "32",
        "value": "t_struct(TokenClaim)8989_storage"
      },
      "t_mapping(t_bytes32,t_struct(RoleData)18_storage)": {
        "encoding": "mapping",
        "key": "t_bytes32",
        "label": "mapping(bytes32 => struct AccessControl.RoleData)",
        "numberOfBytes": "32",
        "value": "t_struct(RoleData)18_storage"
      },
      "t_mapping(t_bytes32,t_uint256)": {
        "encoding": "mapping",
        "key": "t_bytes32",
        "label": "mapping(bytes32 => uint256)",
        "numberOfBytes": "32",
        "value": "t_uint256"
      },
      "t_mapping(t_uint256,t_struct(MarketInfo)9021_storage)": {
        "encoding": "mapping",
        "key": "t_uint256",
        "label": "mapping(uint256 => struct PrecogMasterV7.MarketInfo)",
        "numberOfBytes": "32",
        "value": "t_struct(MarketInfo)9021_storage"
      },
      "t_mapping(t_uint256,t_struct(MiningSeason)9004_storage)": {
        "encoding": "mapping",
        "key": "t_uint256",
        "label": "mapping(uint256 => struct PrecogMasterV7.MiningSeason)",
        "numberOfBytes": "32",
        "value": "t_struct(MiningSeason)9004_storage"
      },
      "t_mapping(t_uint256,t_struct(TokenClaim)8989_storage)": {
        "encoding": "mapping",
        "key": "t_uint256",
        "label": "mapping(uint256 => struct PrecogMasterV7.TokenClaim)",
        "numberOfBytes": "32",
        "value": "t_struct(TokenClaim)8989_storage"
      },
      "t_string_storage": {
        "encoding": "bytes",
        "label": "string",
        "numberOfBytes": "32"
      },
      "t_struct(AddressSet)2275_storage": {
        "encoding": "inplace",
        "label": "struct EnumerableSet.AddressSet",
        "members": [
          {
            "astId": 2274,
            "contract": "contracts/PrecogMasterV7.sol:PrecogMasterV7",
            "label": "_inner",
            "offset": 0,
            "slot": "0",
            "type": "t_struct(Set)2010_storage"
          }
        ],
        "numberOfBytes": "64"
      },
      "t_struct(MarketInfo)9021_storage": {
        "encoding": "inplace",
        "label": "struct PrecogMasterV7.MarketInfo",
        "members": [
          {
            "astId": 9006,
            "contract": "contracts/PrecogMasterV7.sol:PrecogMasterV7",
            "label": "name",
            "offset": 0,
            "slot": "0",
            "type": "t_string_storage"
          },
          {
            "astId": 9008,
            "contract": "contracts/PrecogMasterV7.sol:PrecogMasterV7",
            "label": "description",
            "offset": 0,
            "slot": "1",
            "type": "t_string_storage"
          },
          {
            "astId": 9010,
            "contract": "contracts/PrecogMasterV7.sol:PrecogMasterV7",
            "label": "category",
            "offset": 0,
            "slot": "2",
            "type": "t_string_storage"
          },
          {
            "astId": 9012,
            "contract": "contracts/PrecogMasterV7.sol:PrecogMasterV7",
            "label": "outcomes",
            "offset": 0,
            "slot": "3",
            "type": "t_string_storage"
          },
          {
            "astId": 9014,
            "contract": "contracts/PrecogMasterV7.sol:PrecogMasterV7",
            "label": "startTimestamp",
            "offset": 0,
            "slot": "4",
            "type": "t_uint256"
          },
          {
            "astId": 9016,
            "contract": "contracts/PrecogMasterV7.sol:PrecogMasterV7",
            "label": "endTimestamp",
            "offset": 0,
            "slot": "5",
            "type": "t_uint256"
          },
          {
            "astId": 9018,
            "contract": "contracts/PrecogMasterV7.sol:PrecogMasterV7",
            "label": "creator",
            "offset": 0,
            "slot": "6",
            "type": "t_address"
          },
          {
            "astId": 9020,
            "contract": "contracts/PrecogMasterV7.sol:PrecogMasterV7",
            "label": "market",
            "offset": 0,
            "slot": "7",
            "type": "t_address"
          }
        ],
        "numberOfBytes": "256"
      },
      "t_struct(MiningSeason)9004_storage": {
        "encoding": "inplace",
        "label": "struct PrecogMasterV7.MiningSeason",
        "members": [
          {
            "astId": 8991,
            "contract": "contracts/PrecogMasterV7.sol:PrecogMasterV7",
            "label": "startTimestamp",
            "offset": 0,
            "slot": "0",
            "type": "t_uint256"
          },
          {
            "astId": 8993,
            "contract": "contracts/PrecogMasterV7.sol:PrecogMasterV7",
            "label": "endTimestamp",
            "offset": 0,
            "slot": "1",
            "type": "t_uint256"
          },
          {
            "astId": 8995,
            "contract": "contracts/PrecogMasterV7.sol:PrecogMasterV7",
            "label": "maxUserClaim",
            "offset": 0,
            "slot": "2",
            "type": "t_uint256"
          },
          {
            "astId": 8997,
            "contract": "contracts/PrecogMasterV7.sol:PrecogMasterV7",
            "label": "maxTotalClaim",
            "offset": 0,
            "slot": "3",
            "type": "t_uint256"
          },
          {
            "astId": 8999,
            "contract": "contracts/PrecogMasterV7.sol:PrecogMasterV7",
            "label": "maxTotalMint",
            "offset": 0,
            "slot": "4",
            "type": "t_uint256"
          },
          {
            "astId": 9001,
            "contract": "contracts/PrecogMasterV7.sol:PrecogMasterV7",
            "label": "claimedAmount",
            "offset": 0,
            "slot": "5",
            "type": "t_uint256"
          },
          {
            "astId": 9003,
            "contract": "contracts/PrecogMasterV7.sol:PrecogMasterV7",
            "label": "mintedAmount",
            "offset": 0,
            "slot": "6",
            "type": "t_uint256"
          }
        ],
        "numberOfBytes": "224"
      },
      "t_struct(RoleData)18_storage": {
        "encoding": "inplace",
        "label": "struct AccessControl.RoleData",
        "members": [
          {
            "astId": 15,
            "contract": "contracts/PrecogMasterV7.sol:PrecogMasterV7",
            "label": "members",
            "offset": 0,
            "slot": "0",
            "type": "t_struct(AddressSet)2275_storage"
          },
          {
            "astId": 17,
            "contract": "contracts/PrecogMasterV7.sol:PrecogMasterV7",
            "label": "adminRole",
            "offset": 0,
            "slot": "2",
            "type": "t_bytes32"
          }
        ],
        "numberOfBytes": "96"
      },
      "t_struct(Set)2010_storage": {
        "encoding": "inplace",
        "label": "struct EnumerableSet.Set",
        "members": [
          {
            "astId": 2005,
            "contract": "contracts/PrecogMasterV7.sol:PrecogMasterV7",
            "label": "_values",
            "offset": 0,
            "slot": "0",
            "type": "t_array(t_bytes32)dyn_storage"
          },
          {
            "astId": 2009,
            "contract": "contracts/PrecogMasterV7.sol:PrecogMasterV7",
            "label": "_indexes",
            "offset": 0,
            "slot": "1",
            "type": "t_mapping(t_bytes32,t_uint256)"
          }
        ],
        "numberOfBytes": "64"
      },
      "t_struct(TokenClaim)8989_storage": {
        "encoding": "inplace",
        "label": "struct PrecogMasterV7.TokenClaim",
        "members": [
          {
            "astId": 8982,
            "contract": "contracts/PrecogMasterV7.sol:PrecogMasterV7",
            "label": "account",
            "offset": 0,
            "slot": "0",
            "type": "t_address"
          },
          {
            "astId": 8984,
            "contract": "contracts/PrecogMasterV7.sol:PrecogMasterV7",
            "label": "user",
            "offset": 0,
            "slot": "1",
            "type": "t_uint256"
          },
          {
            "astId": 8986,
            "contract": "contracts/PrecogMasterV7.sol:PrecogMasterV7",
            "label": "claimedAmount",
            "offset": 0,
            "slot": "2",
            "type": "t_uint256"
          },
          {
            "astId": 8988,
            "contract": "contracts/PrecogMasterV7.sol:PrecogMasterV7",
            "label": "claimedTimestamp",
            "offset": 0,
            "slot": "3",
            "type": "t_uint256"
          }
        ],
        "numberOfBytes": "128"
      },
      "t_uint256": {
        "encoding": "inplace",
        "label": "uint256",
        "numberOfBytes": "32"
      }
    }
  }
}